:020000040800F2
:1000000000000520ED4A0008090800080B08000858
:100010000D0800080F080008110800080000000083
:100020000000000000000000000000004140000847
:100030001308000800000000E1400008150800084F
:100040003D4B00083D4B00083D4B00083D4B000870
:100050003D4B00083D4B00083D4B00083D4B000860
:100060003D4B00083D4B00083D4B00083D4B000850
:100070003D4B00083D4B00083D4B00083D4B000840
:100080003D4B00083D4B00083D4B00083D4B000830
:100090003D4B00083D4B00083D4B00083D4B000820
:1000A0003D4B00083D4B00083D4B00083D4B000810
:1000B0003D4B00083D4B00083D4B00083D4B000800
:1000C0003D4B00083D4B00083D4B00083D4B0008F0
:1000D0003D4B00083D4B00083D4B00083D4B0008E0
:1000E0003D4B00083D4B00083D4B00083D4B0008D0
:1000F0002D0800083D4B00083D4B00083D4B000813
:100100003D4B00083D4B00083D4B00083D4B0008AF
:100110003D4B00083D4B00083D4B00083D4B00089F
:100120003D4B00083D4B00083D4B00083D4B00088F
:100130003D4B00083D4B00083D4B00083D4B00087F
:100140003D4B00083D4B00083D4B00083D4B00086F
:100150003D4B00083D4B00083D4B00083D4B00085F
:100160003D4B00083D4B00083D4B00083D4B00084F
:100170003D4B00083D4B00083D4B000800000000CF
:100180003D4B00083D4B00083D4B00083D4B00082F
:100190003D4B00083D4B00083D4B00083D4B00081F
:1001A0003D4B00083D4B00083D4B00083D4B00080F
:1001B0003D4B00083D4B00083D4B00083D4B0008FF
:0801C0003D4B00083D4B000817
:1001D00010B5054C237833B9044B13B10448AFF381
:1001E00000800123237010BD880000200000000063
:1001F0008C55000808B5034B1BB103490348AFF306
:10020000008008BD000000008C0000208C55000814
:1002100053B94AB9002908BF00281CBF4FF0FF316D
:100220004FF0FF3000F06EB9ADF1080C6DE904CE6F
:1002300000F006F8DDF804E0DDE9022304B07047C1
:100240002DE9F047089D04468C46002B40F0838042
:100250008A42174647D9B2FA82F242B1C2F120006F
:1002600024FA00F09140974040EA010C94404FEA94
:100270001748230CBCFBF8F61FFA87FE08FB16C1D3
:1002800043EA014306FB0EF1994209D9FB1806F136
:10029000FF3080F01981994240F21681023E3B44C2
:1002A0005B1AA4B2B3FBF8F008FB103344EA034432
:1002B00000FB0EFEA64509D93C1900F1FF3380F082
:1002C0000581A64540F2028102383C4440EA0640DE
:1002D000A4EB0E0400261DB1D4400023C5E9004361
:1002E0003146BDE8F08702B9FFDEB2FA82F2002A99
:1002F00050D1CB1B4FEA174E1FFA87F80126B3FBEC
:10030000FEFC210C0EFB1C3341EA034108FB0CF3FD
:100310008B4207D979180CF1FF3002D28B4200F2E0
:10032000E9808446C91AA3B2B1FBFEF00EFB10119E
:1003300043EA014408FB00F8A04507D93C1900F145
:10034000FF3302D2A04500F2D9801846A4EB08047E
:1003500040EA0C40BFE78B4209D9002D00F0B18084
:100360000026C5E9000130463146BDE8F087B3FA02
:1003700083F6002E4AD18B4202D3824200F2B8802B
:10038000841A61EB030101208C46002DA8D0C5E939
:10039000004CA5E7C2F1200320FA03F6974001FACA
:1003A00002F04FEA174ED9403043030CB1FBFEF682
:1003B0001FFA87F80EFB161143EA014306FB08F10A
:1003C000994204FA02F409D9FB1806F1FF3C80F0C7
:1003D0008D80994240F28A80023E3B445B1A81B292
:1003E000B3FBFEF00EFB103341EA034100FB08F3C0
:1003F0008B4207D9791800F1FF3C73D28B4271D937
:1004000002383944CB1A40EA064678E7C6F1200C98
:1004100003FA06F422FA0CF31C4320FA0CF701FA53
:1004200006F34FEA144E21FA0CF11F433B0CB1FBCB
:10043000FEF91FFA84F80EFB191143EA014109FB8A
:1004400008FA8A4502FA06F200FA06F308D961189A
:1004500009F1FF3048D28A4546D9A9F10209214461
:10046000A1EB0A01BFB2B1FBFEF00EFB101147EA8F
:10047000014700FB08F8B84507D9E71900F1FF313B
:100480002ED2B8452CD90238274440EA0940A7EBC0
:100490000807A0FB02894F45C64649461AD317D024
:1004A0005DB1B3EB0E0267EB010707FA0CFCF240FB
:1004B0004CEA0202F740C5E9002700263146BDE8B4
:1004C000F0872E4628460BE70646E9E61846FDE685
:1004D0004345E5D2B8EB020E69EB04010138DFE7D2
:1004E0000846D2E760468DE78146B9E7664675E77C
:1004F00030464AE7ACF1020C394413E702383C4479
:1005000024E700BF704700BF224B9A6842F40062A4
:100510009A609A6842F480529A609A6842F48062C3
:100520009A60DA6842F00102DA609A6842F00102E9
:100530009A609A6842F002029A609A6842F0040255
:100540009A609A6842F008029A609A6842F0100233
:100550009A609A6842F020029A60DA6842F00202D9
:10056000DA60DA6842F48032DA60DA6842F4003243
:10057000DA60DA6842F48022DA609A6842F0400277
:100580009A609A6842F080029A609A6842F4807297
:100590009A607047002004E010B500242146054809
:1005A00004F046F9012000F03BFA052003F046FF75
:1005B0000134F3E7A455000810B50024214605488E
:1005C00004F036F9002000F02BFA642003F036FF27
:1005D0000134F3E7C055000808B5022000F000FA26
:1005E00072B6FEE700B595B03022002108A804F0ED
:1005F000D9FA00230393049305930693079301F01C
:10060000D7FA234B1A6C42F080521A641B6C03F029
:1006100080530193019B1F4B1A6842F440421A60B9
:100620001B6803F440430293029B012308934FF499
:10063000A023099302230E934FF480020F92082205
:1006400010924FF4D872119212930923139308A8B1
:1006500000F0AAFAB0B901F0B3FAA8B90F230393D6
:1006600002230493002305934FF4A05306934FF401
:1006700080530793072103A800F016FD30B915B089
:100680005DF804FBFFF7A8FFFFF7A6FFFFF7A4FF45
:10069000003802400070004010B584B0BFF34F8FA7
:1006A000BFF36F8F394B0021C3F85012BFF34F8F48
:1006B000BFF36F8F5A6942F400325A61BFF34F8F14
:1006C000BFF36F8FC3F88410BFF34F8FD3F8804010
:1006D000C4F34E3000E01846C4F3C90243F6E07399
:1006E00003EA401343EA82732849C1F86032134693
:1006F000013A002BF2D1431E0028ECD1BFF34F8FFB
:100700000C464B6943F480334B61BFF34F8FBFF30B
:100710006F8F00F0B9F9E26822F4E0621204120C63
:100720001B4B1343E360FFF75DFFFFF7EDFE194B33
:100730001A6B42F002021A631B6B03F0020303936D
:10074000039B022000F014F9002000F011F90120B1
:1007500000F00EF943F69823009300231A46012176
:10076000084604F009F80C4A00210C4803F0FAFD91
:100770000B4B18600B4A00210B4803F0F3FD0B4BA9
:10078000186003F0ADFD03F0C9FDFEE700ED00E0E9
:100790000003FA050038024010560008B9050008A9
:1007A000E08D0020EC55000899050008E48D00203C
:1007B00008B500230A4A13600A480B4A02604360E6
:1007C000836040F23742C2600361836101F0BCF98B
:1007D00018B9044801F018F808BDFFF7FDFEF8E766
:1007E000E88D0020EC8D0020001C0040014B1868B3
:1007F000704700BFE88D002008B5024804F018F8E3
:10080000FEE700BF345600087047FEE7FEE7FEE74C
:10081000FEE7704708B500F04DF903F04DF80128E8
:1008200000D108BD03F08EFCFBE7000008B5044AC8
:10083000136801331360034801F033F808BD00BFAB
:10084000E88D0020EC8D002000B583B00D4B1A6CB4
:1008500042F080521A641A6C02F080520092009AA0
:100860005A6C42F480425A645B6C03F480430193F7
:10087000019B00220F216FF0010000F03FF903B04F
:100880005DF804FB0038024002680E4B9A4200D02B
:10089000704700B583B003F507331A6C42F080024D
:1008A0001A641B6C03F080030193019B0022062154
:1008B0002C2000F023F92C2000F052F903B05DF851
:1008C00004FB00BF001C004030B5ABB00446002163
:1008D00025912691279128912991842204A804F03A
:1008E00061F92268204B9A4201D02BB030BD1F4CD9
:1008F000236B43F008032363236B03F00803019386
:10090000019B236B43F008032363236B03F008036D
:100910000293029B402304930125159504A800F03F
:100920009FFC236C43F480232364236C03F4802313
:100930000393039B4FF4007325930223269327957B
:100940000323289307252995A4F5305425A920468B
:1009500001F086FC4FF480732593299525A9204644
:1009600001F07EFCC1E700BF0048004000380240B3
:10097000F0B589B0044608BB164B1A6B42F0020270
:100980001A631B6B03F002030193019B124B33F8B4
:10099000146003960123049300270597032306930D
:1009A0000E4D03A955F8240001F05AFC3A46314691
:1009B00055F8240001F044FD09B0F0BD054B1A6B59
:1009C00042F002021A631B6B03F002030293029BC4
:1009D000DCE700BF00380240585600080000002045
:1009E00008B50122044B33F81010044B53F82000D3
:1009F00001F026FD08BD00BF585600080000002089
:100A000008B50022044B33F81010044B53F82000B3
:100A100001F016FD08BD00BF585600080000002078
:100A200008B5044B33F81010034B53F8200001F0C5
:100A30000DFD08BD585600080000002010B5044602
:100A40000E4B18784FF47A73B3FBF0F30C4A10682E
:100A5000B0FBF3F000F092F868B90F2C01D9012037
:100A60000AE0002221464FF0FF3000F047F8054B26
:100A70001C60002000E0012010BD00BF0C00002021
:100A8000140000201000002008B5094B1A6842F439
:100A900000721A601A6842F480721A60032000F033
:100AA0001BF80F20FFF7CAFFFFF7CEFE002008BD9E
:100AB000003C0240034A1168034B1B780B4413604F
:100AC000704700BF388E00200C000020014B1868D2
:100AD000704700BF388E00200649CB6823F4E063DE
:100AE0001B041B0C000200F4E0600343024A1A439B
:100AF000CA60704700ED00E00000FA0530B4154B05
:100B0000DB68C3F30223C3F10704042C28BF0424C9
:100B10001D1D062D14D9033B4FF0FF3505FA04F4D3
:100B200021EA0401994005FA03F322EA0303194379
:100B3000002807DB0901C9B2074B195430BC7047C4
:100B40000023E9E700F00F000901C9B2034B195473
:100B5000F4E700BF00ED00E000E400E014ED00E089
:100B6000002807DB00F01F02400901239340024ADE
:100B700042F82030704700BF00E100E00138B0F1DA
:100B8000807F0AD2064B5860064AF02182F8231073
:100B90000020986007221A6070470120704700BF4C
:100BA00010E000E000ED00E0002800F0FF8170B5EB
:100BB00082B00446036813F0010F29D0A74B9B684D
:100BC00003F00C03042B1AD0A44B9B6803F00C0316
:100BD000082B0FD06368B3F5803F40D0002B54D171
:100BE0009E4B1A6822F480321A601A6822F480221E
:100BF0001A6039E0994B5B6813F4800FEAD0974B89
:100C00001B6813F4003F03D06368002B00F0D08111
:100C1000236813F0020F74D0904B9B6813F00C0FF5
:100C20005ED08E4B9B6803F00C03082B53D0E36817
:100C3000002B00F08980894A136843F00103136098
:100C4000FFF744FF0546854B1B6813F0020F72D176
:100C5000FFF73CFF401B0228F5D90320ADE17F4A96
:100C6000136843F48033136063682BB3FFF72EFFE0
:100C700005467A4B1B6813F4003FC9D1FFF726FFE6
:100C8000401B6428F5D9032097E1B3F5A02F09D0C4
:100C9000724B1A6822F480321A601A6822F4802299
:100CA0001A60E1E76D4B1A6842F480221A601A68F4
:100CB00042F480321A60D7E7FFF708FF0546674B1A
:100CC0001B6813F4003FA3D0FFF700FF401B64280C
:100CD000F5D9032071E1614B5B6813F4800FA6D155
:100CE0005E4B1B6813F0020F03D0E368012B40F04A
:100CF00061815A4A136823F0F803216943EAC1036A
:100D00001360236813F0080F46D0636983B3534A16
:100D1000536F43F001035367FFF7D8FE05464F4B6F
:100D20005B6F13F0020F37D1FFF7D0FE401B022894
:100D3000F5D9032041E1494A136823F0F8032169FA
:100D400043EAC1031360DCE7444A136823F001035C
:100D50001360FFF7BBFE0546404B1B6813F0020F04
:100D6000CFD0FFF7B3FE401B0228F5D9032024E1C2
:100D70003A4A536F23F001035367FFF7A7FE054676
:100D8000364B5B6F13F0020F06D0FFF79FFE401B40
:100D90000228F5D9032010E1236813F0040F7DD059
:100DA0002E4B1B6C13F0805F0BD12C4B1A6C42F056
:100DB00080521A641B6C03F080530193019B012540
:100DC00000E00025264B1B6813F4807F0ED0A3683B
:100DD000012B1FD0002B35D1204B1A6F22F00102BE
:100DE0001A671A6F22F004021A6718E01C4A136887
:100DF00043F480731360FFF769FE0646184B1B68C7
:100E000013F4807FE3D1FFF761FE801B6428F5D9DE
:100E10000320D2E0114A136F43F001031367A36864
:100E200053B3FFF753FE06460C4B1B6F13F0020F34
:100E300033D1FFF74BFE801B41F288339842F3D940
:100E40000320BAE0052B0DD0044B1A6F22F00102EB
:100E50001A671A6F22F004021A67E0E700380240AE
:100E6000007000405C4B1A6F42F004021A671A6F60
:100E700042F001021A67D2E7FFF728FE0646564BFA
:100E80001B6F13F0020F08D0FFF720FE801B41F20A
:100E900088339842F3D903208FE0FDB9A369002B72
:100EA00000F08A804C4A926802F00C02082A58D05E
:100EB000022B19D0484A136823F080731360FFF7A0
:100EC00005FE0446444B1B6813F0007F47D0FFF734
:100ED000FDFD001B0228F5D903206EE03E4A136C8D
:100EE00023F080531364D9E73B4A136823F08073DF
:100EF0001360FFF7EBFD0546374B1B6813F0007FCF
:100F000006D0FFF7E3FD401B0228F5D9032054E08B
:100F1000E369226A1343626A43EA8213A26A5208AF
:100F2000013A43EA0243E26A43EA026343F00053B0
:100F3000294A5360136843F080731360FFF7C6FDBE
:100F40000446254B1B6813F0007F06D1FFF7BEFD5A
:100F5000001B0228F5D903202FE000202DE00020FF
:100F60002BE01D4A5268012B29D002F48003E1696D
:100F70008B4226D102F03F03216A8B4223D1616A62
:100F800047F6C0731340B3EB811F1ED102F440310A
:100F9000A36A5B08013BB1EB034F18D102F070620A
:100FA000E36AB2EB036F14D1002006E00120704722
:100FB000012002E0012000E0002002B070BD01200D
:100FC000FBE70120F9E70120F7E70120F5E7012021
:100FD000F3E70120F1E700BF00380240F8B52F4BDE
:100FE0009B6803F00C03042B53D0082B53D12B4BDD
:100FF0005A6802F03F025B6813F4800F28D0274B39
:101000005B68C3F3881358010021C01A61F1000125
:101010008E0146EA906687013C1A66EB0105E900FD
:1010200041EA5471E000C01841F100014B0243EA6B
:10103000D0534402204619460023FFF7E9F8174B26
:101040005B68C3F3014301335B00B0FBF3F023E0C3
:10105000124B5B68C3F388135C010025E41A65F149
:101060000005AE0146EA9466A701381B66EB050150
:10107000CC0044EA5074C500E81844F100018B022A
:1010800043EA90538402204619460023FFF7C0F834
:10109000D5E7034800E00348F8BD00BF0038024030
:1010A00000127A000024F400002800F0A08070B53F
:1010B0000D460446524B1B6803F00F038B420BD2C4
:1010C0004F4A136823F00F030B431360136803F0B8
:1010D0000F038B4240F08D80236813F0020F17D06E
:1010E00013F0040F04D0474A936843F4E05393602D
:1010F000236813F0080F04D0424A936843F4604316
:101100009360404A936823F0F003A1680B43936017
:10111000236813F0010F31D06368012B20D0022B1C
:1011200025D0384A126812F0020F64D035498A6817
:1011300022F0030213438B60FFF7C8FC0646314BD5
:101140009B6803F00C036268B3EB820F16D0FFF7C5
:10115000BDFC801B41F288339842F0D9032045E062
:10116000284A126812F4003FE0D101203EE0254AEF
:10117000126812F0007FD9D1012037E0204B1B68A4
:1011800003F00F03AB420AD91D4A136823F00F0383
:101190002B431360136803F00F03AB422DD1236878
:1011A00013F0040F06D0174A936823F4E053E16864
:1011B0000B439360236813F0080F07D0114A93681C
:1011C00023F46043216943EAC1039360FFF706FFFC
:1011D0000C4B9B68C3F303130B4AD35CD8400B4BF7
:1011E00018600B4B1868FFF729FC002070BD012028
:1011F00070470120FAE70120F8E70120F6E700BF79
:10120000003C0240003802406056000814000020F4
:1012100010000020014B1868704700BF1400002028
:1012200008B5FFF7F7FF044B9B68C3F38223034A1B
:10123000D35CD84008BD00BF00380240705600089B
:1012400008B5FFF7E7FF044B9B68C3F34233034A3B
:10125000D35CD84008BD00BF00380240705600087B
:10126000F0B583B00446066816F001060DD0B64B03
:101270009A6822F400029A609A68416B0A439A6065
:10128000436B002B00F039810026256815F40025FA
:1012900011D0AD4AD2F88C3023F44013E16B0B43EC
:1012A000C2F88C30E36BB3F5801F00F02881002B6F
:1012B00000F027810025236813F4801F0FD0A24A75
:1012C000D2F88C3023F44003216C0B43C2F88C30ED
:1012D000236CB3F5800F00F0168103B90125236854
:1012E00013F0807F00D0012613F0200F40F00D8115
:1012F000236813F0100F0CD0934BD3F88C2022F0FE
:101300008072C3F88C20D3F88C20A16B0A43C3F8F9
:101310008C20236813F4804F08D08B4AD2F8903089
:1013200023F44033616E0B43C2F89030236813F40A
:10133000004F08D0844AD2F8903023F44023A16EA5
:101340000B43C2F89030236813F4803F08D07E4AE4
:10135000D2F8903023F44013E16E0B43C2F8903082
:10136000236813F4003F08D0774AD2F8903023F472
:101370004003216F0B43C2F89030236813F0400FF5
:1013800008D0714AD2F8903023F00303616C0B430C
:10139000C2F89030236813F0800F08D06A4AD2F860
:1013A000903023F00C03A16C0B43C2F890302368FB
:1013B00013F4807F08D0644AD2F8903023F03003D1
:1013C000E16C0B43C2F89030236813F4007F08D01F
:1013D0005D4AD2F8903023F0C003216D0B43C2F870
:1013E0009030236813F4806F08D0574AD2F89030B9
:1013F00023F44073616D0B43C2F89030236813F4FB
:10140000006F08D0504AD2F8903023F44063A16DA9
:101410000B43C2F89030236813F4805F08D04A4A27
:10142000D2F8903023F44053E16D0B43C2F8903072
:10143000236813F4005F08D0434AD2F8903023F4B5
:101440004043216E0B43C2F89030236813F4800FA1
:1014500008D03D4AD2F8903023F08063A16F0B434F
:10146000C2F89030236813F4001F0DD0364AD2F82A
:10147000903023F00063E16F0B43C2F89030E36FCC
:10148000B3F1006F00F0AC80236813F0080F00D0B8
:10149000012513F4802F08D02B4AD2F8903023F086
:1014A0004073616F0B43C2F89030236813F4000F50
:1014B00009D0254AD2F8903023F08053D4F8801018
:1014C0000B43C2F8903026B9236813F0007F00F078
:1014D00007811D4A136823F080631360FFF7F6FA53
:1014E0000646194B1B6813F0006F7BD0FFF7EEFA2E
:1014F000801B6428F5D90320F5E00126C5E6012606
:10150000D5E60125D7E60126E7E60F4B1A6C42F037
:1015100080521A641B6C03F080530193019B0B4AA9
:10152000136843F480731360FFF7D0FA0746074B44
:101530001B6813F4807F0BD1FFF7C8FAC01B642827
:10154000F5D90320CFE000BF003802400070004012
:10155000AB4B1B6F13F4407315D0226B02F4407237
:101560009A4210D0A64B1A6F22F44072196F41F4C0
:1015700080311967196F21F4803119671A671B6F61
:1015800013F0010F12D1236B03F44072B2F5407FC8
:101590001DD09B4A936823F4F813936098490B6F0E
:1015A000226BC2F30B0213430B67A1E6FFF78EFA1F
:1015B0000746934B1B6F13F0020FE4D1FFF786FA37
:1015C000C01B41F288339842F3D903208BE08C484A
:1015D000826822F4F8128B4919400A438260DDE7E1
:1015E000012551E7236813F0010F13D0636B8BB90A
:1015F000834AD2F88430D2F88410606803F4403310
:1016000043EA801301F070610B43A16843EA017360
:10161000C2F88430236813F4002F03D0E26BB2F5D4
:10162000801F06D013F4801F1ED0236CB3F5800FEB
:101630001AD1734AD2F88430D2F88410606803F467
:10164000403343EA8013E06843EA006301F0E0417D
:101650000B43C2F88430D2F88C3023F01F03616A48
:1016600001390B43C2F88C30236813F0807F11D00E
:10167000634AD2F88400D2F88410666823691B0498
:1016800043EA861300F07060034301F0E0410B432E
:10169000C2F88430236813F0007F0DD0626823699C
:1016A0001B0443EA8213E26843EA0263A26843EA46
:1016B0000273534AC2F88430514A136843F080637E
:1016C0001360FFF703FA06464D4B1B6813F0006FDB
:1016D00006D1FFF7FBF9801B6428F5D9032002E04F
:1016E000012D02D0002003B0F0BD454A136823F05D
:1016F00080531360FFF7EAF90546414B1B6813F06E
:10170000005F06D0FFF7E2F9401B6428F5D90320FB
:10171000E9E7236813F4002F01D0E26B22B113F440
:10172000801F1DD0236CDBB9354AD2F88830D2F83F
:101730008810606903F4403343EA8013A06943EAE8
:10174000006301F0E0410B43C2F88830D2F88C30DE
:1017500023F4F853A16A013943EA0123C2F88C301B
:10176000236813F4001F03D0E36FB3F1006F31D08F
:10177000236813F0080F19D0214AD2F88810D2F844
:101780008830606903F4403343EA801301F07061EC
:101790000B43E16943EA0173C2F88830D2F88C3018
:1017A00023F44033E16A0B43C2F88C30144A1368C7
:1017B00043F080531360FFF789F90446104B1B6810
:1017C00013F0005F19D1FFF781F9001B6428F5D9E8
:1017D000032088E70A4AD2F88800D2F888106569A1
:1017E000236A1B0443EA851300F07060034301F091
:1017F000E0410B43C2F88830BAE7002073E700BF2E
:1018000000380240FFFCFF0F90F83D30DBB2012BA7
:101810003AD1022380F83D300268D36843F00103D7
:10182000D36003681A4AB3F1804F18BF93421DD0AA
:10183000A2F57C42934219D002F58062934215D002
:1018400002F58062934211D002F5784293420DD0A6
:1018500002F57052934209D0A2F59432934205D01A
:101860001A6842F001021A60002070479968094A1C
:101870000A40062A18BFB2F5803F07D01A6842F026
:1018800001021A6000207047012070470020704755
:101890000000014007000100704770477047704723
:1018A000704710B5044603681A6912F0020F11D090
:1018B000DA6812F0020F0DD06FF002021A610123F4
:1018C000037703689B6913F0030F79D0FFF7E6FFF6
:1018D0000023237723681A6912F0040F12D0DA6804
:1018E00012F0040F0ED06FF004021A610223237766
:1018F00023689B6913F4407F68D02046FFF7CEFF32
:101900000023237723681A6912F0080F12D0DA68CF
:1019100012F0080F0ED06FF008021A61042323772B
:101920002368DB6913F0030F57D02046FFF7B6FF9B
:101930000023237723681A6912F0100F12D0DA6897
:1019400012F0100F0ED06FF010021A6108232377E7
:101950002368DB6913F4407F46D02046FFF79EFFE3
:101960000023237723681A6912F0010F03D0DA6885
:1019700012F0010F3FD123681A6912F0800F03D0D3
:10198000DA6812F0800F3DD123681A6912F4807F63
:1019900003D0DA6812F0800F3BD123681A6912F085
:1019A000400F03D0DA6812F0400F39D123681A696A
:1019B00012F0200F03D0DA6812F0200F37D110BDDB
:1019C000FFF76BFF2046FFF76AFF81E72046FFF72E
:1019D00064FF2046FFF763FF92E72046FFF75DFFB5
:1019E0002046FFF75CFFA3E72046FFF756FF20469F
:1019F000FFF755FFB4E76FF001021A612046FFF7C9
:101A00004BFFB8E76FF080021A61204600F0CDF876
:101A1000BAE76FF480721A61204600F0C7F8BCE79D
:101A20006FF040021A612046FFF73AFFBEE76FF001
:101A300020021A61204600F0B7F8C0E770B40368CE
:101A40003A4CA04214BF00240124B0F1804F14BFCF
:101A5000224644F00102AAB9354DA84214BF002520
:101A60000125344EB0420DD065B905F1804505F52C
:101A70008235A84214BF0025012506F50066B04254
:101A800000D01DB123F070034D682B43002A33D1E1
:101A9000274A904214BF00220122264DA8422BD093
:101AA00052BB02F1804202F58232904214BF002202
:101AB000012205F50065A8421ED0EAB91E4A9042EF
:101AC00014BF0022012205F59A35A84214D09AB914
:101AD0001A4A904214BF0022012205F50065A8426F
:101AE0000AD04AB9164A904214BF00220122A5F535
:101AF0009635A84200D01AB123F44073CA68134344
:101B000023F080034A69134303608A68C2620A684B
:101B100082620C4B984214BF234644F001030BB180
:101B20000B6903630123436170BC704700000140EF
:101B3000000800400004004000440140001800403C
:101B4000002000400004014060B310B5044690F846
:101B50003D3013B3022384F83D30214651F8040B85
:101B6000FFF76CFF012384F8483084F83E3084F896
:101B70003F3084F8403084F8413084F8423084F8B3
:101B8000433084F8443084F8453084F8463084F893
:101B9000473084F83D30002010BD80F83C30FEF71F
:101BA00073FED7E701207047704770477047000009
:101BB000024A136843F4807313607047007000405A
:101BC00010B582B01B4B1A6C42F080521A641B6C29
:101BD00003F080530193019B174A136843F4803349
:101BE0001360FEF773FF0446134B5B6813F4803FEA
:101BF00008D1FEF76BFF001BB0F57A7FF4D9032004
:101C000002B010BD0C4A136843F400331360FEF7B2
:101C10005DFF0446084B5B6813F4003F07D1FEF7F5
:101C200055FF001BB0F57A7FF4D90320E8E70020C8
:101C3000E6E700BF003802400070004010B50446DF
:101C400083680269134342691343C26913430168FD
:101C50000868A04A024013430B602268536823F4CB
:101C60004053E1680B435360A269236A1A43216819
:101C70008B6823F4306313438B602368964A934246
:101C800019D0964A934229D0954A93423ED0954A1C
:101C9000934262D0944A934271D0944A934200F0A6
:101CA0008380934A934200F09480924A934200F0DA
:101CB000A58010233AE0904BD3F8903003F0030353
:101CC000032B09D8DFE803F00204AE0601232DE060
:101CD00004232BE0082329E0102327E0864BD3F8C8
:101CE000903003F00C030C2B0ED8DFE803F0070D47
:101CF0000D0D090D0D0D9D0D0D0D0B00002315E0B3
:101D0000042313E0082311E010230FE07A4BD3F8EB
:101D1000903003F03003202B00F0888019D8002B7E
:101D200000F08680102B40F085800423E069B0F538
:101D3000004F00F0AB80082B00F20C81DFE813F0BD
:101D4000E800FB00E6000A01FE000A010A010A01A0
:101D50000101302B70D10823E8E7674BD3F89030AE
:101D600003F0C003802B69D005D8002B68D0402B2E
:101D700068D10423DAE7C02B66D10823D6E75E4B8F
:101D8000D3F8903003F44073B3F5007F5ED006D8EB
:101D9000002B5DD0B3F5807F5CD10423C6E7B3F59B
:101DA000407F59D10823C1E7534BD3F8903003F457
:101DB0004063B3F5006F51D006D8002B50D0B3F577
:101DC000806F4FD10423B1E7B3F5406F4CD10823A6
:101DD000ACE7494BD3F8903003F44053B3F5005FC0
:101DE00044D006D8002B43D0B3F5805F42D1042302
:101DF0009CE7B3F5405F3FD1082397E73E4BD3F80C
:101E0000903003F44043B3F5004F37D005D8BBB34F
:101E1000B3F5804F36D1042388E7B3F5404F33D173
:101E2000082383E7022381E702237FE702237DE77C
:101E300000237BE7102379E7102377E7022375E778
:101E4000002373E7102371E710236FE702236DE788
:101E500000236BE7102369E7102367E7022365E798
:101E6000012363E7102361E710235FE702235DE7A7
:101E700000235BE7102359E7102357E7022355E7B8
:101E8000002353E7102351E710234FE7082B5BD8BB
:101E9000DFE803F005343A5A375A5A5A0900FFF777
:101EA000BFF9002852D06268530803EB4000B0FB32
:101EB000F2F080B2A0F110024FF6EF739A4247D8C9
:101EC00020F00F03C0F3420018432368D8600020BD
:101ED00045E000BFF369FFEF0010014000440040FF
:101EE00000480040004C00400050004000140140F9
:101EF00000780040007C004000380240FFF7A0F965
:101F0000CFE7FFF76BF8CCE71748CCE7164802E0BD
:101F1000FFF786F900B3636800EB5300B0FBF3F002
:101F200080B2A0F110024FF6EF739A4216D82368E0
:101F3000D860002013E0FFF783F9EBE7FFF74EF8D6
:101F4000E8E74FF40040E6E7012008E0002006E063
:101F5000012004E0012002E0002000E00120002335
:101F60006366A36610BD00BF0024F400436A13F04B
:101F7000010F06D00268536823F40033816A0B43D3
:101F80005360436A13F0020F06D00268536823F4CB
:101F90008033C16A0B435360436A13F0040F06D0C9
:101FA0000268536823F48023016B0B435360436A38
:101FB00013F0080F06D00268536823F40043416B06
:101FC0000B435360436A13F0100F06D00268936806
:101FD00023F48053816B0B439360436A13F0200F0B
:101FE00006D00268936823F40053C16B0B439360DF
:101FF000436A13F0400F0AD00268536823F4801339
:10200000016C0B435360036CB3F5801F0BD0436A24
:1020100013F0800F06D00268536823F40023816C0C
:102020000B43536070470268536823F4C003416C4C
:102030000B435360EBE72DE9F84305460F46164680
:102040009946DDF820802C68E46937EA04030CBF68
:1020500001240024B4423DD1B8F1FF3FF3D0FEF794
:1020600035FDA0EB0900404522D8B8F1000F1FD084
:102070002B681A6812F0040FE5D0DA6912F4006FC9
:10208000E1D04FF400621A622A68136823F4D07317
:1020900013602A68936823F0010393602023AB67E1
:1020A000EB67C5F88030002385F87430032012E018
:1020B0002A68136823F4D07313602A68936823F0A6
:1020C000010393602023AB67EB67002385F874302E
:1020D000032000E00020BDE8F8832DE9F04182B044
:1020E0001E46836F202B5AD104460D469046B2FA05
:1020F00082F35B09002908BF0123002B53D190F81C
:102100007430012B51D0012380F874300023C0F8C3
:10211000803021238367FEF7D9FC0746A4F850805E
:10212000A4F85280A368B3F5805F05D04FF0000893
:10213000002384F8743014E0236913B14FF00008D1
:10214000F6E7A8460025F3E738F8023B2268C3F318
:1021500008039362B4F8522092B2013A92B2A4F802
:102160005220B4F852309BB273B100963B46002225
:1021700080212046FFF75FFFC8B9002DE4D015F895
:10218000012B23689A62E5E700963B460022402136
:102190002046FFF750FF60B92023A36700E002202C
:1021A00002B0BDE8F0810120FAE70220F8E7032041
:1021B000F6E70320F4E710B582B004460023C0F828
:1021C0008030FEF783FC23681B6813F0080F08D1EA
:1021D0002023A367E3670020206684F8740002B020
:1021E00010BD6FF07E430093034600224FF40011B0
:1021F0002046FFF720FF0028EAD00320EFE768B36E
:1022000010B50446836F03B32423A36722681368C1
:1022100023F0010313602046FFF710FD012813D0BF
:10222000636ABBB92268536823F490435360226801
:10223000936823F02A0393602268136843F0010334
:1022400013602046FFF7B7FF10BD80F87430FEF72B
:102250003BFBD9E72046FFF789FEE3E70120704703
:1022600000230F2B00F2E380F0B583B039E00922A0
:1022700000E00022B2403A4302346D4E46F824207A
:102280006C4A1468EA4324EA05064F6817F4803F55
:1022900001D045EA0406674C2660646802EA040639
:1022A0004F6817F4003F01D045EA0406614C6660B0
:1022B000A46802EA04064F6817F4801F01D045EABB
:1022C00004065C4CA660E46822404E6816F4001FC9
:1022D00001D045EA0402574CE26001330F2B00F2B3
:1022E000A48001229A400C6804EA020532EA040440
:1022F000F3D14C68661E112C18BF012E01D9122C87
:1023000012D186685F000324BC4026EA0406CC682C
:10231000BC4034438460466826EA02064C68C4F335
:1023200000129A4032434260C7685E000324B44002
:10233000E24327EA04078C68B4403C43C4604C681D
:10234000122C18BF022C13D1DF08083750F827E0F1
:1023500003F007044FEA840C0F2404FA0CF42EEA6D
:10236000040E0C6904FA0CF444EA0E0440F8274009
:10237000046814404A6802F00302B240224302603B
:102380004A6812F0805FA8D02B4A546C44F4804411
:102390005464526C02F480420192019A9C08A61C7B
:1023A000234A52F8267003F0030296000F22B2402F
:1023B00027EA0207214A90423FF45BAF02F58062B0
:1023C000904222D002F58062904220D002F58062D5
:1023D00090421ED002F5806290421CD002F58062CD
:1023E00090421AD002F58062904218D002F58062C5
:1023F000904216D002F58062904214D002F58062BD
:1024000090423FF434AF0A2234E7012232E702223D
:1024100030E703222EE704222CE705222AE70622D2
:1024200028E7072226E7082224E703B0F0BD70471B
:1024300000380140003C01400038024000000240EA
:102440000AB181617047090481617047436901EAFB
:10245000030221EA030141EA024181617047000061
:10246000034AD2F8883043F47003C2F888307047CA
:1024700000ED00E000F1080343604FF0FF3282609E
:10248000C36003610023036070470023036170474A
:1024900030B40D68B5F1FF3F11D000F108031C46C0
:1024A0005B681A68AA42FAD963684B6099608C60CD
:1024B0006160086103680133036030BC70470469E0
:1024C000F2E70369416882688A60416851605A682E
:1024D000824206D0002202611A68013A1A60186826
:1024E000704782685A60F5E710B5044601F0BAFDFE
:1024F000A26BE36B9A4204D0002401F0D9FD204680
:1025000010BD0124F9E710B5044601F0ABFDA36B43
:1025100023B9012401F0CCFD204610BD0024F9E7C9
:1025200070B504461546866B026C5AB903681BB138
:1025300000200136A66370BD806801F0CDF900234C
:10254000A360F6E76DB9406802F01EFB226C636879
:1025500013446360A268934219D3236863602846DA
:10256000E7E7C06802F010FB226C5142E3689B1A57
:10257000E3602268934202D2A3680B44E360022D19
:1025800001D00020D5E726B1013E0020D1E7284642
:10259000CFE70020CDE70346026C6AB110B50846CC
:1025A000D9681144D9609C68A14201D31968D960E7
:1025B000D96802F0E9FA10BD704738B5054601F058
:1025C00051FD95F8454064B203E001F06FF9013C1C
:1025D00064B2002C08DD6B6A33B105F1240001F010
:1025E00095F80028F3D0F0E7FF2385F8453001F097
:1025F0005FFD01F037FD95F8444064B203E001F05F
:1026000055F9013C64B2002C08DD2B6933B105F1AA
:10261000100001F07BF80028F3D0F0E7FF2385F8E5
:10262000443001F045FD38BD38B5A0B10D46044633
:10263000C16B29B1036C0022A1FB0313B3B9BAB17A
:102640004FF0500372B683F31188BFF36F8FBFF35F
:102650004F8F62B6FEE74FF0500372B683F31188D6
:10266000BFF36F8FBFF34F8F62B6FEE70122E6E73D
:1026700001F0F8FC2168E26B236C03FB0210A06000
:102680000020A0636160013A02FB0313E360FF23B3
:1026900084F8443084F84530A5B923691BB901F0AA
:1026A00007FD012038BD04F1100001F02FF80028CB
:1026B000F5D0094B4FF080521A60BFF34F8FBFF334
:1026C0006F8FECE704F11000FFF7D4FE04F1240053
:1026D000FFF7D0FEE3E700BF04ED00E038B51D468C
:1026E000049C0B4649B92460E06323640121204621
:1026F000FFF79AFF84F84C5038BD2260F4E70BB323
:1027000010B584B01C4640B30B1E18BF0123002A2D
:1027100008BF01230BB3B1FA81F35B09002A18BF8C
:102720000123D3B150230393039B502B20D04FF0B0
:10273000500372B683F31188BFF36F8FBFF34F8FCF
:1027400062B6FEE74FF0500372B683F31188BFF311
:102750006F8FBFF34F8F62B6FEE74FF0500372B634
:1027600083F31188BFF36F8FBFF34F8F62B6FEE71D
:10277000039B012384F8463000949DF81830FFF73E
:10278000ADFF204604B010BDF0B583B060B10C467B
:10279000174606460023A0FB041282B923B904FBA6
:1027A00006F010F1510F0CD94FF0500372B683F3BD
:1027B0001188BFF36F8FBFF34F8F62B6FEE701231F
:1027C000ECE7503001F014FB054650B1002380F8CF
:1027D000463000903B4600F1500221463046FFF75C
:1027E0007DFF284603B0F0BDF0B585B0019298B1E9
:1027F0000E461D460446D1B1022D26D1E36B012BB6
:1028000023D04FF0500372B683F31188BFF36F8F5C
:10281000BFF34F8F62B6FEE74FF0500372B683F3FB
:102820001188BFF36F8FBFF34F8F62B6FEE7036C63
:10283000002BE1D04FF0500372B683F31188BFF341
:102840006F8FBFF34F8F62B6FEE701F035F8074692
:1028500068B9019B002B46D04FF0500372B683F34A
:102860001188BFF36F8FBFF34F8F62B6FEE700276B
:1028700039E02A4631462046FFF752FE626A6AB9BD
:1028800038B13C4B4FF080521A60BFF34F8FBFF30B
:102890006F8F01F00DFC012005B0F0BD04F12400A4
:1028A00000F034FF0028F4D0324B4FF080521A6011
:1028B000BFF34F8FBFF36F8FEBE701F0F9FB002001
:1028C000EAE702A800F09EFF012719E0002384F840
:1028D000443021E0002384F8453023E02046FFF710
:1028E0006CFE00F089FD01F0BDFBA26BE36B9A4228
:1028F000BFD3022DBDD0019B002BDED0002FE0D036
:1029000001F0D6FB00F0AEFC01F0ACFB94F84430D3
:102910005BB2B3F1FF3FD9D094F845305BB2B3F16D
:10292000FF3FD7D001F0C4FB01A902A800F076FF59
:10293000C8B92046FFF7D8FD0028CFD0019904F18F
:10294000100000F09DFE2046FFF737FE00F054FD1A
:102950000028C8D1074B4FF080521A60BFF34F8F49
:10296000BFF36F8FBFE72046FFF727FE00F044FD5F
:10297000002091E704ED00E02DE9F843A0B189467D
:1029800090461F460446D1B1022F26D1E36B012B9E
:1029900023D04FF0500372B683F31188BFF36F8FCB
:1029A000BFF34F8F62B6FEE74FF0500372B683F36A
:1029B0001188BFF36F8FBFF34F8F62B6FEE7036CD2
:1029C000002BE1D04FF0500372B683F31188BFF3B0
:1029D0006F8FBFF34F8F62B6FEE701F04FFCEFF34E
:1029E00011864FF0500372B683F31188BFF36F8FD7
:1029F000BFF34F8F62B6A26BE36B9A4206D3022FEE
:102A000004D0002086F31188BDE8F88394F845507F
:102A10006DB2A36B3A4649462046FFF781FDB5F1FA
:102A2000FF3F07D07F2D15D06B1C5BB284F845307B
:102A30000120E7E7636A0BB90120E3E704F1240012
:102A400000F064FE88B1B8F1000F10D00120C8F882
:102A50000000D7E74FF0500372B683F31188BFF33D
:102A60006F8FBFF34F8F62B6FEE70120CAE70120E8
:102A7000C8E70000F0B585B00192A0B10E4604464B
:102A8000E1B100F019FF074630BB019B002B62D07B
:102A90004FF0500372B683F31188BFF36F8FBFF30B
:102AA0004F8F62B6FEE74FF0500372B683F3118882
:102AB000BFF36F8FBFF34F8F62B6FEE7036C002B3F
:102AC000DFD04FF0500372B683F31188BFF36F8FDE
:102AD000BFF34F8F62B6FEE700273CE03146204649
:102AE000FFF759FD013DA563236923B901F0E0FA21
:102AF000012005B0F0BD04F1100000F007FE002831
:102B0000F4D0354B4FF080521A60BFF34F8FBFF3B4
:102B10006F8FEBE701F0CCFA0020EAE702A800F0A3
:102B200071FE012721E0002384F8443029E00023CE
:102B300084F845302BE02046FFF73FFD00F05CFCB9
:102B400009E02046FFF739FD00F056FC2046FFF76C
:102B5000DAFC00283DD101F085FAA56B002DBDD12E
:102B6000019B002BD6D0002FD8D001F0A1FA00F0A5
:102B700079FB01F077FA94F844305BB2B3F1FF3F90
:102B8000D1D094F845305BB2B3F1FF3FCFD001F024
:102B90008FFA01A902A800F041FE0028D1D12046F9
:102BA000FFF7B1FC0028C6D0019904F1240000F021
:102BB00067FD2046FFF701FD00F01EFC0028CAD18A
:102BC000054B4FF080521A60BFF34F8FBFF36F8FEA
:102BD000C1E700208DE700BF04ED00E02DE9F843D8
:102BE000D8B189461746054611B301F047FBEFF30C
:102BF00011864FF0500372B683F31188BFF36F8FC5
:102C0000BFF34F8F62B6D5F83880B8F1000F1DD1F1
:102C1000002086F31188BDE8F8834FF0500372B6A8
:102C200083F31188BFF36F8FBFF34F8F62B6FEE758
:102C3000036C002BD9D04FF0500372B683F3118888
:102C4000BFF36F8FBFF34F8F62B6FEE795F8444036
:102C500064B249462846FFF79EFC08F1FF33AB6398
:102C6000B4F1FF3F07D07F2C12D0631C5BB285F814
:102C700044300120CDE72B690BB90120C9E705F1EC
:102C8000100000F043FD70B17FB101203860C0E753
:102C90004FF0500372B683F31188BFF36F8FBFF309
:102CA0004F8F62B6FEE70120B3E70120B1E70000D5
:102CB00028B110B4044699B100231A4614E04FF02D
:102CC000500372B683F31188BFF36F8FBFF34F8F3A
:102CD00062B6FEE70E4B03EBC2030BB119605C60FA
:102CE0005DF8044B70470132072AF6D8084800EB1C
:102CF000C2004068A042EDD0002BF4D1044850F847
:102D000032000028EFD1024B03EBC203EBE700BF18
:102D10003C8E002070B504460D46164601F0A2F91F
:102D200094F844305BB2B3F1FF3F0DD094F84530D6
:102D30005BB2B3F1FF3F0BD001F0BAF9A36B5BB10B
:102D40002046FFF73AFC70BD002384F84430EDE7DD
:102D5000002384F84530EFE73246294604F1240089
:102D600000F0A8FCECE70000074B1B681B6823B9C8
:102D7000064B4FF0FF321A607047034B1B68DB684D
:102D80001A68024B1A607047A80000205405002002
:102D90002DE9F04707468A4615469846089EDDF815
:102DA00024900A9C9200A521206B01F0FBFE236B6E
:102DB0006FF040422A4403EB820323F00705656469
:102DC000BAF1000F1CD000230F2B09D81AF80310FA
:102DD000E21882F834101AF803200AB10133F3E73D
:102DE000002384F84330372E0ED94FF0500372B6CB
:102DF00083F31188BFF36F8FBFF34F8F62B6FEE787
:102E0000002384F83430EEE7E66226654FF0000ACE
:102E1000C4F854A0201DFFF738FB04F11800FFF799
:102E200034FB2461C6F13806A6616462C4F858A078
:102E3000C4F85CA084F860A042463946284601F0F8
:102E4000E7F82060B9F1000F01D0C9F80040BDE8F3
:102E5000F087000038B50024372C08D804EB840232
:102E600093000E481844FFF705FB0134F4E70C4DBE
:102E70002846FFF7FFFA0B4C2046FFF7FBFA0A48FB
:102E8000FFF7F8FA0948FFF7F5FA0948FFF7F2FAF1
:102E9000084B1D60084B1C6038BD00BFB00000200F
:102EA0002C05002040050020600500208C05002036
:102EB00078050020A8000020AC00002010B50446D2
:102EC00001F0D0F8284A136801331360274B1B68C0
:102ED0005BB1274B1B686BB9244B1B68DA6AE36A4A
:102EE0009A4207D8214B1C6004E0204B1C601368F9
:102EF000012B35D01F4A136801331360A364E36AC2
:102F00001D4A1268934201D91B4A13601B4A03EB06
:102F1000830302EB83035B68A3609868E060211D74
:102F200041609960E36A03EB8301880002EB810151
:102F3000616111580131115001F0BAF80C4B1B6856
:102F40006BB10A4B1B68DA6AE36A9A4207D20C4BF0
:102F50004FF080521A60BFF34F8FBFF36F8F10BDD9
:102F6000FFF778FFC6E700BF18050020A400002087
:102F7000740500202405002028050020B000002052
:102F800004ED00E010B5044690F8613073B1012BF8
:102F900013D0022B10D04FF0500372B683F3118878
:102FA000BFF36F8FBFF34F8F62B6FEE7006B00F089
:102FB000ABFF204600F0A8FF10BD00F0A5FFFBE727
:102FC0000F4B1B68D3B110B501F04CF80D4BDB680B
:102FD000DC68201DFFF775FA0B4A1368013B13608C
:102FE000074A1368013B136001F062F82046FFF7BF
:102FF000C9FF034B1B68002BE6D110BD704700BF13
:103000001C0500208C0500201805002008B5FFF7DE
:10301000D7FF064B1B68012BF9D9054B4FF08052A7
:103020001A60BFF34F8FBFF36F8FF0E7B00000203F
:1030300004ED00E070B504460D46204B1E68204BA1
:1030400018680430FFF73DFAB4F1FF3F14BF0023C6
:103050000123002D08BF00239BB11A4A5168184B69
:103060001868816018688C68C460186804306060F3
:103070001868043088601B685A6113680133136054
:1030800070BD34440E4B1B685C60A64207D90E4BE2
:1030900018680B4B19680431FFF7FAF9F0E70B4B8E
:1030A0001868074B19680431FFF7F2F9084B1B68E1
:1030B000A342E5D9064B1C60E2E700BFA005002053
:1030C000A400002078050020AC000020A80000200B
:1030D0005405002070B586B00B9D0C9C85B1D4B111
:1030E00064260496049E642E20D04FF0500372B6DE
:1030F00083F31188BFF36F8FBFF34F8F62B6FEE784
:103100004FF0500372B683F31188BFF36F8FBFF394
:103110004F8F62B6FEE74FF0500372B683F311880B
:10312000BFF36F8FBFF34F8F62B6FEE7049E256338
:10313000022584F8615000250395029405AD0195A0
:103140000A9D0095FFF724FE2046FFF7B7FE05987D
:1031500006B070BD2DE9F04385B007468846144699
:103160001E46900000F044FE00B38146642000F04B
:103170003FFE0546B0B1C0F83090E5B1002385F8B8
:103180006130039302950D9B01930C9B0093334692
:10319000224641463846FFF7FBFD2846FFF78EFEE4
:1031A000012005E0484600F0AFFEE6E74FF0FF30B3
:1031B00005B0BDE8F0834FF0FF30F9E710B588B0F7
:1031C00000240594069407AA06A905A801F052FA5E
:1031D000059B0293069B019300942346079A1B4983
:1031E0001B48FFF777FF58B100F070FD0346012B35
:1031F00008D0B3F1FF3F1ED0164B1B6808B010BDBE
:103200000023F4E74FF0500372B683F31188BFF345
:103210006F8FBFF34F8F62B60F4B4FF0FF321A60C4
:103220000E4B01221A600E4B00221A60FDF7C0FA05
:1032300000F0BCFFE0E74FF0500372B683F3118853
:10324000BFF36F8FBFF34F8F62B6FEE7785600086B
:103250000D300008180000205405002074050020DF
:10326000A0050020024A136801331360704700BFB5
:1032700020050020014B1868704700BFA005002002
:10328000524B1B68002B40F0988070B5504B1C6867
:1032900001341C60D4B94F4B1B681B6853B14FF00D
:1032A000500372B683F31188BFF36F8FBFF34F8F54
:1032B00062B6FEE7474A1168474B1868106019600C
:1032C000464A136801331360FFF74EFD444B1B68F9
:1032D000A34210D90020434B1B68DB6A03EB830336
:1032E0009A00414B9B58012B00D901203F4B1B6892
:1032F000002B68D170BD002034E0394B4FF0FF3215
:103300001A60E8E7364B1A60E5E7D96851603FE09C
:1033100000219962116801391160DA6A344909683B
:103320008A4201D932490A602F4902EB8202950094
:103330000D446A689A609568DD606E609660DA6A2E
:1033400002EB8206B5004E195E614D59013502EB64
:10335000820296008D51DA6A224B1B68DB6A9A4220
:1033600000D301201B4B1B681B68002BC5D0194BD9
:103370001B68DB68DB685A689442C3D35A699D684E
:10338000D968A9609D684D6051681E1DB142BCD0CE
:10339000002159611168013911609A6A002ABCD074
:1033A000DD69196AA960DD694D60556803F118018E
:1033B0008D42ADD1196A5160AAE70E4A13680133F4
:1033C000136000207047012094E700BF2005002013
:1033D000A0050020A8000020AC0000205805002017
:1033E00054050020A4000020B0000020A405002007
:1033F000280500205C0500204A4B1B6853B94FF09C
:10340000500372B683F31188BFF36F8FBFF34F8FF2
:1034100062B6FEE710B500F025FE424B1A68013A8D
:103420001A601B68002B78D13F4B1B683BB9002406
:1034300074E0196A516015E0D968516021E00023F9
:103440003A4A1268002A47D0384BDB68DB689A6A30
:10345000D869196A8160D8694860506803F1180119
:103460008842E6D0002199621168013911605A69D9
:103470009868D9688160986848605168181D8142D1
:10348000DAD000215961116801391160DA6A2849DE
:1034900009688A4201D926490A60264902EB82025C
:1034A00001EB820252689A609468DC606060906010
:1034B000DA6A02EB8200840001EB8000586108594F
:1034C00001300851D96A1C4A1268D26A9142B7D3B6
:1034D0001A4A01211160B3E70BB1FFF745FC184B05
:1034E0001C6874B9154B1C68C4B1164B4FF0805260
:1034F0001A60BFF34F8FBFF36F8F01240EE0013CC2
:1035000007D0FFF7BDFE0028F9D00C4B01221A604E
:10351000F5E70B4B00221A60E4E7002400F0C8FD39
:10352000204610BD20050020180500206005002061
:1035300028050020B0000020A4000020A4050020E1
:103540005C05002004ED00E010B5B8B10446104B56
:103550001B6853B14FF0500372B683F31188BFF369
:103560006F8FBFF34F8F62B6FEE7FFF77BFE002140
:103570002046FFF75FFDFFF73FFF38B9054B4FF0DF
:1035800080521A60BFF34F8FBFF36F8F10BD00BF23
:103590002005002004ED00E008B5324B1B681BB18C
:1035A000314B01221A6008BD2F4B00221A60FDF733
:1035B0001DF92E4A106013682D4A1268934207D9EC
:1035C0002A4B1B689A1A2B4B19688B6D13448B6519
:1035D000264B1A68264B1A60264B1A6812681B681D
:1035E0001B6B9A420AD9244B1B6803EB830292009F
:1035F00022498A58A2B943B1013BF6E71D4B18682E
:1036000019683431FDF7F8F8EDE74FF0500372B662
:1036100083F31188BFF36F8FBFF34F8F62B6FEE75E
:1036200003EB830201EB820250684068506003EBB9
:103630008302920008320A4490420BD003EB8301CC
:103640000E4A02EB81025268D1680A4A11600A4AA6
:103650001360A8E7406803EB8301084A02EB81028C
:103660005060EBE720050020A40500201405002091
:1036700010050020A400002028050020B000002034
:1036800058B110B50C460A4B19681831FEF700FF07
:1036900001212046FFF7CEFC10BD4FF0500372B65B
:1036A00083F31188BFF36F8FBFF34F8F62B6FEE7CE
:1036B000A40000200346D8B170B5084611461A464A
:1036C0005C68114B1D68EC611D68A6682E621D6860
:1036D000183575601D681835A5601B689A621368F7
:1036E0000133136009B14FF0FF30FFF7A3FC70BD49
:1036F0004FF0500372B683F31188BFF36F8FBFF39F
:103700004F8F62B6FEE700BFA4000020C368DB68ED
:10371000002B4BD010B49A6AD869196A8160D869B5
:103720004860516803F1180081424AD00021996233
:103730001168013911602D4A1268002A47D15A696F
:103740009868D9688160986848605168181D8142FE
:103750003AD000215961116801391160DA6A2449AF
:1037600009688A4201D922490A60224902EB820291
:1037700001EB820252689A609468DC60606090603D
:10378000DA6A02EB8200840001EB8000586108597C
:1037900001300851DA6A184B1B68DB6A9A4222D959
:1037A0000120164B18605DF8044B70474FF0500332
:1037B00072B683F31188BFF36F8FBFF34F8F62B67A
:1037C000FEE7196A5160B1E7D9685160C1E70C4A58
:1037D0005168D9618C681C62606088609A62116867
:1037E00001311160D6E70020DDE700BF2005002091
:1037F00028050020B0000020A4000020A40500201F
:1038000060050020034B1B680360034B1B6843608B
:10381000704700BF58050020A0050020F8B5B8B1DA
:103820000C460546F9B100F01DFC1E4B19686B688B
:10383000C81A2268B2F1FF3F2ED02F681A4E3668A0
:10384000B7421BD08B4219D800232360012424E007
:103850004FF0500372B683F31188BFF36F8FBFF33D
:103860004F8F62B6FEE74FF0500372B683F31188B4
:10387000BFF36F8FBFF34F8F62B6FEE7824203D86C
:1038800000232360012408E05B1A134423602846C8
:10389000FFF7B8FF002400E0002400F009FC2046F8
:1038A000F8BD00BFA005002058050020014B0122F3
:1038B0001A607047A4050020054B1B6833B1054B07
:1038C0001B680BB100207047022070470120704731
:1038D000740500202005002000284CD038B504468F
:1038E000274B1B6883420AD04FF0500372B683F314
:1038F0001188BFF36F8FBFF34F8F62B6FEE7436D42
:1039000053B94FF0500372B683F31188BFF36F8F32
:10391000BFF34F8F62B6FEE7013B4365C16A026D9C
:1039200091422AD00BB1002038BD051D2846FEF774
:10393000C8FD236DE362C3F13802A261114A126827
:10394000934201D90F4A13600F4A03EB830302EB42
:1039500083035B68A3609968E1604D609D60E36AE2
:1039600003EB8301880002EB810161611158013191
:1039700011500120D8E7002070470020D4E700BF95
:10398000A400002028050020B0000020064B1A6883
:1039900013682BB90123036023B9D36818687047F3
:1039A0000023F8E700207047A805002008B5416013
:1039B000006191420CD8D21A83699A4201D3012046
:1039C00008BD011D0B4B1868FEF762FD0020F7E7EC
:1039D0009A422CBF00220122994238BF00220AB12C
:1039E0000120EDE7011D044B1868FEF751FD002092
:1039F000E6E700BFAC050020A805002070B504462E
:103A00000D461646A1692B46324629442046FFF74B
:103A1000CDFF28B1A3691D44236A20469847F1E7EA
:103A200070BD000070B505460E460D4B1B68DB6887
:103A3000DC68201DFEF745FD94F8283013F0040FD4
:103A400007D123F0010384F82830236A20469847E1
:103A500070BD324629462046FFF7D0FFF5E700BF8C
:103A6000A805002008B5084B1B681A6832B1DB684E
:103A70004FF0FF311868FFF7D5FFF4E7034A1068ED
:103A800001490860136008BDA8050020AC050020AE
:103A900038B50546FFF7EEFB0446074B1B6883422B
:103AA00005D800232B60044B1C60204638BDFFF76F
:103AB000D9FF01232B60F6E77806002070B582B0AD
:103AC00006460C46FFF7CEFB01A8FFF7E1FF019A7F
:103AD0004ABB0546B04234BF00230123002C18BF67
:103AE0000023BBB924B1124B1B681B68CBB901245E
:103AF0002246711B0F4B1868FFF70CF9FFF77CFC8F
:103B000098B90D4B4FF080521A60BFF34F8FBFF33F
:103B10006F8F0AE0FFF770FC29463046FFF782FFFF
:103B200003E01446E4E7FFF767FC02B070BD00BF96
:103B3000AC050020CC06002004ED00E030B587B0D5
:103B400002E0029B002B0FDA002202A93C4B18680E
:103B5000FEF790FF002870D0029B002BF1DA059948
:103B60000498039B9847ECE7049C636913B1201DFC
:103B7000FEF7A7FC01A8FFF78BFF0546029B013B60
:103B8000082BE1D8DFE803F0050529304B050529AE
:103B9000300094F8283043F0010384F82830039B68
:103BA000A169024619442046FFF700FF0028CBD048
:103BB00094F8283013F0040F07D123F0010384F8A0
:103BC0002830236A20469847BEE7A3692A4603990E
:103BD00019442046FFF712FFF3E794F8283023F04A
:103BE000010384F82830AFE794F8283043F001034C
:103BF00084F828300399A16131B10346024601449B
:103C00002046FFF7D3FE9FE74FF0500372B683F3D1
:103C10001188BFF36F8FBFF34F8F62B6FEE794F842
:103C2000283013F0020F04D023F0010384F8283069
:103C30008AE7204600F068F986E707B030BD00BF8C
:103C4000CC06002000B583B001A8FFF79FFE0199C4
:103C5000FFF734FFFFF772FFF6E7000030B583B0DF
:103C600000F000FA114B1B681BB100F021FA03B001
:103C700030BD0F4D2846FEF7FDFB0E4C2046FEF7EB
:103C8000F9FB0D4B1D600D4B1C60002300930C4B8A
:103C90000C4A10210A20FEF732FD044B1860002860
:103CA000E3D00949FFF704F8DFE700BFCC060020A6
:103CB0005006002064060020A8050020AC05002066
:103CC0007C060020B00500208056000810B588B0A2
:103CD000FFF7C4FF134B1B68CBB100240594069477
:103CE00007AA06A905A800F0D1FC059B0293069B34
:103CF0000193022300932346079A0B490B48FFF7D1
:103D0000E9F90B4A106010B1012008B010BD4FF066
:103D1000500372B683F31188BFF36F8FBFF34F8FD9
:103D200062B6FEE7CC06002088560008453C000835
:103D3000D0060020124A12F0070F1ED0D11D21F02C
:103D40000701C1F5004313440A460E4802600021F2
:103D500041601344083B23F007030B48036059609C
:103D60001960991A51601360084B1960084B19606B
:103D7000084B4FF000421A6070474FF40043E4E7ED
:103D8000D8060020EC860020D4060020E086002023
:103D9000DC860020D886002010B4134B1A461B681E
:103DA0008342FBD35168541884420AD041684418B6
:103DB000A3420BD00360904200D010605DF8044B2A
:103DC00070474068014451601046EFE7074C246893
:103DD000A34206D05B681944416013681B68036006
:103DE000E9E70460E7E700BFEC860020D406002086
:103DF00038B50446FFF736FA3D4B1B68DBB13D4B47
:103E00001B681C4257D1631E13F10A0F55D804F1E9
:103E1000080314F0070F05D023F0070208329A4276
:103E20005CD91346002B5BD0334A12689A4259D3AF
:103E3000324A146804E0FFF77DFFE0E722460C46B3
:103E40006168994202D221680029F7D1284909689E
:103E5000A14249D015680835216811606268D21AFC
:103E6000102A12D9E01810F0070F0AD04FF05003B3
:103E700072B683F31188BFF36F8FBFF34F8F62B6B3
:103E8000FEE742606360FFF787FF62681A490B68CC
:103E90009B1A0B601A4909688B4201D218490B60C2
:103EA000144B1B681343636000232360154A136897
:103EB0000133136002E0002500E00025FFF79CFAC3
:103EC00015F0070F12D04FF0500372B683F311882C
:103ED000BFF36F8FBFF34F8F62B6FEE70025EDE7AC
:103EE0000025EBE70025E9E70025E7E7284638BD90
:103EF000D4060020D8860020DC860020EC86002036
:103F0000E0860020E4860020002838D038B504463A
:103F1000A0F1080550F8043C194A126813420AD16E
:103F20004FF0500372B683F31188BFF36F8FBFF366
:103F30004F8F62B6FEE750F8081C51B14FF05003A6
:103F400072B683F31188BFF36F8FBFF34F8F62B6E2
:103F5000FEE723EA020340F8043CFFF783F954F834
:103F6000041C084A13680B4413602846FFF714FF2B
:103F7000054A136801331360FFF73EFA38BD7047F6
:103F8000D8860020DC860020E886002082B000234E
:103F900001930F4B1B68B3F1FF3F0AD04FF0500362
:103FA00072B683F31188BFF36F8FBFF34F8F62B682
:103FB000FEE74FF0500372B683F31188BFF36F8FA3
:103FC000BFF34F8F62B6019B002BFCD002B070474D
:103FD0001C00002008480068006880F308884FF043
:103FE000000080F3148862B661B6BFF34F8FBFF351
:103FF0006F8F00DF00BF000008ED00E0DFF80C006D
:10400000016841F4700101607047000088ED00E034
:104010004FF0807340F8043C21F0010140F8081C87
:10402000054B40F80C3C40F8202C6FF0020340F8A0
:10403000243C4438704700BF8D3F0008000000005A
:10404000074B19680868B0E8F04F80F30988BFF3A0
:104050006F8F4FF0000080F311887047AFF300803E
:10406000A40000204FF0500372B683F31188BFF311
:104070006F8FBFF34F8F62B60B4A13680133136023
:10408000012B00D07047094B1B6813F0FF0FF9D0CC
:104090004FF0500372B683F31188BFF36F8FBFF3F5
:1040A0004F8F62B6FEE700BF1C00002004ED00E069
:1040B0000A4B1B6853B94FF0500372B683F3118853
:1040C000BFF36F8FBFF34F8F62B6FEE7013B034A2A
:1040D00013600BB983F31188704700BF1C000020E8
:1040E000EFF30980BFF36F8F154B1A681EF0100FA6
:1040F00008BF20ED108A20E9F04F10602DE909007B
:104100004FF0500072B680F31188BFF34F8FBFF3AA
:104110006F8F62B6FFF740FA4FF0000080F311880E
:1041200009BC19680868B0E8F04F1EF0100F08BF0E
:10413000B0EC108A80F30988BFF36F8F704700BF1F
:10414000A400002008B54FF0500372B683F3118825
:10415000BFF36F8FBFF34F8F62B6FFF791F818B1BF
:10416000034B4FF080521A60002383F3118808BD7F
:1041700004ED00E0084A0023136008490B60084B77
:104180001B680849A1FB03139B09013B06490B600F
:1041900007231360704700BF10E000E018E000E064
:1041A00014000020D34D621014E000E010B582B07E
:1041B0002C4B1A78D2B20192FF221A701B78DBB214
:1041C0008DF803309DF8033003F05003264A137036
:1041D000264B07221A609DF8033013F0800F0AD097
:1041E000224A1368013B13609DF803305B00DBB289
:1041F0008DF80330EFE71D4B1B68032B0AD04FF0FF
:10420000500372B683F31188BFF36F8FBFF34F8FE4
:1042100062B6FEE71B0203F4E063144A1360019BDD
:10422000DBB2104A1370124B1A6842F470021A6023
:104230001A6842F070421A60FFF79CFF00240D4B91
:104240001C60FFF7DBFE0C4A136843F04043136029
:10425000FFF7C0FEFFF7A0F9FFF798FE204602B077
:1042600010BD00BF00E400E0F4860020F8860020C6
:1042700020ED00E01C00002034EF00E0EFF30583A8
:104280000F2B11D9124A9B5CDBB2124A12789A4268
:104290000AD94FF0500372B683F31188BFF36F8FC2
:1042A000BFF34F8F62B6FEE70B4B1B6803F4E0636E
:1042B0000A4A126893420AD94FF0500372B683F348
:1042C0001188BFF36F8FBFF34F8F62B6FEE7704761
:1042D000F0E300E0F48600200CED00E0F88600201A
:1042E000EFF305837BB9EFF3108313B9EFF3118379
:1042F0001BB1094B1B68022B08D0074B186840B94B
:1043000001221A6070476FF0050070476FF00500DA
:1043100070474FF0FF3070476089002008B5EFF319
:104320000583A3B9EFF3108313B9EFF311831BB126
:104330000B4B1B68022B0DD0094B1B68012B0CD1BA
:10434000074B02221A60FEF739FF002008BD6FF00C
:104350000500FBE76FF00500F8E74FF0FF30F5E7E9
:1043600060890020F0B587B000240594EFF3058440
:10437000002C38D1EFF3108313B9EFF311831BB185
:104380002D4B1B68022B2ED068B322B3156893699E
:1043900003B918235C1E372C49D8546814F0010F58
:1043A00047D156696EB14FEA960C94682CB1D76824
:1043B000632F02D9176907B1C6B92CB14FF0FF348A
:1043C0000EE04FF0800CF0E7D4688CB9146994B11A
:1043D0004FF0FF3404E01546002418234FF0800C02
:1043E000012C0AD0ACB1059807B0F0BD0124F7E765
:1043F0004FF0FF34F4E70024F2E714699268029268
:10440000019400930B4662462946FEF763FE059031
:10441000E9E705AA019200930B461FFA8CF22946A0
:10442000FEF798FE0128DED000230593DBE700208D
:10443000DAE70020D8E700BF6089002008B5EFF375
:10444000058383B9EFF3108313B9EFF311831BB125
:10445000084B1B68022B09D008B9002008BDFFF7E4
:1044600073F80020FAE76FF00500F7E76FF005003A
:10447000F4E700BF6089002070B582B0EFF30583D8
:10448000002B47D11446EFF3108313B9EFF31183D8
:104490001BB1254B1B68022B40D00B1E18BF0123FC
:1044A00000283DD0002B3BD06CB3A3684BB1E26831
:1044B0004F2A06D9226922B1666901FB00F5AE4296
:1044C0001BD273B14FF0FF3363BB0022FEF75CF9E0
:1044D000054605B304B1246821462846FEF7E8FBEB
:1044E00019E0E3688BB9236913B14FF0FF33EBE7B1
:1044F00063696BB14FF0FF33E6E700250095FEF7E7
:10450000FEF80546E5E70023DEE74FF0FF33DBE783
:104510000023D9E70025284602B070BD0025FAE740
:104520000025F8E70025F6E76089002010B582B085
:104530001C46EFF30582D2B9EFF3108313B9EFF302
:1045400011831BB1204B1B68022B10D0B1FA81F2F2
:104550005209002808BF012272BB00232246FEF741
:1045600043F901282BD064B36FF0010019E0B1FAD0
:1045700081F25209002808BF0122A2B9B4B9002370
:10458000019301AAFEF7F8F9012812D1019840B170
:104590000E4B4FF080521A60BFF34F8FBFF36F8FF7
:1045A000002002B010BD6FF00300FAE76FF00300C7
:1045B000F7E76FF00200F4E76FF00300F1E7002087
:1045C000EFE76FF00200ECE76089002004ED00E007
:1045D00010B582B01C46EFF30582CAB9EFF3108321
:1045E00013B9EFF311831BB1204B1B68022B0FD0C3
:1045F000B1FA81F25209002808BF01226ABB2246A3
:10460000FEF738FA01282BD064B36FF0010019E0EF
:10461000B1FA81F25209002808BF0122A2B9B4B947
:104620000023019301AAFEF7D9FA012812D10198BB
:1046300040B10F4B4FF080521A60BFF34F8FBFF362
:104640006F8F002002B010BD6FF00300FAE76FF02B
:104650000300F7E76FF00200F4E76FF00300F1E703
:104660000020EFE76FF00200ECE700BF6089002058
:1046700004ED00E0034B0360034B0B6080231360E9
:10468000704700BFFC880020FC860020034B0360BD
:10469000034B0B604FF4807313607047648D0020F0
:1046A0006489002010B59AB015E04FF47A73BDF814
:1046B000002001A91E48FDF710FD1DE000BF4FF0CE
:1046C00060431B68002BF9D04FF060431A702CE058
:1046D0000220FCF795F9642300226946154800681A
:1046E000FFF776FF0028F6D104460220FCF778F9A0
:1046F000114B1B68002BD8D1104B1B68002BE7D047
:10470000009BA342E4D91AAB234413F8642C4FF066
:104710006043D3F8803E13F0010F06D04FF06043A2
:10472000D3F8003E13F0010FC9D10134E8E700BF10
:104730007C8E0020C88D002020000020CC8D002021
:1047400070B59AB004460D4664263246002101A891
:1047500000F028FA2B462246314601A800F0BAF9AB
:10476000009000231A46694602480068FFF7DEFE03
:104770001AB070BDC88D002070B504460E461546AF
:10478000FFF79AF801280AD04FF0500372B683F36E
:104790001188BFF36F8FBFF34F8F62B6FEE71B4BDD
:1047A0001C601B4B1E601B4B1D60ACB9174B1B687C
:1047B00013B9174B1B6873B1002268211020FFF753
:1047C0005BFE154A1060F0B1144A00211448FFF74F
:1047D000C9FD144B186070BD1348144B03604FF4AF
:1047E000E133436000238360C36003610C224261B4
:1047F0008361C36103624362FDF701FD0028D5D0E8
:10480000FBF7EAFED2E7FBF7E7FEDDE7200000203A
:10481000CC8D0020D08D0020C88D00209856000837
:10482000A5460008008F00207C8E00200048004034
:104830000FB400B583B004A951F8040B0191FFF740
:104840007FFF03B05DF804EB04B0704708B528B1F2
:104850000268117002680132026008BD084600F06B
:10486000A9F9FAE72DE9F04107460E46151E06DDC7
:104870000A460021107880B101310132FAE74FF089
:10488000200813F001041CD00024317811B33846FD
:10489000FFF7DCFF01340136F7E7A94206DA6D1AAB
:1048A00013F0020F04D14FF02008EAE70025F7E7E4
:1048B0004FF03008E5E741463846FFF7C7FF0134BF
:1048C000013D002DF7DCE0E741463846FFF7BEFF2B
:1048D0000134013D002DF7DC2046BDE8F0812DE9D3
:1048E000F04184B00646DDF828800C9869B10C468A
:1048F0000A2A14BF00250125002B14BF2B460023D4
:104900009BB100290EDB002710E030238DF8043026
:1049100000238DF805300B9B424601A93046FFF776
:10492000A1FF2DE04C42012700E0002700238DF875
:104930000F300DF10F0504E0303305F8013DB4FBF5
:10494000F2F44CB1B4FBF2F302FB1343092BF3DD99
:10495000A0F13A010B44EFE75FB1B8F1000F03D0CB
:104960000B9B13F0020F0ED12D2305F8013C013DE6
:1049700000270B9B424629463046FFF773FF384419
:1049800004B0BDE8F0812D213046FFF75FFF08F14C
:10499000FF38EEE7F0B589B007460C4605920026D1
:1049A00079E0A21C012383E0002205E002EB8202F1
:1049B000303901EB420201342178A1F13005EDB22A
:1049C000092DF3D9732918D0642921D078292ED044
:1049D00058293BD0752948D063295BD10599081D1A
:1049E000059009788DF81C1000218DF81D1007A97D
:1049F0003846FFF737FF06444CE00599081D05903F
:104A0000096801B932493846FFF72CFF064441E0F6
:104A10000599081D05900968612002900193009294
:104A200001230A223846FFF75AFF064432E005996F
:104A3000081D0590096861200290019300920023EF
:104A400010223846FFF74BFF064423E00599081D66
:104A500005900968412002900193009200231022E2
:104A60003846FFF73CFF064414E00599081D059001
:104A70000968612002900193009200230A223846BF
:104A8000FFF72DFF064405E0144621783846FFF76E
:104A9000DDFE0136013423789BB1252BF5D1621C54
:104AA000637873B1252BEFD02D2B3FF47AAF002321
:104AB00014462278302A7FF477AF013443F00203A2
:104AC000F7E717B13B6800221A70304609B0F0BD15
:104AD000BC56000800B583B0019011461A4601A8E3
:104AE000FFF758FF03B05DF804FB0000DFF834D097
:104AF0000D480E490E4A002302E0D458C450043336
:104B0000C4188C42F9D30B4A0B4C002301E013600C
:104B10000432A242FBD3FDF7A3FC00F011F8FBF72F
:104B2000BBFD704700000520000000208800002029
:104B30003857000888000020148F0020FEE700008E
:104B400070B50D4D0D4C641BA4100026A64209D172
:104B50000B4D0C4C00F01AFD641BA4100026A6425D
:104B600005D170BD55F8043B98470136EEE755F87E
:104B7000043B98470136F2E73057000830570008E9
:104B800030570008345700080A44914200F1FF33BF
:104B900000D1704710B511F8014B03F8014F914255
:104BA000F9D110BD02440346934200D1704703F887
:104BB000011BF9E7094B13B51C68014634B1A36921
:104BC00023B90190204600F063F80199A2682046BD
:104BD00002B0BDE8104000F055B900BF240000202D
:104BE000002310B50446C0E90033C0E904338360F4
:104BF00081814366C2818361194608225C30FFF7D8
:104C0000D1FF054B6362054BA362054BE362054B85
:104C10002462236310BD00BF354F0008574F0008C2
:104C20008F4F0008B34F0008014900F0AFB800BF34
:104C30008D52000870B54A1E682555430E4605F191
:104C4000740100F0C5F8044640B10021C0E9001627
:104C50000C30A06005F16802FFF7A4FF204670BD8C
:104C6000014800F0B3B800BF0C8F0020014800F0ED
:104C7000AEB800BF0C8F0020014800F0A7B800BFFD
:104C8000078F0020014800F0A2B800BF078F002066
:104C900010B50446FFF7F0FFA3691BB1BDE8104053
:104CA000FFF7F0BFC4E912332365134B134A1B68A7
:104CB000A262A34204BF0123A361204600F020F8B2
:104CC0006060204600F01CF8A060204600F018F854
:104CD0000022E06004216068FFF782FFA0680122E3
:104CE0000921FFF77DFFE06802221221FFF778FF1C
:104CF0000123A361D2E700BFC4560008294C000875
:104D0000F8B50746FFF7ACFF1E4B1E68B36913B931
:104D10003046FFF7BDFF4836D6E90134013B03D5E5
:104D200033680BB33668F7E7B4F90C50D5B9164BB6
:104D3000E36004F15800656600F047F8FFF796FF5E
:104D4000C4E90155C4E904552560A5610822294636
:104D500004F15C00FFF726FFC4E90D55C4E91255C4
:104D60002046F8BD6834D9E704213846FFF762FFD2
:104D7000044630600028D5D1FFF778FF0C233B6054
:104D8000EEE700BFC45600080100FFFF2DE9F8431D
:104D90000646884600F148040027D4E90195B9F198
:104DA000010905D52468002CF7D13846BDE8F88301
:104DB000AB89012B07D9B5F90E30013303D0294651
:104DC0003046C04707436835E9E77047704770478A
:104DD000F8B5CD1C25F0030508350C2D38BF0C2582
:104DE000002D064601DBA94203D90C2333600020C5
:104DF000F8BD00F0FDFA21490A6814469CB9204F1D
:104E00003B6823B92146304600F084F838602946D3
:104E1000304600F07FF8431C23D10C23336030462A
:104E200000F0ECFAE3E723685B1B17D40B2B03D9E4
:104E300023601C44256004E06368A2420CBF0B6041
:104E40005360304600F0DAFA04F10B00231D20F025
:104E50000700C21ACCD01B1AA350C9E722466468C7
:104E6000CCE7C41C24F00304A042E3D0211A30464E
:104E700000F050F80130DDD1CFE700BFD48D002025
:104E8000D88D002070B50D461446064618B18369CA
:104E90000BB9FFF7FDFE1C4B9C4224D17468636E76
:104EA000D80705D4A389990502D4A06DFFF78EFF1A
:104EB000A368013B002BA36005DAA26993421CDBC7
:104EC000EBB20A2B19D023685A1C22601D70EDB278
:104ED000636EDA0705D4A3899B0502D4A06DFFF7A2
:104EE00076FF284670BD094B9C4201D1B468D6E7D5
:104EF000074B9C4208BFF468D1E72946224630465A
:104F000000F05CF80546E3E7E8560008085700089B
:104F1000C856000838B5064D0023044608462B60E5
:104F200000F01EFB431C02D12B6803B1236038BD87
:104F3000108F002010B50C46B1F90E1000F0B4FA35
:104F40000028ABBF636DA3891B1823F48053ACBF4B
:104F50006365A38110BD2DE9F0411F468B89DB05F8
:104F600005460C46164605D5B1F90E10022300225F
:104F700000F0C8F9A389B4F90E1023F48053A3817B
:104F800032463B462846BDE8F04100F069B810B50E
:104F90000C46B1F90E1000F0B5F9431CA38915BFFA
:104FA000606523F4805343F48053A38118BFA38129
:104FB00010BDB1F90E1000F0D3B80000F8B50E46E0
:104FC0001446054618B183690BB9FFF761FE214B02
:104FD0009C422BD16C68A369A360A3891A072FD5C3
:104FE00023696BB323692068C01A6369F6B28342F0
:104FF000374604DC2146284600F048F930BBA36858
:10500000013BA36023685A1C22601E706369013053
:10501000834204D0A389DB0706D50A2E04D121469A
:10502000284600F033F988B93846F8BD0A4B9C424F
:1050300001D1AC68CFE7094B9C4208BFEC68CAE7D6
:105040002146284600F01EF80028CBD04FF0FF374D
:10505000EAE700BFE856000808570008C8560008ED
:1050600038B5074D04460846114600222A601A4604
:1050700000F084FA431C02D12B6803B1236038BDD1
:10508000108F0020324B70B51D6806460C4625B1C6
:10509000AB6913B92846FFF7FBFD2E4B9C420FD19D
:1050A0006C68A389B4F90C2019072CD4DD0611D43F
:1050B0000923336042F04003A3814FF0FF303EE00C
:1050C000254B9C4201D1AC68EBE7244B9C4208BFC6
:1050D000EC68E6E7580712D5616B41B104F144036F
:1050E000994202D0304600F08FF900236363A38910
:1050F00023F02403A3810023636023692360A38931
:1051000043F00803A38123694BB9A38903F42073F7
:10511000B3F5007F03D02146304600F029F9A0897D
:10512000B4F90C2010F001030AD00023A3606369D6
:105130005B42A361236943B910F08000BAD170BD0E
:10514000810758BF6369A360F4E70020F7E700BF59
:1051500024000020E856000808570008C856000838
:1051600038B5064D0023044608462B6000F0D0F900
:10517000431C02D12B6803B1236038BD108F00207F
:105180008A892DE9F041054610070C4658D44B6832
:10519000002B05DC0B6C002B02DC0020BDE8F0814D
:1051A000E66A002EF9D0002312F480522F682B609B
:1051B00032D0606DA3895A0705D56368C01A636B46
:1051C0000BB1236CC01A00230246E66A216A284606
:1051D000B047431CA38906D129681D292CD82A4A27
:1051E000CA40D60728D500226260D904226922600D
:1051F00004D5421C01D12B6803B96065616B2F6037
:105200000029CAD004F14403994202D0284600F094
:10521000FBF800206063C1E7216A01232846B047FC
:10522000411CC7D12B68002BC4D01D2B01D0162BDD
:1052300001D12F60B1E7A38943F04003A381ADE71B
:105240000F69002FA9D093070E6808BF4B690F6044
:1052500018BF0023A6EB07088B60B8F1000F9CDD98
:10526000216AA66A43463A462846B047002806DC2B
:10527000A38943F04003A3814FF0FF308EE707443A
:10528000A8EB0008E9E700BF0100402038B50B6932
:1052900005460C4613B90025284638BD18B1836968
:1052A0000BB9FFF7F5FC144B9C421BD16C68B4F9A9
:1052B0000C30002BEFD0626ED00704D4990502D4D5
:1052C000A06DFFF783FD28462146FFF759FF636E67
:1052D000DA070546E0D4A3899B05DDD4A06DFFF76E
:1052E00076FDD9E7054B9C4201D1AC68DFE7044B62
:1052F0009C4208BFEC68DAE7E85600080857000847
:10530000C856000838B5074D044608461146002225
:105310002A601A4600F014F9431C02D12B6803B12D
:10532000236038BD108F002070B50E46B1F90E1005
:10533000002996B014461D4607DA00232B60B38976
:105340001A0610D44FF480630EE06A4600F0BEF8EF
:105350000028F2DB019A02F47042A2F500535A428F
:105360005A412A60EEE740230020236016B070BD4A
:105370008B8973B59D0706460C4607D504F1470394
:10538000236023610123636102B070BD01AB6A46F3
:10539000FFF7CAFF009905463046FFF719FD48B9E7
:1053A000B4F90C309A05EFD423F0030343F0020361
:1053B000A381E3E70D4BB362A389206043F0800330
:1053C000A381009B6361019B20615BB1B4F90E1066
:1053D000304600F08DF828B1A38923F0030343F091
:1053E0000103A381A0890543A581CDE7294C0008CD
:1053F0000148FFF7EBBC00BF088F00200148FFF712
:10540000E6BC00BF088F002037B5002948D051F80E
:10541000043C0190002BA1F10404B8BFE418FFF78D
:10542000E7FF204A01981368154633B9636014609A
:1054300003B0BDE83040FFF7E1BFA3420BD92168BC
:105440006218934204BF1A685B68636004BF521815
:1054500022602C60ECE71A465B680BB1A342FAD9D4
:1054600011685518A5420BD1246821445418A34251
:105470001160DDD11C685B68536021441160D7E77F
:1054800002D90C230360D3E7256861198B4204BF5E
:1054900019685B68636004BF491921605460C7E7FD
:1054A00003B030BDD48D002038B5074D0446084602
:1054B000114600222A601A4600F04AF8431C02D125
:1054C0002B6803B1236038BD108F002038B5074D1D
:1054D00000230446084611462B6000F021F8431CC7
:1054E00002D12B6803B1236038BD00BF108F0020AC
:1054F00038B5064D0023044608462B6000F018F826
:10550000431C02D12B6803B1236038BD108F0020EB
:10551000024B58221A604FF0FF307047108F002066
:10552000024B58221A604FF0FF307047108F002056
:10553000024B58221A600020704700BF108F0020D5
:10554000024B58221A604FF0FF307047108F002036
:10555000024B58221A604FF0FF307047108F002026
:10556000044A05491368002B08BF0B461844106015
:1055700018467047DC8D0020188F0020024B5822FF
:105580001A604FF0FF307047108F0020F8B500BF51
:10559000F8BC08BC9E467047F8B500BFF8BC08BC14
:0455A0009E4670476C
:1055A4002A2A207072764C65645461736B202564DA
:1055B400204C6F6F70202A2A0D0A000023232070CC
:1055C4007276537461727475705461736B202564C0
:1055D400204C6F6F702023230D0A00006C6564005B
:1055E4007374617274000000E0550008000000004C
:1055F40000000000000000000000000000010000A6
:10560400110000000000000000000000E455000844
:105614000000000000000000000000000000000086
:105624000001000010000000000000000000000065
:10563400764170706C69636174696F6E53746163F1
:105644006B4F766572666C6F77486F6F6B2025734E
:105654000000000001008000004000000000000085
:10566400000000000102030406070809000000000E
:105674000102030449444C4500000000546D72517A
:1056840000000000546D7220537663006C6F6767EE
:105694006572000090560008000000000000000041
:1056A40000000000000000000001000008000000ED
:1056B4000000000000000000286E756C6C290000DA
:1056C400280000200000000000000000000000008E
:1056D40000000000000000000000000000000000C6
:1056E40000000000000000000000000000000000B6
:1056F40000000000000000000000000000000000A6
:105704000000000000000000000000000000000095
:105714000000000000000000000000000000000085
:045724000000000081
:0857280018ABFF7F0100000037
:04573000F501000877
:04573400D101000897
:10573800000402400004024000040240010000008E
:10574800100000000024F40037000000AAAAAAAA4A
:10575800010000002800002000000000E8560008B2
:1057680008570008C85600080000000000000000A4
:105778000000000000000000000000000000000021
:105788000000000000000000000000000000000011
:105798000000000000000000000000000000000001
:1057A80000000000000000000000000000000000F1
:0857B8000000000000000000E9
:0400000508004AEDB8
:00000001FF
