:020000040800F2
:10000000000005205DAD00087D0900087F0900089B
:100010008109000883090008850900080000000024
:10002000000000000000000000000000814F0008F8
:100030008709000800000000215000088909000815
:10004000ADAD0008ADAD0008ADAD0008ADAD000828
:10005000ADAD0008ADAD0008ADAD0008ADAD000818
:10006000ADAD0008ADAD0008ADAD0008ADAD000808
:10007000ADAD0008ADAD0008ADAD0008ADAD0008F8
:10008000ADAD0008ADAD0008ADAD0008ADAD0008E8
:10009000ADAD0008ADAD0008ADAD0008ADAD0008D8
:1000A000ADAD0008ADAD0008ADAD0008ADAD0008C8
:1000B000ADAD0008ADAD0008ADAD0008ADAD0008B8
:1000C000ADAD0008ADAD0008ADAD0008ADAD0008A8
:1000D000ADAD0008ADAD0008ADAD0008ADAD000898
:1000E000ADAD0008ADAD0008ADAD0008ADAD000888
:1000F000A1090008ADAD0008ADAD0008ADAD000828
:10010000ADAD0008ADAD0008ADAD0008ADAD000867
:10011000ADAD0008ADAD0008ADAD0008ADAD000857
:10012000ADAD0008ADAD0008ADAD0008ADAD000847
:10013000ADAD0008FDA60008ADAD0008ADAD0008EE
:10014000ADAD0008ADAD0008ADAD0008ADAD000827
:10015000ADAD0008ADAD0008ADAD0008ADAD000817
:10016000ADAD0008ADAD0008ADAD0008ADAD000807
:10017000ADAD0008ADAD0008ADAD00080000000059
:10018000ADAD0008ADAD0008ADAD0008ADAD0008E7
:10019000ADAD0008ADAD0008ADAD0008ADAD0008D7
:1001A000ADAD0008ADAD0008ADAD0008ADAD0008C7
:1001B000ADAD0008ADAD0008ADAD0008ADAD0008B7
:0801C000ADAD0008ADAD000873
:1001D00010B5054C237833B9044B13B10448AFF381
:1001E00000800123237010BD006A01200000000080
:1001F00038B7000808B5034B1BB103490348AFF3F8
:10020000008008BD00000000046A012038B7000823
:1002100001F0FF01102A2BDB10F0070F08D010F8B7
:10022000013B013A8B422DD010F0070F42B3F6D1BB
:10023000F0B441EA012141EA014122F007047FF0D4
:1002400000070023F0E80256083C85EA010586EA2B
:10025000010685FA47F5A3FA87F586FA47F6A5FA67
:1002600087F68EB9EED1F0BC01F0FF0102F0070273
:1002700032B110F8013B013A83EA010313B1F8D11E
:100280000020704701387047002D06BF35460338FF
:10029000073815F0010F07D1013015F4807F02BF38
:1002A000013015F4C03F0130F0BC0138704700BF89
:1002B00053B94AB9002908BF00281CBF4FF0FF31CD
:1002C0004FF0FF3000F06EB9ADF1080C6DE904CECF
:1002D00000F006F8DDF804E0DDE9022304B0704721
:1002E0002DE9F047089D04468C46002B40F08380A2
:1002F0008A42174647D9B2FA82F242B1C2F12000CF
:1003000024FA00F09140974040EA010C94404FEAF3
:100310001748230CBCFBF8F61FFA87FE08FB16C132
:1003200043EA014306FB0EF1994209D9FB1806F195
:10033000FF3080F01981994240F21681023E3B4421
:100340005B1AA4B2B3FBF8F008FB103344EA034491
:1003500000FB0EFEA64509D93C1900F1FF3380F0E1
:100360000581A64540F2028102383C4440EA06403D
:10037000A4EB0E0400261DB1D4400023C5E90043C0
:100380003146BDE8F08702B9FFDEB2FA82F2002AF8
:1003900050D1CB1B4FEA174E1FFA87F80126B3FB4B
:1003A000FEFC210C0EFB1C3341EA034108FB0CF35D
:1003B0008B4207D979180CF1FF3002D28B4200F240
:1003C000E9808446C91AA3B2B1FBFEF00EFB1011FE
:1003D00043EA014408FB00F8A04507D93C1900F1A5
:1003E000FF3302D2A04500F2D9801846A4EB0804DE
:1003F00040EA0C40BFE78B4209D9002D00F0B180E4
:100400000026C5E9000130463146BDE8F087B3FA61
:1004100083F6002E4AD18B4202D3824200F2B8808A
:10042000841A61EB030101208C46002DA8D0C5E998
:10043000004CA5E7C2F1200320FA03F6974001FA29
:1004400002F04FEA174ED9403043030CB1FBFEF6E1
:100450001FFA87F80EFB161143EA014306FB08F169
:10046000994204FA02F409D9FB1806F1FF3C80F026
:100470008D80994240F28A80023E3B445B1A81B2F1
:10048000B3FBFEF00EFB103341EA034100FB08F31F
:100490008B4207D9791800F1FF3C73D28B4271D996
:1004A00002383944CB1A40EA064678E7C6F1200CF8
:1004B00003FA06F422FA0CF31C4320FA0CF701FAB3
:1004C00006F34FEA144E21FA0CF11F433B0CB1FB2B
:1004D000FEF91FFA84F80EFB191143EA014109FBEA
:1004E00008FA8A4502FA06F200FA06F308D96118FA
:1004F00009F1FF3048D28A4546D9A9F102092144C1
:10050000A1EB0A01BFB2B1FBFEF00EFB101147EAEE
:10051000014700FB08F8B84507D9E71900F1FF319A
:100520002ED2B8452CD90238274440EA0940A7EB1F
:100530000807A0FB02894F45C64649461AD317D083
:100540005DB1B3EB0E0267EB010707FA0CFCF2405A
:100550004CEA0202F740C5E9002700263146BDE813
:10056000F0872E4628460BE70646E9E61846FDE6E4
:100570004345E5D2B8EB020E69EB04010138DFE731
:100580000846D2E760468DE78146B9E7664675E7DB
:1005900030464AE7ACF1020C394413E702383C44D8
:1005A00024E700BF704700BF224B9A6842F4006204
:1005B0009A609A6842F480529A609A6842F4806223
:1005C0009A60DA6842F00102DA609A6842F0010249
:1005D0009A609A6842F002029A609A6842F00402B5
:1005E0009A609A6842F008029A609A6842F0100293
:1005F0009A609A6842F020029A60DA6842F0020239
:10060000DA60DA6842F48032DA60DA6842F40032A2
:10061000DA60DA6842F48022DA609A6842F04002D6
:100620009A609A6842F080029A609A6842F48072F6
:100630009A607047002004E010B500242146064867
:1006400005F0F0F8002000F097FB4FF47A7004F00A
:1006500095FE0134F2E700BF78B7000808B5022024
:1006600000F06AFB72B6FEE700B595B030220021BB
:1006700008A80AF0F7FB002303930493059306935D
:10068000079301F095FC234B1A6C42F080521A64D8
:100690001B6C03F080530193019B1F4B1A6842F4BB
:1006A00040421A601B6803F440430293029B0123FB
:1006B00008934FF4A023099302230E934FF4800272
:1006C0000F92082210924FF4D872119212930923BC
:1006D000139308A800F014FCB0B901F071FCA8B99C
:1006E0000F23039302230493002305934FF4A05395
:1006F00006934FF480530793072103A800F080FE70
:1007000030B915B05DF804FBFFF7A8FFFFF7A6FFAF
:10071000FFF7A4FF003802400070004010B584B01D
:10072000BFF34F8FBFF36F8F3E4B0021C3F85012C2
:10073000BFF34F8FBFF36F8F5A6942F400325A6193
:10074000BFF34F8FBFF36F8FC3F88410BFF34F8F8A
:10075000D3F88040C4F34E3000E01846C4F3C90219
:1007600043F6E07303EA401343EA82732D49C1F86C
:1007700060321346013A002BF2D1431E0028ECD11F
:10078000BFF34F8F0C464B6943F480334B61BFF38B
:100790004F8FBFF36F8F00F023FBE26822F4E0621B
:1007A0001204120C204B1343E360FFF75DFFFFF7C9
:1007B000FBFE1E4B1A6B42F002021A631B6B03F026
:1007C00002030393039B022000F07EFA002000F056
:1007D0007BFA012000F078FA1548164B036001F00F
:1007E000BFF908B1FFF73AFF134B0093134B144ABC
:1007F0001449154805F0A2FB43F698230093134BC8
:1008000001221146104604F09FFF114A00211148B1
:1008100004F048FD104B186004F002FD04F01EFDCA
:10082000FEE700BF00ED00E00003FA0500380240DB
:100830007C0E02200008065000000020C8B7000807
:10084000CCB70008D4B70008D0B70008C0A8B210D1
:10085000A4B7000839060008740E022008B500236A
:100860000A4A13600A480B4A02604360836040F200
:100870003742C2600361836101F066FB18B9044826
:1008800001F0C2F908BDFFF7E9FEF8E78C0E02207F
:10089000900E0220001C0040014B1868704700BFFA
:1008A0008C0E022008B5024804F0BCFFFEE700BF32
:1008B000D8B7000800B589B070BB194B1B6813B9D5
:1008C000174B01221A6004AB05AA06A907A805F078
:1008D00095FA6946079806F071FA6946114804F0DE
:1008E000A1FF6946069806F069FA69460E4804F0C9
:1008F00099FF6946059806F061FA69460B4804F0CD
:1009000091FF6946049806F059FA6946084804F0D0
:1009100089FF09B05DF804FB064804F083FFF8E79F
:100920001C6A012018B80008FCB7000810B80008BD
:100930002CB8000848B8000808B5024801F059F979
:1009400008BD00BF7C0E022010B582B0044601A98C
:10095000054801F01CF920B9019B2360012002B079
:1009600010BD0020FBE700BF7C0E022008B5024846
:1009700004F058FF08BD00BF5CB800087047FEE7F0
:10098000FEE7FEE7FEE7704708B500F03FFA03F028
:1009900035FD012800D108BD04F074FBFBE7000021
:1009A00008B5044A136801331360034801F079F96C
:1009B00008BD00BF8C0E0220900E022000B583B04F
:1009C0000D4B1A6C42F080521A641A6C02F080527D
:1009D0000092009A5A6C42F480425A645B6C03F4B1
:1009E00080430193019B00220F216FF0010000F072
:1009F00031FA03B05DF804FB0038024002680E4B88
:100A00009A4200D0704700B583B003F507331A6CE3
:100A100042F080021A641B6C03F080030193019B77
:100A2000002206212C2000F015FA2C2000F044FAB8
:100A300003B05DF804FB00BF001C004030B5ABB054
:100A400004460021259126912791289129918422FD
:100A500004A80AF007FA2268204B9A4201D02BB072
:100A600030BD1F4C236B43F008032363236B03F05B
:100A700008030193019B236B43F008032363236B5B
:100A800003F008030293029B40230493012515956C
:100A900004A800F091FD236C43F480232364236CAD
:100AA00003F480230393039B4FF4007325930223E5
:100AB000269327950323289307252995A4F53054D9
:100AC00025A9204601F0CCFD4FF48073259329958C
:100AD00025A9204601F0C4FDC1E700BF0048004041
:100AE000003802400268084B9A4200D0704782B03A
:100AF000064B5A6B42F040025A635B6B03F04003B3
:100B00000193019B02B07047000806500038024074
:100B1000F0B593B000230D930E930F9310931193A0
:100B20000268654B9A4201D013B0F0BDA3F5904323
:100B30001A6B42F000721A631A6B02F00072009294
:100B4000009A1A6B42F080621A631A6B02F080629C
:100B50000192019A1A6B42F000621A631A6B02F05A
:100B600000620292029A1A6B42F008021A631A6B30
:100B700002F008020392039A1A6B42F001021A6310
:100B80001A6B02F001020492049A1A6B42F00402FA
:100B90001A631A6B02F004020592059A1A6B42F06E
:100BA00001021A631A6B02F001020692069A1A6B8E
:100BB00042F004021A631A6B02F004020792079AC9
:100BC0001A6B42F004021A631A6B02F004020892D4
:100BD000089A1A6B42F040021A631A6B02F0400244
:100BE0000992099A1A6B42F040021A631A6B02F0DA
:100BF00040020A920A9A1A6B42F040021A631A6B78
:100C000002F040020B920B9A1A6B42F002021A6336
:100C10001B6B03F002030C930C9B03231093022421
:100C20000E9400260F960B2311930D94234D0DA9BE
:100C3000284601F015FD04270D970DA9284601F05F
:100C40000FFD0D941E4C0DA9204601F009FD8023D7
:100C50000D930DA9284601F003FD10230D930DA956
:100C6000204601F0FDFC20230D930DA9204601F044
:100C7000F7FC0D9704F580540DA9204601F0F0FC17
:100C80004FF400630D930DA9204601F0E9FC4FF4E9
:100C900000550D950DA9204601F0E2FC0D950DA91A
:100CA000084801F0DDFC324605213D2000F0D2F875
:100CB0003D2000F001F937E70080024000000240CB
:100CC0000008024000040240F0B589B0044608BBA9
:100CD000164B1A6B42F002021A631B6B03F00203FD
:100CE0000193019B124B33F8146003960123049384
:100CF00000270597032306930E4D03A955F82400FA
:100D000001F0AEFC3A46314655F8240001F098FD5A
:100D100009B0F0BD054B1A6B42F002021A631B6B5F
:100D200003F002030293029BDCE700BF003802409D
:100D300074B800080800002008B50122044B33F8FD
:100D40001010044B53F8200001F07AFD08BD00BFDD
:100D500074B800080800002008B50022044B33F8DE
:100D60001010044B53F8200001F06AFD08BD00BFCD
:100D700074B800080800002008B5044B33F81010C0
:100D8000034B53F8200001F061FD08BD74B8000862
:100D90000800002010B504460E4B18784FF47A7303
:100DA000B3FBF0F30C4A1068B0FBF3F000F092F8DC
:100DB00068B90F2C01D901200AE0002221464FF02A
:100DC000FF3000F047F8054B1C60002000E00120D8
:100DD00010BD00BF140000201C00002018000020DF
:100DE00008B5094B1A6842F400721A601A6842F496
:100DF00080721A60032000F01BF80F20FFF7CAFF73
:100E0000FFF7DCFD002008BD003C0240034A1168EA
:100E1000034B1B780B441360704700BFDC0E0220AD
:100E200014000020014B1868704700BFDC0E022040
:100E30000649CB6823F4E0631B041B0C000200F49A
:100E4000E0600343024A1A43CA60704700ED00E0C5
:100E50000000FA0530B4154BDB68C3F30223C3F17D
:100E60000704042C28BF04241D1D062D14D9033BA0
:100E70004FF0FF3505FA04F421EA0401994005FA20
:100E800003F322EA03031943002807DB0901C9B26F
:100E9000074B195430BC70470023E9E700F00F00FE
:100EA0000901C9B2034B1954F4E700BF00ED00E09B
:100EB00000E400E014ED00E0002807DB00F01F0272
:100EC000400901239340024A42F82030704700BF96
:100ED00000E100E00138B0F1807F0AD2064B586093
:100EE000064AF02182F823100020986007221A6039
:100EF00070470120704700BF10E000E000ED00E007
:100F0000002800F0FF8170B582B00446036813F03A
:100F1000010F29D0A74B9B6803F00C03042B1AD0B8
:100F2000A44B9B6803F00C03082B0FD06368B3F548
:100F3000803F40D0002B54D19E4B1A6822F480325F
:100F40001A601A6822F480221A6039E0994B5B68B3
:100F500013F4800FEAD0974B1B6813F4003F03D0C3
:100F60006368002B00F0D081236813F0020F74D067
:100F7000904B9B6813F00C0F5ED08E4B9B6803F078
:100F80000C03082B53D0E368002B00F08980894ABA
:100F9000136843F001031360FFF744FF0546854BD8
:100FA0001B6813F0020F72D1FFF73CFF401B0228B1
:100FB000F5D90320ADE17F4A136843F48033136011
:100FC00063682BB3FFF72EFF05467A4B1B6813F4BB
:100FD000003FC9D1FFF726FF401B6428F5D9032045
:100FE00097E1B3F5A02F09D0724B1A6822F4803232
:100FF0001A601A6822F480221A60E1E76D4B1A68C1
:1010000042F480221A601A6842F480321A60D7E7EC
:10101000FFF708FF0546674B1B6813F4003FA3D09A
:10102000FFF700FF401B6428F5D9032071E1614BF5
:101030005B6813F4800FA6D15E4B1B6813F0020FA0
:1010400003D0E368012B40F061815A4A136823F012
:10105000F803216943EAC1031360236813F0080F02
:1010600046D0636983B3534A536F43F00103536718
:10107000FFF7D8FE05464F4B5B6F13F0020F37D1D9
:10108000FFF7D0FE401B0228F5D9032041E1494A71
:10109000136823F0F803216943EAC1031360DCE716
:1010A000444A136823F001031360FFF7BBFE0546B3
:1010B000404B1B6813F0020FCFD0FFF7B3FE401B6D
:1010C0000228F5D9032024E13A4A536F23F00103A3
:1010D0005367FFF7A7FE0546364B5B6F13F0020F11
:1010E00006D0FFF79FFE401B0228F5D9032010E130
:1010F000236813F0040F7DD02E4B1B6C13F0805F20
:101100000BD12C4B1A6C42F080521A641B6C03F00A
:1011100080530193019B012500E00025264B1B68AD
:1011200013F4807F0ED0A368012B1FD0002B35D184
:10113000204B1A6F22F001021A671A6F22F0040284
:101140001A6718E01C4A136843F480731360FFF7B2
:1011500069FE0646184B1B6813F4807FE3D1FFF746
:1011600061FE801B6428F5D90320D2E0114A136F79
:1011700043F001031367A36853B3FFF753FE06461A
:101180000C4B1B6F13F0020F33D1FFF74BFE801B8C
:1011900041F288339842F3D90320BAE0052B0DD0F1
:1011A000044B1A6F22F001021A671A6F22F0040230
:1011B0001A67E0E700380240007000405C4B1A6F8D
:1011C00042F004021A671A6F42F001021A67D2E76E
:1011D000FFF728FE0646564B1B6F13F0020F08D090
:1011E000FFF720FE801B41F288339842F3D9032099
:1011F0008FE0FDB9A369002B00F08A804C4A926809
:1012000002F00C02082A58D0022B19D0484A136861
:1012100023F080731360FFF705FE0446444B1B6800
:1012200013F0007F47D0FFF7FDFD001B0228F5D922
:1012300003206EE03E4A136C23F080531364D9E719
:101240003B4A136823F080731360FFF7EBFD0546FC
:10125000374B1B6813F0007F06D0FFF7E3FD401B00
:101260000228F5D9032054E0E369226A1343626A35
:1012700043EA8213A26A5208013A43EA0243E26A4D
:1012800043EA026343F00053294A5360136843F072
:1012900080731360FFF7C6FD0446254B1B6813F0EF
:1012A000007F06D1FFF7BEFD001B0228F5D9032001
:1012B0002FE000202DE000202BE01D4A5268012B7A
:1012C00029D002F48003E1698B4226D102F03F036A
:1012D000216A8B4223D1616A47F6C0731340B3EB96
:1012E000811F1ED102F44031A36A5B08013BB1EBC0
:1012F000034F18D102F07062E36AB2EB036F14D1AE
:10130000002006E001207047012002E0012000E0FB
:10131000002002B070BD0120FBE70120F9E70120A9
:10132000F7E70120F5E70120F3E70120F1E700BF2F
:1013300000380240F8B52F4B9B6803F00C03042BD8
:1013400053D0082B53D12B4B5A6802F03F025B68F5
:1013500013F4800F28D0274B5B68C3F38813580120
:101360000021C01A61F100018E0146EA90668701F2
:101370003C1A66EB0105E90041EA5471E000C0182F
:1013800041F100014B0243EAD05344022046194682
:101390000023FEF78DFF174B5B68C3F30143013356
:1013A0005B00B0FBF3F023E0124B5B68C3F38813E0
:1013B0005C010025E41A65F10005AE0146EA946679
:1013C000A701381B66EB0501CC0044EA5074C50048
:1013D000E81844F100018B0243EA9053840220464E
:1013E00019460023FEF764FFD5E7034800E00348F1
:1013F000F8BD00BF0038024000127A000024F4005B
:10140000002800F0A08070B50D460446524B1B68C2
:1014100003F00F038B420BD24F4A136823F00F03E4
:101420000B431360136803F00F038B4240F08D8071
:10143000236813F0020F17D013F0040F04D0474AAB
:10144000936843F4E0539360236813F0080F04D0CB
:10145000424A936843F460439360404A936823F0A0
:10146000F003A1680B439360236813F0010F31D0A0
:101470006368012B20D0022B25D0384A126812F065
:10148000020F64D035498A6822F0030213438B604F
:10149000FFF7C8FC0646314B9B6803F00C036268FB
:1014A000B3EB820F16D0FFF7BDFC801B41F28833EF
:1014B0009842F0D9032045E0284A126812F4003F10
:1014C000E0D101203EE0254A126812F0007FD9D118
:1014D000012037E0204B1B6803F00F03AB420AD911
:1014E0001D4A136823F00F032B431360136803F0A6
:1014F0000F03AB422DD1236813F0040F06D0174A17
:10150000936823F4E053E1680B439360236813F07E
:10151000080F07D0114A936823F46043216943EA16
:10152000C1039360FFF706FF0C4B9B68C3F30313E3
:101530000B4AD35CD8400B4B18600B4B1868FFF775
:1015400029FC002070BD012070470120FAE701202E
:10155000F8E70120F6E700BF003C024000380240F7
:101560007CB800081C00002018000020014B1868FF
:10157000704700BF1C00002008B5FFF7F7FF044BC1
:101580009B68C3F38223034AD35CD84008BD00BFE5
:10159000003802408CB8000808B5FFF7E7FF044B9D
:1015A0009B68C3F34233034AD35CD84008BD00BFF5
:1015B000003802408CB80008F0B583B004460668D5
:1015C00016F001060DD0B64B9A6822F400029A601C
:1015D0009A68416B0A439A60436B002B00F0398193
:1015E0000026256815F4002511D0AD4AD2F88C30BC
:1015F00023F44013E16B0B43C2F88C30E36BB3F57B
:10160000801F00F02881002B00F02781002523682F
:1016100013F4801F0FD0A24AD2F88C3023F4400379
:10162000216C0B43C2F88C30236CB3F5800F00F0B3
:10163000168103B90125236813F0807F00D00126AD
:1016400013F0200F40F00D81236813F0100F0CD021
:10165000934BD3F88C2022F08072C3F88C20D3F8FF
:101660008C20A16B0A43C3F88C20236813F4804FAD
:1016700008D08B4AD2F8903023F44033616E0B438C
:10168000C2F89030236813F4004F08D0844AD2F88F
:10169000903023F44023A16E0B43C2F890302368AE
:1016A00013F4803F08D07E4AD2F8903023F44013E0
:1016B000E16E0B43C2F89030236813F4003F08D06A
:1016C000774AD2F8903023F44003216F0B43C2F8DD
:1016D0009030236813F0400F08D0714AD2F8903050
:1016E00023F00303616C0B43C2F89030236813F0BE
:1016F000800F08D06A4AD2F8903023F00C03A16C16
:101700000B43C2F89030236813F4807F08D0644AFA
:10171000D2F8903023F03003E16C0B43C2F89030E4
:10172000236813F4007F08D05D4AD2F8903023F08C
:10173000C003216D0B43C2F89030236813F4806F0F
:1017400008D0574AD2F8903023F44073616D0B43B0
:10175000C2F89030236813F4006F08D0504AD2F8D2
:10176000903023F44063A16D0B43C2F8903023689E
:1017700013F4805F08D04A4AD2F8903023F44053E3
:10178000E16D0B43C2F89030236813F4005F08D07A
:10179000434AD2F8903023F44043216E0B43C2F801
:1017A0009030236813F4800F08D03D4AD2F890306F
:1017B00023F08063A16F0B43C2F89030236813F4C9
:1017C000001F0DD0364AD2F8903023F00063E16F4D
:1017D0000B43C2F89030E36FB3F1006F00F0AC80C0
:1017E000236813F0080F00D0012513F4802F08D0D0
:1017F0002B4AD2F8903023F04073616F0B43C2F84C
:101800009030236813F4000F09D0254AD2F89030A5
:1018100023F08053D4F880100B43C2F8903026B9DF
:10182000236813F0007F00F007811D4A136823F03E
:1018300080631360FFF7F6FA0646194B1B6813F036
:10184000006F7BD0FFF7EEFA801B6428F5D90320E8
:10185000F5E00126C5E60126D5E60125D7E60126F5
:10186000E7E60F4B1A6C42F080521A641B6C03F0CF
:1018700080530193019B0B4A136843F480731360F8
:10188000FFF7D0FA0746074B1B6813F4807F0BD194
:10189000FFF7C8FAC01B6428F5D90320CFE000BFCA
:1018A0000038024000700040AB4B1B6F13F44073D4
:1018B00015D0226B02F440729A4210D0A64B1A6FD8
:1018C00022F44072196F41F480311967196F21F4C5
:1018D000803119671A671B6F13F0010F12D1236B48
:1018E00003F44072B2F5407F1DD09B4A936823F405
:1018F000F813936098490B6F226BC2F30B021343EA
:101900000B67A1E6FFF78EFA0746934B1B6F13F0A8
:10191000020FE4D1FFF786FAC01B41F288339842E8
:10192000F3D903208BE08C48826822F4F8128B49AB
:1019300019400A438260DDE7012551E7236813F06F
:10194000010F13D0636B8BB9834AD2F88430D2F87D
:101950008410606803F4403343EA801301F070613F
:101960000B43A16843EA0173C2F88430236813F47F
:10197000002F03D0E26BB2F5801F06D013F4801F56
:101980001ED0236CB3F5800F1AD1734AD2F884307D
:10199000D2F88410606803F4403343EA8013E068AF
:1019A00043EA006301F0E0410B43C2F88430D2F80F
:1019B0008C3023F01F03616A01390B43C2F88C306D
:1019C000236813F0807F11D0634AD2F88400D2F8E4
:1019D0008410666823691B0443EA861300F0706074
:1019E000034301F0E0410B43C2F88430236813F055
:1019F000007F0DD0626823691B0443EA8213E2680A
:101A000043EA0263A26843EA0273534AC2F884308D
:101A1000514A136843F080631360FFF703FA0646E8
:101A20004D4B1B6813F0006F06D1FFF7FBF9801BCD
:101A30006428F5D9032002E0012D02D0002003B074
:101A4000F0BD454A136823F080531360FFF7EAF9AD
:101A50000546414B1B6813F0005F06D0FFF7E2F923
:101A6000401B6428F5D90320E9E7236813F4002F0D
:101A700001D0E26B22B113F4801F1DD0236CDBB9BF
:101A8000354AD2F88830D2F88810606903F44033C0
:101A900043EA8013A06943EA006301F0E0410B438D
:101AA000C2F88830D2F88C3023F4F853A16A013997
:101AB00043EA0123C2F88C30236813F4001F03D0DB
:101AC000E36FB3F1006F31D0236813F0080F19D022
:101AD000214AD2F88810D2F88830606903F4403384
:101AE00043EA801301F070610B43E16943EA01733B
:101AF000C2F88830D2F88C3023F44033E16A0B43CB
:101B0000C2F88C30144A136843F080531360FFF717
:101B100089F90446104B1B6813F0005F19D1FFF7D9
:101B200081F9001B6428F5D9032088E70A4AD2F816
:101B30008800D2F888106569236A1B0443EA85137C
:101B400000F07060034301F0E0410B43C2F88830BD
:101B5000BAE7002073E700BF00380240FFFCFF0F28
:101B600098B110B5044643795BB1022363712268D2
:101B7000136843F004031360012363710020A06025
:101B800010BD0371FEF7AEFFEFE701207047F8B517
:101B90000379012B2BD004460E46012303714579AE
:101BA000EDB29D4206D004238360012500232371FA
:101BB0002846F8BD02234371FFF734F9074623682E
:101BC0005A6812F0010F0BD1FFF72CF9C01B022845
:101BD000F5D9012363710223A36000232371E7E792
:101BE0009B68E3603360012363710025DEE7022513
:101BF000DEE710B5044600F10C01FFF7C8FF08B995
:101C0000E06810BD0020FCE790F83D30DBB2012B0E
:101C10003AD1022380F83D300268D36843F00103D3
:101C2000D36003681A4AB3F1804F18BF93421DD0A6
:101C3000A2F57C42934219D002F58062934215D0FE
:101C400002F58062934211D002F5784293420DD0A2
:101C500002F57052934209D0A2F59432934205D016
:101C60001A6842F001021A60002070479968094A18
:101C70000A40062A18BFB2F5803F07D01A6842F022
:101C800001021A6000207047012070470020704751
:101C9000000001400700010070477047704770471F
:101CA000704710B5044603681A6912F0020F11D08C
:101CB000DA6812F0020F0DD06FF002021A610123F0
:101CC000037703689B6913F0030F79D0FFF7E6FFF2
:101CD0000023237723681A6912F0040F12D0DA6800
:101CE00012F0040F0ED06FF004021A610223237762
:101CF00023689B6913F4407F68D02046FFF7CEFF2E
:101D00000023237723681A6912F0080F12D0DA68CB
:101D100012F0080F0ED06FF008021A610423237727
:101D20002368DB6913F0030F57D02046FFF7B6FF97
:101D30000023237723681A6912F0100F12D0DA6893
:101D400012F0100F0ED06FF010021A6108232377E3
:101D50002368DB6913F4407F46D02046FFF79EFFDF
:101D60000023237723681A6912F0010F03D0DA6881
:101D700012F0010F3FD123681A6912F0800F03D0CF
:101D8000DA6812F0800F3DD123681A6912F4807F5F
:101D900003D0DA6812F0800F3BD123681A6912F081
:101DA000400F03D0DA6812F0400F39D123681A6966
:101DB00012F0200F03D0DA6812F0200F37D110BDD7
:101DC000FFF76BFF2046FFF76AFF81E72046FFF72A
:101DD00064FF2046FFF763FF92E72046FFF75DFFB1
:101DE0002046FFF75CFFA3E72046FFF756FF20469B
:101DF000FFF755FFB4E76FF001021A612046FFF7C5
:101E00004BFFB8E76FF080021A61204600F0CDF872
:101E1000BAE76FF480721A61204600F0C7F8BCE799
:101E20006FF040021A612046FFF73AFFBEE76FF0FD
:101E300020021A61204600F0B7F8C0E770B40368CA
:101E40003A4CA04214BF00240124B0F1804F14BFCB
:101E5000224644F00102AAB9354DA84214BF00251C
:101E60000125344EB0420DD065B905F1804505F528
:101E70008235A84214BF0025012506F50066B04250
:101E800000D01DB123F070034D682B43002A33D1DD
:101E9000274A904214BF00220122264DA8422BD08F
:101EA00052BB02F1804202F58232904214BF0022FE
:101EB000012205F50065A8421ED0EAB91E4A9042EB
:101EC00014BF0022012205F59A35A84214D09AB910
:101ED0001A4A904214BF0022012205F50065A8426B
:101EE0000AD04AB9164A904214BF00220122A5F531
:101EF0009635A84200D01AB123F44073CA68134340
:101F000023F080034A69134303608A68C2620A6847
:101F100082620C4B984214BF234644F001030BB17C
:101F20000B6903630123436170BC704700000140EB
:101F30000008004000040040004401400018004038
:101F4000002000400004014060B310B5044690F842
:101F50003D3013B3022384F83D30214651F8040B81
:101F6000FFF76CFF012384F8483084F83E3084F892
:101F70003F3084F8403084F8413084F8423084F8AF
:101F8000433084F8443084F8453084F8463084F88F
:101F9000473084F83D30002010BD80F83C30FEF71B
:101FA0002DFDD7E70120704770477047704700004C
:101FB000024A136843F48073136070470070004056
:101FC00010B582B01B4B1A6C42F080521A641B6C25
:101FD00003F080530193019B174A136843F4803345
:101FE0001360FEF71FFF0446134B5B6813F4803F3A
:101FF00008D1FEF717FF001BB0F57A7FF4D9032054
:1020000002B010BD0C4A136843F400331360FEF7AE
:1020100009FF0446084B5B6813F4003F07D1FEF745
:1020200001FF001BB0F57A7FF4D90320E8E7002018
:10203000E6E700BF003802400070004010B50446DB
:1020400083680269134342691343C26913430168F9
:102050000868A04A024013430B602268536823F4C7
:102060004053E1680B435360A269236A1A43216815
:102070008B6823F4306313438B602368964A934242
:1020800019D0964A934229D0954A93423ED0954A18
:10209000934262D0944A934271D0944A934200F0A2
:1020A0008380934A934200F09480924A934200F0D6
:1020B000A58010233AE0904BD3F8903003F003034F
:1020C000032B09D8DFE803F00204AE0601232DE05C
:1020D00004232BE0082329E0102327E0864BD3F8C4
:1020E000903003F00C030C2B0ED8DFE803F0070D43
:1020F0000D0D090D0D0D9D0D0D0D0B00002315E0AF
:10210000042313E0082311E010230FE07A4BD3F8E7
:10211000903003F03003202B00F0888019D8002B7A
:1021200000F08680102B40F085800423E069B0F534
:10213000004F00F0AB80082B00F20C81DFE813F0B9
:10214000E800FB00E6000A01FE000A010A010A019C
:102150000101302B70D10823E8E7674BD3F89030AA
:1021600003F0C003802B69D005D8002B68D0402B2A
:1021700068D10423DAE7C02B66D10823D6E75E4B8B
:10218000D3F8903003F44073B3F5007F5ED006D8E7
:10219000002B5DD0B3F5807F5CD10423C6E7B3F597
:1021A000407F59D10823C1E7534BD3F8903003F453
:1021B0004063B3F5006F51D006D8002B50D0B3F573
:1021C000806F4FD10423B1E7B3F5406F4CD10823A2
:1021D000ACE7494BD3F8903003F44053B3F5005FBC
:1021E00044D006D8002B43D0B3F5805F42D10423FE
:1021F0009CE7B3F5405F3FD1082397E73E4BD3F808
:10220000903003F44043B3F5004F37D005D8BBB34B
:10221000B3F5804F36D1042388E7B3F5404F33D16F
:10222000082383E7022381E702237FE702237DE778
:1022300000237BE7102379E7102377E7022375E774
:10224000002373E7102371E710236FE702236DE784
:1022500000236BE7102369E7102367E7022365E794
:10226000012363E7102361E710235FE702235DE7A3
:1022700000235BE7102359E7102357E7022355E7B4
:10228000002353E7102351E710234FE7082B5BD8B7
:10229000DFE803F005343A5A375A5A5A0900FFF773
:1022A0006BF9002852D06268530803EB4000B0FB82
:1022B000F2F080B2A0F110024FF6EF739A4247D8C5
:1022C00020F00F03C0F3420018432368D8600020B9
:1022D00045E000BFF369FFEF0010014000440040FB
:1022E00000480040004C00400050004000140140F5
:1022F00000780040007C004000380240FFF74CF9B5
:10230000CFE7FFF717F8CCE71748CCE7164802E00D
:10231000FFF732F900B3636800EB5300B0FBF3F052
:1023200080B2A0F110024FF6EF739A4216D82368DC
:10233000D860002013E0FFF72FF9EBE7FEF7FAFF74
:10234000E8E74FF40040E6E7012008E0002006E05F
:10235000012004E0012002E0002000E00120002331
:102360006366A36610BD00BF0024F400436A13F047
:10237000010F06D00268536823F40033816A0B43CF
:102380005360436A13F0020F06D00268536823F4C7
:102390008033C16A0B435360436A13F0040F06D0C5
:1023A0000268536823F48023016B0B435360436A34
:1023B00013F0080F06D00268536823F40043416B02
:1023C0000B435360436A13F0100F06D00268936802
:1023D00023F48053816B0B439360436A13F0200F07
:1023E00006D00268936823F40053C16B0B439360DB
:1023F000436A13F0400F0AD00268536823F4801335
:10240000016C0B435360036CB3F5801F0BD0436A20
:1024100013F0800F06D00268536823F40023816C08
:102420000B43536070470268536823F4C003416C48
:102430000B435360EBE72DE9F84305460F4616467C
:102440009946DDF820802C68E46937EA04030CBF64
:1024500001240024B4423DD1B8F1FF3FF3D0FEF790
:10246000E1FCA0EB0900404522D8B8F1000F1FD0D5
:102470002B681A6812F0040FE5D0DA6912F4006FC5
:10248000E1D04FF400621A622A68136823F4D07313
:1024900013602A68936823F0010393602023AB67DD
:1024A000EB67C5F88030002385F87430032012E014
:1024B0002A68136823F4D07313602A68936823F0A2
:1024C000010393602023AB67EB67002385F874302A
:1024D000032000E00020BDE8F8832DE9F04182B040
:1024E0001E46836F202B5AD104460D469046B2FA01
:1024F00082F35B09002908BF0123002B53D190F818
:102500007430012B51D0012380F874300023C0F8BF
:10251000803021238367FEF785FC0746A4F85080AE
:10252000A4F85280A368B3F5805F05D04FF000088F
:10253000002384F8743014E0236913B14FF00008CD
:10254000F6E7A8460025F3E738F8023B2268C3F314
:1025500008039362B4F8522092B2013A92B2A4F8FE
:102560005220B4F852309BB273B100963B46002221
:1025700080212046FFF75FFFC8B9002DE4D015F891
:10258000012B23689A62E5E700963B460022402132
:102590002046FFF750FF60B92023A36700E0022028
:1025A00002B0BDE8F0810120FAE70220F8E703203D
:1025B000F6E70320F4E710B582B004460023C0F824
:1025C0008030FEF72FFC23681B6813F0080F08D13A
:1025D0002023A367E3670020206684F8740002B01C
:1025E00010BD6FF07E430093034600224FF40011AC
:1025F0002046FFF720FF0028EAD00320EFE768B36A
:1026000010B50446836F03B32423A36722681368BD
:1026100023F0010313602046FFF710FD012813D0BB
:10262000636ABBB92268536823F4904353602268FD
:10263000936823F02A0393602268136843F0010330
:1026400013602046FFF7B7FF10BD80F87430FEF727
:10265000F5F9D9E72046FFF789FEE3E70120704747
:1026600000230F2B00F2E380F0B583B039E009229C
:1026700000E00022B2403A4302346D4E46F8242076
:102680006C4A1468EA4324EA05064F6817F4803F51
:1026900001D045EA0406674C2660646802EA040635
:1026A0004F6817F4003F01D045EA0406614C6660AC
:1026B000A46802EA04064F6817F4801F01D045EAB7
:1026C00004065C4CA660E46822404E6816F4001FC5
:1026D00001D045EA0402574CE26001330F2B00F2AF
:1026E000A48001229A400C6804EA020532EA04043C
:1026F000F3D14C68661E112C18BF012E01D9122C83
:1027000012D186685F000324BC4026EA0406CC6828
:10271000BC4034438460466826EA02064C68C4F331
:1027200000129A4032434260C7685E000324B440FE
:10273000E24327EA04078C68B4403C43C4604C6819
:10274000122C18BF022C13D1DF08083750F827E0ED
:1027500003F007044FEA840C0F2404FA0CF42EEA69
:10276000040E0C6904FA0CF444EA0E0440F8274005
:10277000046814404A6802F00302B2402243026037
:102780004A6812F0805FA8D02B4A546C44F480440D
:102790005464526C02F480420192019A9C08A61C77
:1027A000234A52F8267003F0030296000F22B2402B
:1027B00027EA0207214A90423FF45BAF02F58062AC
:1027C000904222D002F58062904220D002F58062D1
:1027D00090421ED002F5806290421CD002F58062C9
:1027E00090421AD002F58062904218D002F58062C1
:1027F000904216D002F58062904214D002F58062B9
:1028000090423FF434AF0A2234E7012232E7022239
:1028100030E703222EE704222CE705222AE70622CE
:1028200028E7072226E7082224E703B0F0BD704717
:1028300000380140003C01400038024000000240E6
:102840000AB181617047090481617047436901EAF7
:10285000030221EA030141EA02418161704700005D
:10286000034AD2F8883043F47003C2F888307047C6
:1028700000ED00E01AB9084206D11046704731EA6F
:10288000000303D0002070470120704701207047EB
:1028900038B5202002F040FA044628B1002540F85F
:1028A000045B00F032F92577204638BD2DE9F0476A
:1028B000DDF820A088B10D4617469846064611F06F
:1028C0007F4915D04FF0500372B683F31188BFF3E0
:1028D0006F8FBFF34F8F62B6FEE74FF0500372B6B3
:1028E00083F31188BFF36F8FBFF34F8F62B6FEE79C
:1028F00051B94FF0500372B683F31188BFF36F8F55
:10290000BFF34F8F62B6FEE701F078FD68B9BAF108
:10291000000F0AD04FF0500372B683F31188BFF353
:102920006F8FBFF34F8F62B6FEE701F065F9346831
:10293000424629462046FFF79DFFE0B117B124EA41
:102940000503336001F022FAB9F1000F10D038B955
:102950001C4B4FF080521A60BFF34F8FBFF36F8F45
:1029600001F070FE044610F0007F1BD024F07F447D
:102970002046BDE8F087BAF1000F11D06FB9494683
:10298000B8F1000F01D041F0806152462943301D5B
:1029900001F05AFB4C46D146D4E74FF08071EFE787
:1029A000D146CFE702F0FEFA346842462946204677
:1029B000FFF760FF18B117B124EA0505356002F092
:1029C00017FBD3E704ED00E080B170B50C46064676
:1029D00011F07F4F15D04FF0500372B683F311887A
:1029E000BFF36F8FBFF34F8F62B6FEE74FF0500318
:1029F00072B683F31188BFF36F8FBFF34F8F62B648
:102A0000FEE702F0CFFA356825EA0404346002F0EC
:102A1000EFFA284670BDF8B578B10D46044611F0BE
:102A20007F4615D04FF0500372B683F31188BFF381
:102A30006F8FBFF34F8F62B6FEE74FF0500372B651
:102A400083F31188BFF36F8FBFF34F8F62B6FEE73A
:102A500000F10C0701F0D0F8206923682B432360B4
:102A60000AE0216833EA010105D111E0216841F053
:102A7000007101F0CDFB2846B8420ED045680268CF
:102A800022F07F4312F0806FEBD121681942F2D01F
:102A900012F0807FEAD01E43E8E7236823EA0603AA
:102AA000236001F073F92068F8BD78B110B50446D1
:102AB00001F0A2F86368FBB1206904F10C039842AD
:102AC0000FD04FF0007101F0A3FBF3E74FF050037C
:102AD00072B683F31188BFF36F8FBFF34F8F62B667
:102AE000FEE74FF0500372B683F31188BFF36F8F88
:102AF000BFF34F8F62B6FEE7237F13B101F046F9B3
:102B000010BD204602F094F9F8E700F10803436095
:102B10004FF0FF328260C36003610023036070479F
:102B200000230361704743684B609A688A60516074
:102B300099600861036801330360704730B40D6821
:102B4000B5F1FF3F11D000F108031C465B681A681D
:102B5000AA42FAD963684B6099608C606160086131
:102B600003680133036030BC70470469F2E703690E
:102B7000416882688A60416851605A68824206D022
:102B8000002202611A68013A1A6018687047826868
:102B90005A60F5E70346406A18B11B6B1868C0F12C
:102BA0003800704710B5044602F0FCF9A26BE36BE5
:102BB0009A4204D0002402F01BFA204610BD0124E2
:102BC000F9E710B5044602F0EDF9A36B23B901242F
:102BD00002F00EFA204610BD0024F9E770B5044655
:102BE0001546866B026C5AB903681BB1002001368A
:102BF000A66370BD806801F069FC0023A360F6E75E
:102C00006DB9406808F006F9226C6368134463608C
:102C1000A268934219D3236863602846E7E7C06837
:102C200008F0F8F8226C5142E3689B1AE3602268CE
:102C3000934202D2A3680B44E360022D01D000202E
:102C4000D5E726B1013E0020D1E72846CFE7002096
:102C5000CDE70346026C6AB110B50846D968114445
:102C6000D9609C68A14201D31968D960D96808F07D
:102C7000D1F810BD704738B5054602F093F995F8C4
:102C8000454064B203E001F0ADFB013C64B2002CAE
:102C900008DD6B6A33B105F1240001F03DFA00282C
:102CA000F3D0F0E7FF2385F8453002F0A1F902F0F8
:102CB00079F995F8444064B203E001F093FB013CDC
:102CC00064B2002C08DD2B6933B105F1100001F06E
:102CD00023FA0028F3D0F0E7FF2385F8443002F010
:102CE00087F938BD38B5A0B10D460446C16B29B18E
:102CF000036C0022A1FB0313B3B9BAB14FF0500328
:102D000072B683F31188BFF36F8FBFF34F8F62B634
:102D1000FEE74FF0500372B683F31188BFF36F8F55
:102D2000BFF34F8F62B6FEE70122E6E702F03AF901
:102D30002168E26B236C03FB0210A0600020A063FB
:102D40006160013A02FB0313E360FF2384F844301F
:102D500084F84530A5B923691BB902F049F901206F
:102D600038BD04F1100001F0D7F90028F5D0094B67
:102D70004FF080521A60BFF34F8FBFF36F8FECE7B5
:102D800004F11000FFF7C1FE04F12400FFF7BDFEBF
:102D9000E3E700BF04ED00E038B51D46049C0B4698
:102DA00049B92460E063236401212046FFF79AFFBC
:102DB00084F84C5038BD2260F4E70BB310B584B0F2
:102DC0001C4640B30B1E18BF0123002A08BF012375
:102DD0000BB3B1FA81F35B09002A18BF0123D3B109
:102DE00050230393039B502B20D04FF0500372B617
:102DF00083F31188BFF36F8FBFF34F8F62B6FEE787
:102E00004FF0500372B683F31188BFF36F8FBFF397
:102E10004F8F62B6FEE74FF0500372B683F311880E
:102E2000BFF36F8FBFF34F8F62B6FEE7039B0123A3
:102E300084F8463000949DF81830FFF7ADFF204627
:102E400004B010BDF0B583B060B10C46174606461D
:102E50000023A0FB041282B923B904FB06F010F191
:102E6000510F0CD94FF0500372B683F31188BFF3A2
:102E70006F8FBFF34F8F62B6FEE70123ECE7503050
:102E800001F04AFF054650B1002380F8463000901B
:102E90003B4600F1500221463046FFF77DFF2846B1
:102EA00003B0F0BD30B583B01346884234BF002272
:102EB0000122002808BF002252B94FF0500372B619
:102EC00083F31188BFF36F8FBFF34F8F62B6FEE7B6
:102ED0000C460222009200221146FFF76EFF0346C5
:102EE00000B18463184603B030BD884234BF00236C
:102EF0000123002808BF002353B94FF0500372B6D6
:102F000083F31188BFF36F8FBFF34F8F62B6FEE775
:102F100010B50C4602220021FFF794FF034600B1D2
:102F20008463184610BD0000F0B585B0019298B1D9
:102F30000E461D460446D1B1022D26D1E36B012B6E
:102F400023D04FF0500372B683F31188BFF36F8F15
:102F5000BFF34F8F62B6FEE74FF0500372B683F3B4
:102F60001188BFF36F8FBFF34F8F62B6FEE7036C1C
:102F7000002BE1D04FF0500372B683F31188BFF3FA
:102F80006F8FBFF34F8F62B6FEE701F037FA074647
:102F900068B9019B002B46D04FF0500372B683F303
:102FA0001188BFF36F8FBFF34F8F62B6FEE7002724
:102FB00039E02A4631462046FFF710FE626A6AB9B8
:102FC00038B13C4B4FF080521A60BFF34F8FBFF3C4
:102FD0006F8F02F00DF8012005B0F0BD04F1240060
:102FE00001F09AF80028F4D0324B4FF080521A606A
:102FF000BFF34F8FBFF36F8FEBE701F0F9FF0020B6
:10300000EAE702A801F09AF9012719E0002384F801
:10301000443021E0002384F8453023E02046FFF7C8
:103020002AFE00F0B3FE01F0BDFFA26BE36B9A42F3
:10303000BFD3022DBDD0019B002BDED0002FE0D0EE
:1030400001F0D6FF00F0D8FD01F0ACFF94F8443059
:103050005BB2B3F1FF3FD9D094F845305BB2B3F126
:10306000FF3FD7D001F0C4FF01A902A801F072F917
:10307000C8B92046FFF796FD0028CFD0019904F18A
:10308000100000F0C7FF2046FFF7F5FD00F07EFEC0
:103090000028C8D1074B4FF080521A60BFF34F8F02
:1030A000BFF36F8FBFE72046FFF7E5FD00F06EFE30
:1030B000002091E704ED00E02DE9F843A0B1894636
:1030C00090461F460446D1B1022F26D1E36B012B57
:1030D00023D04FF0500372B683F31188BFF36F8F84
:1030E000BFF34F8F62B6FEE74FF0500372B683F323
:1030F0001188BFF36F8FBFF34F8F62B6FEE7036C8B
:10310000002BE1D04FF0500372B683F31188BFF368
:103110006F8FBFF34F8F62B6FEE702F04FF8EFF309
:1031200011864FF0500372B683F31188BFF36F8F8F
:10313000BFF34F8F62B6A26BE36B9A4206D3022FA6
:1031400004D0002086F31188BDE8F88394F8455038
:103150006DB2A36B3A4649462046FFF73FFDB5F1F5
:10316000FF3F07D07F2D15D06B1C5BB284F8453034
:103170000120E7E7636A0BB90120E3E704F12400CB
:1031800000F0CAFF88B1B8F1000F10D00120C8F8D4
:103190000000D7E74FF0500372B683F31188BFF3F6
:1031A0006F8FBFF34F8F62B6FEE70120CAE70120A1
:1031B000C8E70000F0B585B00192A0B10E46044604
:1031C000E1B101F01BF9074630BB019B002B62D037
:1031D0004FF0500372B683F31188BFF36F8FBFF3C4
:1031E0004F8F62B6FEE74FF0500372B683F311883B
:1031F000BFF36F8FBFF34F8F62B6FEE7036C002BF8
:10320000DFD04FF0500372B683F31188BFF36F8F96
:10321000BFF34F8F62B6FEE700273CE03146204601
:10322000FFF717FD013DA563236923B901F0E0FE17
:10323000012005B0F0BD04F1100000F06DFF002882
:10324000F4D0354B4FF080521A60BFF34F8FBFF36D
:103250006F8FEBE701F0CCFE0020EAE702A801F057
:103260006DF8012721E0002384F8443029E0002391
:1032700084F845302BE02046FFF7FDFC00F086FD8A
:1032800009E02046FFF7F7FC00F080FD2046FFF73D
:1032900098FC00283DD101F085FEA56B002DBDD125
:1032A000019B002BD6D0002FD8D001F0A1FE00F05A
:1032B000A3FC01F077FE94F844305BB2B3F1FF3F1A
:1032C000D1D094F845305BB2B3F1FF3FCFD001F0DD
:1032D0008FFE01A902A801F03DF80028D1D12046B7
:1032E000FFF76FFC0028C6D0019904F1240000F01C
:1032F00091FE2046FFF7BFFC00F048FD0028CAD130
:10330000054B4FF080521A60BFF34F8FBFF36F8FA2
:10331000C1E700208DE700BF04ED00E070B584B088
:10332000019168B10446036CABB14FF0500372B623
:1033300083F31188BFF36F8FBFF34F8F62B6FEE741
:103340004FF0500372B683F31188BFF36F8FBFF352
:103350004F8F62B6FEE701F051F8064660B9019B57
:103360006BB14FF0500372B683F31188BFF36F8FC8
:10337000BFF34F8F62B6FEE700252E4655E00546A7
:1033800053E0013BA36323683BB123694BB901F0D0
:103390002FFE0125284604B070BD01F05FF9A06042
:1033A000F3E704F1100000F0B7FE0028EFD0474B20
:1033B0004FF080521A60BFF34F8FBFF36F8FE6E775
:1033C00055B14FF0500372B683F31188BFF36F8F7E
:1033D000BFF34F8F62B6FEE701F00AFEDAE702A8FC
:1033E00000F0ACFF01262AE0002384F8443032E0EC
:1033F000002384F8453034E001F0D4FDA06801F0EA
:103400000DF8054601F0F4FD3BE02046FFF733FCE4
:1034100000F0BCFC09E02046FFF72DFC00F0B6FCF4
:103420002046FFF7CEFB002840D101F0BBFDA36B87
:10343000002BA6D1019B002BC2D0002ECFD001F0D3
:10344000D7FD00F0D9FB01F0ADFD94F844305BB23C
:10345000B3F1FF3FC8D094F845305BB2B3F1FF3F02
:10346000C6D001F0C5FD01A902A800F073FF002835
:10347000D1D12046FFF7A5FB0028C6D02368002B3A
:10348000BAD0019904F1240000F0C4FD2046FFF7F2
:10349000F2FB00F07BFC0028C7D10C4B4FF08052B0
:1034A0001A60BFF34F8FBFF36F8FBEE70DB90025D2
:1034B00070E701F077FD2046FFF76CFB0146A0683E
:1034C00001F05EF801F094FDF1E700BF04ED00E0CB
:1034D0002DE9F843D8B189461746054611B301F0E6
:1034E0006DFEEFF311864FF0500372B683F311882F
:1034F000BFF36F8FBFF34F8F62B6D5F83880B8F146
:10350000000F1DD1002086F31188BDE8F8834FF02D
:10351000500372B683F31188BFF36F8FBFF34F8FE1
:1035200062B6FEE7036C002BD9D04FF0500372B6A1
:1035300083F31188BFF36F8FBFF34F8F62B6FEE73F
:1035400095F8444064B249462846FFF782FB08F1EB
:10355000FF33AB63B4F1FF3F07D07F2C12D0631C65
:103560005BB285F844300120CDE72B690BB901200F
:10357000C9E705F1100000F0CFFD70B17FB1012067
:103580003860C0E74FF0500372B683F31188BFF381
:103590006F8FBFF34F8F62B6FEE70120B3E70120C4
:1035A000B1E740B110B5044601F0FCFCA46B01F09A
:1035B0001FFD204610BD4FF0500372B683F31188F3
:1035C000BFF36F8FBFF34F8F62B6FEE728B110B421
:1035D000044699B100231A4614E04FF0500372B626
:1035E00083F31188BFF36F8FBFF34F8F62B6FEE78F
:1035F0000E4B03EBC2030BB119605C605DF8044B2A
:1036000070470132072AF6D8084800EBC20040682C
:10361000A042EDD0002BF4D1044850F8320000282D
:10362000EFD1024B03EBC203EBE700BFE00E022039
:10363000014650B10023072B1AD80E4A02EBC302F1
:1036400052688A420CD00133F5E74FF0500372B64E
:1036500083F31188BFF36F8FBFF34F8F62B6FEE71E
:10366000044A002142F8331002EBC303596070474B
:10367000704700BFE00E022038B110B50446FFF7D6
:10368000D7FF94F846305BB110BD4FF0500372B6CF
:1036900083F31188BFF36F8FBFF34F8F62B6FEE7DE
:1036A000204601F0C5FBEFE770B504460D4616460F
:1036B00001F078FC94F844305BB2B3F1FF3F0DD0D9
:1036C00094F845305BB2B3F1FF3F0BD001F090FCB2
:1036D000A36B5BB12046FFF7CEFA70BD002384F8E0
:1036E0004430EDE7002384F84530EFE732462946C1
:1036F00004F1240000F0E4FCECE70000074B1B6839
:103700001B6823B9064B4FF0FF321A607047034B1A
:103710001B68DB681A68024B1A607047246A012034
:10372000D06E01202DE9F04707468A461546984697
:10373000089EDDF824900A9C9200A521206B07F0DA
:1037400091FB236B6FF040422A4403EB820323F08A
:1037500007056564BAF1000F1CD000230F2B09D8B0
:103760001AF80310E21882F834101AF803200AB18C
:103770000133F3E7002384F84330372E0ED94FF09E
:10378000500372B683F31188BFF36F8FBFF34F8F6F
:1037900062B6FEE7002384F83430EEE7E662266581
:1037A0004FF0000AC4F854A0201DFFF7B9F904F146
:1037B0001800FFF7B5F92461C6F13806A661646206
:1037C000C4F858A0C4F85CA084F860A0424639460A
:1037D000284601F0BDFB2060B9F1000F01D0C9F807
:1037E0000040BDE8F087000038B50024372C08D829
:1037F00004EB840293000E481844FFF786F9013465
:10380000F4E70C4D2846FFF780F90B4C2046FFF7F4
:103810007CF90A48FFF779F90948FFF776F9094872
:10382000FFF773F9084B1D60084B1C6038BD00BFE3
:103830002C6A0120A86E0120BC6E0120DC6E0120E4
:10384000086F0120F46E0120246A0120286A0120FB
:1038500010B5044601F0A6FB284A13680133136033
:10386000274B1B685BB1274B1B686BB9244B1B684C
:10387000DA6AE36A9A4207D8214B1C6004E0204BC5
:103880001C601368012B35D01F4A13680133136085
:10389000A364E36A1D4A1268934201D91B4A13606C
:1038A0001B4A03EB830302EB83035B68A360986806
:1038B000E060211D41609960E36A03EB83018800A9
:1038C00002EB8101616111580131115001F090FB4F
:1038D0000C4B1B686BB10A4B1B68DA6AE36A9A42AD
:1038E00007D20C4B4FF080521A60BFF34F8FBFF3DB
:1038F0006F8F10BDFFF778FFC6E700BF946E012001
:10390000206A0120F06E0120A06E0120A46E01202B
:103910002C6A012004ED00E010B5044690F86130F7
:1039200073B1012B13D0022B10D04FF0500372B69D
:1039300083F31188BFF36F8FBFF34F8F62B6FEE73B
:10394000006B01F075FA204601F072FA10BD01F02B
:103950006FFAFBE70F4B1B68D3B110B501F022FBE8
:103960000D4BDB68DC68201DFFF701F90B4A13687B
:10397000013B1360074A1368013B136001F038FBF9
:103980002046FFF7C9FF034B1B68002BE6D110BD93
:10399000704700BF986E0120086F0120946E0120CF
:1039A00008B5FFF7D7FF064B1B68012BF9D9054B6C
:1039B0004FF080521A60BFF34F8FBFF36F8FF0E765
:1039C0002C6A012004ED00E070B504460D46204B42
:1039D0001E68204B18680430FFF7C9F8B4F1FF3FA8
:1039E00014BF00230123002D08BF00239BB11A4AF6
:1039F0005168184B1868816018688C68C460186832
:103A0000043060601868043088601B685A6113686D
:103A10000133136070BD34440E4B1B685C60A642DA
:103A200007D90E4B18680B4B19680431FFF786F85D
:103A3000F0E70B4B1868074B19680431FFF77EF865
:103A4000084B1B68A342E5D9064B1C60E2E700BFA8
:103A50001C6F0120206A0120F46E0120286A0120D9
:103A6000246A0120D06E012070B586B00B9D0C9C9D
:103A700085B1D4B164260496049E642E20D04FF004
:103A8000500372B683F31188BFF36F8FBFF34F8F6C
:103A900062B6FEE74FF0500372B683F31188BFF3AE
:103AA0006F8FBFF34F8F62B6FEE74FF0500372B6D1
:103AB00083F31188BFF36F8FBFF34F8F62B6FEE7BA
:103AC000049E2563022584F8615000250395029425
:103AD00005AD01950A9D0095FFF724FE2046FFF7EE
:103AE000B7FE059806B070BD2DE9F04385B00746D6
:103AF000884614461E46900001F00EF900B3814638
:103B0000642001F009F90546B0B1C0F83090E5B184
:103B1000002385F86130039302950D9B01930C9B64
:103B200000933346224641463846FFF7FBFD2846C0
:103B3000FFF78EFE012005E0484601F079F9E6E73F
:103B40004FF0FF3005B0BDE8F0834FF0FF30F9E7EC
:103B500010B588B000240594069407AA06A905A804
:103B600001F028FD059B0293069B019300942346D8
:103B7000079A1B491B48FFF777FF58B101F018F867
:103B80000346012B08D0B3F1FF3F1ED0164B1B6834
:103B900008B010BD0023F4E74FF0500372B683F372
:103BA0001188BFF36F8FBFF34F8F62B60F4B4FF08B
:103BB000FF321A600E4B01221A600E4B00221A606F
:103BC000FCF74CFE01F092FAE0E74FF0500372B6BA
:103BD00083F31188BFF36F8FBFF34F8F62B6FEE799
:103BE00094B80008A139000820000020D06E012000
:103BF000F06E01201C6F0120024A1368013313602C
:103C0000704700BF9C6E0120014B1868704700BFD1
:103C10001C6F0120524B1B68002B40F0988070B540
:103C2000504B1C6801341C60D4B94F4B1B681B6897
:103C300053B14FF0500372B683F31188BFF36F8F07
:103C4000BFF34F8F62B6FEE7474A1168474B1868CB
:103C500010601960464A136801331360FFF74EFD88
:103C6000444B1B68A34210D90020434B1B68DB6AFE
:103C700003EB83039A00414B9B58012B00D9012091
:103C80003F4B1B68002B68D170BD002034E0394BDE
:103C90004FF0FF321A60E8E7364B1A60E5E7D96863
:103CA00051603FE000219962116801391160DA6AC0
:103CB000344909688A4201D932490A602F4902EB26
:103CC000820295000D446A689A609568DD606E60B6
:103CD0009660DA6A02EB8206B5004E195E614D59B4
:103CE000013502EB820296008D51DA6A224B1B6885
:103CF000DB6A9A4200D301201B4B1B681B68002B18
:103D0000C5D0194B1B68DB68DB685A689442C3D383
:103D10005A699D68D968A9609D684D6051681E1DEB
:103D2000B142BCD0002159611168013911609A6A11
:103D3000002ABCD0DD69196AA960DD694D6055684B
:103D400003F118018D42ADD1196A5160AAE70E4AFC
:103D500013680133136000207047012094E700BF0F
:103D60009C6E01201C6F0120246A0120286A01201A
:103D7000D46E0120D06E0120206A01202C6A01201F
:103D8000206F0120A46E0120D86E01204A4B1B68D1
:103D900053B94FF0500372B683F31188BFF36F8F9E
:103DA000BFF34F8F62B6FEE710B501F0FBF8424B50
:103DB0001A68013A1A601B68002B78D13F4B1B68C8
:103DC0003BB9002474E0196A516015E0D96851606C
:103DD00021E000233A4A1268002A47D0384BDB68BA
:103DE000DB689A6AD869196A8160D8694860506846
:103DF00003F118018842E6D0002199621168013967
:103E000011605A699868D9688160986848605168FB
:103E1000181D8142DAD00021596111680139116001
:103E2000DA6A284909688A4201D926490A6026497E
:103E300002EB820201EB820252689A609468DC60B5
:103E400060609060DA6A02EB8200840001EB80001F
:103E50005861085901300851D96A1C4A1268D26A5F
:103E60009142B7D31A4A01211160B3E70BB1FFF7B2
:103E700045FC184B1C6874B9154B1C68C4B1164B33
:103E80004FF080521A60BFF34F8FBFF36F8F012442
:103E90000EE0013C07D0FFF7BDFE0028F9D00C4B27
:103EA00001221A60F5E70B4B00221A60E4E70024B8
:103EB00001F09EF8204610BD9C6E0120946E0120FA
:103EC000DC6E0120A46E01202C6A0120206A0120F2
:103ED000206F0120D86E012004ED00E010B5B8B1CC
:103EE0000446104B1B6853B14FF0500372B683F376
:103EF0001188BFF36F8FBFF34F8F62B6FEE7FFF7F6
:103F00007BFE00212046FFF75FFDFFF73FFF38B93A
:103F1000054B4FF080521A60BFF34F8FBFF36F8F86
:103F200010BD00BF9C6E012004ED00E008B5324BCF
:103F30001B681BB1314B01221A6008BD2F4B0022B8
:103F40001A60FCF7A9FC2E4A106013682D4A12680B
:103F5000934207D92A4B1B689A1A2B4B19688B6D11
:103F600013448B65264B1A68264B1A60264B1A6839
:103F700012681B681B6B9A420AD9244B1B6803EB1F
:103F80008302920022498A58A2B943B1013BF6E765
:103F90001D4B186819683431FCF784FCEDE74FF0CD
:103FA000500372B683F31188BFF36F8FBFF34F8F47
:103FB00062B6FEE703EB830201EB820250684068C1
:103FC000506003EB8302920008320A4490420BD007
:103FD00003EB83010E4A02EB81025268D1680A4A60
:103FE00011600A4A1360A8E7406803EB8301084A9E
:103FF00002EB81025060EBE79C6E0120206F0120F4
:10400000906E01208C6E0120206A0120A46E012098
:104010002C6A012058B110B50C460A4B19681831AA
:10402000FEF78CFD01212046FFF7CEFC10BD4FF0BE
:10403000500372B683F31188BFF36F8FBFF34F8FB6
:1040400062B6FEE7206A012038B5034678B1104613
:104050001A46194B1B68ABB94FF0500372B683F385
:104060001188BFF36F8FBFF34F8F62B6FEE74FF03B
:10407000500372B683F31188BFF36F8FBFF34F8F76
:1040800062B6FEE70D4B1C6841F00041A16151682A
:104090001C68E1611C688D6825621C6818346C60BE
:1040A0001C6818348C601B689A62136801331360B3
:1040B0000121FFF789FC38BD9C6E0120206A012098
:1040C0000346D8B170B5084611461A465C68114BD4
:1040D0001D68EC611D68A6682E621D681835756044
:1040E0001D681835A5601B689A6213680133136058
:1040F00009B14FF0FF30FFF767FC70BD4FF0500380
:1041000072B683F31188BFF36F8FBFF34F8F62B620
:10411000FEE700BF206A0120C368DB68002B4BD09C
:1041200010B49A6AD869196A8160D8694860516880
:1041300003F1180081424AD00021996211680139C7
:1041400011602D4A1268002A47D15A699868D968C7
:104150008160986848605168181D81423AD00021FA
:104160005961116801391160DA6A244909688A4283
:1041700001D922490A60224902EB820201EB820244
:1041800052689A609468DC6060609060DA6A02EB62
:104190008200840001EB8000586108590130085109
:1041A000DA6A184B1B68DB6A9A4222D90120164B47
:1041B00018605DF8044B70474FF0500372B683F3FC
:1041C0001188BFF36F8FBFF34F8F62B6FEE7196A96
:1041D0005160B1E7D9685160C1E70C4A5168D961B3
:1041E0008C681C62606088609A621168013111609D
:1041F000D6E70020DDE700BF9C6E0120A46E012001
:104200002C6A0120206A0120206F0120DC6E012031
:104210000B463649096851B94FF0500372B683F323
:104220001188BFF36F8FBFF34F8F62B6FEE7024670
:1042300043F000430360C368002B46D010B401690B
:10424000406894688460906854684460486890420C
:1042500046D0002010610A68013A0A605A699868DD
:10426000D9688160986848605168181D81423AD0C9
:1042700000215961116801391160DA6A1C49096825
:104280008A4201D91A490A601A4902EB820201EBFB
:10429000820252689A609468DC6060609060DA6ABA
:1042A00002EB8200840001EB800058610859013064
:1042B0000851DA6A104B1B68DB6A9A4202D90F4B2D
:1042C00001221A605DF8044B70474FF0500372B63C
:1042D00083F31188BFF36F8FBFF34F8F62B6FEE792
:1042E00090684860B5E7D9685160C1E79C6E0120CD
:1042F000A46E01202C6A0120206A0120206F012079
:1043000060B110B5044600F04DFE0A4B1B682360F7
:10431000094B1B68636000F06BFE10BD4FF050034B
:1043200072B683F31188BFF36F8FBFF34F8F62B6FE
:10433000FEE700BFD46E01201C6F0120034B1B68F9
:104340000360034B1B684360704700BFD46E0120BD
:104350001C6F0120F8B5B8B10C460546F9B100F064
:1043600021FE1E4B19686B68C81A2268B2F1FF3F24
:104370002ED02F681A4E3668B7421BD08B4219D800
:1043800000232360012424E04FF0500372B683F32E
:104390001188BFF36F8FBFF34F8F62B6FEE74FF008
:1043A000500372B683F31188BFF36F8FBFF34F8F43
:1043B00062B6FEE7824203D800232360012408E0AE
:1043C0005B1A134423602846FFF7B8FF002400E07F
:1043D000002400F00DFE2046F8BD00BF1C6F012038
:1043E000D46E0120014B01221A607047206F01201A
:1043F000014B1868704700BF206A0120054B1B68FD
:1044000033B1054B1B680BB1002070470220704789
:1044100001207047F06E01209C6E012000284BD0D7
:1044200038B50446C36A264A1268D26A93423BD220
:104430008269002A05DB224A1268D26AC2F1380278
:104440008261616903EB83031E4A02EB8303994295
:1044500005D01B4B1B68DB6AE362012038BD251DBC
:104460002846FEF784FB164B1B68DB6AE362164A9C
:104470001268934201D9144A1360124A03EB830372
:1044800002EB83035B68A3609968E1604D609D6007
:10449000E36A03EB8301880002EB8101616111583B
:1044A000013111500120D9E7026D054B1B68DB6A11
:1044B0009A4203D30020D1E7002070470120CDE7C6
:1044C000206A01202C6A0120A46E012000284CD013
:1044D00038B50446274B1B6883420AD04FF050037F
:1044E00072B683F31188BFF36F8FBFF34F8F62B63D
:1044F000FEE7436D53B94FF0500372B683F3118852
:10450000BFF36F8FBFF34F8F62B6FEE7013B43658A
:10451000C16A026D91422AD00BB1002038BD051D41
:104520002846FEF724FB236DE362C3F13802A26143
:10453000114A1268934201D90F4A13600F4A03EBE4
:10454000830302EB83035B68A3609968E1604D60BD
:104550009D60E36A03EB8301880002EB81016161E6
:104560001158013111500120D8E700207047002078
:10457000D4E700BF206A0120A46E01202C6A01202C
:10458000002858D038B50A460446416D51B94FF05D
:10459000500372B683F31188BFF36F8FBFF34F8F51
:1045A00062B6FEE7036D934200D21346E26A9A4276
:1045B00001D0012900D038BD1F490968A1422FD080
:1045C000E362A169002902DBC3F13803A3616169D9
:1045D00002EB8202194B03EB82029142EBD1251DC3
:1045E0002846FEF7C4FAE36A154A1268934201D9D5
:1045F000134A1360114A03EB830302EB83035B68E6
:10460000A3609968E1604D609D60E36A03EB8301FC
:10461000880002EB81016161115801311150CAE734
:104620004FF0500372B683F31188BFF36F8FBFF35F
:104630004F8F62B6FEE77047206A01202C6A012086
:10464000A46E0120044A136898691368DB6A126833
:10465000C3F1380393617047206A0120054B1B6842
:1046600023B1044B1A68536D01335365014B18682D
:10467000704700BF206A012050B14FF0500372B65E
:1046800083F31188BFF36F8FBFF34F8F62B6FEE7DE
:1046900070B50E461546044600F084FC204B1B689E
:1046A00004F1160203EB82035B6833B91C4B1B68F1
:1046B0002344012283F86020E5B900F099FC00F062
:1046C00071FC174B1B6804F1160203EB82035D6853
:1046D00035B1E6B1124B1B6803EB820300225A602E
:1046E0000F4B1B681C44002384F8603000F080FCF2
:1046F000284670BD11462846FFF766F9094B4FF072
:1047000080521A60BFF34F8FBFF36F8FD5E7044B12
:104710001B686A1E04F1160103EB81035A60DFE790
:10472000206A012004ED00E078B170B50D46164610
:104730000446A9B14FF0500372B683F31188BFF35A
:104740006F8FBFF34F8F62B6FEE74FF0500372B624
:1047500083F31188BFF36F8FBFF34F8F62B6FEE70D
:1047600000F02CFDEFF311814FF0500372B683F38C
:104770001188BFF36F8FBFF34F8F62B6631993F841
:104780006020D2B2022083F8600005F1160304EB2A
:104790008303586801305860012A02D081F31188E0
:1047A00070BDA36A53B14FF0500372B683F3118802
:1047B000BFF36F8FBFF34F8F62B6FEE7264B1B68C8
:1047C000002B3BD16369A268E0689060E268A06852
:1047D00050605A68201D82422DD0002262611A6802
:1047E000013A1A60E36A1D4A1268934201D91B4AD2
:1047F00013601B4A03EB830302EB83035B68A36034
:104800009D68E56068609860E36A03EB830085005B
:1048100002EB80006061505901305051E26A114B47
:104820001B68DB6A9A42B9D90EB1012333600E4B83
:1048300001221A60B2E7E2685A60CEE70B4B5A6871
:10484000E2619568256204F1180068609060A362D7
:104850001A6801321A60E1E79C6E0120A46E012003
:104860002C6A0120206A0120206F0120DC6E0120CB
:10487000064B1A6813682BB90123036023B9D36868
:10488000186870470023F8E700207047246F012064
:1048900008B54160006191420CD8D21A83699A42EE
:1048A00001D3012008BD011D0B4B1868FEF746F926
:1048B0000020F7E79A422CBF00220122994238BF1C
:1048C00000220AB10120EDE7011D044B1868FEF734
:1048D00035F90020E6E700BF286F0120246F012092
:1048E00070B504460D461646A1692B46324629444A
:1048F0002046FFF7CDFF28B1A3691D44236A204657
:104900009847F1E770BD000070B505460E460D4BA7
:104910001B68DB68DC68201DFEF729F994F8283055
:1049200013F0040F07D123F0010384F82830236A21
:104930002046984770BD324629462046FFF7D0FFF3
:10494000F5E700BF246F012008B5084B1B681A6803
:1049500032B1DB684FF0FF311868FFF7D5FFF4E79D
:10496000034A106801490860136008BD246F0120E4
:10497000286F012038B50546FFF746F90446074B76
:104980001B68834205D800232B60044B1C60204623
:1049900038BDFFF7D9FF01232B60F6E7F46F012044
:1049A00070B582B006460C46FFF726F901A8FFF75E
:1049B000E1FF019A4ABB0546B04234BF0023012300
:1049C000002C18BF0023BBB924B1124B1B681B6815
:1049D000CBB901242246711B0F4B1868FEF764FE09
:1049E000FFF7D4F998B90D4B4FF080521A60BFF31E
:1049F0004F8FBFF36F8F0AE0FFF7C8F929463046A3
:104A0000FFF782FF03E01446E4E7FFF7BFF902B0C7
:104A100070BD00BF286F01204870012004ED00E048
:104A200030B587B002E0029B002B0FDA002202A90A
:104A30003C4B1868FEF7BEFB002870D0029B002B91
:104A4000F1DA05990498039B9847ECE7049C6369A5
:104A500013B1201DFEF78BF801A8FFF78BFF054669
:104A6000029B013B082BE1D8DFE803F00505293064
:104A70004B050529300094F8283043F0010384F8F1
:104A80002830039BA169024619442046FFF700FF26
:104A90000028CBD094F8283013F0040F07D123F06E
:104AA000010384F82830236A20469847BEE7A369AB
:104AB0002A46039919442046FFF712FFF3E794F8BA
:104AC000283023F0010384F82830AFE794F8283029
:104AD00043F0010384F828300399A16131B1034602
:104AE000024601442046FFF7D3FE9FE74FF05003F4
:104AF00072B683F31188BFF36F8FBFF34F8F62B627
:104B0000FEE794F8283013F0020F04D023F00103DD
:104B100084F828308AE7204600F08AF986E707B053
:104B200030BD00BF4870012000B583B001A8FFF779
:104B30009FFE0199FFF734FFFFF772FFF6E70000D1
:104B400030B583B000F02EFA114B1B681BB100F09A
:104B50004FFA03B030BD0F4D2846FDF7D6FF0E4C7F
:104B60002046FDF7D2FF0D4B1D600D4B1C6000234E
:104B700000930C4B0C4A10210A20FEF71EF9044B3F
:104B800018600028E3D00949FEF720FDDFE700BFE9
:104B900048700120CC6F0120E06F0120246F0120BC
:104BA000286F0120F86F01202C6F01209CB80008AD
:104BB00010B588B0FFF7C4FF134B1B68CBB10024BE
:104BC0000594069407AA06A905A800F0FFFC059B1A
:104BD0000293069B0193022300932346079A0B49F5
:104BE0000B48FEF741FF0B4A106010B1012008B0DE
:104BF00010BD4FF0500372B683F31188BFF36F8F6F
:104C0000BFF34F8F62B6FEE748700120A4B80008DA
:104C1000294B00084C70012030B585B005460C4684
:104C200011461A460C4B186858B14FF0FF330093E9
:104C300001950294039100236946FEF775F905B0CA
:104C400030BD4FF0500372B683F31188BFF36F8FFE
:104C5000BFF34F8F62B6FEE748700120124A12F090
:104C6000070F1ED0D11D21F00701C1F500431344E9
:104C70000A460E480260002141601344083B23F0BD
:104C800007030B48036059601960991A516013605B
:104C9000084B1960084B1960084B4FF000421A602E
:104CA00070474FF40043E4E75470012068F001209E
:104CB000507001205CF0012058F0012054F00120D8
:104CC00010B4134B1A461B688342FBD35168541827
:104CD00084420AD041684418A3420BD0036090423A
:104CE00000D010605DF8044B70474068014451608B
:104CF0001046EFE7074C2468A34206D05B681944CE
:104D0000416013681B680360E9E70460E7E700BFE0
:104D100068F001205070012038B50446FEF76CFFA2
:104D20003D4B1B68DBB13D4B1B681C4257D1631EDA
:104D300013F10A0F55D804F1080314F0070F05D03A
:104D400023F0070208329A425CD91346002B5BD04D
:104D5000334A12689A4259D3324A146804E0FFF782
:104D60007DFFE0E722460C466168994202D2216845
:104D70000029F7D128490968A14249D015680835AA
:104D8000216811606268D21A102A12D9E01810F056
:104D9000070F0AD04FF0500372B683F31188BFF3A8
:104DA0006F8FBFF34F8F62B6FEE742606360FFF71D
:104DB00087FF62681A490B689B1A0B601A490968D9
:104DC0008B4201D218490B60144B1B68134363607C
:104DD00000232360154A13680133136002E00025A5
:104DE00000E00025FEF7D2FF15F0070F12D04FF0BC
:104DF000500372B683F31188BFF36F8FBFF34F8FE9
:104E000062B6FEE70025EDE70025EBE70025E9E7C0
:104E10000025E7E7284638BD5070012054F00120F6
:104E200058F0012068F001205CF0012060F00120C2
:104E3000002838D038B50446A0F1080550F8043CE5
:104E4000194A126813420AD14FF0500372B683F325
:104E50001188BFF36F8FBFF34F8F62B6FEE750F834
:104E6000081C51B14FF0500372B683F31188BFF3A1
:104E70006F8FBFF34F8F62B6FEE723EA020340F85D
:104E8000043CFEF7B9FE54F8041C084A13680B44AE
:104E900013602846FFF714FF054A136801331360B7
:104EA000FEF774FF38BD704754F0012058F0012020
:104EB00064F00120014B1868704700BF58F00120D2
:104EC000014B1868704700BF5CF0012082B00023DE
:104ED00001930F4B1B68B3F1FF3F0AD04FF0500313
:104EE00072B683F31188BFF36F8FBFF34F8F62B633
:104EF000FEE74FF0500372B683F31188BFF36F8F54
:104F0000BFF34F8F62B6019B002BFCD002B07047FD
:104F10002400002008480068006880F308884FF0EB
:104F2000000080F3148862B661B6BFF34F8FBFF301
:104F30006F8F00DF00BF000008ED00E0DFF80C001D
:104F4000016841F4700101607047000088ED00E0E5
:104F50004FF0807340F8043C21F0010140F8081C38
:104F6000054B40F80C3C40F8202C6FF0020340F851
:104F7000243C4438704700BFCD4E000800000000BC
:104F8000074B19680868B0E8F04F80F30988BFF351
:104F90006F8F4FF0000080F311887047AFF30080EF
:104FA000206A01204FF0500372B683F31188BFF3DB
:104FB0006F8FBFF34F8F62B60B4A136801331360D4
:104FC000012B00D07047094B1B6813F0FF0FF9D07D
:104FD0004FF0500372B683F31188BFF36F8FBFF3A6
:104FE0004F8F62B6FEE700BF2400002004ED00E012
:104FF0000A4B1B6853B94FF0500372B683F3118804
:10500000BFF36F8FBFF34F8F62B6FEE7013B034ADA
:1050100013600BB983F31188704700BF2400002090
:10502000EFF30980BFF36F8F154B1A681EF0100F56
:1050300008BF20ED108A20E9F04F10602DE909002B
:105040004FF0500072B680F31188BFF34F8FBFF35B
:105050006F8F62B6FEF76AFF4FF0000080F3118891
:1050600009BC19680868B0E8F04F1EF0100F08BFBF
:10507000B0EC108A80F30988BFF36F8F704700BFD0
:10508000206A012008B54FF0500372B683F31188EF
:10509000BFF36F8FBFF34F8F62B6FEF7BBFD18B142
:1050A000034B4FF080521A60002383F3118808BD30
:1050B00004ED00E0084A0023136008490B60084B28
:1050C0001B680849A1FB03139B09013B06490B60C0
:1050D00007231360704700BF10E000E018E000E015
:1050E0001C000020D34D621014E000E010B582B027
:1050F0002C4B1A78D2B20192FF221A701B78DBB2C5
:105100008DF803309DF8033003F05003264A1370E6
:10511000264B07221A609DF8033013F0800F0AD047
:10512000224A1368013B13609DF803305B00DBB239
:105130008DF80330EFE71D4B1B68032B0AD04FF0AF
:10514000500372B683F31188BFF36F8FBFF34F8F95
:1051500062B6FEE71B0203F4E063144A1360019B8E
:10516000DBB2104A1370124B1A6842F470021A60D4
:105170001A6842F070421A60FFF79CFF00240D4B42
:105180001C60FFF7DBFE0C4A136843F040431360DA
:10519000FFF7C0FEFEF7CAFEFFF798FE204602B0FA
:1051A00010BD00BF00E400E070F0012074F00120A9
:1051B00020ED00E02400002034EF00E0EFF3058351
:1051C0000F2B11D9124A9B5CDBB2124A12789A4219
:1051D0000AD94FF0500372B683F31188BFF36F8F73
:1051E000BFF34F8F62B6FEE70B4B1B6803F4E0631F
:1051F0000A4A126893420AD94FF0500372B683F3F9
:105200001188BFF36F8FBFF34F8F62B6FEE7704711
:10521000F0E300E070F001200CED00E074F00120FC
:10522000EFF305837BB9EFF3108313B9EFF3118329
:105230001BB1094B1B68022B08D0074B186840B9FB
:1052400001221A6070476FF0050070476FF005008B
:1052500070474FF0FF307047DCF2012008B5EFF3E4
:105260000583A3B9EFF3108313B9EFF311831BB1D7
:105270000B4B1B68022B0DD0094B1B68012B0CD16B
:10528000074B02221A60FEF763FC002008BD6FF096
:105290000500FBE76FF00500F8E74FF0FF30F5E79A
:1052A000DCF20120F0B587B000240594EFF305840B
:1052B000002C38D1EFF3108313B9EFF311831BB136
:1052C0002D4B1B68022B2ED068B322B3156893694F
:1052D00003B918235C1E372C49D8546814F0010F09
:1052E00047D156696EB14FEA960C94682CB1D768D5
:1052F000632F02D9176907B1C6B92CB14FF0FF343B
:105300000EE04FF0800CF0E7D4688CB9146994B1CA
:105310004FF0FF3404E01546002418234FF0800CB2
:10532000012C0AD0ACB1059807B0F0BD0124F7E715
:105330004FF0FF34F4E70024F2E714699268029218
:10534000019400930B4662462946FEF78DFB0590BB
:10535000E9E705AA019200930B461FFA8CF2294651
:10536000FEF7C2FB0128DED000230593DBE7002017
:10537000DAE70020D8E700BFDCF2012008B5EFF340
:10538000058383B9EFF3108313B9EFF311831BB1D6
:10539000084B1B68022B09D008B9002008BDFEF796
:1053A0009DFD0020FAE76FF00500F7E76FF00500BC
:1053B000F4E700BFDCF2012070B582B0EFF30583A3
:1053C000002B47D11446EFF3108313B9EFF3118389
:1053D0001BB1254B1B68022B40D00B1E18BF0123AD
:1053E00000283DD0002B3BD06CB3A3684BB1E268E2
:1053F0004F2A06D9226922B1666901FB00F5AE4247
:105400001BD273B14FF0FF3363BB0022FDF71AFDCF
:10541000054605B304B1246821462846FEF7D6F8B0
:1054200019E0E3688BB9236913B14FF0FF33EBE761
:1054300063696BB14FF0FF33E6E700250095FDF798
:10544000BCFC0546E5E70023DEE74FF0FF33DBE772
:105450000023D9E70025284602B070BD0025FAE7F1
:105460000025F8E70025F6E7DCF2012010B582B050
:105470001C46EFF30582D2B9EFF3108313B9EFF3B3
:1054800011831BB1204B1B68022B10D0B1FA81F2A3
:105490005209002808BF012272BB00232246FDF7F3
:1054A00043FD01282BD064B36FF0010019E0B1FA7D
:1054B00081F25209002808BF0122A2B9B4B9002321
:1054C000019301AAFDF7F8FD012812D1019840B11E
:1054D0000E4B4FF080521A60BFF34F8FBFF36F8FA8
:1054E000002002B010BD6FF00300FAE76FF0030078
:1054F000F7E76FF00200F4E76FF00300F1E7002038
:10550000EFE76FF00200ECE7DCF2012004ED00E0D1
:1055100010B582B01C46EFF30582CAB9EFF31083D1
:1055200013B9EFF311831BB1204B1B68022B0FD073
:10553000B1FA81F25209002808BF01226ABB224653
:10554000FDF738FE01282BD064B36FF0010019E09D
:10555000B1FA81F25209002808BF0122A2B9B4B9F8
:105560000023019301AAFDF7B3FF012812D101988E
:1055700040B10F4B4FF080521A60BFF34F8FBFF313
:105580006F8F002002B010BD6FF00300FAE76FF0DC
:105590000300F7E76FF00200F4E76FF00300F1E7B4
:1055A0000020EFE76FF00200ECE700BFDCF2012023
:1055B00004ED00E0034B0360034B0B60802313609A
:1055C000704700BF78F2012078F00120034B0360A0
:1055D000034B0B604FF4807313607047E0F60120BB
:1055E000E0F2012010B59CB035E04FF47A73BDF8BD
:1055F000082003A92E48FCF770FF3DE04FF0604300
:105600001A700134029BA3423AD91CAB234413F80D
:10561000642C4FF06043D3F8803E13F0010FF0D0BC
:105620004FF06043D3F8003E13F0010FE9D04FF084
:1056300060431B68002BE1D100BFF8E700F0F4FDE8
:1056400038B300231A4619461A48FFF7E5FA20E056
:105650000220FBF781FB6423002202A916480068A0
:10566000FFF756FF0028F6D104460220FBF764FB43
:10567000124B1B68002BB8D1114B1B68002BC1D1FA
:10568000104B1B68002BE3D00F4B1B68B3F1FF3F9F
:10569000D4D00D4B1868B0F1FF3FD9D00823019347
:1056A0000A4B00930023029A03A901F019FACFE7ED
:1056B000200F0220D156000844F701202C000020C2
:1056C00048F701204CF7012028000020A80F0220F5
:1056D00010B582B011220221084601F051F9B0F153
:1056E000FF3F0ED0044604230093074B0122002104
:1056F00001F09AFC00221146204601F0ABF9034B61
:105700001C6002B010BD00BFD8B8000828000020FF
:1057100070B59AB004460D4664263246002101A8B1
:1057200005F0A0FB2B462246314601A805F002FCFD
:10573000009000231A46694602480068FFF796FE6B
:105740001AB070BD44F701202DE9F04104460F4620
:1057500016461D46BDF81880FEF750FE01280AD0F7
:105760004FF0500372B683F31188BFF36F8FBFF30E
:105770004F8F62B6FEE7214B1C60214B1F60214B0F
:105780001E6004BB1F4B1B6833B14FEA182343EA6A
:1057900008231D4A53805560184B1B6813B9184BDA
:1057A0001B6873B1002268211020FFF705FE174A1D
:1057B0001060F8B1164A00211648FFF773FD164B2A
:1057C0001860BDE8F0811548154B03604FF4E133D4
:1057D000436000238360C36003610C2242618361E4
:1057E000C36103624362FCF70AFF0028CAD0FAF7DC
:1057F00035FFC7E7FAF732FFDCE700BF2C000020D7
:1058000048F701204CF70120A80F022044F701209F
:10581000B4B80008E5550008A40F0220200F0220AC
:10582000004800400FB400B583B004A951F8040B40
:105830000191FFF76DFF03B05DF804EB04B0704712
:105840000023052B21DC10B403EB4302104C54F869
:105850002220824206D00133052BF5DD00205DF8C1
:10586000044B704703EB430204EB8202D27A0AB97D
:105870000220F4E703EB430304EB830353F8042F04
:105880000A609B888B800120E9E70020704700BFF9
:1058900050F70120434B5B69434A52684B40134227
:1058A0003BD07047012124E0002122E0002D41D0AF
:1058B00009B9A0460BE0134604EB440203EB820255
:1058C0009621917213460122DA724AE0274601348A
:1058D000052C30DC002DE7D004EB4400334B03EB08
:1058E000800006222946043005F086FA0028D9D027
:1058F000002104EB44032D4A52F82330B342D5D0A3
:105900000029E3D104EB4403284A02EB83039B7A8A
:105910004B45DCD29946A246D9E72DE9F04705462A
:105920000E464FF0FF094FF0000A4FF0FF37B84620
:105930005446CDE7A046002F20DBB8F1000F12DA65
:1059400007EB4703194A42F82360F5B102EB8303E2
:1059500029685960A9881981962199721A460123EC
:10596000D372BDE8F087114908EB480001EB8002D3
:10597000002341F8203053609360E1E7B8F1000F55
:1059800001DB4746DCE75746DAE7B8F1000FE8DA13
:10599000064B07EB470203EB8202052191720023BD
:1059A000D372DEE7340000204804022050F70120C3
:1059B00070B5C569D0F82660234B5B69002B41D0D8
:1059C0000446828AB2F5807F04D0B2F5007F33D0DE
:1059D000002038E0B34201D0002034E029461630E0
:1059E000FFF758FF0023237502236375B54211D0DA
:1059F000234653F8162F22629B88A384C4F82650AE
:105A0000114B1868C4F816009A8862835B69E361D9
:105A1000022018E00D4B1A68C4F806209B886381A9
:105A200000232362A38484F8263084F8273084F886
:105A3000283084F82930E3E729461630FFF72AFF9B
:105A4000002000E0002070BD340000208CB9000868
:105A500070B504460D460668304600F009FAC0B934
:105A60002668B6F1FF3F1AD0194B1B699E4216D02B
:105A7000184B5B694BB39E4218D0154A526873406D
:105A8000134203D0124B9B6803B11E46AEB90220ED
:105A90000BE02946304600F0FFF9012005E00E4BEF
:105AA0001A682A609B88AB80012070BD094B18687A
:105AB00028609B88AB800120F7E729463046FFF736
:105AC000BFFE0028F1D12660EFE70220EDE700BF1E
:105AD00048040220340000208CB9000880B12DE970
