:020000040800F2
:100000000000052075270108C5310008C731000828
:10001000C9310008CB310008CD31000800000000D4
:10002000000000000000000000000000017F000848
:10003000CF31000800000000A17F0008D131000886
:10004000C5270108C5270108C5270108C5270108DC
:10005000C5270108C5270108C5270108C5270108CC
:10006000C5270108C5270108C5270108C5270108BC
:10007000C5270108C5270108C5270108C5270108AC
:10008000C5270108C5270108C5270108C52701089C
:10009000C5270108C5270108C5270108C52701088C
:1000A000C5270108C5270108C5270108C52701087C
:1000B000E9310008C5270108C5270108C52701083F
:1000C000C5270108C5270108C5270108C52701085C
:1000D000C5270108C5270108C5270108C52701084C
:1000E000C5270108C5270108C5270108C52701083C
:1000F000C5270108C5270108C5270108C52701082C
:10010000C5270108C5270108C5270108C52701081B
:10011000C5270108C5270108C5270108C52701080B
:10012000C5270108C5270108C5270108C5270108FB
:10013000C5270108B9F50008C5270108C52701082A
:10014000C5270108C5270108C5270108C5270108DB
:10015000C5270108C5270108C5270108C5270108CB
:10016000C5270108C5270108C5270108C5270108BB
:10017000C5270108C5270108C527010800000000A0
:10018000C5270108C5270108C5270108C52701089B
:10019000C5270108C5270108C5270108C52701088B
:1001A000C5270108C5270108C5270108C52701087B
:1001B000C5270108C5270108C5270108C52701086B
:0801C000C5270108C52701084D
:1001D00010B5054C237833B9044B13B10448AFF381
:1001E00000800123237010BDA081012000000000C9
:1001F0002847010808B5034B1BB103490348AFF377
:10020000008008BD00000000A481012028470108EB
:10021000034613F8012B002AFBD1181A0138704746
:1002200001F0FF01102A2BDB10F0070F08D010F8A7
:10023000013B013A8B422DD010F0070F42B3F6D1AB
:10024000F0B441EA012141EA014122F007047FF0C4
:1002500000070023F0E80256083C85EA010586EA1B
:10026000010685FA47F5A3FA87F586FA47F6A5FA57
:1002700087F68EB9EED1F0BC01F0FF0102F0070263
:1002800032B110F8013B013A83EA010313B1F8D10E
:100290000020704701387047002D06BF35460338EF
:1002A000073815F0010F07D1013015F4807F02BF28
:1002B000013015F4C03F0130F0BC0138704700BF79
:1002C00081F0004102E000BF83F0004330B54FEA07
:1002D00041044FEA430594EA050F08BF90EA020F74
:1002E0001FBF54EA000C55EA020C7FEA645C7FEA07
:1002F000655C00F0E2804FEA5454D4EB5555B8BF2A
:100300006D420CDD2C4480EA020281EA030382EA9A
:10031000000083EA010180EA020281EA0303362D2C
:1003200088BF30BD11F0004F4FEA01314FF4801CFF
:100330004CEA113102D0404261EB410113F0004F11
:100340004FEA03334CEA133302D0524263EB4303C8
:1003500094EA050F00F0A780A4F10104D5F1200E66
:100360000DDB02FA0EFC22FA05F2801841F10001C1
:1003700003FA0EF2801843FA05F359410EE0A5F195
:1003800020050EF1200E012A03FA0EFC28BF4CF0C6
:10039000020C43FA05F3C01851EBE37101F000457C
:1003A00007D54FF0000EDCF1000C7EEB00006EEB89
:1003B0000101B1F5801F1BD3B1F5001F0CD3490813
:1003C0005FEA30004FEA3C0C04F101044FEA44526A
:1003D00012F5800F80F09A80BCF1004F08BF5FEAF1
:1003E000500C50F1000041EB045141EA050130BDD1
:1003F0005FEA4C0C404141EB0101013C28BFB1F5E3
:10040000801FE9D291F0000F04BF01460020B1FA2D
:1004100081F308BF2033A3F10B03B3F120020CDA00
:100420000C3208DD02F1140CC2F10C0201FA0CF0DE
:1004300021FA02F10CE002F11402D8BFC2F1200C43
:1004400001FA02F120FA0CFCDCBF41EA0C019040F9
:10045000E41AA2BF01EB0451294330BD6FEA040442
:100460001F3C1CDA0C340EDC04F11404C4F120022D
:1004700020FA04F001FA02F340EA030021FA04F33F
:1004800045EA030130BDC4F10C04C4F1200220FA96
:1004900002F001FA04F340EA0300294630BD21FAD4
:1004A00004F0294630BD94F0000F83F4801306BF9A
:1004B00081F480110134013D4EE77FEA645C18BF8E
:1004C0007FEA655C29D094EA050F08BF90EA020F25
:1004D00005D054EA000C04BF1946104630BD91EA1D
:1004E000030F1EBF0021002030BD5FEA545C05D120
:1004F0004000494128BF41F0004130BD14F580045F
:100500003CBF01F5801130BD01F0004545F0FE41D2
:1005100041F470014FF0000030BD7FEA645C1ABF07
:10052000194610467FEA655C1CBF0B46024650EA3E
:10053000013406BF52EA033591EA030F41F400216A
:1005400030BD00BF90F0000F04BF0021704730B5F0
:100550004FF4806404F132044FF000054FF00001C5
:1005600050E700BF90F0000F04BF0021704730B586
:100570004FF4806404F1320410F0004548BF40425B
:100580004FF000013EE700BF42004FEAE2014FEAB0
:1005900031014FEA02701FBF12F07F4393F07F4F8B
:1005A00081F06051704732F07F4208BF704793F08E
:1005B0007F4F04BF41F40021704730B54FF46074A1
:1005C00001F0004521F000411CE700BF50EA0102A4
:1005D00008BF704730B54FF000050AE050EA01024D
:1005E00008BF704730B511F0004502D5404261EBBD
:1005F00041014FF4806404F132045FEA915C3FF4FE
:10060000D8AE4FF003025FEADC0C18BF03325FEA9A
:10061000DC0C18BF033202EBDC02C2F1200300FA4B
:1006200003FC20FA02F001FA03FE40EA0E0021FA70
:1006300002F11444BDE600BF70B54FF0FF0C4CF45E
:10064000E06C1CEA11541DBF1CEA135594EA0C0F10
:1006500095EA0C0F00F0DEF82C4481EA030621EA4B
:100660004C5123EA4C5350EA013518BF52EA033586
:1006700041F4801143F4801338D0A0FB02CE4FF038
:100680000005E1FB02E506F00042E0FB03E54FF068
:100690000006E1FB03569CF0000F18BF4EF0010E60
:1006A000A4F1FF04B6F5007F64F5407404D25FEA5C
:1006B0004E0E6D4146EB060642EAC62141EA55510F
:1006C0004FEAC52040EA5E504FEACE2EB4F1FD0C51
:1006D00088BFBCF5E06F1ED8BEF1004F08BF5FEACF
:1006E000500E50F1000041EB045170BD06F0004681
:1006F00046EA010140EA020081EA0301B4EB5C042E
:10070000C2BFD4EB0C0541EA045170BD41F4801125
:100710004FF0000E013C00F3AB8014F1360FDEBF4A
:10072000002001F0004170BDC4F10004203C35DA26
:100730000C341BDC04F11404C4F1200500FA05F3A9
:1007400020FA04F001FA05F240EA020001F000424A
:1007500021F0004110EBD37021FA04F642EB0601C0
:100760005EEA430E08BF20EAD37070BDC4F10C04EA
:10077000C4F1200500FA04F320FA05F001FA04F2AE
:1007800040EA020001F0004110EBD37041F100019A
:100790005EEA430E08BF20EAD37070BDC4F12005A5
:1007A00000FA05F24EEA020E20FA04F301FA05F20D
:1007B00043EA020321FA04F001F0004121FA04F2B5
:1007C00020EA020000EBD3705EEA430E08BF20EA85
:1007D000D37070BD94F0000F0FD101F000464000BF
:1007E00041EB010111F4801F08BF013CF7D041EA41
:1007F000060195F0000F18BF704703F00046520045
:1008000043EB030313F4801F08BF013DF7D043EA15
:100810000603704794EA0C0F0CEA135518BF95EACB
:100820000C0F0CD050EA410618BF52EA4306D1D152
:1008300081EA030101F000414FF0000070BD50EA71
:10084000410606BF1046194652EA430619D094EAFB
:100850000C0F02D150EA013613D195EA0C0F05D1E5
:1008600052EA03361CBF104619460AD181EA030139
:1008700001F0004141F0FE4141F470014FF00000F1
:1008800070BD41F0FE4141F4780170BD70B54FF08C
:10089000FF0C4CF4E06C1CEA11541DBF1CEA13550C
:1008A00094EA0C0F95EA0C0F00F0A7F8A4EB0504EE
:1008B00081EA030E52EA03354FEA013100F08880E5
:1008C0004FEA03334FF0805545EA131343EA1263AE
:1008D0004FEA022245EA111545EA10654FEA002663
:1008E0000EF000419D4208BF964244F1FD0404F51C
:1008F000407402D25B084FEA3202B61A65EB030578
:100900005B084FEA32024FF480104FF4002CB6EB34
:10091000020E75EB030E22BFB61A754640EA0C00B4
:100920005B084FEA3202B6EB020E75EB030E22BFF4
:10093000B61A754640EA5C005B084FEA3202B6EB35
:10094000020E75EB030E22BFB61A754640EA9C00F4
:100950005B084FEA3202B6EB020E75EB030E22BFC4
:10096000B61A754640EADC0055EA060E18D04FEA82
:10097000051545EA16754FEA06164FEAC30343EA22
:1009800052734FEAC2025FEA1C1CC0D111F4801FEF
:100990000BD141EA00014FF000004FF0004CB6E7E8
:1009A00011F4801F04BF01430020B4F1FD0C88BF87
:1009B000BCF5E06F3FF6AFAEB5EB030C04BFB6EB92
:1009C000020C5FEA500C50F1000041EB045170BD85
:1009D0000EF0004E4EEA113114EB5C04C2BFD4EBB2
:1009E0000C0541EA045170BD41F480114FF0000E36
:1009F000013C90E645EA060E8DE60CEA135594EAB2
:100A00000C0F08BF95EA0C0F3FF43BAF94EA0C0FB4
:100A10000AD150EA01347FF434AF95EA0C0F7FF429
:100A200025AF104619462CE795EA0C0F06D152EA7D
:100A300003353FF4FDAE1046194622E750EA410661
:100A400018BF52EA43067FF4C5AE50EA41047FF472
:100A50000DAF52EA43057FF4EBAE12E74FF0FF3CD7
:100A600006E000BF4FF0010C02E000BF4FF0010CA8
:100A70004DF804CD4FEA410C7FEA6C5C4FEA430C21
:100A800018BF7FEA6C5C1BD001B050EA410C0CBF70
:100A900052EA430C91EA030F02BF90EA020F0020D2
:100AA000704710F1000F91EA030F58BF994208BF39
:100AB00090422CBFD8176FEAE37040F001007047F6
:100AC0004FEA410C7FEA6C5C02D150EA013C07D14D
:100AD0004FEA430C7FEA6C5CD6D152EA033CD3D098
:100AE0005DF8040B704700BF8446104662468C4692
:100AF0001946634600E000BF01B5FFF7B7FF0028C5
:100B000048BF10F1000F01BD4DF808EDFFF7F4FFED
:100B10000CBF012000205DF808FB00BF4DF808ED78
:100B2000FFF7EAFF34BF012000205DF808FB00BF9B
:100B30004DF808EDFFF7E0FF94BF012000205DF8BD
:100B400008FB00BF4DF808EDFFF7CEFF94BF012072
:100B500000205DF808FB00BF4DF808EDFFF7C4FF6B
:100B600034BF012000205DF808FB00BF4FEA4102BE
:100B700012F5001215D211D56FF47873B3EB6252EF
:100B800012D94FEAC12343F0004343EA505311F016
:100B9000004F23FA02F018BF404270474FF00000A8
:100BA000704750EA013005D111F0004008BF6FF0E6
:100BB000004070474FF00000704700BF4A0011D25C
:100BC00012F5001211D20DD56FF47873B3EB6252A7
:100BD0000ED44FEAC12343F0004343EA505323FAB3
:100BE00002F070474FF00000704750EA013002D128
:100BF0004FF0FF3070474FF00000704753B94AB9CB
:100C0000002908BF00281CBF4FF0FF314FF0FF3014
:100C100000F06EB9ADF1080C6DE904CE00F006F8F5
:100C2000DDF804E0DDE9022304B070472DE9F04768
:100C3000089D04468C46002B40F083808A4217466C
:100C400047D9B2FA82F242B1C2F1200024FA00F090
:100C50009140974040EA010C94404FEA1748230C1A
:100C6000BCFBF8F61FFA87FE08FB16C143EA0143F6
:100C700006FB0EF1994209D9FB1806F1FF3080F00E
:100C80001981994240F21681023E3B445B1AA4B29C
:100C9000B3FBF8F008FB103344EA034400FB0EFEFC
:100CA000A64509D93C1900F1FF3380F00581A6451E
:100CB00040F2028102383C4440EA0640A4EB0E04B4
:100CC00000261DB1D4400023C5E900433146BDE8EC
:100CD000F08702B9FFDEB2FA82F2002A50D1CB1BB4
:100CE0004FEA174E1FFA87F80126B3FBFEFC210CD2
:100CF0000EFB1C3341EA034108FB0CF38B4207D97E
:100D000079180CF1FF3002D28B4200F2E980844660
:100D1000C91AA3B2B1FBFEF00EFB101143EA014465
:100D200008FB00F8A04507D93C1900F1FF3302D2B7
:100D3000A04500F2D9801846A4EB080440EA0C4014
:100D4000BFE78B4209D9002D00F0B1800026C5E92C
:100D5000000130463146BDE8F087B3FA83F6002E35
:100D60004AD18B4202D3824200F2B880841A61EBEE
:100D7000030101208C46002DA8D0C5E9004CA5E751
:100D8000C2F1200320FA03F6974001FA02F04FEA7D
:100D9000174ED9403043030CB1FBFEF61FFA87F81B
:100DA0000EFB161143EA014306FB08F1994204FACF
:100DB00002F409D9FB1806F1FF3C80F08D809942BE
:100DC00040F28A80023E3B445B1A81B2B3FBFEF0E4
:100DD0000EFB103341EA034100FB08F38B4207D9B5
:100DE000791800F1FF3C73D28B4271D90238394433
:100DF000CB1A40EA064678E7C6F1200C03FA06F45F
:100E000022FA0CF31C4320FA0CF701FA06F34FEA1E
:100E1000144E21FA0CF11F433B0CB1FBFEF91FFAF3
:100E200084F80EFB191143EA014109FB08FA8A45CF
:100E300002FA06F200FA06F308D9611809F1FF3048
:100E400048D28A4546D9A9F102092144A1EB0A01F9
:100E5000BFB2B1FBFEF00EFB101147EA014700FBE9
:100E600008F8B84507D9E71900F1FF312ED2B84587
:100E70002CD90238274440EA0940A7EB0807A0FB19
:100E800002894F45C64649461AD317D05DB1B3EB28
:100E90000E0267EB010707FA0CFCF2404CEA020273
:100EA000F740C5E9002700263146BDE8F0872E4609
:100EB00028460BE70646E9E61846FDE64345E5D237
:100EC000B8EB020E69EB04010138DFE70846D2E710
:100ED00060468DE78146B9E7664675E730464AE7E2
:100EE000ACF1020C394413E702383C4424E700BF5C
:100EF000704700BF224B9A6842F400629A609A6879
:100F000042F480529A609A6842F480629A60DA6889
:100F100042F00102DA609A6842F001029A609A682F
:100F200042F002029A609A6842F004029A609A685B
:100F300042F008029A609A6842F010029A609A6839
:100F400042F020029A60DA6842F00202DA60DA685F
:100F500042F48032DA60DA6842F40032DA60DA6849
:100F600042F48022DA609A6842F040029A609A68FD
:100F700042F080029A609A6842F480729A607047E8
:100F8000002004E008B5002002F020FB4FF47A7046
:100F900007F0B4F9F7E70000044B1A68044800FBB7
:100FA00002F001301860C0F30E407047BC81012090
:100FB000354E5A0108B5002002F0F8FA012002F07F
:100FC000F5FA022002F0E2FA72B6FEE700B595B03B
:100FD0003022002108A811F081FC00230393049320
:100FE00005930693079303F02DFB234B1A6C42F0F5
:100FF00080521A641B6C03F080530193019B1F4BBA
:101000001A6842F440421A601B6803F4404302939A
:10101000029B012308934FF4A023099302230E930C
:101020004FF480020F92082210924FF4D87211925E
:1010300012930923139308A802F08CFBB0B903F0B4
:1010400009FBA8B90F2303930223049300230593FC
:101050004FF4A05306934FF480530793072103A83E
:1010600002F0F8FD30B915B05DF804FBFFF7A2FF00
:10107000FFF7A0FFFFF79EFF00380240007000401E
:1010800000B585B002F0D6FA2449CA6822F4E062BD
:101090001204120C224B1343CB60FFF797FFFFF7AC
:1010A00029FF204B1A6B42F002021A631B6B03F0FC
:1010B00002030393039B022002F030FA002002F0A7
:1010C0002DFA012002F02AFA02F056F843F698238E
:1010D0000093154B01220021104607F025FA134812
:1010E00007F098FA1248134B036003F063F908B154
:1010F000FFF760FF104B0093104B114A1149124843
:1011000009F0C0F9114A0021114807F08BF8114B82
:10111000186007F045F807F061F8FEE700ED00E021
:101120000003FA0500380240C0A8B3108C4701083C
:1011300024AE012000080650000000209847010856
:101140009C470108A4470108A0470108A8470108D7
:10115000850F000834AE012008B505F085FA024B72
:101160001B68C01A08BD00BFC483012070B588B0D9
:1011700006460025ADF80E50052341F288324FF4A3
:10118000FA7104A80EF0E6FE2DE04FF400732C4A2D
:101190002C492D4807F03EFA2C4807F03BFA2C4822
:1011A00007F038FA18E04FF40173254A2549294819
:1011B00007F030FA284807F02DFA254807F02AFAF8
:1011C000BDF80E304FF47A7000FB03F0234BA3FB05
:1011D0000030800905F0BAFB631E18BF0123002D03
:1011E00018BF00234BB34FF4F673154A15491C483A
:1011F00007F010FA1B4C40F25B7221461A4807F0C8
:1012000009FA134807F006FAC823009340F25B720C
:10121000214630460EF0BAFD04460128DCD0FFF727
:10122000BBFE01460DF10E0204A80EF05BFE054662
:101230000128AAD00028CFD1B5E7204608B070BD5C
:10124000984B0108CC47010820480108384801089C
:1012500090470108744801088C480108D34D62107A
:10126000D4470108EC470108FC47010810B58EB0CF
:1012700004460591194B0493194B0393194B0093A2
:10128000194B1A4A03A910F0EFFE50B14FF050036A
:1012900072B683F31188BFF36F8FBFF34F8F62B6BF
:1012A000FEE70022079209920A920B920C920D928D
:1012B00001238DF81C300E4B08931223ADF8243017
:1012C0003C23ADF81E300DF11B0300934FF47A73ED
:1012D00007A9204611F038F90EB010BDB1FE000884
:1012E00071FE000808000020FD14000859110008D4
:1012F000DC48010848B310B582B0044640F22E33F2
:10130000214A2249224807F085F92178214807F02F
:1013100081F9214807F07EF92289182A04D16168F1
:101320001E4811F09BFED8B140F23D33164A1749D2
:10133000174807F06FF962682189194807F06AF9C0
:10134000154807F067F902B010BD4FF0500372B6B0
:1013500083F31188BFF36F8FBFF34F8F62B6FEE741
:101360004FF44D73084A0949094807F053F9E368F7
:1013700000932369626821890A4807F04BF90648FF
:1013800007F048F9DFE700BFD84B0108CC47010858
:10139000D4470108F04801089047010804490108B2
:1013A0007C4901082049010800B583B0002301935E
:1013B00000936A4601A910F04BFFB8B14FF05003FB
:1013C00072B683F31188BFF36F8FBFF34F8F62B68E
:1013D000FEE7019AD15C064A02EBC30211710133A8
:1013E000009A9A42F5D803B05DF804FB0023F7E7B2
:1013F0001000002038B50D460378B02B40D00446CD
:10140000D02B57D0902B0ED040F22233304A3149A6
:10141000314807F0FFF82178304807F0FBF83048F2
:1014200007F0F8F853E0FFF7BFFF002464B1002D88
:101430004DD04FF0500372B683F31188BFF36F8F16
:10144000BFF34F8F62B6FEE7264B03EBC4031B7955
:10145000802B01D10134E9E74FF442731C4A1D4946
:10146000214807F0D7F81F4B03EBC402127953F859
:1014700034101E4807F0CEF8194807F0CBF8E9E71A
:1014800040F21333124A1349174807F0C3F81849BA
:10149000184807F0BFF8124807F0BCF8BDB14FF08C
:1014A000500372B683F31188BFF36F8FBFF34F8F72
:1014B00062B6FEE74FF44773054A0649064807F04F
:1014C000A9F80D4807F0A6F8054807F0A3F838BDBD
:1014D000C04B0108CC47010874480108684A01085C
:1014E0009047010810000020D4470108C0490108B6
:1014F00004490108F0490108104A010808B50B78B1
:1015000003F0F003302B04D008461188FFF772FF78
:1015100008BD5068FFF7EEFEFAE7000030B587B06F
:101520000546002401940394049405948DF8044026
:101530008DF805400F4B02931823ADF80C3001F0E5
:10154000ABFC0D4BC3E9000104930823059322462D
:1015500001A9284611F0A2F850B14FF0500372B61D
:1015600083F31188BFF36F8FBFF34F8F62B6FEE72F
:1015700007B030BD04490108C88101202DE9F041C0
:10158000A2B00023209320AB2193FFF7E5FD4D4B44
:1015900018605BE0DFF848814B4F4C4E40F29D13E2
:1015A00042463946304607F035F84949494807F080
:1015B00031F8494D284607F02DF86846FFF7AEFF91
:1015C00040F2A91342463946304607F023F8434813
:1015D00007F020F8284607F01DF84FF4FA7005F0E0
:1015E000B5F90134042CD5D940F2BB133C4A364935
:1015F000364807F00FF83B493B4807F00BF83648F0
:1016000007F008F8684610F0C5FD00283DD121A874
:101610000EF0FAFB012843D1012001F0C7FF00239F
:10162000002B48D040F2CF132D4A2749274806F017
:10163000F1FF06F087FB01462C4806F0EBFF264839
:1016400006F0E8FF41F2883005F080F921A8FFF7A5
:101650008DFD0128E3D101F099FF41F2883005F0BA
:1016600075F940F28F131E4A1749184806F0D2FF49
:101670001C491F4806F0CEFF174806F0CBFF21A9F2
:101680006846FFF7F3FD0024ACE74FF0500372B655
:1016900083F31188BFF36F8FBFF34F8F62B6FEE7FE
:1016A0004FF0500372B683F31188BFF36F8FBFF30F
:1016B0004F8F62B6FEE70F4A02EBC3028021117121
:1016C0000133ADE7C4830120CC470108D4470108AA
:1016D00004490108D04A010890470108F04A01086E
:1016E000884B0108EC4701080C4B0108384B0108F6
:1016F000AC4A010810000020094B1B6803B1704779
:1017000000B583B0064B01933323009300234FF4BD
:10171000A0620449044804F09DFE03B05DF804FB98
:10172000C0810120CC4701087D15000870B58AB042
:101730000023079306220121022009F0A1FC431E89
:1017400013F1030F0AD94FF0500372B683F31188D7
:10175000BFF36F8FBFF34F8F62B6FEE704460025DD
:101760000895099548F61313ADF822300426009623
:1017700007AB2A4629460AF0D7FB41F2D063039310
:101780000223049342F6A053059306961023009378
:1017900003AB0D22294620460AF0C6FB082208A901
:1017A000204609F0C1FD0546314620460AF044FABC
:1017B00006460122074B1968204609F0CBFC00962B
:1017C0002B4641F289322146034806F023FF20468A
:1017D0000AB070BDDC830120F84B010810B586B05B
:1017E0000023039311220221084609F049FC431EFD
:1017F00013F1030F0AD94FF0500372B683F3118827
:10180000BFF36F8FBFF34F8F62B6FEE7044648F613
:101810001313ADF812300423009303AB00221146DA
:101820000AF082FB082204A9204609F07DFD034648
:1018300041F289322146064806F0ECFE0122054BB2
:101840001968204609F086FC204606B010BD00BF8E
:10185000444C0108DC83012030B589B005AA06A9F3
:101860000AF03CF8431E13F1030F01D909B030BD53
:101870000446402006F0A2F905463C22002104302F
:1018800011F02CF82C60AD6305F1200120460AF020
:101890000DFB01A9686A09F061FF6B8C1A0A42EA24
:1018A000032292B201A9084806F0B4FE0122074BB8
:1018B0001968204609F04EFC054800F1080205F1C0
:1018C0002C010CF0B9FCD1E7844C0108DC83012029
:1018D000E0830120F0B5B7B004460D461646027A03
:1018E000062A0BD9237A052B00F21681DFE813F0C4
:1018F000100071008A00FE0016012C01438C190AA9
:1019000041EA0321334689B2A44806F083FEE9E7A1
:10191000A34B1B782BB350222946A14811F09EFB04
:10192000064609238DF810300023012204A92068FF
:101930000AF0F0F8C6B19A4F2B463A46314699481C
:1019400006F068FE50222946384611F099FB964B66
:101950001C60237943F001032371237A013323723E
:10196000DAE04FF0FF36DCE78D4D2A4631468F48EE
:1019700006F050FE00232B708D4B1C608A4B1B68B9
:10198000DBB15A6862601A6922615B69636104F1C4
:10199000180005F0EDF9864B1B681B7913F0020F58
:1019A00010D1814B1A68137943F001031371804BF6
:1019B0001B681A796FF300021A717D4B1B680722AE
:1019C0001A72A9E002227B4B1968206809F0C2FB59
:1019D000E7E7032E40F3A0802B786978090441EAF9
:1019E0000361AB7841EA0321EB781943E1603246A9
:1019F000714806F00FFE0435237A01332372043E4A
:101A000000F08A80002E05DCE268B24255D9921BB4
:101A1000E26081E00023AB552946684806F0FAFDF4
:101A20000CE005226649284611F018FBC8B10622D1
:101A30006449284611F012FBE8B101352B7863B3F5
:101A400009226149284611F009FB0028E9D1AB7A47
:101A5000742B14BF00230123227963F34102227106
:101A6000EBE704AA5949A81D11F062FA0028E4DD49
:101A7000049B2361E1E704AA5449E81D11F058FAD8
:101A80000028DADD049A4FF47A7303FB02F36361F2
:101A9000237943F004032371CFE7237913F0020F76
:101AA000B2D0194663690093C1F380032269C1F380
:101AB0004001474806F0AEFDA6E70A238DF80C303A
:101AC00040F20123ADF810300023012203A9206861
:101AD0000AF020F80023022204A920680AF01AF86C
:101AE0000023E360237A0133237215E00D238DF880
:101AF0001030638C190A41EA03212B78324689B2EF
:101B0000344806F087FD0023012204A920680AF06A
:101B100001F8237A0133237237B0F0BD032EFBDDC9
:101B20002B786978090441EA0361AB7841EA032123
:101B3000EB781943E1603246274806F06BFD237AC3
:101B400001332372043EE7D0E268B24202D9921B0D
:101B5000E260E1E7164B1B68F3B19B6A1F4AC421A0
:101B600005A811F0B1F9421E130203F47F0343EA02
:101B70000263110A01F47F410B4343EA12630493A9
:101B80000023021D04A9206809F0C4FF0023E360BC
:101B9000237A01332372BFE70023DFE7B44C010847
:101BA00044AE0120D44C010840AE0120044D010890
:101BB0003CAE0120DC830120284D01084C4D01087A
:101BC0006C4D0108744D0108604D01082C8C010812
:101BD0007C4D0108A84D0108D04D0108F44D0108C5
:101BE00070B5044600680AF07FF942F6A05108F08B
:101BF000E1FD0546237913F0040F16D004F114011A
:101C000004F1180005F0DEF878B1237913F0080F1D
:101C100001D0002510E0022120680AF053F8237952
:101C200043F008032371002506E02169284608F0E7
:101C3000C1FD064610B90025284670BD00230246A6
:101C40000B490968206809F065FF051EF4DB23795C
:101C500013F0040F03D123699B1B23610BB135449F
:101C6000EAE70222034B1968206809F09CFAF6E7BC
:101C700038AE0120DC83012010B584B004461B4B34
:101C80001B68834222D01A4B1B68A34222D02368D0
:101C9000C3B16946606A09F061FD638C1A0A42EAC1
:101CA0000322A36A92B26946124806F0B3FC0F22DF
:101CB000114B1968206809F076FA206809F078FC61
:101CC0000023236023684BB104B010BD074B0022F2
:101CD0001A60D8E7064B00221A60D8E704F12C00FE
:101CE00003F08FFA204605F0EBFFEDE740AE012050
:101CF0003CAE0120A04E0108DC83012038B504462B
:101D00000368ABB1037903F00302022A1ED113F07A
:101D1000140F1BD10369CBB9204806F07BFC0221CC
:101D2000206809F0CFFF237943F0100323710DE001
:101D3000FFF7A2FF28E01A4B19682046FFF7CAFDFB
:101D400000232A461946206809F053FE01234FF468
:101D500080321349206809F04CFE021E07DD15464B
:101D6000A36A1344A362237A052BE9D8E3E722B9D7
:101D7000237903F00303022B07D012F10B0318BFE2
:101D8000012313EAD27305D138BD2046FFF728FF9F
:101D90000246F2E72046FFF76FFFF5E7E04E010845
:101DA000C883012030B587B0044603AB019304AB70
:101DB0000093012304220C4909F04AFA021E01DCB7
:101DC00007B030BD09490B6813440B60064D08236A
:101DD000019304AB009300232968204609F0F6FA2A
:101DE000286808F0A2FAEBE7C8830120D08301201D
:101DF000F0B583B009F098F9344B1860344803F01B
:101E0000CEF9FFF793FC0746FFF7E8FC064631489A
:101E100006F000FC08F026FB040608F023FB030292
:101E200003F47F031C4308F01DFB030A03F47F4304
:101E30001C4308F017FB41F2893244EA106126483E
:101E400006F0E8FB15E03846FFF706FD204BDC689E
:101E500003E0E0686468FFF751FF204B9C42F8D133
:101E600010E01F4B1B681F4A1068834210D01C4BA8
:101E7000186041F28831154B186809F0BCF9054625
:101E80000028E0D1002DECD03046FFF78BFFF0E7C3
:101E9000154B19688842ECD0421A41F27A43134438
:101EA000124CA4FB03431C0B114BA3FB04535B0913
:101EB0000190642000FB134400940E4806F0AAFB36
:101EC000084B1A68084B1A60D3E700BFDC83012077
:101ED000E0830120F84E01080C4F0108E88301203F
:101EE000D4830120D0830120D883012009DB016441
:101EF0001F85EB513C4F010800B583B0114B1B68A7
:101F00002BB1114B1B6883B103B05DF804FB42F6A3
:101F1000A05005F053FE0B4B18600028F1D142F69B
:101F2000A0510A4806F076FBEEE7074B01933423F5
:101F3000009300234FF42A720549064804F08AFAF8
:101F4000E2E700BF38AE0120CC8301206C4F0108CE
:101F5000944F0108F11D000801382A283FD8DFE816
:101F600000F01640181A1C1E20223E3E24263A3C41
:101F7000282A2C3E3E2E303234363E3E3E3E3E3EF9
:101F80003E3E3E3E3E3E3E3E3E3E3E3E38001648D3
:101F900070471648704716487047164870471648ED
:101FA00070471648704716487047164870471648DD
:101FB00070471648704716487047164870471648CD
:101FC00070471648704716487047164870471648BD
:101FD00070471648704716487047164870471648AD
:101FE00070471648704700BFEC510108BC4F01080C
:101FF000D44F0108EC4F01080050010818500108A7
:10200000445001086450010890500108B85001087C
:10201000D0500108EC50010810510108245101086A
:10202000385101084C5101086C5101087C510108DC
:10203000A0510108D05101089C4F0108A44F01088C
:102040000B2819D8DFE800F0061A080A0C0E101841
:10205000121814160A4870470A4870470A48704711
:102060000A4870470A4870470A4870470A4870474C
:102070000A4870470A4870470A4870470A4870473C
:10208000C85201080C5201082452010838520108B4
:10209000505201085C520108705201088452010834
:1020A000A05201089C4F0108F851010830B583B0D7
:1020B0001546062A1ADD04460A88130A43EA022353
:1020C000C3824B88180A40EA032080B220838A88A2
:1020D000130A43EA02239BB26383B8B9EA1F92B2A0
:1020E000013B9A4226D1002003B030BD40F2AF330D
:1020F000194A1A491A4806F08DFA2946194806F075
:1021000089FA194806F086FA0120EDE740F2C23359
:10211000114A1249124806F07DFA237F0093638B1F
:10212000228BE18A114806F075FA0F4806F072FA20
:102130000220D9E740F2CD33074A0849084806F0A3
:1021400069FA2A46618B0A4806F064FA064806F0E6
:1021500061FA0120C8E700BF20560108D8520108E3
:1021600074480108E052010890470108045301082F
:102170004453010870B586B00446002303934FF41E
:102180008273029303688BB140F232333B4A3C497D
:102190003C4806F03FFA4FF4FB7221683A4806F0DB
:1021A00039FA3A4806F036FA06B070BD0622012127
:1021B000022008F065FF2060431E13F1030F0AD9C7
:1021C0004FF0500372B683F31188BFF36F8FBFF3E4
:1021D0004F8F62B6FEE700250495059508F042F999
:1021E00005904FF20163ADF812300426009603AB60
:1021F0002A462946206809F097FE009602AB052280
:102200002946206809F090FE009603AB012229467A
:10221000206809F089FE009602AB32462946206804
:1022200009F082FE00961A4B03222946206809F025
:102230007BFE082204A9206809F076F8054631469D
:10224000206809F0F9FC06460122124B1968206843
:1022500008F080FF4FF45A73084A0949094806F00C
:10226000D9F900962B464FF4FB7221680A4806F014
:10227000D1F9064806F0CEF996E700BF04560108EA
:10228000D8520108D4470108785301089047010843
:10229000F4830120F8830120A453010830B589B0EC
:1022A00005AA06A909F01AFB431E13F1030F01D971
:1022B00009B030BD04464FF49E7005F07FFC054622
:1022C0004FF49E72002110F009FB2C60C5F83451C8
:1022D00005F58E71204609F0E9FD01A9D5F8200128
:1022E00009F03CFA40F21F230F4A1049104806F04B
:1022F00091F9B5F81E311A0A42EA032292B201A9F5
:102300000C4806F087F90C4806F084F905220B4BBF
:102310001968204608F01EFF094800F1080205F57B
:1023200094710BF089FFC3E7C8550108D852010822
:10233000D4470108E853010890470108F8830120B9
:10234000FC83012070B50446054655F8160B09F0CC
:10235000CBFD4FF4837108F02DFA618B063108F044
:1023600029FA10B90025284670BD0646E28A130AEC
:1023700043EA0223E382228B130A43EA02232383E4
:10238000628B130A43EA0223638300230246294631
:10239000206809F0BFFB051EE5DB638B9B1B9BB22E
:1023A00063830BB13544DEE70222034B19682068D2
:1023B00008F0F9FEF6E700BFF883012010B584B0FD
:1023C000044603682BB36946D0F8200109F0C6F92A
:1023D0004FF40D73154A1649164806F01BF9B4F868
:1023E0001E311A0A42EA0322D4F8243192B2694615
:1023F000114806F00FF9114806F00CF90F22104BA6
:102400001968206808F0CFFE206809F0D1F8002391
:10241000236023680BB104B010BD04F5947002F082
:10242000F0FE204605F04CFCF5E700BFDC55010846
:10243000D8520108D44701080C54010890470108FC
:10244000F8830120012806D0022806D008B10448EC
:10245000704704487047044870470448704700BFFD
:1024600064540108AC540108805401083854010830
:1024700000B585B004AB03E907009DF80420094BC3
:102480001A70029A5A60084B1B6813B105B05DF8C8
:1024900004FB064A0021064805F0C4FE024B186002
:1024A000F4E700BF94AE0120A4AE0120505601080D
:1024B000D52B00082DE9F043A3B007460E46CD7991
:1024C00001F1080800F11A09448B013CA4B24FF451
:1024D0007A73B64AB649B74806F09CF82846FFF723
:1024E0003BFD014623462A46B34806F093F8B3481D
:1024F00006F090F86B1E2A2B00F27682DFE813F0CC
:102500002B006700A300CB00F30018018D022A0105
:10251000740274028D028D028D028D02DF011F0292
:102520004802740274028D028D028D028D028D02AA
:1025300074027402740274027402740274027402EB
:1025400074027402740274027402740274027402DB
:10255000740274028D02052C40F06482337A98F87C
:10256000015045EA032598F8023098F8034044EA00
:102570000324631E9BB2B3F5FA6F80F055822B19CA
:10258000B3F5803F01DB022548E207EE904AB8EE42
:10259000677AF4EE007A67EE277A17EE900AFDF775
:1025A000F3FF41EC100B11F0EFFF51EC100BFEF7B5
:1025B00005FBC0B2307203307883814B9B682246A2
:1025C000294608F1010000F06BFB054626E2052CC8
:1025D00040F02C82337A98F8019049EA032998F860
:1025E000023098F8034044EA0324631E9BB2B3F51B
:1025F000FA6F80F01D8209EB0403B3F5803F80F28F
:102600000D8207EE904AB8EE677AF4EE007A67EE34
:10261000277A17EE900AFDF7B7FF41EC100B11F087
:10262000B3FF51EC100BFEF7C9FAC0B230720330A1
:102630007883634B9B682246494608F1010000F00D
:1026400007FB0546EAE1052C40F0E881337A98F86B
:10265000011041EA032198F8023098F8032042EA79
:10266000032210B2531E9BB27C2B00F2D7818B1831
:10267000B3F5803F01DB0225D0E140003072531CEE
:102680005B0001337B834E4B9B6808F1010000F037
:102690000BFB0546C2E1052C40F0CC81337A98F85B
:1026A000011041EA032198F8023098F8032042EA29
:1026B000032210B2531E9BB27C2B00F2BD818B18FB
:1026C000B3F5803F01DB0225A8E140003072531CC6
:1026D0005B0001337B833A4B9B6808F1010000F0FB
:1026E00011FB05469AE1052C40F0A881337A98F851
:1026F000011041EA032198F8022098F8033053EAC8
:1027000002230CBF01220022B3F57F4F14BF002328
:1027100001231A4301D1032580E188F80130284BB9
:102720009B68012208F1020000F040FB054675E1BC
:10273000052C01D0032571E1307A98F80110204B67
:102740009B68012241EA002108F1020000F05AFBD7
:10275000054663E1042C40F27381327A98F8013027
:1027600043EA02231BB298F8021098F8032042EAC9
:102770000122142B00F26681DFE813F015006401DA
:102780002400640164016401640164016401640162
:102790002F0040004B00560061006C007700820063
:1027A0008D0064019800002538E100BF385601080B
:1027B000D8520108D4470108F8540108904701088D
:1027C00094AE0120052C08BF002A40F03D813372F1
:1027D000BB8AA8F80230002520E1052C08BF002A9A
:1027E00040F034810020B880F88038817881B88149
:1027F000F88138827882B88205460FE1052C08BF3F
:10280000002A40F025813372BB88A8F802300025E9
:1028100004E1052C08BF002A40F01C813372FB88BC
:10282000A8F802300025F9E0052C08BF002A40F086
:10283000138133723B89A8F802300025EEE0052CA5
:1028400008BF002A40F00A8133727B89A8F8023061
:102850000025E3E0052C08BF002A40F00181337217
:10286000BB89A8F802300025D8E0052C08BF002A53
:1028700040F0F8803372FB89A8F802300025CDE0E3
:10288000052C08BF002A40F0EF8033723B8AA8F87D
:1028900002300025C2E0052C08BF002A40F0E68087
:1028A00033727B8AA8F802300025B7E0052C08BFF8
:1028B000002A40F0DD80002078820546AEE0062C3C
:1028C00040F2D880337A98F8015045EA032598F809
:1028D000023098F8034044EA032498F80460631E29
:1028E0009BB2B3F5FA6F80F0C78007EE904AF8EE1E
:1028F000677AB4EE007A67EE877A17EE900AFDF7F2
:1029000043FE41EC100B11F03FFE51EC100BFEF7B3
:1029100055F9C0B2B04240F0B1802B19B3F5803FF9
:1029200001DB02257AE006237B83584B9B68224615
:10293000294608F1050000F013FA05466EE0042C64
:1029400040F29E80337A98F8011041EA032198F80A
:10295000023098F8032042EA032298F80400531E3C
:102960009BB27A2B00F28E80B0EB420F40F08C804D
:102970008B18B3F5803F01DB02254FE006237B83F4
:10298000424B9B6808F1050000F014FA054645E04B
:10299000012C01D0032541E0002502957C22294627
:1029A00003A80FF09BFF394C394B0193394B00932F
:1029B0006368394A802102A810F086FA02A8FDF760
:1029C00027FC02303072237888F80130FF2388F822
:1029D000023002A908F1030010F038FB02A8FDF74D
:1029E00017FC0530788319E0A5F14102D2B2A5F1B8
:1029F0006403DBB20A2B88BF072A01D901250DE049
:102A0000224B9B680193CDF80090434622464146F5
:102A1000284600F0FBF9054600E00125284623B0D2
:102A2000BDE8F0830325F9E70325F7E70325F5E77C
:102A30000325F3E70325F1E70325EFE70325EDE79A
:102A40000325EBE70125E9E70325E7E70325E5E7AC
:102A50000325E3E70325E1E70325DFE70325DDE7BA
:102A60000325DBE70325D9E70325D7E70325D5E7CA
:102A70000325D3E70325D1E70325CFE70325CDE7DA
:102A80000325CBE70325C9E70325C7E794AE01205B
:102A900028550108345501081C550108F8B50446AD
:102AA000064656F8163B002B3CD1FFF787FC7BE02F
:102AB00040F2B1233F4A4049404805F0ABFD38465B
:102AC000FFF7C0FC01463A463D4805F0A3FD3D48EE
:102AD00005F0A0FDE3880133E38039E0238A013368
:102AE00023824FF43273334A3349344805F092FD60
:102AF000607FFFF731FA07462846FFF7A1FA024642
:102B00002B463946304805F085FD2E4805F082FDFC
:102B100003236383637F63F07F036377A577204696
:102B2000FFF710FC00234FF483723146206808F051
:102B300060FF051E31DDD4F824312B44C4F8243164
:102B40002A4631462046FFF7B1FA07460028AFD1A2
:102B50002A4631462046FFF7ADFC054638B12389A9
:102B600001332381431FDBB2012BBAD8B6E7638957
:102B7000013363814FF436730E4A0F49134805F051
:102B800049FD607FFFF7E8F90146628B104805F0C8
:102B900041FD0C4805F03EFDC1E715F10B0318BFE0
:102BA000012313EAD57300D1F8BD2046FFF706FCD8
:102BB000FAE700BFF0550108D8520108744801082F
:102BC00040550108904701086C550108C45401089C
:102BD0009455010810B582B008F0A6FA184B186099
:102BE000184802F0DCFA0321002003F067FC0322FE
:102BF0000021012002F070FC134B186000230193A8
:102C000001A8FFF7B7FA06E0E0686468FFF746FF3F
:102C10000E4B9C42F8D141F288310B4B186802F000
:102C200049FE41F28831064B186808F0E4FA0028A2
:102C3000F1D00198FFF732FB024BDC68E8E700BFF8
:102C4000F8830120FC830120F48301200484012007
:102C5000F8B507460D46164635230C4A0C490D4873
:102C600005F0D8FC33462A4629460B4805F0D2FC2D
:102C70000A4805F0CFFC0023B34205D205F0010459
:102C8000FC5401339BB2F7E70020F8BD2857010838
:102C9000D8520108D4470108DC54010890470108C4
:102CA00008B5FFF7D5FF08BDF8B507460D4616462F
:102CB00056230F4A0F49104805F0ACFC33462A460C
:102CC00029460E4805F0A6FC0D4805F0A3FC00239C
:102CD000B3420AD25C19A2B2C4F3072444EA022424
:102CE00027F8134001339BB2F2E70020F8BD00BF84
:102CF00048570108D8520108D4470108DC5401089C
:102D000090470108F8B507460D46164678230F4A46
:102D10000F49104805F07EFC33462A4629460E48E6
:102D200005F078FC0D4805F075FC0023B3420AD28B
:102D30005C19A2B2C4F3072444EA022427F8134022
:102D400001339BB2F2E70020F8BD00BF68570108CD
:102D5000D8520108D4470108745601089047010869
:102D600070B582B006460D461446A7230A4A0B49A1
:102D70000B4805F04FFC3378009323462A4629463A
:102D8000084805F047FC084805F044FC14B9002049
:102D900002B070BD0420FBE78C570108D85201082F
:102DA000D4470108905601089047010808B5FFF77D
:102DB000D7FF08BD70B582B006460D461446D42331
:102DC0000B4A0C490C4805F025FC338872880192A7
:102DD000009323462A462946084805F01BFC08486C
:102DE00005F018FC14B9002002B070BD0420FBE708
:102DF000A8570108D8520108D4470108C456010851
:102E00009047010808B5FFF7D5FF08BD38B504465F
:102E10001546FB23074A0849084805F0FBFB2A46EC
:102E20002146074805F0F6FB064805F0F3FB0120B4
:102E300038BD00BFC8570108D8520108D44701085F
:102E4000FC5601089047010810B510484FF0804328
:102E500003606B234360002383600D4AC2600361FB
:102E600043610123037701F0BDFB58B9074C2046AD
:102E700001F0EAFA23686FF001021A61054B0022A3
:102E80001A6010BDFEF796F8F0E700BFA8AE01206B
:102E90007F9698001884012010B5124B1B6853B11F
:102EA0005A6A11490C68586A8242F9D800210F4BBE
:102EB000E3FB040110BD03F0D7FB04464201C30E3F
:102EC000121A63F10003990041EA9271900000190F
:102ED00041F10001CB0043EA5073C200104619468D
:102EE000E8E700BFA8AE0120188401208096980072
:102EF000054A136801331360B3F5FA7F02D3134612
:102F000000221A60704700BF1084012008B5AC236E
:102F1000064A0749074805F07DFB074805F07AFB9C
:102F2000064805F077FBFEF745F808BDDC580108B8
:102F3000E857010820480108F057010890470108A8
:102F400010B50C46BE23074A0749084805F062FB46
:102F50002146074805F05EFB064805F05BFBFEF7DF
:102F600029F810BDFC580108E8570108204801085D
:102F70001058010890470108F0B58DB0002863D1C2
:102F8000384B1B68002B52D008AB09AA0AA90BA822
:102F900007F0D2F904A90B9808F0E0FB324F334E4A
:102FA000334DFD233A463146284605F033FB04A94C
:102FB000304805F02FFB304C204605F02BFB04A9D0
:102FC0000A9808F0CBFB40F201133A4631462846F6
:102FD00005F020FB04A9294805F01CFB204605F05C
:102FE00019FB04A9099808F0B9FB40F205133A4609
:102FF0003146284605F00EFB04A9214805F00AFBDE
:10300000204605F007FB04A9089808F0A7FB40F24A
:1030100009133A463146284605F0FCFA04A9194836
:1030200005F0F8FA204605F0F5FA0DB0F0BDFEF710
:1030300063FBFEF761FF01AB93E80700FFF718FAA7
:10304000084B01221A609FE740F20D13064A074918
:10305000074805F0DFFA0C4805F0DCFA064805F0F1
:10306000D9FAE2E71C8401201C590108E85701083D
:10307000D44701084C58010890470108345801080A
:10308000445801085C5801087858010808B50549FA
:10309000A1F10C0001F0A5F910B9034BD86808BDE7
:1030A0000020FCE730AE012024AE012010B504461C
:1030B0000649A1F10C0001F094F920B9044BDB683A
:1030C0002360012010BD0020FCE700BF30AE0120CE
:1030D00024AE012038B504460D464FF4A173074ACB
:1030E0000749084805F096FA2A462146064805F0A1
:1030F00091FA064805F08EFA38BD00BF3C59010828
:10310000E8570108D44701088C5801089047010886
:1031100030B583B00446014610480FF07BFF30B154
:1031200021460F480FF076FFB0B9012500E00125D8
:103130004FF4CA730B4A0C490C4805F06BFA009522
:10314000074B064A21460A4805F064FA094805F08B
:1031500061FA284603B030BD0025E9E7A858010808
:10316000B858010858590108E8570108D447010820
:10317000BC5801089047010800B585B00D4BDA1D19
:1031800022F007020C49C91A0C4B1960196821F08A
:103190000701196019680A48091A196000921B682A
:1031A0000193002302930393684604F0D7FD05B012
:1031B0005DF804FB2CB001200000052014840120E0
:1031C000000400007047FEE7FEE7FEE7FEE77047F9
:1031D00008B500F045FA03F049FE012800D108BD0A
:1031E00004F010FFFBE70000074B1A68136907495A
:1031F0000B6013F0010F06D06FF001031361044A56
:103200001368013313607047A8AE0120F4AE0120AB
:103210001884012000B583B00D4B1A6C42F0805227
:103220001A641A6C02F080520092009A5A6C42F4AE
:1032300080425A645B6C03F480430193019B00223B
:103240000F216FF0010000F02FFA03B05DF804FBCE
:10325000003802400368B3F1804F00D0704700B5DA
:1032600083B003F50E331A6C42F001021A641B6C32
:1032700003F001030193019B002206211C2000F0B2
:1032800013FA1C2000F042FA03B05DF804FB0000C2
:1032900030B5ABB0044600212591269127912891A5
:1032A0002991842204A80FF019FB2268204B9A422E
:1032B00001D02BB030BD1F4C236B43F008032363B8
:1032C000236B03F008030193019B236B43F0080376
:1032D0002363236B03F008030293029B40230493B0
:1032E0000125159504A800F091FD236C43F480237B
:1032F0002364236C03F480230393039B4FF4007334
:1033000025930223269327950323289307252995A0
:10331000A4F5305425A9204601F0ECFC4FF480734D
:103320002593299525A9204601F0E4FCC1E700BFBB
:1033300000480040003802400268084B9A4200D022
:10334000704782B0064B5A6B42F040025A635B6B87
:1033500003F040030193019B02B070470008065040
:1033600000380240F0B593B000230D930E930F93F5
:10337000109311930268654B9A4201D013B0F0BDCF
:10338000A3F590431A6B42F000721A631A6B02F0B5
:1033900000720092009A1A6B42F080621A631A6BF4
:1033A00002F080620192019A1A6B42F000621A6385
:1033B0001A6B02F000620292029A1A6B42F0080243
:1033C0001A631A6B02F008020392039A1A6B42F016
:1033D00001021A631A6B02F001020492049A1A6B3A
:1033E00042F004021A631A6B02F004020592059A75
:1033F0001A6B42F001021A631A6B02F00102069284
:10340000069A1A6B42F004021A631A6B02F0040265
:103410000792079A1A6B42F004021A631A6B02F0C1
:1034200004020892089A1A6B42F040021A631A6B5F
:1034300002F040020992099A1A6B42F040021A63A4
:103440001A6B02F040020A920A9A1A6B42F040028A
:103450001A631A6B02F040020B920B9A1A6B42F03D
:1034600002021A631B6B03F002030C930C9B0323F1
:10347000109302240E9400260F960B2311930D94A3
:10348000234D0DA9284601F035FC04270D970DA901
:10349000284601F02FFC0D941E4C0DA9204601F08A
:1034A00029FC80230D930DA9284601F023FC10234D
:1034B0000D930DA9204601F01DFC20230D930DA9AD
:1034C000204601F017FC0D9704F580540DA9204605
:1034D00001F010FC4FF400630D930DA9204601F09C
:1034E00009FC4FF400550D950DA9204601F002FC92
:1034F0000D950DA9084801F0FDFB324605213D2040
:1035000000F0D2F83D2000F001F937E700800240DA
:10351000000002400008024000040240F0B589B0FB
:10352000044608BB164B1A6B42F002021A631B6B6F
:1035300003F002030193019B124B33F814600396CE
:103540000123049300270597032306930E4D03A937
:1035500055F8240001F0CEFB3A46314655F82400D8
:1035600001F0B8FC09B0F0BD054B1A6B42F0020245
:103570001A631B6B03F002030293029BDCE700BF9C
:1035800000380240745901081800002008B50122D3
:10359000044B33F81010044B53F8200001F09AFC50
:1035A00008BD00BF745901081800002008B50022AA
:1035B000044B33F81010044B53F8200001F08AFC40
:1035C00008BD00BF745901081800002008B5044B5D
:1035D00033F81010034B53F8200001F081FC08BDB4
:1035E000745901081800002010B504460E4B1878D5
:1035F0004FF47A73B3FBF0F30C4A1068B0FBF3F0AE
:1036000000F092F868B90F2C01D901200AE00022DD
:1036100021464FF0FF3000F047F8054B1C600020BA
:1036200000E0012010BD00BF240000202C0000207D
:103630002800002008B5094B1A6842F400721A608D
:103640001A6842F480721A60032000F01BF80F2001
:10365000FFF7CAFFFFF7DEFD002008BD003C024077
:10366000034A1168034B1B780B441360704700BF7B
:10367000F8AE012024000020014B1868704700BFFD
:10368000F8AE01200649CB6823F4E0631B041B0C51
:10369000000200F4E0600343024A1A43CA60704724
:1036A00000ED00E00000FA0530B4154BDB68C3F311
:1036B0000223C3F10704042C28BF04241D1D062D7A
:1036C00014D9033B4FF0FF3505FA04F421EA040155
:1036D000994005FA03F322EA03031943002807DBA4
:1036E0000901C9B2074B195430BC70470023E9E700
:1036F00000F00F000901C9B2034B1954F4E700BFF1
:1037000000ED00E000E400E014ED00E0002807DB3D
:1037100000F01F02400901239340024A42F8203082
:10372000704700BF00E100E00138B0F1807F0AD2AD
:10373000064B5860064AF02182F82310002098605A
:1037400007221A6070470120704700BF10E000E0B8
:1037500000ED00E0002800F0FF8170B582B0044663
:10376000036813F0010F29D0A74B9B6803F00C03EB
:10377000042B1AD0A44B9B6803F00C03082B0FD02A
:103780006368B3F5803F40D0002B54D19E4B1A683C
:1037900022F480321A601A6822F480221A6039E01A
:1037A000994B5B6813F4800FEAD0974B1B6813F4B6
:1037B000003F03D06368002B00F0D081236813F032
:1037C000020F74D0904B9B6813F00C0F5ED08E4BA1
:1037D0009B6803F00C03082B53D0E368002B00F028
:1037E0008980894A136843F001031360FFF744FF9F
:1037F0000546854B1B6813F0020F72D1FFF73CFFA3
:10380000401B0228F5D90320ADE17F4A136843F439
:103810008033136063682BB3FFF72EFF05467A4BA6
:103820001B6813F4003FC9D1FFF726FF401B642833
:10383000F5D9032097E1B3F5A02F09D0724B1A6890
:1038400022F480321A601A6822F480221A60E1E7BA
:103850006D4B1A6842F480221A601A6842F4803272
:103860001A60D7E7FFF708FF0546674B1B6813F49C
:10387000003FA3D0FFF700FF401B6428F5D90320C9
:1038800071E1614B5B6813F4800FA6D15E4B1B683E
:1038900013F0020F03D0E368012B40F061815A4A14
:1038A000136823F0F803216943EAC1031360236816
:1038B00013F0080F46D0636983B3534A536F43F044
:1038C00001035367FFF7D8FE05464F4B5B6F13F0BC
:1038D000020F37D1FFF7D0FE401B0228F5D9032095
:1038E00041E1494A136823F0F803216943EAC1031F
:1038F0001360DCE7444A136823F001031360FFF709
:10390000BBFE0546404B1B6813F0020FCFD0FFF7FC
:10391000B3FE401B0228F5D9032024E13A4A536F35
:1039200023F001035367FFF7A7FE0546364B5B6F95
:1039300013F0020F06D0FFF79FFE401B0228F5D9B7
:10394000032010E1236813F0040F7DD02E4B1B6C75
:1039500013F0805F0BD12C4B1A6C42F080521A642A
:103960001B6C03F080530193019B012500E00025AF
:10397000264B1B6813F4807F0ED0A368012B1FD049
:10398000002B35D1204B1A6F22F001021A671A6FF3
:1039900022F004021A6718E01C4A136843F480738B
:1039A0001360FFF769FE0646184B1B6813F4807F0F
:1039B000E3D1FFF761FE801B6428F5D90320D2E034
:1039C000114A136F43F001031367A36853B3FFF762
:1039D00053FE06460C4B1B6F13F0020F33D1FFF75B
:1039E0004BFE801B41F288339842F3D90320BAE0A2
:1039F000052B0DD0044B1A6F22F001021A671A6FC3
:103A000022F004021A67E0E700380240007000402C
:103A10005C4B1A6F42F004021A671A6F42F00102FF
:103A20001A67D2E7FFF728FE0646564B1B6F13F0C6
:103A3000020F08D0FFF720FE801B41F28833984226
:103A4000F3D903208FE0FDB9A369002B00F08A8031
:103A50004C4A926802F00C02082A58D0022B19D066
:103A6000484A136823F080731360FFF705FE04468D
:103A7000444B1B6813F0007F47D0FFF7FDFD001B90
:103A80000228F5D903206EE03E4A136C23F08053E0
:103A90001364D9E73B4A136823F080731360FFF780
:103AA000EBFD0546374B1B6813F0007F06D0FFF790
:103AB000E3FD401B0228F5D9032054E0E369226AA4
:103AC0001343626A43EA8213A26A5208013A43EA44
:103AD0000243E26A43EA026343F00053294A536017
:103AE000136843F080731360FFF7C6FD0446254B4F
:103AF0001B6813F0007F06D1FFF7BEFD001B0228F4
:103B0000F5D903202FE000202DE000202BE01D4AF6
:103B10005268012B29D002F48003E1698B4226D13F
:103B200002F03F03216A8B4223D1616A47F6C073DA
:103B30001340B3EB811F1ED102F44031A36A5B082E
:103B4000013BB1EB034F18D102F07062E36AB2EBB4
:103B5000036F14D1002006E001207047012002E02D
:103B6000012000E0002002B070BD0120FBE7012031
:103B7000F9E70120F7E70120F5E70120F3E701204D
:103B8000F1E700BF00380240F8B52F4B9B6803F007
:103B90000C03042B53D0082B53D12B4B5A6802F043
:103BA0003F025B6813F4800F28D0274B5B68C3F398
:103BB000881358010021C01A61F100018E0146EA04
:103BC000906687013C1A66EB0105E90041EA5471F1
:103BD000E000C01841F100014B0243EAD053440217
:103BE000204619460023FDF709F8174B5B68C3F31D
:103BF000014301335B00B0FBF3F023E0124B5B6841
:103C0000C3F388135C010025E41A65F10005AE01D9
:103C100046EA9466A701381B66EB0501CC0044EA2E
:103C20005074C500E81844F100018B0243EA905338
:103C30008402204619460023FCF7E0FFD5E703483D
:103C400000E00348F8BD00BF0038024000127A00CF
:103C50000024F400002800F0A08070B50D46044652
:103C6000524B1B6803F00F038B420BD24F4A136871
:103C700023F00F030B431360136803F00F038B4211
:103C800040F08D80236813F0020F17D013F0040F5B
:103C900004D0474A936843F4E0539360236813F0D9
:103CA000080F04D0424A936843F460439360404A4B
:103CB000936823F0F003A1680B439360236813F02B
:103CC000010F31D06368012B20D0022B25D0384A58
:103CD000126812F0020F64D035498A6822F003029C
:103CE00013438B60FFF7C8FC0646314B9B6803F01B
:103CF0000C036268B3EB820F16D0FFF7BDFC801B8C
:103D000041F288339842F0D9032045E0284A1268EE
:103D100012F4003FE0D101203EE0254A126812F083
:103D2000007FD9D1012037E0204B1B6803F00F033F
:103D3000AB420AD91D4A136823F00F032B431360CB
:103D4000136803F00F03AB422DD1236813F0040F67
:103D500006D0174A936823F4E053E1680B4393605D
:103D6000236813F0080F07D0114A936823F46043C7
:103D7000216943EAC1039360FFF706FF0C4B9B6880
:103D8000C3F303130B4AD35CD8400B4B18600B4BA7
:103D90001868FFF729FC002070BD01207047012042
:103DA000FAE70120F8E70120F6E700BF003C0240F7
:103DB000003802407C5901082C0000202800002017
:103DC000014B1868704700BF2C00002008B5FFF7B2
:103DD000F7FF044B9B68C3F38223034AD35CD840AC
:103DE00008BD00BF003802408C59010808B5FFF734
:103DF000E7FF044B9B68C3F34233034AD35CD840CC
:103E000008BD00BF003802408C590108F0B583B0EE
:103E10000446066816F001060DD0B64B9A6822F4E7
:103E200000029A609A68416B0A439A60436B002BC8
:103E300000F039810026256815F4002511D0AD4A1F
:103E4000D2F88C3023F44013E16B0B43C2F88C3072
:103E5000E36BB3F5801F00F02881002B00F0278171
:103E60000025236813F4801F0FD0A24AD2F88C30AB
:103E700023F44003216C0B43C2F88C30236CB3F560
:103E8000800F00F0168103B90125236813F0807FAD
:103E900000D0012613F0200F40F00D81236813F0AD
:103EA000100F0CD0934BD3F88C2022F08072C3F803
:103EB0008C20D3F88C20A16B0A43C3F88C20236894
:103EC00013F4804F08D08B4AD2F8903023F440335B
:103ED000616E0B43C2F89030236813F4004F08D092
:103EE000844AD2F8903023F44023A16E0B43C2F8E9
:103EF0009030236813F4803F08D07E4AD2F8903087
:103F000023F44013E16E0B43C2F89030236813F49E
:103F1000003F08D0774AD2F8903023F44003216F55
:103F20000B43C2F89030236813F0400F08D0714A59
:103F3000D2F8903023F00303616C0B43C2F8903049
:103F4000236813F0800F08D06A4AD2F8903023F02B
:103F50000C03A16C0B43C2F89030236813F4807FEC
:103F600008D0644AD2F8903023F03003E16C0B4360
:103F7000C2F89030236813F4007F08D05D4AD2F86D
:103F8000903023F0C003216D0B43C2F890302368BA
:103F900013F4806F08D0574AD2F8903023F440735E
:103FA000616D0B43C2F89030236813F4006F08D0A2
:103FB000504AD2F8903023F44063A16D0B43C2F80D
:103FC0009030236813F4805F08D04A4AD2F89030CA
:103FD00023F44053E16D0B43C2F89030236813F48F
:103FE000005F08D0434AD2F8903023F44043216E5A
:103FF0000B43C2F89030236813F4800F08D03D4A79
:10400000D2F8903023F08063A16F0B43C2F8903058
:10401000236813F4001F0DD0364AD2F8903023F0F5
:104020000063E16F0B43C2F89030E36FB3F1006FB0
:1040300000F0AC80236813F0080F00D0012513F4C2
:10404000802F08D02B4AD2F8903023F04073616F54
:104050000B43C2F89030236813F4000F09D0254AAF
:10406000D2F8903023F08053D4F880100B43C2F87C
:10407000903026B9236813F0007F00F007811D4AB5
:10408000136823F080631360FFF7F6FA0646194BB6
:104090001B6813F0006F7BD0FFF7EEFA801B6428DB
:1040A000F5D90320F5E00126C5E60126D5E6012570
:1040B000D7E60126E7E60F4B1A6C42F080521A64ED
:1040C0001B6C03F080530193019B0B4A136843F46C
:1040D00080731360FFF7D0FA0746074B1B6813F491
:1040E000807F0BD1FFF7C8FAC01B6428F5D90320E5
:1040F000CFE000BF0038024000700040AB4B1B6FA8
:1041000013F4407315D0226B02F440729A4210D01F
:10411000A64B1A6F22F44072196F41F4803119676F
:10412000196F21F4803119671A671B6F13F0010FA3
:1041300012D1236B03F44072B2F5407F1DD09B4A2D
:10414000936823F4F813936098490B6F226BC2F3C2
:104150000B0213430B67A1E6FFF78EFA0746934B5A
:104160001B6F13F0020FE4D1FFF786FAC01B41F278
:1041700088339842F3D903208BE08C48826822F47C
:10418000F8128B4919400A438260DDE7012551E7A7
:10419000236813F0010F13D0636B8BB9834AD2F8F5
:1041A0008430D2F88410606803F4403343EA80130B
:1041B00001F070610B43A16843EA0173C2F88430D7
:1041C000236813F4002F03D0E26BB2F5801F06D0F2
:1041D00013F4801F1ED0236CB3F5800F1AD1734ADD
:1041E000D2F88430D2F88410606803F4403343EA94
:1041F0008013E06843EA006301F0E0410B43C2F83A
:104200008430D2F88C3023F01F03616A01390B43EC
:10421000C2F88C30236813F0807F11D0634AD2F843
:104220008400D2F88410666823691B0443EA86136D
:1042300000F07060034301F0E0410B43C2F88430AA
:10424000236813F0007F0DD0626823691B0443EAE2
:104250008213E26843EA0263A26843EA0273534AA4
:10426000C2F88430514A136843F080631360FFF74B
:1042700003FA06464D4B1B6813F0006F06D1FFF79B
:10428000FBF9801B6428F5D9032002E0012D02D040
:10429000002003B0F0BD454A136823F0805313603B
:1042A000FFF7EAF90546414B1B6813F0005F06D0A3
:1042B000FFF7E2F9401B6428F5D90320E9E72368FA
:1042C00013F4002F01D0E26B22B113F4801F1DD034
:1042D000236CDBB9354AD2F88830D2F8881060698F
:1042E00003F4403343EA8013A06943EA006301F01A
:1042F000E0410B43C2F88830D2F88C3023F4F853F5
:10430000A16A013943EA0123C2F88C30236813F40F
:10431000001F03D0E36FB3F1006F31D0236813F0B7
:10432000080F19D0214AD2F88810D2F88830606975
:1043300003F4403343EA801301F070610B43E169F9
:1043400043EA0173C2F88830D2F88C3023F440334A
:10435000E16A0B43C2F88C30144A136843F080536F
:104360001360FFF789F90446104B1B6813F0005FD8
:1043700019D1FFF781F9001B6428F5D9032088E7DC
:104380000A4AD2F88800D2F888106569236A1B04AB
:1043900043EA851300F07060034301F0E0410B43F2
:1043A000C2F88830BAE7002073E700BF0038024047
:1043B000FFFCFF0F98B110B5044643795BB10223AF
:1043C00063712268136843F004031360012363716F
:1043D0000020A06010BD0371FEF7AEFFEFE70120E3
:1043E0007047F8B50379012B2BD004460E46012304
:1043F00003714579EDB29D4206D004238360012507
:10440000002323712846F8BD02234371FFF734F9D6
:10441000074623685A6812F0010F0BD1FFF72CF9F9
:10442000C01B0228F5D9012363710223A360002376
:104430002371E7E79B68E360336001236371002524
:10444000DEE70225DEE7000090F83D30DBB2012B0D
:104450003AD1022380F83D300268D36843F001036B
:10446000D36003681A4AB3F1804F18BF93421DD03E
:10447000A2F57C42934219D002F58062934215D096
:1044800002F58062934211D002F5784293420DD03A
:1044900002F57052934209D0A2F59432934205D0AE
:1044A0001A6842F001021A60002070479968094AB0
:1044B0000A40062A18BFB2F5803F07D01A6842F0BA
:1044C00001021A60002070470120704700207047E9
:1044D000000001400700010070B403683A4CA0429C
:1044E00014BF00240124B0F1804F14BF224644F0D1
:1044F0000102AAB9354DA84214BF00250125344E4A
:10450000B0420DD065B905F1804505F58235A84268
:1045100014BF0025012506F50066B04200D01DB18C
:1045200023F070034D682B43002A33D1274A904271
:1045300014BF00220122264DA8422BD052BB02F10B
:10454000804202F58232904214BF0022012205F51A
:104550000065A8421ED0EAB91E4A904214BF00224C
:10456000012205F59A35A84214D09AB91A4A904208
:1045700014BF0022012205F50065A8420AD04AB9FD
:10458000164A904214BF00220122A5F59635A84292
:1045900000D01AB123F44073CA68134323F0800398
:1045A0004A69134303608A68C2620A6882620C4BDC
:1045B000984214BF234644F001030BB10B69036317
:1045C0000123436170BC70470000014000080040B7
:1045D000000400400044014000180040002000405A
:1045E0000004014060B310B5044690F83D3013B3A9
:1045F000022384F83D30214651F8040BFFF76CFF8D
:10460000012384F8483084F83E3084F83F3084F841
:10461000403084F8413084F8423084F8433084F8E4
:10462000443084F8453084F8463084F8473084F8C4
:104630003D30002010BD80F83C30FEF70BFED7E780
:1046400001207047024A136843F480731360704777
:104650000070004010B582B01B4B1A6C42F08052C3
:104660001A641B6C03F080530193019B174A136873
:1046700043F480331360FEF7FFFF0446134B5B687F
:1046800013F4803F08D1FEF7F7FF001BB0F57A7FE7
:10469000F4D9032002B010BD0C4A136843F4003370
:1046A0001360FEF7E9FF0446084B5B6813F4003F14
:1046B00007D1FEF7E1FF001BB0F57A7FF4D90320A4
:1046C000E8E70020E6E700BF003802400070004045
:1046D00010B5044683680269134342691343C269F3
:1046E000134301680868A04A024013430B60226824
:1046F000536823F44053E1680B435360A269236A73
:104700001A4321688B6823F4306313438B6023685A
:10471000964A934219D0964A934229D0954A934299
:104720003ED0954A934262D0944A934271D0944AC3
:10473000934200F08380934A934200F09480924A1F
:10474000934200F0A58010233AE0904BD3F89030CC
:1047500003F00303032B09D8DFE803F00204AE06DD
:1047600001232DE004232BE0082329E0102327E078
:10477000864BD3F8903003F00C030C2B0ED8DFE8F7
:1047800003F0070D0D0D090D0D0D9D0D0D0D0B0009
:10479000002315E0042313E0082311E010230FE0A9
:1047A0007A4BD3F8903003F03003202B00F0888050
:1047B00019D8002B00F08680102B40F08580042350
:1047C000E069B0F5004F00F0AB80082B00F20C81DF
:1047D000DFE813F0E800FB00E6000A01FE000A0132
:1047E0000A010A010101302B70D10823E8E7674B69
:1047F000D3F8903003F0C003802B69D005D8002B8C
:1048000068D0402B68D10423DAE7C02B66D1082397
:10481000D6E75E4BD3F8903003F44073B3F5007FD6
:104820005ED006D8002B5DD0B3F5807F5CD1042329
:10483000C6E7B3F5407F59D10823C1E7534BD3F8FE
:10484000903003F44063B3F5006F51D006D8002BCD
:1048500050D0B3F5806F4FD10423B1E7B3F5406F6B
:104860004CD10823ACE7494BD3F8903003F44053C4
:10487000B3F5005F44D006D8002B43D0B3F5805F7A
:1048800042D104239CE7B3F5405F3FD1082397E76B
:104890003E4BD3F8903003F44043B3F5004F37D08C
:1048A00005D8BBB3B3F5804F36D1042388E7B3F501
:1048B000404F33D1082383E7022381E702237FE7B8
:1048C00002237DE700237BE7102379E7102377E7B6
:1048D000022375E7002373E7102371E710236FE7C6
:1048E00002236DE700236BE7102369E7102367E7D6
:1048F000022365E7012363E7102361E710235FE7E5
:1049000002235DE700235BE7102359E7102357E7F5
:10491000022355E7002353E7102351E710234FE705
:10492000082B5BD8DFE803F005343A5A375A5A5A55
:104930000900FFF74BFA002852D06268530803EBD6
:104940004000B0FBF2F080B2A0F110024FF6EF731E
:104950009A4247D820F00F03C0F34200184323685F
:10496000D860002045E000BFF369FFEF0010014070
:104970000044004000480040004C0040005000400F
:104980000014014000780040007C004000380240E4
:10499000FFF72CFACFE7FFF7F7F8CCE71748CCE79B
:1049A000164802E0FFF712FA00B3636800EB530009
:1049B000B0FBF3F080B2A0F110024FF6EF739A4211
:1049C00016D82368D860002013E0FFF70FFAEBE752
:1049D000FFF7DAF8E8E74FF40040E6E7012008E0E7
:1049E000002006E0012004E0012002E0002000E0B9
:1049F000012000236366A36610BD00BF0024F400FD
:104A0000436A13F0010F06D00268536823F40033A1
:104A1000816A0B435360436A13F0020F06D00268A9
:104A2000536823F48033C16A0B435360436A13F025
:104A3000040F06D00268536823F48023016B0B43F4
:104A40005360436A13F0080F06D00268536823F4DA
:104A50000043416B0B435360436A13F0100F06D0C1
:104A60000268936823F48053816B0B439360436A1D
:104A700013F0200F06D00268936823F40053C16B33
:104A80000B439360436A13F0400F0AD002685368E7
:104A900023F48013016C0B435360036CB3F5801F48
:104AA0000BD0436A13F0800F06D00268536823F4DA
:104AB0000023816C0B43536070470268536823F4F2
:104AC000C003416C0B435360EBE72DE9F843054607
:104AD0000F4616469946DDF820802C68E46937EACF
:104AE00004030CBF01240024B4423DD1B8F1FF3FC0
:104AF000F3D0FEF7C1FDA0EB0900404522D8B8F184
:104B0000000F1FD02B681A6812F0040FE5D0DA6985
:104B100012F4006FE1D04FF400621A622A68136841
:104B200023F4D07313602A68936823F00103936021
:104B30002023AB67EB67C5F88030002385F874301D
:104B4000032012E02A68136823F4D07313602A68E4
:104B5000936823F0010393602023AB67EB67002386
:104B600085F87430032000E00020BDE8F8832DE9CB
:104B7000F04182B01E46836F202B5AD104460D4669
:104B80009046B2FA82F35B09002908BF0123002B8B
:104B900053D190F87430012B51D0012380F8743038
:104BA0000023C0F8803021238367FEF765FD0746A8
:104BB000A4F85080A4F85280A368B3F5805F05D0B4
:104BC0004FF00008002384F8743014E0236913B117
:104BD0004FF00008F6E7A8460025F3E738F8023B57
:104BE0002268C3F308039362B4F8522092B2013AE8
:104BF00092B2A4F85220B4F852309BB273B100962E
:104C00003B46002280212046FFF75FFFC8B9002DF8
:104C1000E4D015F8012B23689A62E5E700963B463D
:104C2000002240212046FFF750FF60B92023A367F0
:104C300000E0022002B0BDE8F0810120FAE7022086
:104C4000F8E70320F6E70320F4E710B582B0044646
:104C50000023C0F88030FEF70FFD23681B6813F0B7
:104C6000080F08D12023A367E3670020206684F89B
:104C7000740002B010BD6FF07E4300930346002223
:104C80004FF400112046FFF720FF0028EAD0032050
:104C9000EFE768B310B50446836F03B32423A3671B
:104CA0002268136823F0010313602046FFF710FD0C
:104CB000012813D0636ABBB92268536823F4904378
:104CC00053602268936823F02A0393602268136874
:104CD00043F0010313602046FFF7B7FF10BD80F8D3
:104CE0007430FEF7D5FAD9E72046FFF789FEE3E7EF
:104CF0000120704700230F2B00F2E380F0B583B052
:104D000039E0092200E00022B2403A4302346D4EFD
:104D100046F824206C4A1468EA4324EA05064F68E2
:104D200017F4803F01D045EA0406674C26606468AA
:104D300002EA04064F6817F4003F01D045EA040672
:104D4000614C6660A46802EA04064F6817F4801F8D
:104D500001D045EA04065C4CA660E46822404E6837
:104D600016F4001F01D045EA0402574CE2600133FB
:104D70000F2B00F2A48001229A400C6804EA02057D
:104D800032EA0404F3D14C68661E112C18BF012EC0
:104D900001D9122C12D186685F000324BC4026EA98
:104DA0000406CC68BC4034438460466826EA0206A8
:104DB0004C68C4F300129A4032434260C7685E00F8
:104DC0000324B440E24327EA04078C68B4403C4320
:104DD000C4604C68122C18BF022C13D1DF080837AE
:104DE00050F827E003F007044FEA840C0F2404FA7C
:104DF0000CF42EEA040E0C6904FA0CF444EA0E04D6
:104E000040F82740046814404A6802F00302B240A8
:104E1000224302604A6812F0805FA8D02B4A546C8B
:104E200044F480445464526C02F480420192019A2A
:104E30009C08A61C234A52F8267003F00302960031
:104E40000F22B24027EA0207214A90423FF45BAFAB
:104E500002F58062904222D002F58062904220D01A
:104E600002F5806290421ED002F5806290421CD012
:104E700002F5806290421AD002F58062904218D00A
:104E800002F58062904216D002F58062904214D002
:104E900002F5806290423FF434AF0A2234E70122E7
:104EA00032E7022230E703222EE704222CE7052214
:104EB0002AE7062228E7072226E7082224E703B08C
:104EC000F0BD704700380140003C0140003802400E
:104ED000000002400AB18161704709048161704796
:104EE000436901EA030221EA030141EA02418161C7
:104EF00070470000034AD2F8883043F47003C2F8C8
:104F00008830704700ED00E01AB9084206D110461B
:104F1000704731EA000303D000207047012070473A
:104F20000120704738B5202002F048FE044628B121
:104F3000002540F8045B00F032F92577204638BDA3
:104F40002DE9F047DDF820A088B10D4617469846B8
:104F5000064611F07F4915D04FF0500372B683F327
:104F60001188BFF36F8FBFF34F8F62B6FEE74FF02C
:104F7000500372B683F31188BFF36F8FBFF34F8F67
:104F800062B6FEE751B94FF0500372B683F3118851
:104F9000BFF36F8FBFF34F8F62B6FEE701F066FF7E
:104FA00068B9BAF1000F0AD04FF0500372B683F31C
:104FB0001188BFF36F8FBFF34F8F62B6FEE701F02A
:104FC0004BFB3468424629462046FFF79DFFE0B17F
:104FD00017B124EA0503336001F010FCB9F1000FAA
:104FE00010D038B91C4B4FF080521A60BFF34F8F6E
:104FF000BFF36F8F02F05EF8044610F0007F1BD005
:1050000024F07F442046BDE8F087BAF1000F11D0AC
:105010006FB94946B8F1000F01D041F080615246A6
:105020002943301D01F048FD4C46D146D4E74FF0EE
:105030008071EFE7D146CFE702F074FF3468424653
:1050400029462046FFF760FF18B117B124EA05058D
:10505000356002F08DFFD3E704ED00E080B170B55C
:105060000C46064611F07F4F15D04FF0500372B634
:1050700083F31188BFF36F8FBFF34F8F62B6FEE7E4
:105080004FF0500372B683F31188BFF36F8FBFF3F5
:105090004F8F62B6FEE702F045FF356825EA04044B
:1050A000346002F065FF284670BDF8B578B10D4652
:1050B000044611F07F4615D04FF0500372B683F3CB
:1050C0001188BFF36F8FBFF34F8F62B6FEE74FF0CB
:1050D000500372B683F31188BFF36F8FBFF34F8F06
:1050E00062B6FEE700F10C0701F0B6FA206923680A
:1050F0002B4323600AE0216833EA010105D111E066
:10510000216841F0007101F0BBFD2846B8420ED085
:105110004568026822F07F4312F0806FEBD121686E
:105120001942F2D012F0807FEAD01E43E8E72368EC
:1051300023EA0603236001F061FB2068F8BD78B123
:1051400010B5044601F088FA6368FBB1206904F1E8
:105150000C0398420FD04FF0007101F091FDF3E77E
:105160004FF0500372B683F31188BFF36F8FBFF314
:105170004F8F62B6FEE74FF0500372B683F311888B
:10518000BFF36F8FBFF34F8F62B6FEE7237F13B17C
:1051900001F034FB10BD204602F092FDF8E700F16B
:1051A000080343604FF0FF328260C3600361002355
:1051B0000360704700230361704743684B609A683F
:1051C0008A60516099600861036801330360704729
:1051D00030B40D68B5F1FF3F11D000F108031C4653
:1051E0005B681A68AA42FAD963684B6099608C6060
:1051F0006160086103680133036030BC7047046973
:10520000F2E70369416882688A60416851605A68C0
:10521000824206D0002202611A68013A1A601868B8
:10522000704782685A60F5E70346406A18B11B6B05
:105230001868C0F13800704710B5044602F072FEDD
:10524000A26BE36B9A4204D0002402F091FE204648
:1052500010BD0124F9E710B5044602F063FEA36B0C
:1052600023B9012402F084FE204610BD0024F9E792
:1052700070B504461546866B026C5AB903681BB1BB
:1052800000200136A66370BD806801F057FE002340
:10529000A360F6E76DB940680DF0F8FA226C636818
:1052A00013446360A268934219D32368636028465D
:1052B000E7E7C0680DF0EAFA226C5142E3689B1AF6
:1052C000E3602268934202D2A3680B44E360022D9C
:1052D00001D00020D5E726B1013E0020D1E72846C5
:1052E000CFE70020CDE70346026C6AB110B508464F
:1052F000D9681144D9609C68A14201D31968D9606A
:10530000D9680DF0C3FA10BD704738B5054602F0F4
:1053100009FE95F8454064B203E001F09BFD013CB5
:1053200064B2002C08DD6B6A33B105F1240001F092
:105330002BFC0028F3D0F0E7FF2385F8453002F07E
:1053400017FE02F0EFFD95F8444064B203E001F06F
:1053500081FD013C64B2002C08DD2B6933B105F1FD
:10536000100001F011FC0028F3D0F0E7FF2385F8CE
:10537000443002F0FDFD38BD38B5A0B10D460446FD
:10538000C16B29B1036C0022A1FB0313B3B9BAB1FD
:105390004FF0500372B683F31188BFF36F8FBFF3E2
:1053A0004F8F62B6FEE74FF0500372B683F3118859
:1053B000BFF36F8FBFF34F8F62B6FEE70122E6E7C0
:1053C00002F0B0FD2168E26B236C03FB0210A060C9
:1053D0000020A0636160013A02FB0313E360FF2336
:1053E00084F8443084F84530A5B923691BB902F02C
:1053F000BFFD012038BD04F1100001F0C5FB0028FD
:10540000F5D0094B4FF080521A60BFF34F8FBFF3B6
:105410006F8FECE704F11000FFF7C1FE04F12400E8
:10542000FFF7BDFEE3E700BF04ED00E038B51D4621
:10543000049C0B4649B92460E063236401212046A3
:10544000FFF79AFF84F84C5038BD2260F4E70BB3A5
:1054500010B584B01C4640B30B1E18BF0123002AB0
:1054600008BF01230BB3B1FA81F35B09002A18BF0F
:105470000123D3B150230393039B502B20D04FF033
:10548000500372B683F31188BFF36F8FBFF34F8F52
:1054900062B6FEE74FF0500372B683F31188BFF394
:1054A0006F8FBFF34F8F62B6FEE74FF0500372B6B7
:1054B00083F31188BFF36F8FBFF34F8F62B6FEE7A0
:1054C000039B012384F8463000949DF81830FFF7C1
:1054D000ADFF204604B010BDF0B583B060B10C46FE
:1054E000174606460023A0FB041282B923B904FB29
:1054F00006F010F1510F0CD94FF0500372B683F340
:105500001188BFF36F8FBFF34F8F62B6FEE70123A1
:10551000ECE7503002F052FB054650B1002380F812
:10552000463000903B4600F1500221463046FFF7DE
:105530007DFF284603B0F0BD30B583B013468842E6
:1055400034BF00220122002808BF002252B94FF0C8
:10555000500372B683F31188BFF36F8FBFF34F8F81
:1055600062B6FEE70C460222009200221146FFF7C7
:105570006EFF034600B18463184603B030BD884215
:1055800034BF00230123002808BF002353B94FF084
:10559000500372B683F31188BFF36F8FBFF34F8F41
:1055A00062B6FEE710B50C4602220021FFF794FF19
:1055B000034600B18463184610BD0000F0B585B005
:1055C000019298B10E461D460446D1B1022D26D156
:1055D000E36B012B23D04FF0500372B683F3118895
:1055E000BFF36F8FBFF34F8F62B6FEE74FF05003EC
:1055F00072B683F31188BFF36F8FBFF34F8F62B61C
:10560000FEE7036C002BE1D04FF0500372B683F33A
:105610001188BFF36F8FBFF34F8F62B6FEE701F0C3
:1056200025FC074668B9019B002B46D04FF050037C
:1056300072B683F31188BFF36F8FBFF34F8F62B6DB
:10564000FEE7002739E02A4631462046FFF710FEE4
:10565000626A6AB938B13C4B4FF080521A60BFF3AE
:105660004F8FBFF36F8F02F083FC012005B0F0BDB8
:1056700004F1240001F088FA0028F4D0324B4FF0F6
:1056800080521A60BFF34F8FBFF36F8FEBE702F0CA
:105690006FFC0020EAE702A801F088FB012719E06F
:1056A000002384F8443021E0002384F8453023E0CF
:1056B0002046FFF72AFE01F0A1F802F033FCA26BAE
:1056C000E36B9A42BFD3022DBDD0019B002BDED0ED
:1056D000002FE0D002F04CFC00F0BEFF02F022FCF4
:1056E00094F844305BB2B3F1FF3FD9D094F8453021
:1056F0005BB2B3F1FF3FD7D002F03AFC01A902A898
:1057000001F060FBC8B92046FFF796FD0028CFD016
:10571000019904F1100001F0B5F92046FFF7F5FDFD
:1057200001F06CF80028C8D1074B4FF080521A6086
:10573000BFF34F8FBFF36F8FBFE72046FFF7E5FD45
:1057400001F05CF8002091E704ED00E0F0B585B0D1
:105750000192A0B10E460446E1B101F087FB074675
:1057600030BB019B002B62D04FF0500372B683F325
:105770001188BFF36F8FBFF34F8F62B6FEE74FF014
:10578000500372B683F31188BFF36F8FBFF34F8F4F
:1057900062B6FEE7036C002BDFD04FF0500372B609
:1057A00083F31188BFF36F8FBFF34F8F62B6FEE7AD
:1057B00000273CE031462046FFF795FD013DA563FB
:1057C000236923B902F0D4FB012005B0F0BD04F138
:1057D000100001F0D9F90028F4D0354B4FF0805279
:1057E0001A60BFF34F8FBFF36F8FEBE702F0C0FB80
:1057F0000020EAE702A801F0D9FA012721E00023FE
:1058000084F8443029E0002384F845302BE020461A
:10581000FFF77BFD00F0F2FF09E02046FFF775FD82
:1058200000F0ECFF2046FFF716FD00283DD102F006
:1058300079FBA56B002DBDD1019B002BD6D0002F8D
:10584000D8D002F095FB00F007FF02F06BFB94F854
:1058500044305BB2B3F1FF3FD1D094F845305BB236
:10586000B3F1FF3FCFD002F083FB01A902A801F002
:10587000A9FA0028D1D12046FFF7EDFC0028C6D0B8
:10588000019904F1240001F0FDF82046FFF73DFDE9
:1058900000F0B4FF0028CAD1054B4FF080521A60C7
:1058A000BFF34F8FBFF36F8FC1E700208DE700BFBD
:1058B00004ED00E070B584B0019168B10446036C5A
:1058C000ABB14FF0500372B683F31188BFF36F8F03
:1058D000BFF34F8F62B6FEE74FF0500372B683F30B
:1058E0001188BFF36F8FBFF34F8F62B6FEE701F0F1
:1058F000BDFA064660B9019B6BB14FF0500372B61A
:1059000083F31188BFF36F8FBFF34F8F62B6FEE74B
:1059100000252E4655E0054653E0013BA36323686E
:105920003BB123694BB902F023FB0125284604B0A3
:1059300070BD01F0CBFBA060F3E704F1100001F0B3
:1059400023F90028EFD0474B4FF080521A60BFF385
:105950004F8FBFF36F8FE6E755B14FF0500372B62C
:1059600083F31188BFF36F8FBFF34F8F62B6FEE7EB
:1059700002F0FEFADAE702A801F018FA01262AE09E
:10598000002384F8443032E0002384F8453034E0CA
:1059900002F0C8FAA06801F079FA054602F0E8FAC8
:1059A0003BE02046FFF7B1FC00F028FF09E020466D
:1059B000FFF7ABFC00F022FF2046FFF74CFC00286D
:1059C00040D102F0AFFAA36B002BA6D1019B002BB4
:1059D000C2D0002ECFD002F0CBFA00F03DFE02F094
:1059E000A1FA94F844305BB2B3F1FF3FC8D094F809
:1059F00045305BB2B3F1FF3FC6D002F0B9FA01A95E
:105A000002A801F0DFF90028D1D12046FFF723FCDE
:105A10000028C6D02368002BBAD0019904F12400D5
:105A200001F030F82046FFF770FC00F0E7FE002898
:105A3000C7D10C4B4FF080521A60BFF34F8FBFF3AA
:105A40006F8FBEE70DB9002570E702F06BFA2046B4
:105A5000FFF7EAFB0146A06801F0CAFA02F088FAF3
:105A6000F1E700BF04ED00E040B110B5044602F0DC
:105A700059FAA46B02F07CFA204610BD4FF0500397
:105A800072B683F31188BFF36F8FBFF34F8F62B687
:105A9000FEE7000028B110B4044699B100231A466D
:105AA00014E04FF0500372B683F31188BFF36F8F89
:105AB000BFF34F8F62B6FEE70E4B03EBC2030BB191
:105AC00019605C605DF8044B70470132072AF6D814
:105AD000084800EBC2004068A042EDD0002BF4D192
