:020000040800F2
:1000000000000520F93A0108F53A0008F73A00081F
:10001000F93A0008FB3A0008FD3A00080000000029
:10002000000000000000000000000000718B0008CC
:10003000FF3A000800000000118C0008013B000896
:10004000493B0108493B0108493B0108493B01087C
:10005000493B0108493B0108493B0108493B01086C
:10006000493B0108493B0108493B0108493B01085C
:10007000493B0108493B0108493B0108493B01084C
:10008000493B0108493B0108493B0108493B01083C
:10009000493B0108493B0108493B0108493B01082C
:1000A000493B0108493B0108493B0108493B01081C
:1000B000193B0008493B0108493B0108493B01083D
:1000C000493B0108493B0108493B0108493B0108FC
:1000D000493B0108493B0108493B0108493B0108EC
:1000E000493B0108493B0108493B0108493B0108DC
:1000F000493B0108493B0108493B0108493B0108CC
:10010000493B0108493B0108493B0108493B0108BB
:10011000493B0108493B0108493B0108493B0108AB
:10012000493B0108493B0108493B0108493B01089B
:10013000493B010805FB0008493B0108493B010810
:10014000493B0108493B0108493B0108493B01087B
:10015000493B0108493B0108493B0108493B01086B
:10016000493B0108493B0108493B0108493B01085B
:10017000493B0108493B0108493B010800000000D8
:10018000493B0108493B0108493B0108493B01083B
:10019000493B0108493B0108493B0108493B01082B
:1001A000493B0108493B0108493B0108493B01081B
:1001B000493B0108493B0108493B0108493B01080B
:0801C000493B0108493B01081D
:1001D00010B5054C237833B9044B13B10448AFF381
:1001E00000800123237010BD8081012000000000E9
:1001F000A85A010808B5034B1BB103490348AFF3E4
:10020000008008BD0000000084810120A85A010878
:10021000034613F8012B002AFBD1181A0138704746
:1002200001F0FF01102A2BDB10F0070F08D010F8A7
:10023000013B013A8B422DD010F0070F42B3F6D1AB
:10024000F0B441EA012141EA014122F007047FF0C4
:1002500000070023F0E80256083C85EA010586EA1B
:10026000010685FA47F5A3FA87F586FA47F6A5FA57
:1002700087F68EB9EED1F0BC01F0FF0102F0070263
:1002800032B110F8013B013A83EA010313B1F8D10E
:100290000020704701387047002D06BF35460338EF
:1002A000073815F0010F07D1013015F4807F02BF28
:1002B000013015F4C03F0130F0BC0138704700BF79
:1002C00081F0004102E000BF83F0004330B54FEA07
:1002D00041044FEA430594EA050F08BF90EA020F74
:1002E0001FBF54EA000C55EA020C7FEA645C7FEA07
:1002F000655C00F0E2804FEA5454D4EB5555B8BF2A
:100300006D420CDD2C4480EA020281EA030382EA9A
:10031000000083EA010180EA020281EA0303362D2C
:1003200088BF30BD11F0004F4FEA01314FF4801CFF
:100330004CEA113102D0404261EB410113F0004F11
:100340004FEA03334CEA133302D0524263EB4303C8
:1003500094EA050F00F0A780A4F10104D5F1200E66
:100360000DDB02FA0EFC22FA05F2801841F10001C1
:1003700003FA0EF2801843FA05F359410EE0A5F195
:1003800020050EF1200E012A03FA0EFC28BF4CF0C6
:10039000020C43FA05F3C01851EBE37101F000457C
:1003A00007D54FF0000EDCF1000C7EEB00006EEB89
:1003B0000101B1F5801F1BD3B1F5001F0CD3490813
:1003C0005FEA30004FEA3C0C04F101044FEA44526A
:1003D00012F5800F80F09A80BCF1004F08BF5FEAF1
:1003E000500C50F1000041EB045141EA050130BDD1
:1003F0005FEA4C0C404141EB0101013C28BFB1F5E3
:10040000801FE9D291F0000F04BF01460020B1FA2D
:1004100081F308BF2033A3F10B03B3F120020CDA00
:100420000C3208DD02F1140CC2F10C0201FA0CF0DE
:1004300021FA02F10CE002F11402D8BFC2F1200C43
:1004400001FA02F120FA0CFCDCBF41EA0C019040F9
:10045000E41AA2BF01EB0451294330BD6FEA040442
:100460001F3C1CDA0C340EDC04F11404C4F120022D
:1004700020FA04F001FA02F340EA030021FA04F33F
:1004800045EA030130BDC4F10C04C4F1200220FA96
:1004900002F001FA04F340EA0300294630BD21FAD4
:1004A00004F0294630BD94F0000F83F4801306BF9A
:1004B00081F480110134013D4EE77FEA645C18BF8E
:1004C0007FEA655C29D094EA050F08BF90EA020F25
:1004D00005D054EA000C04BF1946104630BD91EA1D
:1004E000030F1EBF0021002030BD5FEA545C05D120
:1004F0004000494128BF41F0004130BD14F580045F
:100500003CBF01F5801130BD01F0004545F0FE41D2
:1005100041F470014FF0000030BD7FEA645C1ABF07
:10052000194610467FEA655C1CBF0B46024650EA3E
:10053000013406BF52EA033591EA030F41F400216A
:1005400030BD00BF90F0000F04BF0021704730B5F0
:100550004FF4806404F132044FF000054FF00001C5
:1005600050E700BF90F0000F04BF0021704730B586
:100570004FF4806404F1320410F0004548BF40425B
:100580004FF000013EE700BF42004FEAE2014FEAB0
:1005900031014FEA02701FBF12F07F4393F07F4F8B
:1005A00081F06051704732F07F4208BF704793F08E
:1005B0007F4F04BF41F40021704730B54FF46074A1
:1005C00001F0004521F000411CE700BF50EA0102A4
:1005D00008BF704730B54FF000050AE050EA01024D
:1005E00008BF704730B511F0004502D5404261EBBD
:1005F00041014FF4806404F132045FEA915C3FF4FE
:10060000D8AE4FF003025FEADC0C18BF03325FEA9A
:10061000DC0C18BF033202EBDC02C2F1200300FA4B
:1006200003FC20FA02F001FA03FE40EA0E0021FA70
:1006300002F11444BDE600BF70B54FF0FF0C4CF45E
:10064000E06C1CEA11541DBF1CEA135594EA0C0F10
:1006500095EA0C0F00F0DEF82C4481EA030621EA4B
:100660004C5123EA4C5350EA013518BF52EA033586
:1006700041F4801143F4801338D0A0FB02CE4FF038
:100680000005E1FB02E506F00042E0FB03E54FF068
:100690000006E1FB03569CF0000F18BF4EF0010E60
:1006A000A4F1FF04B6F5007F64F5407404D25FEA5C
:1006B0004E0E6D4146EB060642EAC62141EA55510F
:1006C0004FEAC52040EA5E504FEACE2EB4F1FD0C51
:1006D00088BFBCF5E06F1ED8BEF1004F08BF5FEACF
:1006E000500E50F1000041EB045170BD06F0004681
:1006F00046EA010140EA020081EA0301B4EB5C042E
:10070000C2BFD4EB0C0541EA045170BD41F4801125
:100710004FF0000E013C00F3AB8014F1360FDEBF4A
:10072000002001F0004170BDC4F10004203C35DA26
:100730000C341BDC04F11404C4F1200500FA05F3A9
:1007400020FA04F001FA05F240EA020001F000424A
:1007500021F0004110EBD37021FA04F642EB0601C0
:100760005EEA430E08BF20EAD37070BDC4F10C04EA
:10077000C4F1200500FA04F320FA05F001FA04F2AE
:1007800040EA020001F0004110EBD37041F100019A
:100790005EEA430E08BF20EAD37070BDC4F12005A5
:1007A00000FA05F24EEA020E20FA04F301FA05F20D
:1007B00043EA020321FA04F001F0004121FA04F2B5
:1007C00020EA020000EBD3705EEA430E08BF20EA85
:1007D000D37070BD94F0000F0FD101F000464000BF
:1007E00041EB010111F4801F08BF013CF7D041EA41
:1007F000060195F0000F18BF704703F00046520045
:1008000043EB030313F4801F08BF013DF7D043EA15
:100810000603704794EA0C0F0CEA135518BF95EACB
:100820000C0F0CD050EA410618BF52EA4306D1D152
:1008300081EA030101F000414FF0000070BD50EA71
:10084000410606BF1046194652EA430619D094EAFB
:100850000C0F02D150EA013613D195EA0C0F05D1E5
:1008600052EA03361CBF104619460AD181EA030139
:1008700001F0004141F0FE4141F470014FF00000F1
:1008800070BD41F0FE4141F4780170BD70B54FF08C
:10089000FF0C4CF4E06C1CEA11541DBF1CEA13550C
:1008A00094EA0C0F95EA0C0F00F0A7F8A4EB0504EE
:1008B00081EA030E52EA03354FEA013100F08880E5
:1008C0004FEA03334FF0805545EA131343EA1263AE
:1008D0004FEA022245EA111545EA10654FEA002663
:1008E0000EF000419D4208BF964244F1FD0404F51C
:1008F000407402D25B084FEA3202B61A65EB030578
:100900005B084FEA32024FF480104FF4002CB6EB34
:10091000020E75EB030E22BFB61A754640EA0C00B4
:100920005B084FEA3202B6EB020E75EB030E22BFF4
:10093000B61A754640EA5C005B084FEA3202B6EB35
:10094000020E75EB030E22BFB61A754640EA9C00F4
:100950005B084FEA3202B6EB020E75EB030E22BFC4
:10096000B61A754640EADC0055EA060E18D04FEA82
:10097000051545EA16754FEA06164FEAC30343EA22
:1009800052734FEAC2025FEA1C1CC0D111F4801FEF
:100990000BD141EA00014FF000004FF0004CB6E7E8
:1009A00011F4801F04BF01430020B4F1FD0C88BF87
:1009B000BCF5E06F3FF6AFAEB5EB030C04BFB6EB92
:1009C000020C5FEA500C50F1000041EB045170BD85
:1009D0000EF0004E4EEA113114EB5C04C2BFD4EBB2
:1009E0000C0541EA045170BD41F480114FF0000E36
:1009F000013C90E645EA060E8DE60CEA135594EAB2
:100A00000C0F08BF95EA0C0F3FF43BAF94EA0C0FB4
:100A10000AD150EA01347FF434AF95EA0C0F7FF429
:100A200025AF104619462CE795EA0C0F06D152EA7D
:100A300003353FF4FDAE1046194622E750EA410661
:100A400018BF52EA43067FF4C5AE50EA41047FF472
:100A50000DAF52EA43057FF4EBAE12E74FF0FF3CD7
:100A600006E000BF4FF0010C02E000BF4FF0010CA8
:100A70004DF804CD4FEA410C7FEA6C5C4FEA430C21
:100A800018BF7FEA6C5C1BD001B050EA410C0CBF70
:100A900052EA430C91EA030F02BF90EA020F0020D2
:100AA000704710F1000F91EA030F58BF994208BF39
:100AB00090422CBFD8176FEAE37040F001007047F6
:100AC0004FEA410C7FEA6C5C02D150EA013C07D14D
:100AD0004FEA430C7FEA6C5CD6D152EA033CD3D098
:100AE0005DF8040B704700BF8446104662468C4692
:100AF0001946634600E000BF01B5FFF7B7FF0028C5
:100B000048BF10F1000F01BD4DF808EDFFF7F4FFED
:100B10000CBF012000205DF808FB00BF4DF808ED78
:100B2000FFF7EAFF34BF012000205DF808FB00BF9B
:100B30004DF808EDFFF7E0FF94BF012000205DF8BD
:100B400008FB00BF4DF808EDFFF7CEFF94BF012072
:100B500000205DF808FB00BF4DF808EDFFF7C4FF6B
:100B600034BF012000205DF808FB00BF4FEA4102BE
:100B700012F5001215D211D56FF47873B3EB6252EF
:100B800012D94FEAC12343F0004343EA505311F016
:100B9000004F23FA02F018BF404270474FF00000A8
:100BA000704750EA013005D111F0004008BF6FF0E6
:100BB000004070474FF00000704700BF4A0011D25C
:100BC00012F5001211D20DD56FF47873B3EB6252A7
:100BD0000ED44FEAC12343F0004343EA505323FAB3
:100BE00002F070474FF00000704750EA013002D128
:100BF0004FF0FF3070474FF00000704753B94AB9CB
:100C0000002908BF00281CBF4FF0FF314FF0FF3014
:100C100000F06EB9ADF1080C6DE904CE00F006F8F5
:100C2000DDF804E0DDE9022304B070472DE9F04768
:100C3000089D04468C46002B40F083808A4217466C
:100C400047D9B2FA82F242B1C2F1200024FA00F090
:100C50009140974040EA010C94404FEA1748230C1A
:100C6000BCFBF8F61FFA87FE08FB16C143EA0143F6
:100C700006FB0EF1994209D9FB1806F1FF3080F00E
:100C80001981994240F21681023E3B445B1AA4B29C
:100C9000B3FBF8F008FB103344EA034400FB0EFEFC
:100CA000A64509D93C1900F1FF3380F00581A6451E
:100CB00040F2028102383C4440EA0640A4EB0E04B4
:100CC00000261DB1D4400023C5E900433146BDE8EC
:100CD000F08702B9FFDEB2FA82F2002A50D1CB1BB4
:100CE0004FEA174E1FFA87F80126B3FBFEFC210CD2
:100CF0000EFB1C3341EA034108FB0CF38B4207D97E
:100D000079180CF1FF3002D28B4200F2E980844660
:100D1000C91AA3B2B1FBFEF00EFB101143EA014465
:100D200008FB00F8A04507D93C1900F1FF3302D2B7
:100D3000A04500F2D9801846A4EB080440EA0C4014
:100D4000BFE78B4209D9002D00F0B1800026C5E92C
:100D5000000130463146BDE8F087B3FA83F6002E35
:100D60004AD18B4202D3824200F2B880841A61EBEE
:100D7000030101208C46002DA8D0C5E9004CA5E751
:100D8000C2F1200320FA03F6974001FA02F04FEA7D
:100D9000174ED9403043030CB1FBFEF61FFA87F81B
:100DA0000EFB161143EA014306FB08F1994204FACF
:100DB00002F409D9FB1806F1FF3C80F08D809942BE
:100DC00040F28A80023E3B445B1A81B2B3FBFEF0E4
:100DD0000EFB103341EA034100FB08F38B4207D9B5
:100DE000791800F1FF3C73D28B4271D90238394433
:100DF000CB1A40EA064678E7C6F1200C03FA06F45F
:100E000022FA0CF31C4320FA0CF701FA06F34FEA1E
:100E1000144E21FA0CF11F433B0CB1FBFEF91FFAF3
:100E200084F80EFB191143EA014109FB08FA8A45CF
:100E300002FA06F200FA06F308D9611809F1FF3048
:100E400048D28A4546D9A9F102092144A1EB0A01F9
:100E5000BFB2B1FBFEF00EFB101147EA014700FBE9
:100E600008F8B84507D9E71900F1FF312ED2B84587
:100E70002CD90238274440EA0940A7EB0807A0FB19
:100E800002894F45C64649461AD317D05DB1B3EB28
:100E90000E0267EB010707FA0CFCF2404CEA020273
:100EA000F740C5E9002700263146BDE8F0872E4609
:100EB00028460BE70646E9E61846FDE64345E5D237
:100EC000B8EB020E69EB04010138DFE70846D2E710
:100ED00060468DE78146B9E7664675E730464AE7E2
:100EE000ACF1020C394413E702383C4424E700BF5C
:100EF000704700BF224B9A6842F400629A609A6879
:100F000042F480529A609A6842F480629A60DA6889
:100F100042F00102DA609A6842F001029A609A682F
:100F200042F002029A609A6842F004029A609A685B
:100F300042F008029A609A6842F010029A609A6839
:100F400042F020029A60DA6842F00202DA60DA685F
:100F500042F48032DA60DA6842F40032DA60DA6849
:100F600042F48022DA609A6842F040029A609A68FD
:100F700042F080029A609A6842F480729A607047E8
:100F8000002004E081B110B50C46B123074A08499E
:100F9000084808F077F9E2682169074808F072F913
:100FA000064808F06FF910BD704700BFDC5B010810
:100FB0000C5B0108145B01082C5B0108D45B010881
:100FC000B9B138B504460D46BA230A4A0A490B4856
:100FD00008F058F9221DA18A094808F053F9094878
:100FE00008F050F9084B0022298AE86800F0BCFE9E
:100FF00038BD7047E45B01080C5B0108145B010815
:10100000345B0108D45B0108850F000830B585B05A
:10101000274B00220421274800F0A6FE264B02227F
:101020000321264800F0A0FE254B02220521254879
:1010300000F09AFE002229E0002002F09DFC30E042
:1010400003F16101D1540133192BF9D91E4B0293DD
:101050000025019500951A2307211C4800F01AFE6F
:1010600002F0ECFA1A4AC2E9000102950195022346
:10107000009308230421174800F00CFE284602F0D4
:101080003DFF4FF47A7007F071FF2246541C124B5B
:10109000A3FB0213DB0803EB8303A2EB4303092B3F
:1010A000CAD01A2007F0C2FB02460023CCE700BFDB
:1010B000850F0008505B0108C10F0008585B01084C
:1010C000291100085C5B0108DD100008645B010861
:1010D000A08101206C5B0108CDCCCCCC8369C3B16D
:1010E00010B582B00446CE230A4A0B490B4808F0DB
:1010F000C9F8231D0093A38AE269A169084808F092
:10110000C1F8084808F0BEF8A06907F011FC02B069
:1011100010BD7047FC5B01080C5B0108145B010803
:10112000745B0108D45B0108A9B138B504460D46CB
:10113000C423094A09490A4808F0A4F8221DA18AD3
:10114000084808F09FF8084808F09CF8298AE868E1
:1011500000F068FE38BD7047F05B01080C5B0108C9
:10116000145B0108B05B0108D45B0108044B1A68EA
:10117000044800FB02F001301860C0F30E407047D5
:10118000A8810120354E5A0108B5002002F0A6FEC4
:10119000012002F0A3FE022002F090FE72B6FEE7EC
:1011A00000B595B03022002108A812F059FD0023A7
:1011B0000393049305930693079303F0DBFE234BFD
:1011C0001A6C42F080521A641B6C03F08053019336
:1011D000019B1F4B1A6842F440421A601B6803F4DB
:1011E00040430293029B012308934FF4A0230993E9
:1011F00002230E934FF480020F92082210924FF4B4
:10120000D872119212930923139308A802F03AFF9F
:10121000B0B903F0B7FEA8B90F23039302230493D8
:10122000002305934FF4A05306934FF48053079384
:10123000072103A803F0A6F930B915B05DF804FB47
:10124000FFF7A2FFFFF7A0FFFFF79EFF0038024065
:101250000070004000B585B002F084FE2549CA68E0
:1012600022F4E0621204120C234B1343CB60FFF70D
:1012700097FFFFF73FFE214B1A6B42F002021A6301
:101280001B6B03F002030393039B022002F0DEFDBD
:10129000002002F0DBFD012002F0D8FD02F046FB49
:1012A00043F698230093164B00221146012007F0C5
:1012B00073FF144807F0E6FF1348144B036003F074
:1012C00011FD08B1FFF760FF114B0093114B124A5B
:1012D0001249134809F00EFF00F0A0FC114A00214A
:1012E000114807F0D7FD114B186007F091FD07F08A
:1012F000ADFDFEE700ED00E00003FA050038024016
:10130000C0A80110D05B010860B0012000080650A1
:1013100000000020145C0108185C0108205C010832
:101320001C5C0108245C01080D10000870B001204D
:1013300008B505F007FF024B1B68C01A08BD00BFC7
:10134000A083012010B50C460E4BDB680E4A934279
:1013500008D0DA681088A04201D05B68F6E7FF2366
:1013600093700DE040F28343084A0949094807F0A9
:1013700089FF2146084807F085FF084807F082FFEB
:1013800010BD00BFA4830120AC830120A860010828
:10139000485C0108505C0108685C0108D45B0108E6
:1013A00010B50C460E4BDB680E4A934208D0DA6843
:1013B0001088A04201D05B68F6E7FE2393700DE031
:1013C0004FF49463084A0949094807F05BFF214636
:1013D000084807F057FF084807F054FF10BD00BF4A
:1013E000A4830120AC830120C4600108485C01088B
:1013F000505C0108685C0108D45B010810B50C461C
:101400000E4BDB680E4A934208D0DA681088A0427F
:1014100001D05B68F6E7FF2393700DE040F2BE4316
:10142000084A0949094807F02DFF2146084807F0F6
:1014300029FF084807F026FF10BD00BFA483012044
:10144000AC830120E0600108485C0108505C0108A1
:10145000685C0108D45B010810B50C460E4BDB68D4
:101460000E4A934208D0DA681088A04201D05B6827
:10147000F6E7FF2393700DE040F20553084A09494F
:10148000094807F0FFFE2146084807F0FBFE084820
:1014900007F0F8FE10BD00BFA4830120AC8301203B
:1014A00018610108485C0108505C0108A45C01084F
:1014B000D45B010870B588B006460025ADF80E5023
:1014C000052341F288324FF4FA7104A80EF098FF18
:1014D0002DE040F2F723244A2449254807F0D2FEA4
:1014E000244807F0CFFE244807F0CCFE18E040F275
:1014F000FB231D4A1D49214807F0C4FE204807F080
:10150000C1FE1D4807F0BEFEBDF80E304FF47A70E4
:1015100000FB03F01B4BA3FB0030800905F08AFFA2
:10152000631E18BF0123002D18BF0023C3B1C823B9
:10153000009340F25B72144930460EF0B1FE04464F
:101540000128EDD0FFF712FE01460DF10E0204A8AE
:101550000EF01EFF05460128BBD00028E0D1C6E7EB
:10156000204608B070BD00BF44600108485C010817
:10157000505C0108EC5C0108D45B0108285D01089F
:10158000405D0108D34D6210DC5C010810B58EB0DF
:1015900004460C91194B0B93194B0A93194B00936A
:1015A000194B1A4A0AA911F051FB50B14FF05003E0
:1015B00072B683F31188BFF36F8FBFF34F8F62B69C
:1015C000FEE7002203920592069207920892099282
:1015D00001238DF80C300E4B04931223ADF8143018
:1015E0003C23ADF80E300DF1370300934FF47A73BE
:1015F00003A9204611F07AFE0EB010BD5D0301086C
:101600001D03010808000020F1160008311300082E
:10161000905D010820B170B50646114BDC680BE007
:101620004FF0500372B683F31188BFF36F8FBFF38F
:101630004F8F62B6FEE764680A4B9C420FD0E568A4
:101640003289AB8A9A42F6D17168281D12F0C8FE21
:101650000028F0D16B6A13B131462846984770BD17
:10166000A4830120AC83012010B582B00C46002376
:10167000019300936A4601A911F0BCFC50B14FF0F0
:10168000500372B683F31188BFF36F8FBFF34F8F90
:1016900062B6FEE70F4BDB680F4A934209D0DA6867
:1016A0001188A14201D05B68F6E7019B1B7893701B
:1016B0000DE040F2E743094A09490A4807F0E2FD14
:1016C0002146094807F0DEFD084807F0DBFD02B0BF
:1016D00010BD00BFA4830120AC830120FC60010881
:1016E000485C0108505C0108A45C0108D45B010857
:1016F00010B50C460B78702B2DD00ED8402B25D072
:10170000502B04D111882046FFF74AFE04E0302B0D
:101710002BD15068FFF77EFF10BDB02B20D0D02B0F
:101720000DD140F22E43184A1849194807F0AAFD76
:10173000184807F0A7FD184807F0A4FDECE7902B28
:1017400013D111882046FFF78FFFE5E71188204667
:10175000FFF7F8FDE0E711882046FFF74FFEDBE7D3
:1017600011882046FFF778FED6E740F23443064A58
:101770000649074807F086FD2178084807F082FDF2
:10178000054807F07FFDC7E790600108485C010845
:10179000285D0108A45D0108D45B0108FC5D010817
:1017A000F0B58BB007460C460023ADF8163091F823
:1017B0002830302B01D18B7D6BB1384611F008FCFD
:1017C0002080052341F288324FF4FA7106A80EF00A
:1017D00017FE0026CAE000230B80F2E794F82830B9
:1017E000822B31D0A22B4BD0302B40F0C38094F809
:1017F00020308DF80130A37D8DF8003094F8213031
:101800008DF80230231D0193A38AADF80830A36937
:101810000393E369049322886946384611F0FEFD7C
:1018200038B99DF80030002B40F0A480FF23A3704E
:10183000A0E04FF0500372B683F31188BFF36F8FAF
:10184000BFF34F8F62B6FEE7A37D8DF80030231DF6
:101850000193A38AADF808302388012269463846EF
:1018600011F08AFA002800F085804FF0500372B61C
:1018700083F31188BFF36F8FBFF34F8F62B6FEE71C
:10188000A37D8DF80030231D0193A38AADF80830A5
:10189000238801226946384611F052FB002869D09E
:1018A0004FF0500372B683F31188BFF36F8FBFF30D
:1018B0004F8F62B6FEE70A21384612F02BF8002857
:1018C0005DD04FF0500372B683F31188BFF36F8F72
:1018D000BFF34F8F62B6FEE7FFF748FC01460DF1FC
:1018E000160206A80EF054FD0646012802D098B153
:1018F000012548E040F2C733304A3149314807F00A
:10190000C1FC211D304807F0BDFC304807F0BAFC8F
:10191000FF23A370012536E040F2CF33274A284940
:101920002B4807F0AFFC211D2A4807F0ABFC2748E5
:1019300007F0A8FCBDF816304FF47A7000FB03F0F6
:10194000254BA3FB0030800905F074FD01251AE04A
:1019500001251BE00022E2631A68013A1A60204662
:1019600006F0E6FF002E18BF002525B3A378802BD4
:101970003FF434AFA378FE2B18BF802B9BD0A37805
:10198000802BA9D00025A378FE2BE1D0FF2BE9D135
:10199000636A13B1002120469847E36B216B626BA9
:1019A0008A60216B5160596804F12C029142D1D1B7
:1019B000626B5A60CEE70BB0F0BD00BF6C600108EF
:1019C000485C0108505C0108405E0108D45B0108D6
:1019D000285D0108A45E0108D34D6210F0B58BB0FC
:1019E0000646664B186804F055FD25E0402006F0D9
:1019F0001DFF07464022002112F032F93C1D6D46C2
:101A00000FCD0FC40FCD0FC495E8030084E8030089
:101A10008023BB70BF635A4B5A683A6390687863FF
:101A200007F12C0141609160FB631A6801321A6072
:101A300039463046FFF7B4FE0A2269464F4B186814
:101A400004F09AFB012841D14C4B186804F022FDA8
:101A50009DF82430822B14D0A22B60D0302BC5D01F
:101A600040F2C523474A4849484807F00BFC6A46FC
:101A7000BDF81010464807F005FC464807F002FC88
:101A8000DAE73F4BDC6800E06468434B9C421FD0C0
:101A9000E068BDF81020838A9A42F5D16946043087
:101AA00012F09EFC0028EFD140F28B23354A3649D4
:101AB000364807F0E7FB9DF812306A46BDF8101073
:101AC000364807F0DFFB334807F0DCFB0BB0F0BD16
:101AD000402006F0ABFE07464022002112F0C0F87D
:101AE0003C1D6D460FCD0FC40FCD0FC495E803000C
:101AF00084E803008023BB70BF63214B5A683A63BC
:101B00009068786307F12C0141609160FB631A686B
:101B100001321A6039463046FFF742FE8CE7184B17
:101B2000DC6800E064681C4B9C4215D0E568BDF899
:101B30001020AB8A9A42F5D16946281D12F050FC5C
:101B40000028EFD1A22385F828308023AB702946E6
:101B50003046FFF725FEB9E740F2BE23094A0A499D
:101B60000A4807F08FFB6A46BDF810100C4807F0D2
:101B700089FB084807F086FB5EE700BF74B00120D0
:101B8000A483012030600108485C0108285D010839
:101B9000305F0108D45B0108AC830120CC5E0108F2
:101BA000045F010800B5A3B00020209020AB219372
:101BB0004FF0FF32012106F0CFF8FFF7B9FB164BCB
:101BC000186021A8FFF776FC01280AD04FF05003D7
:101BD00072B683F31188BFF36F8FBFF34F8F62B676
:101BE000FEE721A96846FFF7D1FC012002F066F963
:101BF0006846FFF7F3FE0021684611F005FF002854
:101C0000F6D04FF0500372B683F31188BFF36F8F95
:101C1000BFF34F8F62B6FEE7A0830120164B1B680F
:101C200003B1704700B583B0144803F050FF0023A0
:101C30000093134B134A28210A2004F0A0F8124AFB
:101C4000106068B10C4B01930323009300234FF401
:101C5000A0620E490E4805F01DF903B05DF804FBC3
:101C60004FF0500372B683F31188BFF36F8FBFF349
:101C70004F8F62B6FEE700BF78B00120A483012039
:101C8000B88301207CB0012074B00120485C0108B9
:101C9000A51B00082DE9F0438DB0044600200B90F1
:101CA0002A480568002D4AD08846174699462822BA
:101CB000002101A811F0D4FF30238DF82830002630
:101CC0008DF821609DF850308DF816304246102A6C
:101CD00028BF1022214601A812F094FB01A8FEF7AC
:101CE00097FAADF814000697CDF81C909DF8543083
:101CF0008DF82030169B099333460BAA01A928467C
:101D000004F0BCF901280BD10B9BD3B1104B4FF061
:101D100080521A60BFF34F8FBFF36F8F012011E025
:101D20004FF4CD730B4A0C490C4807F0ABFA21462F
:101D30000B4807F0A7FA0B4807F0A4FAE4E70020E5
:101D400000E001200DB0BDE8F08300BF74B00120B9
:101D500004ED00E0FC5F0108485C0108285D010813
:101D60005C5F0108D45B01082DE9F0418CB00C46A2
:101D700000210B9124490E68002E3ED00546904666
:101D80001F462822002101A811F06AFF82238DF846
:101D900028308DF816802246102C28BF10222946A4
:101DA00001A812F02FFB01A8FEF732FAADF81400DB
:101DB000099700230BAA01A9304604F05FF9012816
:101DC0000BD10B9BDBB1114B4FF080521A60BFF36C
:101DD0004F8FBFF36F8F012012E04FF4E6730C4A70
:101DE0000C490D4807F04EFA2A4621460B4807F0E9
:101DF00049FA0B4807F046FAE3E7002000E001202B
:101E00000CB0BDE8F08100BF74B0012004ED00E02B
:101E10000C600108485C0108285D01088C5F01081E
:101E2000D45B010870B58CB000230B93214B1E6866
:101E3000002E3AD005460C462822002101A811F0B8
:101E40000FFFA2238DF828302246102C28BF102225
:101E5000294601A812F0D6FA01A8FEF7D9F9ADF883
:101E6000140000230BAA01A9304604F007F9012849
:101E70000BD10B9BDBB1104B4FF080521A60BFF3BC
:101E80004F8FBFF36F8F012012E04FF4FD730B4AA9
:101E90000B490C4807F0F6F92A4621460A4807F094
:101EA000F1F90A4807F0EEF9E3E7002000E001202D
:101EB0000CB070BD74B0012004ED00E01C6001089E
:101EC000485C0108285D0108C45F0108D45B010873
:101ED00070B58AB00023079306220121022009F081
:101EE000B5FE431E13F1030F0AD94FF0500372B62B
:101EF00083F31188BFF36F8FBFF34F8F62B6FEE796
:101F0000044600250895099548F61313ADF82230CC
:101F10000426009607AB2A4629460AF05FFD41F2E7
:101F2000D06303930223049342F6A05305930696CD
:101F30001023009303AB0D22294620460AF04EFDE4
:101F4000082208A9204609F0D4FF0546314620465C
:101F50000AF0F1FB06460122074B1968204609F0FA
:101F6000DFFE00962B4641F289322146034807F0F6
:101F700089F920460AB070BD1C8401203461010833
:101F800010B586B00023039311220221084609F000
:101F90005DFE431E13F1030F0AD94FF0500372B6D2
:101FA00083F31188BFF36F8FBFF34F8F62B6FEE7E5
:101FB000044648F61313ADF812300423009303AB24
:101FC000002211460AF00AFD082204A9204609F061
:101FD00090FF034641F289322146064807F052F944
:101FE0000122054B1968204609F09AFE204606B0EA
:101FF00010BD00BF806101081C84012030B589B08C
:1020000005AA06A90AF0F8F9431E13F1030F01D936
:1020100009B030BD0446402006F008FC05463C22CD
:102020000021043011F01CFE2C60AD6305F120018D
:1020300020460AF096FC01A9686A0AF01DF96B8C2B
:102040001A0A42EA032292B201A9084807F01AF9D3
:102050000122074B1968204609F062FE054800F18D
:10206000080205F12C010CF0E5FBD1E7C061010885
:102070001C84012020840120F0B5B7B004460D4631
:102080001646027A062A0BD9237A052B00F216810E
:10209000DFE813F0100071008A00FE0016012C0129
:1020A000438C190A41EA0321334689B2A44807F058
:1020B000E9F8E9E7A34B1B782BB350222946A14846
:1020C00012F08EF9064609238DF810300023012204
:1020D00004A920680AF0ACFAC6B19A4F2B463A46DA
:1020E0003146994807F0CEF850222946384612F07A
:1020F00089F9964B1C60237943F001032371237AFD
:1021000001332372DAE04FF0FF36DCE78D4D2A46CB
:1021100031468F4807F0B6F800232B708D4B1C60BA
:102120008A4B1B68DBB15A6862601A6922615B697D
:10213000636104F1180005F08FFB864B1B681B7967
:1021400013F0020F10D1814B1A68137943F0010389
:102150001371804B1B681A796FF300021A717D4B63
:102160001B6807221A72A9E002227B4B19682068BB
:1021700009F0D6FDE7E7032E40F3A0802B786978BD
:10218000090441EA0361AB7841EA0321EB78194382
:10219000E1603246714807F075F80435237A01335F
:1021A0002372043E00F08A80002E05DCE268B24211
:1021B00055D9921BE26081E00023AB55294668485F
:1021C00007F060F80CE005226649284612F008F98D
:1021D000C8B106226449284612F002F9E8B1013577
:1021E0002B7863B309226149284612F0F9F80028D8
:1021F000E9D1AB7A742B14BF00230123227963F356
:1022000041022271EBE704AA5949A81D12F052F8C5
:102210000028E4DD049B2361E1E704AA5449E81D9A
:1022200012F048F80028DADD049A4FF47A7303FBC1
:1022300002F36361237943F004032371CFE7237929
:1022400013F0020FB2D0194663690093C1F3800303
:102250002269C1F34001474807F014F8A6E70A23B2
:102260008DF80C3040F20123ADF81030002301222C
:1022700003A920680AF0DCF90023022204A92068DF
:102280000AF0D6F90023E360237A0133237215E0C4
:102290000D238DF81030638C190A41EA03212B7845
:1022A000324689B2344806F0EDFF0023012204A92A
:1022B00020680AF0BDF9237A0133237237B0F0BDEC
:1022C000032EFBDD2B786978090441EA0361AB78C2
:1022D00041EA0321EB781943E1603246274806F0D2
:1022E000D1FF237A01332372043EE7D0E268B24281
:1022F00002D9921BE260E1E7164B1B68F3B19B6ABF
:102300001F4AC42105A811F0A1FF421E130203F4C5
:102310007F0343EA0263110A01F47F410B4343EA5E
:10232000126304930023021D04A920680AF080F9B7
:102330000023E360237A01332372BFE70023DFE742
:10234000F061010818B201201062010814B20120E6
:102350004062010810B201201C840120646201085F
:1023600088620108A8620108B06201089C62010845
:10237000249A0108B8620108E46201080C630108AC
:102380003063010870B5044600680AF008FB42F6A5
:10239000A05109F02FF80546237913F0040F16D049
:1023A00004F1140104F1180005F080FA78B12379E2
:1023B00013F0080F01D0002510E0022120680AF078
:1023C00000FA237943F008032371002506E0216910
:1023D000284609F00FF8064610B90025284670BDBA
:1023E000002302460B49096820680AF021F9051EFE
:1023F000F4DB237913F0040F03D123699B1B2361C2
:102400000BB13544EAE70222034B1968206809F052
:10241000B0FCF6E70CB201201C84012010B584B09A
:1024200004461B4B1B68834222D01A4B1B68A342F5
:1024300022D02368C3B16946606A09F01DFF638C2E
:102440001A0A42EA0322A36A92B26946124806F0C7
:1024500019FF0F22114B1968206809F08AFC2068C7
:1024600009F068FE0023236023684BB104B010BD5F
:10247000074B00221A60D8E7064B00221A60D8E703
:1024800004F12C0003F055FB204606F051FAEDE76D
:1024900014B2012010B20120DC6301081C84012069
:1024A00038B504460368ABB1037903F00302022A8E
:1024B0001ED113F0140F1BD10369CBB9204806F0CD
:1024C000E1FE022120680AF07CF9237943F0100331
:1024D00023710DE0FFF7A2FF28E01A4B1968204690
:1024E000FFF7CAFD00232A46194620680AF00FF8B4
:1024F00001234FF48032134920680AF008F8021EC5
:1025000007DD1546A36A1344A362237A052BE9D895
:10251000E3E722B9237903F00303022B07D012F17A
:102520000B0318BF012313EAD27305D138BD20462F
:10253000FFF728FF0246F2E72046FFF76FFFF5E7B7
:102540001C6401080884012030B587B0044603AB41
:10255000019304AB0093012304220C4909F05EFCB3
:10256000021E01DC07B030BD09490B6813440B6043
:10257000064D0823019304AB0093002329682046ED
:1025800009F0FDFC286808F008FDEBE7088401204D
:1025900010840120F0B583B009F0ACFB344B186017
:1025A000344803F094FAFFF793FC0746FFF7E8FC82
:1025B0000646314806F066FE08F08CFD040608F079
:1025C00089FD030203F47F031C4308F083FD030A23
:1025D00003F47F431C4308F07DFD41F2893244EA55
:1025E0001061264806F04EFE15E03846FFF706FD5E
:1025F000204BDC6803E0E0686468FFF751FF204B84
:102600009C42F8D110E01F4B1B681F4A10688342A0
:1026100010D01C4B186041F28831154B186809F036
:10262000D0FB05460028E0D1002DECD03046FFF766
:102630008BFFF0E7154B19688842ECD0421A41F243
:102640007A431344124CA4FB03431C0B114BA3FB12
:1026500004535B090190642000FB134400940E486E
:1026600006F010FE084B1A68084B1A60D3E700BF4B
:102670001C8401202084012034640108486401087E
:102680002884012014840120108401201884012052
:1026900009DB01641F85EB517864010800B583B044
:1026A000114B1B682BB1114B1B6883B103B05DF854
:1026B00004FB42F6A05006F0B9F80B4B1860002856
:1026C000F1D142F6A0510A4806F0DCFDEEE7074BD7
:1026D00001933423009300234FF42A7205490648DE
:1026E00004F0D8FBE2E700BF0CB201200C8401200B
:1026F000A8640108D06401089525000801382A283B
:102700003FD8DFE800F01640181A1C1E20223E3E7B
:1027100024263A3C282A2C3E3E2E303234363E3E89
:102720003E3E3E3E3E3E3E3E3E3E3E3E3E3E3E3EC9
:1027300038001648704716487047164870471648C4
:102740007047164870471648704716487047164835
:102750007047164870471648704716487047164825
:102760007047164870471648704716487047164815
:102770007047164870471648704716487047164805
:102780007047164870471648704700BF2867010811
:10279000F864010810650108286501083C65010816
:1027A0005465010880650108A0650108CC65010831
:1027B000F46501080C660108286601084C660108EA
:1027C000606601087466010888660108A866010849
:1027D000B8660108DC6601080C670108D8640108C6
:1027E000E06401080B2819D8DFE800F0061A080A8F
:1027F0000C0E1018121814160A4870470A48704731
:102800000A4870470A4870470A4870470A487047A4
:102810000A4870470A4870470A4870470A48704794
:102820000A487047046801084867010860670108A2
:10283000746701088C67010898670108AC67010894
:10284000C0670108DC670108D86401083467010823
:1028500030B583B01546062A1ADD04460A88130AE5
:1028600043EA0223C3824B88180A40EA032080B25D
:1028700020838A88130A43EA02239BB26383B8B990
:10288000EA1F92B2013B9A4226D1002003B030BD2C
:102890004FF46C73194A1A491A4806F0F3FC29469A
:1028A000194806F0EFFC194806F0ECFC0120EDE7B2
:1028B00040F2C333114A1249124806F0E3FC237F69
:1028C0000093638B228BE18A114806F0DBFC0F48F2
:1028D00006F0D8FC0220D9E740F2CE33074A084977
:1028E000084806F0CFFC2A46618B0A4806F0CAFC6D
:1028F000064806F0C7FC0120C8E700BF5C6B010872
:1029000014680108285D01081C680108D45B0108EF
:10291000406801088068010870B586B0044600234D
:1029200003934FF48273029303688BB140F2333305
:102930003B4A3C493C4806F0A5FC4FF4FB72216839
:102940003A4806F09FFC3A4806F09CFC06B070BD81
:1029500006220121022009F079F92060431E13F1BB
:10296000030F0AD94FF0500372B683F31188BFF3F7
:102970006F8FBFF34F8F62B6FEE700250495059574
:1029800008F0A8FB05904FF20163ADF81230042661
:10299000009603AB2A46294620680AF01FF80096E5
:1029A00002AB0522294620680AF018F8009603AB0E
:1029B0000122294620680AF011F8009602AB32463F
:1029C000294620680AF00AF800961A4B0322294685
:1029D00020680AF003F8082204A9206809F089FA9F
:1029E00005463146206809F0A6FE06460122124B34
:1029F0001968206809F094F940F26933084A0949D6
:102A0000094806F03FFC00962B464FF4FB72216804
:102A10000A4806F037FC064806F034FC96E700BF8B
:102A2000406B010814680108145B0108B4680108D0
:102A3000D45B01083484012038840120E068010857
:102A400030B589B005AA06A909F0D6FC431E13F1DA
:102A5000030F01D909B030BD04464FF49E7005F054
:102A6000E5FE05464FF49E72002111F0F9F82C6046
:102A7000C5F8345105F58E71204609F072FF01A9A1
:102A8000D5F8200109F0F8FB4FF408730F4A1049FC
:102A9000104806F0F7FBB5F81E311A0A42EA032285
:102AA00092B201A90C4806F0EDFB0C4806F0EAFBD7
:102AB00005220B4B1968204609F032F9094800F14C
:102AC000080205F594710BF0B5FEC3E7046B01082D
:102AD00014680108145B010824690108D45B01082B
:102AE000388401203C84012070B50446054655F821
:102AF000160B09F054FF4FF4837108F07BFC618BD7
:102B0000063108F077FC10B90025284670BD06464E
:102B1000E28A130A43EA0223E382228B130A43EA7E
:102B200002232383628B130A43EA02236383002375
:102B300002462946206809F07BFD051EE5DB638B14
:102B40009B1B9BB263830BB13544DEE70222034B30
:102B50001968206809F00DF9F6E700BF38840120F4
:102B600010B584B0044603682BB36946D0F8200141
:102B700009F082FB40F23523154A1649164806F043
:102B800081FBB4F81E311A0A42EA0322D4F8243138
:102B900092B26946114806F075FB114806F072FBC7
:102BA0000F22104B1968206809F0E3F8206809F03B
:102BB000C1FA0023236023680BB104B010BD04F5F3
:102BC000947002F0B6FF204605F0B2FEF5E700BFB4
:102BD000186B010814680108145B010848690108B2
:102BE000D45B010838840120012806D0022806D0D1
:102BF00008B10448704704487047044870470448C7
:102C0000704700BFA0690108E8690108BC690108B4
:102C10007469010800B585B004AB03E907009DF8AD
:102C20000420094B1A70029A5A60084B1B6813B1B2
:102C300005B05DF804FB064A0021064806F02AF9B3
:102C4000024B1860F4E700BF68B2012078B201209F
:102C50008C6B0108793300082DE9F043A3B00746D7
:102C60000E46CD7901F1080800F11A09448B013CA8
:102C7000A4B240F2E933B64AB649B74806F002FBBF
:102C80002846FFF73BFD014623462A46B34806F097
:102C9000F9FAB34806F0F6FA6B1E2A2B00F2768298
:102CA000DFE813F02B006700A300CB00F30018014E
:102CB0008D022A01740274028D028D028D028D0232
:102CC000DF011F024802740274028D028D028D0220
:102CD0008D028D0274027402740274027402740212
:102CE0007402740274027402740274027402740234
:102CF00074027402740274028D02052C40F0648226
:102D0000337A98F8015045EA032598F8023098F88C
:102D1000034044EA0324631E9BB2B3F5FA6F80F0CC
:102D200055822B19B3F5803F01DB022548E207EEFF
:102D3000904AB8EE677AF4EE007A67EE277A17EEDB
:102D4000900AFDF721FC41EC100B12F0DDFD51EC77
:102D5000100BFDF733FFC0B2307203307883814B24
:102D60009B682246294608F1010000F06BFB0546EE
:102D700026E2052C40F02C82337A98F8019049EA3B
:102D8000032998F8023098F8034044EA0324631EAC
:102D90009BB2B3F5FA6F80F01D8209EB0403B3F523
:102DA000803F80F20D8207EE904AB8EE677AF4EE2B
:102DB000007A67EE277A17EE900AFDF7E5FB41EC03
:102DC000100B12F0A1FD51EC100BFDF7F7FEC0B295
:102DD000307203307883634B9B682246494608F182
:102DE000010000F007FB0546EAE1052C40F0E88110
:102DF000337A98F8011041EA032198F8023098F8E4
:102E0000032042EA032210B2531E9BB27C2B00F235
:102E1000D7818B18B3F5803F01DB0225D0E140005C
:102E20003072531C5B0001337B834E4B9B6808F16F
:102E3000010000F00BFB0546C2E1052C40F0CC81FF
:102E4000337A98F8011041EA032198F8023098F893
:102E5000032042EA032210B2531E9BB27C2B00F2E5
:102E6000BD818B18B3F5803F01DB0225A8E140004E
:102E70003072531C5B0001337B833A4B9B6808F133
:102E8000010000F011FB05469AE1052C40F0A881F5
:102E9000337A98F8011041EA032198F8022098F853
:102EA000033053EA02230CBF01220022B3F57F4F07
:102EB00014BF002301231A4301D1032580E188F8C0
:102EC0000130284B9B68012208F1020000F040FB12
:102ED000054675E1052C01D0032571E1307A98F89B
:102EE0000110204B9B68012241EA002108F10200F9
:102EF00000F05AFB054663E1042C40F27381327AFC
:102F000098F8013043EA02231BB298F8021098F8AF
:102F1000032042EA0122142B00F26681DFE813F05D
:102F2000150064012400640164016401640164010A
:102F3000640164012F0040004B00560061006C00EA
:102F4000770082008D0064019800002538E100BF01
:102F5000746B010814680108145B0108346A0108E5
:102F6000D45B010868B20120052C08BF002A40F09C
:102F70003D813372BB8AA8F80230002520E1052C80
:102F800008BF002A40F034810020B880F8803881E2
:102F90007881B881F88138827882B88205460FE15D
:102FA000052C08BF002A40F025813372BB88A8F8A1
:102FB0000230002504E1052C08BF002A40F01C81E6
:102FC0003372FB88A8F802300025F9E0052C08BF11
:102FD000002A40F0138133723B89A8F802300025A3
:102FE000EEE0052C08BF002A40F00A8133727B898D
:102FF000A8F802300025E3E0052C08BF002A40F0C5
:1030000001813372BB89A8F802300025D8E0052C75
:1030100008BF002A40F0F8803372FB89A8F802301C
:103020000025CDE0052C08BF002A40F0EF80337268
:103030003B8AA8F802300025C2E0052C08BF002A10
:1030400040F0E68033727B8AA8F802300025B7E0B2
:10305000052C08BF002A40F0DD800020788205465C
:10306000AEE0062C40F2D880337A98F8015045EA59
:10307000032598F8023098F8034044EA032498F8AE
:103080000460631E9BB2B3F5FA6F80F0C78007EE51
:10309000904AF8EE677AB4EE007A67EE877A17EE18
:1030A000900AFDF771FA41EC100B12F02DFC51EC77
:1030B000100BFDF783FDC0B2B04240F0B1802B1978
:1030C000B3F5803F01DB02257AE006237B83584B72
:1030D0009B682246294608F1050000F013FA0546D0
:1030E0006EE0042C40F29E80337A98F8011041EA99
:1030F000032198F8023098F8032042EA032298F856
:103100000400531E9BB27A2B00F28E80B0EB420F6C
:1031100040F08C808B18B3F5803F01DB02254FE037
:1031200006237B83424B9B6808F1050000F014FAEC
:10313000054645E0012C01D0032541E0002502951C
:103140007C22294603A810F08BFD394C394B0193A2
:10315000394B00936368394A802102A811F076F850
:1031600002A8FDF755F802303072237888F8013054
:10317000FF2388F8023002A908F1030011F028F9B2
:1031800002A8FDF745F80530788319E0A5F1410262
:10319000D2B2A5F16403DBB20A2B88BF072A01D99A
:1031A00001250DE0224B9B680193CDF8009043462A
:1031B00022464146284600F0FBF9054600E001257D
:1031C000284623B0BDE8F0830325F9E70325F7E798
:1031D0000325F5E70325F3E70325F1E70325EFE7EB
:1031E0000325EDE70325EBE70125E9E70325E7E7FD
:1031F0000325E5E70325E3E70325E1E70325DFE70B
:103200000325DDE70325DBE70325D9E70325D7E71A
:103210000325D5E70325D3E70325D1E70325CFE72A
:103220000325CDE70325CBE70325C9E70325C7E73A
:1032300068B20120646A0108706A0108586A0108CE
:10324000F8B50446064656F8163B002B3CD1FFF76E
:1032500087FC7BE040F2B2233F4A4049404806F0F9
:1032600011F83846FFF7C0FC01463A463D4806F0E3
:1032700009F83D4806F006F8E3880133E38039E0B9
:10328000238A0133238240F2C923334A3349344825
:1032900005F0F8FF607FFFF731FA07462846FFF791
:1032A000A1FA02462B463946304805F0EBFF2E487E
:1032B00005F0E8FF03236383637F63F07F03637795
:1032C000A5772046FFF710FC00234FF483723146A8
:1032D000206809F01CF9051E31DDD4F824312B4497
:1032E000C4F824312A4631462046FFF7B1FA074692
:1032F0000028AFD12A4631462046FFF7ADFC0546EF
:1033000038B1238901332381431FDBB2012BBAD8A3
:10331000B6E763890133638140F2D9230E4A0F492E
:10332000134805F0AFFF607FFFF7E8F90146628BB5
:10333000104805F0A7FF0C4805F0A4FFC1E715F100
:103340000B0318BF012313EAD57300D1F8BD204643
:10335000FFF706FCFAE700BF2C6B010814680108B0
:10336000285D01087C6A0108D45B0108A86A01088D
:10337000006A0108D06A010810B582B008F0BAFCF2
:10338000184B1860184802F0A2FB0321002003F03C
:1033900003FE03220021012002F036FD134B1860CA
:1033A0000023019301A8FFF7B7FA06E0E06864681C
:1033B000FFF746FF0E4B9C42F8D141F288310B4B90
:1033C000186802F08DFF41F28831064B186808F04A
:1033D000F8FC0028F1D00198FFF732FB024BDC68C3
:1033E000E8E700BF388401203C84012034840120B8
:1033F00044840120F8B507460D46164635230C4A8D
:103400000C490D4805F03EFF33462A4629460B4835
:1034100005F038FF0A4805F035FF0023B34205D216
:1034200005F00104FC5401339BB2F7E70020F8BD1E
:10343000646C010814680108145B0108186A01082B
:10344000D45B010808B5FFF7D5FF08BDF8B50746FE
:103450000D46164656230F4A0F49104805F012FF35
:1034600033462A4629460E4805F00CFF0D4805F064
:1034700009FF0023B3420AD25C19A2B2C4F30724A5
:1034800044EA022427F8134001339BB2F2E70020FC
:10349000F8BD00BF846C010814680108145B0108C2
:1034A000186A0108D45B0108F8B507460D461646B0
:1034B00078230F4A0F49104805F0E4FE33462A46A8
:1034C00029460E4805F0DEFE0D4805F0DBFE002320
:1034D000B3420AD25C19A2B2C4F3072444EA02241C
:1034E00027F8134001339BB2F2E70020F8BD00BF7C
:1034F000A46C010814680108145B0108B06B010892
:10350000D45B010870B582B006460D461446A72369
:103510000A4A0B490B4805F0B5FE33780093234661
:103520002A462946084805F0ADFE084805F0AAFEDF
:1035300014B9002002B070BD0420FBE7C86C01087C
:1035400014680108145B0108CC6B0108D45B010806
:1035500008B5FFF7D7FF08BD70B582B006460D4627
:103560001446D4230B4A0C490C4805F08BFE3388D3
:1035700072880192009323462A462946084805F09E
:1035800081FE084805F07EFE14B9002002B070BD2F
:103590000420FBE7E46C010814680108145B0108CF
:1035A000006C0108D45B010808B5FFF7D5FF08BD22
:1035B00038B504461546FB23074A0849084805F074
:1035C00061FE2A462146074805F05CFE064805F0E4
:1035D00059FE012038BD00BF046D010814680108C0
:1035E000145B0108386C0108D45B010810B5104861
:1035F0004FF0804303606B234360002383600D4AD8
:10360000C260036143610123037701F083FC58B971
:10361000074C204601F0B0FB23686FF001021A61ED
:10362000054B00221A6010BDFDF7AEFDF0E700BFAC
:103630007CB201207F9698005884012010B5124B6F
:103640001B6853B15A6A11490C68586A8242F9D80A
:1036500000210F4BE3FB040110BD03F073FD044692
:103660004201C30E121A63F10003990041EA9271FC
:103670009000001941F10001CB0043EA5073C200F1
:1036800010461946E8E700BF7CB2012058840120AB
:1036900080969800054A136801331360B3F5FA7FEA
:1036A00002D3134600221A60704700BF50840120E5
:1036B00008B5AC23064A0749074805F0E3FD07486B
:1036C00005F0E0FD064805F0DDFDFDF75DFD08BDF8
:1036D000986E01080C5B0108505C0108246D01081C
:1036E000D45B010810B50C46BE23074A07490848B9
:1036F00005F0C8FD2146074805F0C4FD064805F061
:10370000C1FDFDF741FD10BDB86E01080C5B01085D
:10371000505C0108446D0108D45B0108F0B58FB01E
:10372000002869D13B4B1B68002B52D00AAB0BAA77
:103730000CA90DA807F038FC06A90D9808F09CFD0F
:10374000354F364E364DFE233A463146284605F073
:1037500099FD06A9334805F095FD334C204605F048
:1037600091FD06A90C9808F087FD4FF481733A4645
:103770003146284605F086FD06A92C4805F082FD55
:10378000204605F07FFD06A90B9808F075FD4FF463
:1037900083733A463146284605F074FD06A924484D
:1037A00005F070FD204605F06DFD06A90A9808F0A9
:1037B00063FD4FF485733A463146284605F062FDB5
:1037C00006A91C4805F05EFD204605F05BFD0FB024
:1037D000F0BDFEF763FF03AB93E80700FFF71AFAAB
:1037E0000021009102230A461348006804F078FB88
:1037F000084B01221A6099E74FF48773064A07497C
:10380000074805F03FFD0D4805F03CFD064805F072
:1038100039FDDCE768840120D86E01080C5B0108E3
:10382000145B0108806D0108D45B0108686D010814
:10383000786D0108906D010878B00120AC6D010829
:1038400008B50549A1F10C0001F063FA10B9034B6A
:10385000D86808BD0020FCE76CB0012060B00120F2
:1038600010B504460649A1F10C0001F052FA20B946
:10387000044BDB682360012010BD0020FCE700BF83
:103880006CB0012060B0012038B504460D4640F20E
:103890004313074A0749084805F0F4FC2A46214625
:1038A000064805F0EFFC064805F0ECFC38BD00BF0B
:1038B000F86E01080C5B0108145B0108C06D01087B
:1038C000D45B010830B583B004460146104810F0BF
:1038D00063FD30B121460F4810F05EFDB0B90125FF
:1038E00000E0012540F295130B4A0C490C4805F005
:1038F000C9FC0095074B064A21460A4805F0C2FC60
:10390000094805F0BFFC284603B030BD0025E9E7B3
:10391000DC6D0108EC6D0108146F01080C5B0108F7
:10392000145B0108F06D0108D45B010800B585B097
:103930000D4BDA1D22F007020C49C91A0C4B196015
:10394000196821F00701196019680A48091A1960F5
:1039500000921B680193002302930393684605F0CD
:1039600035F805B05DF804FB00B401200000052027
:1039700054840120000400002DE9F04786B006467B
:1039800003F0E6FB0590059800EBC000800004F012
:103990004DFF054640F2BD134B4A4C494C4805F0DB
:1039A00071FC4C4805F06EFC4B4805F06BFC002D9B
:1039B00067D005990022284604F032F80590FFF7F9
:1039C0003DFE464BD3E90023B0EB020861EB03094F
:1039D0004FF47A72002340464946FDF70FF9074637
:1039E0008A46B9F1000F08BFB8F57A7F46D30023A5
:1039F00004933FE0049B03EBC30305EB83013A46CA
:103A0000534688690021FDF7F9F8804640F2D51346
:103A10002D4A2E492E4805F035FC049901EBC101D1
:103A200005EB8101049B03EBC30305EB8302049BBD
:103A300003EBC30305EB83031B8C049800EBC0006E
:103A400005EB800C12694968254CA4FB0804E408C6
:103A500004EB8400A8EB400002900194DCF818000D
:103A60000090204805F00EFC1B4805F00BFC049B61
:103A700001330493049A059B9A42BBD3284604F071
:103A800057FF40F2E313104A1049114805F0FAFBC2
:103A900004F096FF044604F08DFF0246124B1B68AB
:103AA000124900912146124805F0ECFB0A4805F046
:103AB000E9FB16B906B0BDE8F087FFF7BFFD074B7D
:103AC000C3E90001F6E700BF306F01080C5B010895
:103AD000145B0108106E0108D45B010860840120AA
:103AE000CDCCCCCC446E01085484012000040000ED
:103AF0006C6E01087047FEE7FEE7FEE7FEE77047E1
:103B000008B500F045FA03F0E9FF012800D108BD2F
:103B100005F0B0F8FBE70000074B1A681369074986
:103B20000B6013F0010F06D06FF001031361044A1C
:103B300013680133136070477CB20120C8B20120C2
:103B40005884012000B583B00D4B1A6C42F08052AE
:103B50001A641A6C02F080520092009A5A6C42F475
:103B600080425A645B6C03F480430193019B002202
:103B70000F216FF0010000F02FFA03B05DF804FB95
:103B8000003802400368B3F1804F00D0704700B5A1
:103B900083B003F50E331A6C42F001021A641B6CF9
:103BA00003F001030193019B002206211C2000F079
:103BB00013FA1C2000F042FA03B05DF804FB000089
:103BC00030B5ABB00446002125912691279128916C
:103BD0002991842204A810F043F82268204B9A42CD
:103BE00001D02BB030BD1F4C236B43F0080323637F
:103BF000236B03F008030193019B236B43F008033D
:103C00002363236B03F008030293029B4023049376
:103C10000125159504A800F091FD236C43F4802341
:103C20002364236C03F480230393039B4FF40073FA
:103C30002593022326932795032328930725299567
:103C4000A4F5305425A9204601F0ECFC4FF4807314
:103C50002593299525A9204601F0E4FCC1E700BF82
:103C600000480040003802400268084B9A4200D0E9
:103C7000704782B0064B5A6B42F040025A635B6B4E
:103C800003F040030193019B02B070470008065007
:103C900000380240F0B593B000230D930E930F93BC
:103CA000109311930268654B9A4201D013B0F0BD96
:103CB000A3F590431A6B42F000721A631A6B02F07C
:103CC00000720092009A1A6B42F080621A631A6BBB
:103CD00002F080620192019A1A6B42F000621A634C
:103CE0001A6B02F000620292029A1A6B42F008020A
:103CF0001A631A6B02F008020392039A1A6B42F0DD
:103D000001021A631A6B02F001020492049A1A6B00
:103D100042F004021A631A6B02F004020592059A3B
:103D20001A6B42F001021A631A6B02F0010206924A
:103D3000069A1A6B42F004021A631A6B02F004022C
:103D40000792079A1A6B42F004021A631A6B02F088
:103D500004020892089A1A6B42F040021A631A6B26
:103D600002F040020992099A1A6B42F040021A636B
:103D70001A6B02F040020A920A9A1A6B42F0400251
:103D80001A631A6B02F040020B920B9A1A6B42F004
:103D900002021A631B6B03F002030C930C9B0323B8
:103DA000109302240E9400260F960B2311930D946A
:103DB000234D0DA9284601F035FC04270D970DA9C8
:103DC000284601F02FFC0D941E4C0DA9204601F051
:103DD00029FC80230D930DA9284601F023FC102314
:103DE0000D930DA9204601F01DFC20230D930DA974
:103DF000204601F017FC0D9704F580540DA92046CC
:103E000001F010FC4FF400630D930DA9204601F062
:103E100009FC4FF400550D950DA9204601F002FC58
:103E20000D950DA9084801F0FDFB324605213D2006
:103E300000F0D2F83D2000F001F937E700800240A1
:103E4000000002400008024000040240F0B589B0C2
:103E5000044608BB164B1A6B42F002021A631B6B36
:103E600003F002030193019B124B33F81460039695
:103E70000123049300270597032306930E4D03A9FE
:103E800055F8240001F0CEFB3A46314655F824009F
:103E900001F0B8FC09B0F0BD054B1A6B42F002020C
:103EA0001A631B6B03F002030293029BDCE700BF63
:103EB00000380240406F01081000002008B50122C0
:103EC000044B33F81010044B53F8200001F09AFC17
:103ED00008BD00BF406F01081000002008B5002297
:103EE000044B33F81010044B53F8200001F08AFC07
:103EF00008BD00BF406F01081000002008B5044B4A
:103F000033F81010034B53F8200001F081FC08BD7A
:103F1000406F01081000002010B504460E4B1878C1
:103F20004FF47A73B3FBF0F30C4A1068B0FBF3F074
:103F300000F092F868B90F2C01D901200AE00022A4
:103F400021464FF0FF3000F047F8054B1C60002081
:103F500000E0012010BD00BF1C0000202400002054
:103F60002000002008B5094B1A6842F400721A605C
:103F70001A6842F480721A60032000F01BF80F20C8
:103F8000FFF7CAFFFFF7DEFD002008BD003C02403E
:103F9000034A1168034B1B780B441360704700BF42
:103FA000CCB201201C000020014B1868704700BFF4
:103FB000CCB201200649CB6823F4E0631B041B0C40
:103FC000000200F4E0600343024A1A43CA607047EB
:103FD00000ED00E00000FA0530B4154BDB68C3F3D8
:103FE0000223C3F10704042C28BF04241D1D062D41
:103FF00014D9033B4FF0FF3505FA04F421EA04011C
:10400000994005FA03F322EA03031943002807DB6A
:104010000901C9B2074B195430BC70470023E9E7C6
:1040200000F00F000901C9B2034B1954F4E700BFB7
:1040300000ED00E000E400E014ED00E0002807DB04
:1040400000F01F02400901239340024A42F8203049
:10405000704700BF00E100E00138B0F1807F0AD274
:10406000064B5860064AF02182F823100020986021
:1040700007221A6070470120704700BF10E000E07F
:1040800000ED00E0002800F0FF8170B582B004462A
:10409000036813F0010F29D0A74B9B6803F00C03B2
:1040A000042B1AD0A44B9B6803F00C03082B0FD0F1
:1040B0006368B3F5803F40D0002B54D19E4B1A6803
:1040C00022F480321A601A6822F480221A6039E0E1
:1040D000994B5B6813F4800FEAD0974B1B6813F47D
:1040E000003F03D06368002B00F0D081236813F0F9
:1040F000020F74D0904B9B6813F00C0F5ED08E4B68
:104100009B6803F00C03082B53D0E368002B00F0EE
:104110008980894A136843F001031360FFF744FF65
:104120000546854B1B6813F0020F72D1FFF73CFF69
:10413000401B0228F5D90320ADE17F4A136843F400
:104140008033136063682BB3FFF72EFF05467A4B6D
:104150001B6813F4003FC9D1FFF726FF401B6428FA
:10416000F5D9032097E1B3F5A02F09D0724B1A6857
:1041700022F480321A601A6822F480221A60E1E781
:104180006D4B1A6842F480221A601A6842F4803239
:104190001A60D7E7FFF708FF0546674B1B6813F463
:1041A000003FA3D0FFF700FF401B6428F5D9032090
:1041B00071E1614B5B6813F4800FA6D15E4B1B6805
:1041C00013F0020F03D0E368012B40F061815A4ADB
:1041D000136823F0F803216943EAC10313602368DD
:1041E00013F0080F46D0636983B3534A536F43F00B
:1041F00001035367FFF7D8FE05464F4B5B6F13F083
:10420000020F37D1FFF7D0FE401B0228F5D903205B
:1042100041E1494A136823F0F803216943EAC103E5
:104220001360DCE7444A136823F001031360FFF7CF
:10423000BBFE0546404B1B6813F0020FCFD0FFF7C3
:10424000B3FE401B0228F5D9032024E13A4A536FFC
:1042500023F001035367FFF7A7FE0546364B5B6F5C
:1042600013F0020F06D0FFF79FFE401B0228F5D97E
:10427000032010E1236813F0040F7DD02E4B1B6C3C
:1042800013F0805F0BD12C4B1A6C42F080521A64F1
:104290001B6C03F080530193019B012500E0002576
:1042A000264B1B6813F4807F0ED0A368012B1FD010
:1042B000002B35D1204B1A6F22F001021A671A6FBA
:1042C00022F004021A6718E01C4A136843F4807352
:1042D0001360FFF769FE0646184B1B6813F4807FD6
:1042E000E3D1FFF761FE801B6428F5D90320D2E0FB
:1042F000114A136F43F001031367A36853B3FFF729
:1043000053FE06460C4B1B6F13F0020F33D1FFF721
:104310004BFE801B41F288339842F3D90320BAE068
:10432000052B0DD0044B1A6F22F001021A671A6F89
:1043300022F004021A67E0E70038024000700040F3
:104340005C4B1A6F42F004021A671A6F42F00102C6
:104350001A67D2E7FFF728FE0646564B1B6F13F08D
:10436000020F08D0FFF720FE801B41F288339842ED
:10437000F3D903208FE0FDB9A369002B00F08A80F8
:104380004C4A926802F00C02082A58D0022B19D02D
:10439000484A136823F080731360FFF705FE044654
:1043A000444B1B6813F0007F47D0FFF7FDFD001B57
:1043B0000228F5D903206EE03E4A136C23F08053A7
:1043C0001364D9E73B4A136823F080731360FFF747
:1043D000EBFD0546374B1B6813F0007F06D0FFF757
:1043E000E3FD401B0228F5D9032054E0E369226A6B
:1043F0001343626A43EA8213A26A5208013A43EA0B
:104400000243E26A43EA026343F00053294A5360DD
:10441000136843F080731360FFF7C6FD0446254B15
:104420001B6813F0007F06D1FFF7BEFD001B0228BA
:10443000F5D903202FE000202DE000202BE01D4ABD
:104440005268012B29D002F48003E1698B4226D106
:1044500002F03F03216A8B4223D1616A47F6C073A1
:104460001340B3EB811F1ED102F44031A36A5B08F5
:10447000013BB1EB034F18D102F07062E36AB2EB7B
:10448000036F14D1002006E001207047012002E0F4
:10449000012000E0002002B070BD0120FBE70120F8
:1044A000F9E70120F7E70120F5E70120F3E7012014
:1044B000F1E700BF00380240F8B52F4B9B6803F0CE
:1044C0000C03042B53D0082B53D12B4B5A6802F00A
:1044D0003F025B6813F4800F28D0274B5B68C3F35F
:1044E000881358010021C01A61F100018E0146EACB
:1044F000906687013C1A66EB0105E90041EA5471B8
:10450000E000C01841F100014B0243EAD0534402DD
:10451000204619460023FCF771FB174B5B68C3F379
:10452000014301335B00B0FBF3F023E0124B5B6807
:10453000C3F388135C010025E41A65F10005AE01A0
:1045400046EA9466A701381B66EB0501CC0044EAF5
:104550005074C500E81844F100018B0243EA9053FF
:104560008402204619460023FCF748FBD5E70348A0
:1045700000E00348F8BD00BF0038024000127A0096
:104580000024F400002800F0A08070B50D46044619
:10459000524B1B6803F00F038B420BD24F4A136838
:1045A00023F00F030B431360136803F00F038B42D8
:1045B00040F08D80236813F0020F17D013F0040F22
:1045C00004D0474A936843F4E0539360236813F0A0
:1045D000080F04D0424A936843F460439360404A12
:1045E000936823F0F003A1680B439360236813F0F2
:1045F000010F31D06368012B20D0022B25D0384A1F
:10460000126812F0020F64D035498A6822F0030262
:1046100013438B60FFF7C8FC0646314B9B6803F0E1
:104620000C036268B3EB820F16D0FFF7BDFC801B52
:1046300041F288339842F0D9032045E0284A1268B5
:1046400012F4003FE0D101203EE0254A126812F04A
:10465000007FD9D1012037E0204B1B6803F00F0306
:10466000AB420AD91D4A136823F00F032B43136092
:10467000136803F00F03AB422DD1236813F0040F2E
:1046800006D0174A936823F4E053E1680B43936024
:10469000236813F0080F07D0114A936823F460438E
:1046A000216943EAC1039360FFF706FF0C4B9B6847
:1046B000C3F303130B4AD35CD8400B4B18600B4B6E
:1046C0001868FFF729FC002070BD01207047012009
:1046D000FAE70120F8E70120F6E700BF003C0240BE
:1046E00000380240486F010824000020200000200C
:1046F000014B1868704700BF2400002008B5FFF781
:10470000F7FF044B9B68C3F38223034AD35CD84072
:1047100008BD00BF00380240586F010808B5FFF718
:10472000E7FF044B9B68C3F34233034AD35CD84092
:1047300008BD00BF00380240586F0108F0B583B0D3
:104740000446066816F001060DD0B64B9A6822F4AE
:1047500000029A609A68416B0A439A60436B002B8F
:1047600000F039810026256815F4002511D0AD4AE6
:10477000D2F88C3023F44013E16B0B43C2F88C3039
:10478000E36BB3F5801F00F02881002B00F0278138
:104790000025236813F4801F0FD0A24AD2F88C3072
:1047A00023F44003216C0B43C2F88C30236CB3F527
:1047B000800F00F0168103B90125236813F0807F74
:1047C00000D0012613F0200F40F00D81236813F074
:1047D000100F0CD0934BD3F88C2022F08072C3F8CA
:1047E0008C20D3F88C20A16B0A43C3F88C2023685B
:1047F00013F4804F08D08B4AD2F8903023F4403322
:10480000616E0B43C2F89030236813F4004F08D058
:10481000844AD2F8903023F44023A16E0B43C2F8AF
:104820009030236813F4803F08D07E4AD2F890304D
:1048300023F44013E16E0B43C2F89030236813F465
:10484000003F08D0774AD2F8903023F44003216F1C
:104850000B43C2F89030236813F0400F08D0714A20
:10486000D2F8903023F00303616C0B43C2F8903010
:10487000236813F0800F08D06A4AD2F8903023F0F2
:104880000C03A16C0B43C2F89030236813F4807FB3
:1048900008D0644AD2F8903023F03003E16C0B4327
:1048A000C2F89030236813F4007F08D05D4AD2F834
:1048B000903023F0C003216D0B43C2F89030236881
:1048C00013F4806F08D0574AD2F8903023F4407325
:1048D000616D0B43C2F89030236813F4006F08D069
:1048E000504AD2F8903023F44063A16D0B43C2F8D4
:1048F0009030236813F4805F08D04A4AD2F8903091
:1049000023F44053E16D0B43C2F89030236813F455
:10491000005F08D0434AD2F8903023F44043216E20
:104920000B43C2F89030236813F4800F08D03D4A3F
:10493000D2F8903023F08063A16F0B43C2F890301F
:10494000236813F4001F0DD0364AD2F8903023F0BC
:104950000063E16F0B43C2F89030E36FB3F1006F77
:1049600000F0AC80236813F0080F00D0012513F489
:10497000802F08D02B4AD2F8903023F04073616F1B
:104980000B43C2F89030236813F4000F09D0254A76
:10499000D2F8903023F08053D4F880100B43C2F843
:1049A000903026B9236813F0007F00F007811D4A7C
:1049B000136823F080631360FFF7F6FA0646194B7D
:1049C0001B6813F0006F7BD0FFF7EEFA801B6428A2
:1049D000F5D90320F5E00126C5E60126D5E6012537
:1049E000D7E60126E7E60F4B1A6C42F080521A64B4
:1049F0001B6C03F080530193019B0B4A136843F433
:104A000080731360FFF7D0FA0746074B1B6813F457
:104A1000807F0BD1FFF7C8FAC01B6428F5D90320AB
:104A2000CFE000BF0038024000700040AB4B1B6F6E
:104A300013F4407315D0226B02F440729A4210D0E6
:104A4000A64B1A6F22F44072196F41F48031196736
:104A5000196F21F4803119671A671B6F13F0010F6A
:104A600012D1236B03F44072B2F5407F1DD09B4AF4
:104A7000936823F4F813936098490B6F226BC2F389
:104A80000B0213430B67A1E6FFF78EFA0746934B21
:104A90001B6F13F0020FE4D1FFF786FAC01B41F23F
:104AA00088339842F3D903208BE08C48826822F443
:104AB000F8128B4919400A438260DDE7012551E76E
:104AC000236813F0010F13D0636B8BB9834AD2F8BC
:104AD0008430D2F88410606803F4403343EA8013D2
:104AE00001F070610B43A16843EA0173C2F884309E
:104AF000236813F4002F03D0E26BB2F5801F06D0B9
:104B000013F4801F1ED0236CB3F5800F1AD1734AA3
:104B1000D2F88430D2F88410606803F4403343EA5A
:104B20008013E06843EA006301F0E0410B43C2F800
:104B30008430D2F88C3023F01F03616A01390B43B3
:104B4000C2F88C30236813F0807F11D0634AD2F80A
:104B50008400D2F88410666823691B0443EA861334
:104B600000F07060034301F0E0410B43C2F8843071
:104B7000236813F0007F0DD0626823691B0443EAA9
:104B80008213E26843EA0263A26843EA0273534A6B
:104B9000C2F88430514A136843F080631360FFF712
:104BA00003FA06464D4B1B6813F0006F06D1FFF762
:104BB000FBF9801B6428F5D9032002E0012D02D007
:104BC000002003B0F0BD454A136823F08053136002
:104BD000FFF7EAF90546414B1B6813F0005F06D06A
:104BE000FFF7E2F9401B6428F5D90320E9E72368C1
:104BF00013F4002F01D0E26B22B113F4801F1DD0FB
:104C0000236CDBB9354AD2F88830D2F88810606955
:104C100003F4403343EA8013A06943EA006301F0E0
:104C2000E0410B43C2F88830D2F88C3023F4F853BB
:104C3000A16A013943EA0123C2F88C30236813F4D6
:104C4000001F03D0E36FB3F1006F31D0236813F07E
:104C5000080F19D0214AD2F88810D2F8883060693C
:104C600003F4403343EA801301F070610B43E169C0
:104C700043EA0173C2F88830D2F88C3023F4403311
:104C8000E16A0B43C2F88C30144A136843F0805336
:104C90001360FFF789F90446104B1B6813F0005F9F
:104CA00019D1FFF781F9001B6428F5D9032088E7A3
:104CB0000A4AD2F88800D2F888106569236A1B0472
:104CC00043EA851300F07060034301F0E0410B43B9
:104CD000C2F88830BAE7002073E700BF003802400E
:104CE000FFFCFF0F98B110B5044643795BB1022376
:104CF00063712268136843F0040313600123637136
:104D00000020A06010BD0371FEF7AEFFEFE70120A9
:104D10007047F8B50379012B2BD004460E460123CA
:104D200003714579EDB29D4206D0042383600125CD
:104D3000002323712846F8BD02234371FFF734F99D
:104D4000074623685A6812F0010F0BD1FFF72CF9C0
:104D5000C01B0228F5D9012363710223A36000233D
:104D60002371E7E79B68E3603360012363710025EB
:104D7000DEE70225DEE7000090F83D30DBB2012BD4
:104D80003AD1022380F83D300268D36843F0010332
:104D9000D36003681A4AB3F1804F18BF93421DD005
:104DA000A2F57C42934219D002F58062934215D05D
:104DB00002F58062934211D002F5784293420DD001
:104DC00002F57052934209D0A2F59432934205D075
:104DD0001A6842F001021A60002070479968094A77
:104DE0000A40062A18BFB2F5803F07D01A6842F081
:104DF00001021A60002070470120704700207047B0
:104E0000000001400700010070B403683A4CA04262
:104E100014BF00240124B0F1804F14BF224644F097
:104E20000102AAB9354DA84214BF00250125344E10
:104E3000B0420DD065B905F1804505F58235A8422F
:104E400014BF0025012506F50066B04200D01DB153
:104E500023F070034D682B43002A33D1274A904238
:104E600014BF00220122264DA8422BD052BB02F1D2
:104E7000804202F58232904214BF0022012205F5E1
:104E80000065A8421ED0EAB91E4A904214BF002213
:104E9000012205F59A35A84214D09AB91A4A9042CF
:104EA00014BF0022012205F50065A8420AD04AB9C4
:104EB000164A904214BF00220122A5F59635A84259
:104EC00000D01AB123F44073CA68134323F080035F
:104ED0004A69134303608A68C2620A6882620C4BA3
:104EE000984214BF234644F001030BB10B690363DE
:104EF0000123436170BC704700000140000800407E
:104F00000004004000440140001800400020004020
:104F10000004014060B310B5044690F83D3013B36F
:104F2000022384F83D30214651F8040BFFF76CFF53
:104F3000012384F8483084F83E3084F83F3084F808
:104F4000403084F8413084F8423084F8433084F8AB
:104F5000443084F8453084F8463084F8473084F88B
:104F60003D30002010BD80F83C30FEF70BFED7E747
:104F700001207047024A136843F48073136070473E
:104F80000070004010B582B01B4B1A6C42F080528A
:104F90001A641B6C03F080530193019B174A13683A
:104FA00043F480331360FEF7FFFF0446134B5B6846
:104FB00013F4803F08D1FEF7F7FF001BB0F57A7FAE
:104FC000F4D9032002B010BD0C4A136843F4003337
:104FD0001360FEF7E9FF0446084B5B6813F4003FDB
:104FE00007D1FEF7E1FF001BB0F57A7FF4D903206B
:104FF000E8E70020E6E700BF00380240007000400C
:1050000010B5044683680269134342691343C269B9
:10501000134301680868A04A024013430B602268EA
:10502000536823F44053E1680B435360A269236A39
:105030001A4321688B6823F4306313438B60236821
:10504000964A934219D0964A934229D0954A934260
:105050003ED0954A934262D0944A934271D0944A8A
:10506000934200F08380934A934200F09480924AE6
:10507000934200F0A58010233AE0904BD3F8903093
:1050800003F00303032B09D8DFE803F00204AE06A4
:1050900001232DE004232BE0082329E0102327E03F
:1050A000864BD3F8903003F00C030C2B0ED8DFE8BE
:1050B00003F0070D0D0D090D0D0D9D0D0D0D0B00D0
:1050C000002315E0042313E0082311E010230FE070
:1050D0007A4BD3F8903003F03003202B00F0888017
:1050E00019D8002B00F08680102B40F08580042317
:1050F000E069B0F5004F00F0AB80082B00F20C81A6
:10510000DFE813F0E800FB00E6000A01FE000A01F8
:105110000A010A010101302B70D10823E8E7674B2F
:10512000D3F8903003F0C003802B69D005D8002B52
:1051300068D0402B68D10423DAE7C02B66D108235E
:10514000D6E75E4BD3F8903003F44073B3F5007F9D
:105150005ED006D8002B5DD0B3F5807F5CD10423F0
:10516000C6E7B3F5407F59D10823C1E7534BD3F8C5
:10517000903003F44063B3F5006F51D006D8002B94
:1051800050D0B3F5806F4FD10423B1E7B3F5406F32
:105190004CD10823ACE7494BD3F8903003F440538B
:1051A000B3F5005F44D006D8002B43D0B3F5805F41
:1051B00042D104239CE7B3F5405F3FD1082397E732
:1051C0003E4BD3F8903003F44043B3F5004F37D053
:1051D00005D8BBB3B3F5804F36D1042388E7B3F5C8
:1051E000404F33D1082383E7022381E702237FE77F
:1051F00002237DE700237BE7102379E7102377E77D
:10520000022375E7002373E7102371E710236FE78C
:1052100002236DE700236BE7102369E7102367E79C
:10522000022365E7012363E7102361E710235FE7AB
:1052300002235DE700235BE7102359E7102357E7BC
:10524000022355E7002353E7102351E710234FE7CC
:10525000082B5BD8DFE803F005343A5A375A5A5A1C
:105260000900FFF74BFA002852D06268530803EB9D
:105270004000B0FBF2F080B2A0F110024FF6EF73E5
:105280009A4247D820F00F03C0F342001843236826
:10529000D860002045E000BFF369FFEF0010014037
:1052A0000044004000480040004C004000500040D6
:1052B0000014014000780040007C004000380240AB
:1052C000FFF72CFACFE7FFF7F7F8CCE71748CCE762
:1052D000164802E0FFF712FA00B3636800EB5300D0
:1052E000B0FBF3F080B2A0F110024FF6EF739A42D8
:1052F00016D82368D860002013E0FFF70FFAEBE719
:10530000FFF7DAF8E8E74FF40040E6E7012008E0AD
:10531000002006E0012004E0012002E0002000E07F
:10532000012000236366A36610BD00BF0024F400C3
:10533000436A13F0010F06D00268536823F4003368
:10534000816A0B435360436A13F0020F06D0026870
:10535000536823F48033C16A0B435360436A13F0EC
:10536000040F06D00268536823F48023016B0B43BB
:105370005360436A13F0080F06D00268536823F4A1
:105380000043416B0B435360436A13F0100F06D088
:105390000268936823F48053816B0B439360436AE4
:1053A00013F0200F06D00268936823F40053C16BFA
:1053B0000B439360436A13F0400F0AD002685368AE
:1053C00023F48013016C0B435360036CB3F5801F0F
:1053D0000BD0436A13F0800F06D00268536823F4A1
:1053E0000023816C0B43536070470268536823F4B9
:1053F000C003416C0B435360EBE72DE9F8430546CE
:105400000F4616469946DDF820802C68E46937EA95
:1054100004030CBF01240024B4423DD1B8F1FF3F86
:10542000F3D0FEF7C1FDA0EB0900404522D8B8F14A
:10543000000F1FD02B681A6812F0040FE5D0DA694C
:1054400012F4006FE1D04FF400621A622A68136808
:1054500023F4D07313602A68936823F001039360E8
:105460002023AB67EB67C5F88030002385F87430E4
:10547000032012E02A68136823F4D07313602A68AB
:10548000936823F0010393602023AB67EB6700234D
:1054900085F87430032000E00020BDE8F8832DE992
:1054A000F04182B01E46836F202B5AD104460D4630
:1054B0009046B2FA82F35B09002908BF0123002B52
:1054C00053D190F87430012B51D0012380F87430FF
:1054D0000023C0F8803021238367FEF765FD07466F
:1054E000A4F85080A4F85280A368B3F5805F05D07B
:1054F0004FF00008002384F8743014E0236913B1DE
:105500004FF00008F6E7A8460025F3E738F8023B1D
:105510002268C3F308039362B4F8522092B2013AAE
:1055200092B2A4F85220B4F852309BB273B10096F4
:105530003B46002280212046FFF75FFFC8B9002DBF
:10554000E4D015F8012B23689A62E5E700963B4604
:10555000002240212046FFF750FF60B92023A367B7
:1055600000E0022002B0BDE8F0810120FAE702204D
:10557000F8E70320F6E70320F4E710B582B004460D
:105580000023C0F88030FEF70FFD23681B6813F07E
:10559000080F08D12023A367E3670020206684F862
:1055A000740002B010BD6FF07E43009303460022EA
:1055B0004FF400112046FFF720FF0028EAD0032017
:1055C000EFE768B310B50446836F03B32423A367E2
:1055D0002268136823F0010313602046FFF710FDD3
:1055E000012813D0636ABBB92268536823F490433F
:1055F00053602268936823F02A039360226813683B
:1056000043F0010313602046FFF7B7FF10BD80F899
:105610007430FEF7D5FAD9E72046FFF789FEE3E7B5
:105620000120704700230F2B00F2E380F0B583B018
:1056300039E0092200E00022B2403A4302346D4EC4
:1056400046F824206C4A1468EA4324EA05064F68A9
:1056500017F4803F01D045EA0406674C2660646871
:1056600002EA04064F6817F4003F01D045EA040639
:10567000614C6660A46802EA04064F6817F4801F54
:1056800001D045EA04065C4CA660E46822404E68FE
:1056900016F4001F01D045EA0402574CE2600133C2
:1056A0000F2B00F2A48001229A400C6804EA020544
:1056B00032EA0404F3D14C68661E112C18BF012E87
:1056C00001D9122C12D186685F000324BC4026EA5F
:1056D0000406CC68BC4034438460466826EA02066F
:1056E0004C68C4F300129A4032434260C7685E00BF
:1056F0000324B440E24327EA04078C68B4403C43E7
:10570000C4604C68122C18BF022C13D1DF08083774
:1057100050F827E003F007044FEA840C0F2404FA42
:105720000CF42EEA040E0C6904FA0CF444EA0E049C
:1057300040F82740046814404A6802F00302B2406F
:10574000224302604A6812F0805FA8D02B4A546C52
:1057500044F480445464526C02F480420192019AF1
:105760009C08A61C234A52F8267003F003029600F8
:105770000F22B24027EA0207214A90423FF45BAF72
:1057800002F58062904222D002F58062904220D0E1
:1057900002F5806290421ED002F5806290421CD0D9
:1057A00002F5806290421AD002F58062904218D0D1
:1057B00002F58062904216D002F58062904214D0C9
:1057C00002F5806290423FF434AF0A2234E70122AE
:1057D00032E7022230E703222EE704222CE70522DB
:1057E0002AE7062228E7072226E7082224E703B053
:1057F000F0BD704700380140003C014000380240D5
:10580000000002400AB1816170470904816170475C
:10581000436901EA030221EA030141EA024181618D
:1058200070470000034AD2F8883043F47003C2F88E
:105830008830704700ED00E01AB9084206D11046E2
:10584000704731EA000303D0002070470120704701
:105850000120704738B5202002F0E8FF044628B147
:10586000002540F8045B00F032F92577204638BD6A
:105870002DE9F047DDF820A088B10D46174698467F
:10588000064611F07F4915D04FF0500372B683F3EE
:105890001188BFF36F8FBFF34F8F62B6FEE74FF0F3
:1058A000500372B683F31188BFF36F8FBFF34F8F2E
:1058B00062B6FEE751B94FF0500372B683F3118818
:1058C000BFF36F8FBFF34F8F62B6FEE702F006F9AA
:1058D00068B9BAF1000F0AD04FF0500372B683F3E3
:1058E0001188BFF36F8FBFF34F8F62B6FEE701F0F1
:1058F00021FC3468424629462046FFF79DFFE0B16F
:1059000017B124EA0503336001F0ECFCB9F1000F94
:1059100010D038B91C4B4FF080521A60BFF34F8F34
:10592000BFF36F8F02F0FEF9044610F0007F1BD02A
:1059300024F07F442046BDE8F087BAF1000F11D073
:105940006FB94946B8F1000F01D041F0806152466D
:105950002943301D01F024FE4C46D146D4E74FF0D8
:105960008071EFE7D146CFE703F014F9346842467F
:1059700029462046FFF760FF18B117B124EA050554
:10598000356003F02DF9D3E704ED00E080B170B588
:105990000C46064611F07F4F15D04FF0500372B6FB
:1059A00083F31188BFF36F8FBFF34F8F62B6FEE7AB
:1059B0004FF0500372B683F31188BFF36F8FBFF3BC
:1059C0004F8F62B6FEE703F0E5F8356825EA040478
:1059D000346003F005F9284670BDF8B578B10D467E
:1059E000044611F07F4615D04FF0500372B683F392
:1059F0001188BFF36F8FBFF34F8F62B6FEE74FF092
:105A0000500372B683F31188BFF36F8FBFF34F8FCC
:105A100062B6FEE700F10C0701F08CFB20692368F9
:105A20002B4323600AE0216833EA010105D111E02C
:105A3000216841F0007101F097FE2846B8420ED06F
:105A40004568026822F07F4312F0806FEBD1216835
:105A50001942F2D012F0807FEAD01E43E8E72368B3
:105A600023EA0603236001F03DFC2068F8BD78B10D
:105A700010B5044601F05EFB6368FBB1206904F1D8
:105A80000C0398420FD04FF0007101F06DFEF3E768
:105A90004FF0500372B683F31188BFF36F8FBFF3DB
:105AA0004F8F62B6FEE74FF0500372B683F3118852
:105AB000BFF36F8FBFF34F8F62B6FEE7237F13B143
:105AC00001F010FC10BD204602F032FFF8E700F1B3
:105AD000080343604FF0FF328260C360036100231C
