:020000040800F2
:100000000000052091200008590800085B0800083E
:100010005D0800085F080008610800080000000093
:10002000000000000000000000000000630800085D
:10003000650800080000000067080008690800085B
:10004000E1200008E1200008E1200008E12000088C
:10005000E1200008E1200008E1200008E12000087C
:10006000E1200008E1200008E1200008E12000086C
:10007000E1200008E1200008E1200008E12000085C
:10008000E1200008E1200008E1200008E12000084C
:10009000E1200008E1200008E1200008E12000083C
:1000A000E1200008E1200008E1200008E12000082C
:1000B000E1200008E1200008E1200008E12000081C
:1000C000E1200008E1200008E1200008E12000080C
:1000D000E1200008E1200008E1200008E1200008FC
:1000E000E1200008E1200008E1200008E1200008EC
:1000F000E1200008E1200008E1200008E1200008DC
:10010000E1200008E1200008E1200008E1200008CB
:10011000E1200008E1200008E1200008E1200008BB
:10012000E1200008E1200008E1200008E1200008AB
:10013000E1200008E1200008E1200008E12000089B
:10014000E1200008E1200008E1200008E12000088B
:10015000E1200008E1200008E1200008E12000087B
:10016000E1200008E1200008E1200008E12000086B
:10017000E1200008E1200008E12000080000000064
:10018000E1200008E1200008E1200008E12000084B
:10019000E1200008E1200008E1200008E12000083B
:1001A000E1200008E1200008E1200008E12000082B
:1001B000E1200008E1200008E1200008E12000081B
:0801C000E1200008E120000825
:1001D00010B5054C237833B9044B13B10448AFF381
:1001E00000800123237010BD7C000020000000006F
:1001F0004031000808B5034B1BB103490348AFF376
:10020000008008BD00000000800000204031000890
:1002100001F0FF01102A2BDB10F0070F08D010F8B7
:10022000013B013A8B422DD010F0070F42B3F6D1BB
:10023000F0B441EA012141EA014122F007047FF0D4
:1002400000070023F0E80256083C85EA010586EA2B
:10025000010685FA47F5A3FA87F586FA47F6A5FA67
:1002600087F68EB9EED1F0BC01F0FF0102F0070273
:1002700032B110F8013B013A83EA010313B1F8D11E
:100280000020704701387047002D06BF35460338FF
:10029000073815F0010F07D1013015F4807F02BF38
:1002A000013015F4C03F0130F0BC0138704700BF89
:1002B00053B94AB9002908BF00281CBF4FF0FF31CD
:1002C0004FF0FF3000F06EB9ADF1080C6DE904CECF
:1002D00000F006F8DDF804E0DDE9022304B0704721
:1002E0002DE9F047089D04468C46002B40F08380A2
:1002F0008A42174647D9B2FA82F242B1C2F12000CF
:1003000024FA00F09140974040EA010C94404FEAF3
:100310001748230CBCFBF8F61FFA87FE08FB16C132
:1003200043EA014306FB0EF1994209D9FB1806F195
:10033000FF3080F01981994240F21681023E3B4421
:100340005B1AA4B2B3FBF8F008FB103344EA034491
:1003500000FB0EFEA64509D93C1900F1FF3380F0E1
:100360000581A64540F2028102383C4440EA06403D
:10037000A4EB0E0400261DB1D4400023C5E90043C0
:100380003146BDE8F08702B9FFDEB2FA82F2002AF8
:1003900050D1CB1B4FEA174E1FFA87F80126B3FB4B
:1003A000FEFC210C0EFB1C3341EA034108FB0CF35D
:1003B0008B4207D979180CF1FF3002D28B4200F240
:1003C000E9808446C91AA3B2B1FBFEF00EFB1011FE
:1003D00043EA014408FB00F8A04507D93C1900F1A5
:1003E000FF3302D2A04500F2D9801846A4EB0804DE
:1003F00040EA0C40BFE78B4209D9002D00F0B180E4
:100400000026C5E9000130463146BDE8F087B3FA61
:1004100083F6002E4AD18B4202D3824200F2B8808A
:10042000841A61EB030101208C46002DA8D0C5E998
:10043000004CA5E7C2F1200320FA03F6974001FA29
:1004400002F04FEA174ED9403043030CB1FBFEF6E1
:100450001FFA87F80EFB161143EA014306FB08F169
:10046000994204FA02F409D9FB1806F1FF3C80F026
:100470008D80994240F28A80023E3B445B1A81B2F1
:10048000B3FBFEF00EFB103341EA034100FB08F31F
:100490008B4207D9791800F1FF3C73D28B4271D996
:1004A00002383944CB1A40EA064678E7C6F1200CF8
:1004B00003FA06F422FA0CF31C4320FA0CF701FAB3
:1004C00006F34FEA144E21FA0CF11F433B0CB1FB2B
:1004D000FEF91FFA84F80EFB191143EA014109FBEA
:1004E00008FA8A4502FA06F200FA06F308D96118FA
:1004F00009F1FF3048D28A4546D9A9F102092144C1
:10050000A1EB0A01BFB2B1FBFEF00EFB101147EAEE
:10051000014700FB08F8B84507D9E71900F1FF319A
:100520002ED2B8452CD90238274440EA0940A7EB1F
:100530000807A0FB02894F45C64649461AD317D083
:100540005DB1B3EB0E0267EB010707FA0CFCF2405A
:100550004CEA0202F740C5E9002700263146BDE813
:10056000F0872E4628460BE70646E9E61846FDE6E4
:100570004345E5D2B8EB020E69EB04010138DFE731
:100580000846D2E760468DE78146B9E7664675E7DB
:1005900030464AE7ACF1020C394413E702383C44D8
:1005A00024E700BF704700BF224B9A6842F4006204
:1005B0009A609A6842F480529A609A6842F4806223
:1005C0009A60DA6842F00102DA609A6842F0010249
:1005D0009A609A6842F002029A609A6842F00402B5
:1005E0009A609A6842F008029A609A6842F0100293
:1005F0009A609A6842F020029A60DA6842F0020239
:10060000DA60DA6842F48032DA60DA6842F40032A2
:10061000DA60DA6842F48022DA609A6842F04002D6
:100620009A609A6842F080029A609A6842F48072F6
:100630009A607047002004E000B593B00123019355
:100640004FF4A0230293022307934FF480020892F1
:10065000082209924FF4D8720A920B9309230C9343
:1006600001A800F08BFA00B1FEE701F0B7F800B185
:10067000FEE70F230D9302230E9300230F934FF4F5
:10068000A05310934FF48053119307210DA800F04D
:10069000F5FC00B1FEE713B05DF804FB08B50220DD
:1006A00000F092F972B6FEE708B50B480B4B0360F9
:1006B0004FF4E133436000238360C36003610C2285
:1006C00042618361C3610362436201F0A6FB00B92A
:1006D00008BDFFF7E3FF00BFA40000200048004072
:1006E00010B582B0BFF34F8FBFF36F8F3C4B00212B
:1006F000C3F85012BFF34F8FBFF36F8F5A6942F4A4
:1007000000325A61BFF34F8FBFF36F8FC3F884106D
:10071000BFF34F8FD3F88040C4F34E3000E018464B
:10072000C4F3C90243F6E07303EA401343EA827359
:100730002B49C1F860321346013A002BF2D1431E17
:100740000028ECD1BFF34F8F4B6943F480334B61EA
:10075000BFF34F8FBFF36F8F00F07AF9FFF76CFF95
:10076000FFF722FF1F4801F06FFD1F4B1A6B42F08D
:1007700002021A631B6B03F002030193019B022028
:1007800000F0EAF8002000F0E7F8012000F0E4F8BB
:10079000FFF78AFF00242146144801F0CFFC002017
:1007A00000F022F9124801F04FFD4FF4FA7000F00A
:1007B00077F9012000F018F90E4801F045FD4FF4DB
:1007C000FA7000F06DF9022000F00EF90A4801F00D
:1007D0003BFD4FF4FA7000F063F90134A4B2DAE79C
:1007E00000ED00E058310008003802406831000890
:1007F00078310008803100088831000838B50C468F
:1008000015464FF47A7392B2124801F074FA002040
:1008100004E04FF060431A7001300C46A84217DA2A
:10082000214611F8012B4FF06043D3F8803E13F0BE
:10083000010FF1D04FF06043D3F8003E13F0010FE9
:10084000EAD04FF060431B68002BE2D100BFF8E70D
:10085000284638BDA40000207047FEE7FEE7FEE70B
:10086000FEE770477047704708B500F007F908BD0C
:1008700000B583B00D4B1A6C42F080521A641A6CAA
:1008800002F080520092009A5A6C42F480425A64FC
:100890005B6C03F480430193019B00220F216FF0F6
:1008A000010000F023F903B05DF804FB00380240BA
:1008B00030B5ABB0044600212591269127912891AF
:1008C0002991842204A801F031FC2268204B9A422D
:1008D00001D02BB030BD1F4C236B43F008032363C2
:1008E000236B03F008030193019B236B43F0080380
:1008F0002363236B03F008030293029B40230493BA
:100900000125159504A800F095FC236C43F4802381
:100910002364236C03F480230393039B4FF400733D
:1009200025930223269327950323289307252995AA
:10093000A4F5305425A9204601F0A0FA4FF48073A5
:100940002593299525A9204601F098FAC1E700BF13
:100950000048004000380240F0B589B0044608BBAA
:10096000164B1A6B42F002021A631B6B03F0020370
:100970000193019B124B33F81460039601230493F7
:1009800000270597032306930E4D03A955F824006D
:1009900001F074FA3A46314655F8240001F05EFB46
:1009A00009B0F0BD054B1A6B42F002021A631B6BD3
:1009B00003F002030293029BDCE700BF0038024011
:1009C0008C3100080000002008B50122044B33F8E8
:1009D0001010044B53F8200001F040FB08BD00BF8D
:1009E0008C3100080000002008B5044B33F81010CB
:1009F000034B53F8200001F037FB08BD8C31000891
:100A00000000002010B504460E4B18784FF47A739E
:100A1000B3FBF0F30C4A1068B0FBF3F000F098F869
:100A200068B90F2C01D901200AE0002221464FF0BD
:100A3000FF3000F05BF8054B1C60002000E0012057
:100A400010BD00BF0C00002014000020100000208A
:100A500008B5094B1A6842F400721A601A6842F429
:100A600080721A60032000F02FF80F20FFF7CAFFF2
:100A7000FFF7FEFE002008BD003C0240034A11685B
:100A8000034B1B780B441360704700BF2801002004
:100A90000C000020014B1868704700BF280100209F
:100AA00038B50446FFF7F6FF0546B4F1FF3F02D024
:100AB000044B1B781C44FFF7EDFF401BA042FAD308
:100AC00038BD00BF0C0000200649CB6823F4E0636A
:100AD0001B041B0C000200F4E0600343024A1A43AB
:100AE000CA60704700ED00E00000FA0530B4154B15
:100AF000DB68C3F30223C3F10704042C28BF0424DA
:100B00001D1D062D14D9033B4FF0FF3505FA04F4E3
:100B100021EA0401994005FA03F322EA0303194389
:100B2000002807DB0901C9B2074B195430BC7047D4
:100B30000023E9E700F00F000901C9B2034B195483
:100B4000F4E700BF00ED00E000E400E014ED00E099
:100B50000138B0F1807F0AD2064B5860064AF02176
:100B600082F823100020986007221A607047012045
:100B7000704700BF10E000E000ED00E0002800F04A
:100B8000FF8170B582B00446036813F0010F29D0CD
:100B9000A74B9B6803F00C03042B1AD0A44B9B6853
:100BA00003F00C03082B0FD06368B3F5803F40D0EF
:100BB000002B54D19E4B1A6822F480321A601A68B6
:100BC00022F480221A6039E0994B5B6813F4800F9D
:100BD000EAD0974B1B6813F4003F03D06368002BE7
:100BE00000F0D081236813F0020F74D0904B9B6803
:100BF00013F00C0F5ED08E4B9B6803F00C03082B98
:100C000053D0E368002B00F08980894A136843F0D1
:100C100001031360FFF73EFF0546854B1B6813F089
:100C2000020F72D1FFF736FF401B0228F5D90320CF
:100C3000ADE17F4A136843F48033136063682BB3DC
:100C4000FFF728FF05467A4B1B6813F4003FC9D114
:100C5000FFF720FF401B6428F5D9032097E1B3F587
:100C6000A02F09D0724B1A6822F480321A601A68D9
:100C700022F480221A60E1E76D4B1A6842F4802268
:100C80001A601A6842F480321A60D7E7FFF702FF51
:100C90000546674B1B6813F4003FA3D0FFF7FAFE2D
:100CA000401B6428F5D9032071E1614B5B6813F4A4
:100CB000800FA6D15E4B1B6813F0020F03D0E368D0
:100CC000012B40F061815A4A136823F0F80321692F
:100CD00043EAC1031360236813F0080F46D0636929
:100CE00083B3534A536F43F001035367FFF7D2FEB8
:100CF00005464F4B5B6F13F0020F37D1FFF7CAFE6B
:100D0000401B0228F5D9032041E1494A136823F02A
:100D1000F803216943EAC1031360DCE7444A13681E
:100D200023F001031360FFF7B5FE0546404B1B6837
:100D300013F0020FCFD0FFF7ADFE401B0228F5D90C
:100D4000032024E13A4A536F23F001035367FFF76E
:100D5000A1FE0546364B5B6F13F0020F06D0FFF77E
:100D600099FE401B0228F5D9032010E1236813F0F7
:100D7000040F7DD02E4B1B6C13F0805F0BD12C4BDE
:100D80001A6C42F080521A641B6C03F0805301937A
:100D9000019B012500E00025264B1B6813F4807F92
:100DA0000ED0A368012B1FD0002B35D1204B1A6F1A
:100DB00022F001021A671A6F22F004021A6718E083
:100DC0001C4A136843F480731360FFF763FE064602
:100DD000184B1B6813F4807FE3D1FFF75BFE801B89
:100DE0006428F5D90320D2E0114A136F43F00103C0
:100DF0001367A36853B3FFF74DFE06460C4B1B6FFA
:100E000013F0020F33D1FFF745FE801B41F2883308
:100E10009842F3D90320BAE0052B0DD0044B1A6F8A
:100E200022F001021A671A6F22F004021A67E0E743
:100E300000380240007000405C4B1A6F42F0040220
:100E40001A671A6F42F001021A67D2E7FFF722FE13
:100E50000646564B1B6F13F0020F08D0FFF71AFE21
:100E6000801B41F288339842F3D903208FE0FDB90B
:100E7000A369002B00F08A804C4A926802F00C02B1
:100E8000082A58D0022B19D0484A136823F08073DF
:100E90001360FFF7FFFD0446444B1B6813F0007F0F
:100EA00047D0FFF7F7FD001B0228F5D903206EE0BD
:100EB0003E4A136C23F080531364D9E73B4A13680E
:100EC00023F080731360FFF7E5FD0546374B1B6881
:100ED00013F0007F06D0FFF7DDFD401B0228F5D997
:100EE000032054E0E369226A1343626A43EA8213EF
:100EF000A26A5208013A43EA0243E26A43EA026301
:100F000043F00053294A5360136843F08073136021
:100F1000FFF7C0FD0446254B1B6813F0007F06D188
:100F2000FFF7B8FD001B0228F5D903202FE00020B1
:100F30002DE000202BE01D4A5268012B29D002F43D
:100F40008003E1698B4226D102F03F03216A8B4284
:100F500023D1616A47F6C0731340B3EB811F1ED1E2
:100F600002F44031A36A5B08013BB1EB034F18D197
:100F700002F07062E36AB2EB036F14D1002006E066
:100F800001207047012002E0012000E0002002B0B3
:100F900070BD0120FBE70120F9E70120F7E7012000
:100FA000F5E70120F3E70120F1E700BF0038024038
:100FB000F8B52F4B9B6803F00C03042B53D0082B80
:100FC00053D12B4B5A6802F03F025B6813F4800F39
:100FD00028D0274B5B68C3F3881358010021C01A3F
:100FE00061F100018E0146EA906687013C1A66EBCA
:100FF0000105E90041EA5471E000C01841F1000127
:101000004B0243EAD0534402204619460023FFF71F
:101010004FF9174B5B68C3F3014301335B00B0FB2F
:10102000F3F023E0124B5B68C3F388135C010025E7
:10103000E41A65F10005AE0146EA9466A701381B83
:1010400066EB0501CC0044EA5074C500E81844F191
:1010500000018B0243EA9053840220461946002384
:10106000FFF726F9D5E7034800E00348F8BD00BFC5
:101070000038024000127A000024F400002800F03A
:10108000A08070B50D460446524B1B6803F00F0359
:101090008B420BD24F4A136823F00F030B431360AC
:1010A000136803F00F038B4240F08D80236813F028
:1010B000020F17D013F0040F04D0474A936843F48B
:1010C000E0539360236813F0080F04D0424A9368FA
:1010D00043F460439360404A936823F0F003A168AF
:1010E0000B439360236813F0010F31D06368012B29
:1010F00020D0022B25D0384A126812F0020F64D09B
:1011000035498A6822F0030213438B60FFF7C2FC63
:101110000646314B9B6803F00C036268B3EB820F09
:1011200016D0FFF7B7FC801B41F288339842F0D904
:10113000032045E0284A126812F4003FE0D1012064
:101140003EE0254A126812F0007FD9D1012037E035
:10115000204B1B6803F00F03AB420AD91D4A1368EA
:1011600023F00F032B431360136803F00F03AB420C
:101170002DD1236813F0040F06D0174A936823F487
:10118000E053E1680B439360236813F0080F07D026
:10119000114A936823F46043216943EAC1039360D1
:1011A000FFF706FF0C4B9B68C3F303130B4AD35C9A
:1011B000D8400B4B18600B4B1868FFF723FC00203E
:1011C00070BD012070470120FAE70120F8E70120F7
:1011D000F6E700BF003C02400038024094310008AE
:1011E0001400002010000020014B1868704700BF59
:1011F0001400002008B5FFF7F7FF044B9B68C3F30A
:101200008223034AD35CD84008BD00BF00380240A7
:10121000A431000808B5FFF7E7FF044B9B68C3F350
:101220004233034AD35CD84008BD00BF00380240B7
:10123000A4310008F0B583B00446066816F0010634
:101240000DD0B64B9A6822F400029A609A68416BFE
:101250000A439A60436B002B00F039810026256811
:1012600015F4002511D0AD4AD2F88C3023F4401388
:10127000E16B0B43C2F88C30E36BB3F5801F00F0D9
:101280002881002B00F027810025236813F4801F9C
:101290000FD0A24AD2F88C3023F44003216C0B43C8
:1012A000C2F88C30236CB3F5800F00F0168103B9BF
:1012B0000125236813F0807F00D0012613F0200F52
:1012C00040F00D81236813F0100F0CD0934BD3F82E
:1012D0008C2022F08072C3F88C20D3F88C20A16B74
:1012E0000A43C3F88C20236813F4804F08D08B4A3C
:1012F000D2F8903023F44033616E0B43C2F8903043
:10130000236813F4004F08D0844AD2F8903023F4B5
:101310004023A16E0B43C2F89030236813F4803F42
:1013200008D07E4AD2F8903023F44013E16E0B438C
:10133000C2F89030236813F4003F08D0774AD2F8FF
:10134000903023F44003216F0B43C2F890302368A0
:1013500013F0400F08D0714AD2F8903023F0030305
:10136000616C0B43C2F89030236813F0800F08D0F3
:101370006A4AD2F8903023F00C03A16C0B43C2F8F8
:101380009030236813F4807F08D0644AD2F89030FC
:1013900023F03003E16C0B43C2F89030236813F460
:1013A000007F08D05D4AD2F8903023F0C003216D51
:1013B0000B43C2F89030236813F4806F08D0574A6B
:1013C000D2F8903023F44073616D0B43C2F8903033
:1013D000236813F4006F08D0504AD2F8903023F4F9
:1013E0004063A16D0B43C2F89030236813F4805F13
:1013F00008D04A4AD2F8903023F44053E16D0B43B1
:10140000C2F89030236813F4005F08D0434AD2F842
:10141000903023F44043216E0B43C2F89030236890
:1014200013F4800F08D03D4AD2F8903023F0806347
:10143000A16F0B43C2F89030236813F4001F0DD046
:10144000364AD2F8903023F00063E16F0B43C2F8C4
:101450009030E36FB3F1006F00F0AC80236813F0BD
:10146000080F00D0012513F4802F08D02B4AD2F8A2
:10147000903023F04073616F0B43C2F890302368C3
:1014800013F4000F09D0254AD2F8903023F080538E
:10149000D4F880100B43C2F8903026B9236813F0BB
:1014A000007F00F007811D4A136823F080631360FA
:1014B000FFF7F0FA0646194B1B6813F0006F7BD05C
:1014C000FFF7E8FA801B6428F5D90320F5E0012630
:1014D000C5E60126D5E60125D7E60126E7E60F4B4E
:1014E0001A6C42F080521A641B6C03F08053019313
:1014F000019B0B4A136843F480731360FFF7CAFA29
:101500000746074B1B6813F4807F0BD1FFF7C2FA25
:10151000C01B6428F5D90320CFE000BF003802408B
:1015200000700040AB4B1B6F13F4407315D0226B5F
:1015300002F440729A4210D0A64B1A6F22F4407205
:10154000196F41F480311967196F21F480311967DF
:101550001A671B6F13F0010F12D1236B03F4407253
:10156000B2F5407F1DD09B4A936823F4F813936033
:1015700098490B6F226BC2F30B0213430B67A1E672
:10158000FFF788FA0746934B1B6F13F0020FE4D165
:10159000FFF780FAC01B41F288339842F3D9032049
:1015A0008BE08C48826822F4F8128B4919400A4378
:1015B0008260DDE7012551E7236813F0010F13D0A6
:1015C000636B8BB9834AD2F88430D2F88410606898
:1015D00003F4403343EA801301F070610B43A168C8
:1015E00043EA0173C2F88430236813F4002F03D058
:1015F000E26BB2F5801F06D013F4801F1ED0236C5F
:10160000B3F5800F1AD1734AD2F88430D2F884101F
:10161000606803F4403343EA8013E06843EA006300
:1016200001F0E0410B43C2F88430D2F88C3023F053
:101630001F03616A01390B43C2F88C30236813F031
:10164000807F11D0634AD2F88400D2F88410666893
:1016500023691B0443EA861300F07060034301F022
:10166000E0410B43C2F88430236813F0007F0DD0B3
:10167000626823691B0443EA8213E26843EA026357
:10168000A26843EA0273534AC2F88430514A13688D
:1016900043F080631360FFF7FDF906464D4B1B686E
:1016A00013F0006F06D1FFF7F5F9801B6428F5D918
:1016B000032002E0012D02D0002003B0F0BD454A16
:1016C000136823F080531360FFF7E4F90546414B9C
:1016D0001B6813F0005F06D0FFF7DCF9401B64289D
:1016E000F5D90320E9E7236813F4002F01D0E26B5A
:1016F00022B113F4801F1DD0236CDBB9354AD2F818
:101700008830D2F88810606903F4403343EA8013CC
:10171000A06943EA006301F0E0410B43C2F888305E
:10172000D2F88C3023F4F853A16A013943EA01233B
:10173000C2F88C30236813F4001F03D0E36FB3F1B9
:10174000006F31D0236813F0080F19D0214AD2F866
:101750008810D2F88830606903F4403343EA80137C
:1017600001F070610B43E16943EA0173C2F888300C
:10177000D2F88C3023F44033E16A0B43C2F88C304A
:10178000144A136843F080531360FFF783F904464B
:10179000104B1B6813F0005F19D1FFF77BF9001B9A
:1017A0006428F5D9032088E70A4AD2F88800D2F8DD
:1017B00088106569236A1B0443EA851300F0706092
:1017C000034301F0E0410B43C2F88830BAE7002040
:1017D00073E700BF00380240FFFCFF0F10B582B076
:1017E0001B4B1A6C42F080521A641B6C03F080533E
:1017F0000193019B174A136843F480331360FFF78A
:1018000049F90446134B5B6813F4803F08D1FFF796
:1018100041F9001BB0F57A7FF4D9032002B010BD66
:101820000C4A136843F400331360FFF733F904469E
:10183000084B5B6813F4003F07D1FFF72BF9001B3F
:10184000B0F57A7FF4D90320E8E70020E6E700BF8F
:10185000003802400070004010B5044683680269F9
:10186000134342691343C269134301680868A04ADD
:10187000024013430B602268536823F44053E1682D
:101880000B435360A269236A1A4321688B6823F4CF
:10189000306313438B602368964A934219D0964A6B
:1018A000934229D0954A93423ED0954A934262D0C2
:1018B000944A934271D0944A934200F08380934AB1
:1018C000934200F09480924A934200F0A580102346
:1018D0003AE0904BD3F8903003F00303032B09D880
:1018E000DFE803F00204AE0601232DE004232BE021
:1018F000082329E0102327E0864BD3F8903003F02B
:101900000C030C2B0ED8DFE803F0070D0D0D090DAD
:101910000D0D9D0D0D0D0B00002315E0042313E0AC
:10192000082311E010230FE07A4BD3F8903003F036
:101930003003202B00F0888019D8002B00F086801F
:10194000102B40F085800423E069B0F5004F00F0D3
:10195000AB80082B00F20C81DFE813F0E800FB00FD
:10196000E6000A01FE000A010A010A010101302B0A
:1019700070D10823E8E7674BD3F8903003F0C00339
:10198000802B69D005D8002B68D0402B68D1042368
:10199000DAE7C02B66D10823D6E75E4BD3F8903048
:1019A00003F44073B3F5007F5ED006D8002B5DD002
:1019B000B3F5807F5CD10423C6E7B3F5407F59D1EE
:1019C0000823C1E7534BD3F8903003F44063B3F5D9
:1019D000006F51D006D8002B50D0B3F5806F4FD197
:1019E0000423B1E7B3F5406F4CD10823ACE7494B72
:1019F000D3F8903003F44053B3F5005F44D006D8D9
:101A0000002B43D0B3F5805F42D104239CE7B3F5AC
:101A1000405F3FD1082397E73E4BD3F8903003F463
:101A20004043B3F5004F37D005D8BBB3B3F5804F73
:101A300036D1042388E7B3F5404F33D1082383E739
:101A4000022381E702237FE702237DE700237BE770
:101A5000102379E7102377E7022375E7002373E764
:101A6000102371E710236FE702236DE700236BE774
:101A7000102369E7102367E7022365E7012363E783
:101A8000102361E710235FE702235DE700235BE794
:101A9000102359E7102357E7022355E7002353E7A4
:101AA000102351E710234FE7082B5BD8DFE803F042
:101AB00005343A5A375A5A5A0900FFF79BFB002857
:101AC00052D06268530803EB4000B0FBF2F080B2E2
:101AD000A0F110024FF6EF739A4247D820F00F039F
:101AE000C0F3420018432368D860002045E000BFDF
:101AF000F369FFEF0010014000440040004800403F
:101B0000004C0040005000400014014000780040AC
:101B1000007C004000380240FFF77CFBCFE7FFF776
:101B200047FACCE71748CCE7164802E0FFF762FB1C
:101B300000B3636800EB5300B0FBF3F080B2A0F198
:101B400010024FF6EF739A4216D82368D86000202F
:101B500013E0FFF75FFBEBE7FFF72AFAE8E74FF444
:101B60000040E6E7012008E0002006E0012004E054
:101B7000012002E0002000E0012000236366A3664C
:101B800010BD00BF0024F400436A13F0010F06D01B
:101B90000268536823F40033816A0B435360436A3D
:101BA00013F0020F06D00268536823F48033C16A31
:101BB0000B435360436A13F0040F06D00268536866
:101BC00023F48023016B0B435360436A13F0080F27
:101BD00006D00268536823F40043416B0B43536003
:101BE000436A13F0100F06D00268936823F4805301
:101BF000816B0B439360436A13F0200F06D0026899
:101C0000936823F40053C16B0B439360436A13F052
:101C1000400F0AD00268536823F48013016C0B4311
:101C20005360036CB3F5801F0BD0436A13F0800F31
:101C300006D00268536823F40023816C0B43536081
:101C400070470268536823F4C003416C0B43536030
:101C5000EBE72DE9F84305460F4616469946DDF8B1
:101C600020802C68E46937EA04030CBF01240024B7
:101C7000B4423DD1B8F1FF3FF3D0FEF70BFFA0EB2C
:101C80000900404522D8B8F1000F1FD02B681A6810
:101C900012F0040FE5D0DA6912F4006FE1D04FF4CE
:101CA00000621A622A68136823F4D07313602A68EA
:101CB000936823F0010393602023AB67EB67C5F8BB
:101CC0008030002385F87430032012E02A681368FE
:101CD00023F4D07313602A68936823F001039360A0
:101CE0002023AB67EB67002385F87430032000E006
:101CF0000020BDE8F8832DE9F04182B01E46836FD5
:101D0000202B5AD104460D469046B2FA82F35B0965
:101D1000002908BF0123002B53D190F87430012B08
:101D200051D0012380F874300023C0F88030212383
:101D30008367FEF7AFFE0746A4F85080A4F85280F0
:101D4000A368B3F5805F05D04FF00008002384F846
:101D5000743014E0236913B14FF00008F6E7A84689
:101D60000025F3E738F8023B2268C3F308039362C7
:101D7000B4F8522092B2013A92B2A4F85220B4F8C8
:101D800052309BB273B100963B4600228021204620
:101D9000FFF75FFFC8B9002DE4D015F8012B2368C9
:101DA0009A62E5E700963B46002240212046FFF775
:101DB00050FF60B92023A36700E0022002B0BDE815
:101DC000F0810120FAE70220F8E70320F6E703207C
:101DD000F4E710B582B004460023C0F88030FEF767
:101DE00059FE23681B6813F0080F08D12023A3674E
:101DF000E3670020206684F8740002B010BD6FF025
:101E00007E430093034600224FF400112046FFF763
:101E100020FF0028EAD00320EFE768B310B504469E
:101E2000836F03B32423A3672268136823F001039D
:101E300013602046FFF710FD012813D0636ABBB979
:101E40002268536823F4904353602268936823F018
:101E50002A0393602268136843F00103136020464D
:101E6000FFF7B7FF10BD80F87430FEF721FDD9E70A
:101E70002046FFF789FEE3E70120704700230F2B80
:101E800000F2E380F0B583B039E0092200E00022DF
:101E9000B2403A4302346D4E46F824206C4A14682E
:101EA000EA4324EA05064F6817F4803F01D045EA6B
:101EB0000406674C2660646802EA04064F6817F45B
:101EC000003F01D045EA0406614C6660A46802EA5E
:101ED00004064F6817F4801F01D045EA04065C4CE5
:101EE000A660E46822404E6816F4001F01D045EA5F
:101EF0000402574CE26001330F2B00F2A480012250
:101F00009A400C6804EA020532EA0404F3D14C68F2
:101F1000661E112C18BF012E01D9122C12D1866811
:101F20005F000324BC4026EA0406CC68BC4034436E
:101F30008460466826EA02064C68C4F300129A40A0
:101F400032434260C7685E000324B440E24327EA9C
:101F500004078C68B4403C43C4604C68122C18BF22
:101F6000022C13D1DF08083750F827E003F00704EC
:101F70004FEA840C0F2404FA0CF42EEA040E0C69C8
:101F800004FA0CF444EA0E0440F8274004681440B4
:101F90004A6802F00302B240224302604A6812F02B
:101FA000805FA8D02B4A546C44F480445464526C33
:101FB00002F480420192019A9C08A61C234A52F81E
:101FC000267003F0030296000F22B24027EA0207B0
:101FD000214A90423FF45BAF02F58062904222D0EA
:101FE00002F58062904220D002F5806290421ED0BD
:101FF00002F5806290421CD002F5806290421AD0B5
:1020000002F58062904218D002F58062904216D0AC
:1020100002F58062904214D002F5806290423FF453
:1020200034AF0A2234E7012232E7022230E70322EA
:102030002EE704222CE705222AE7062228E70722BA
:1020400026E7082224E703B0F0BD704700380140BE
:10205000003C014000380240000002400AB18161AA
:102060007047090481617047436901EA030221EA6C
:10207000030141EA0241816170470000034AD2F83E
:10208000883043F47003C2F88830704700ED00E0F8
:10209000DFF834D00D480E490E4A002302E0D45830
:1020A000C4500433C4188C42F9D30B4A0B4C0023A0
:1020B00001E013600432A242FBD3FFF7DFFF00F020
:1020C00011F8FEF70DFB704700000520000000200E
:1020D0007C000020543200087C0000203C010020DD
:1020E000FEE7000070B50D4D0D4C641BA4100026DA
:1020F000A64209D10B4D0C4C01F022F8641BA41030
:102100000026A64205D170BD55F8043B984701361C
:10211000EEE755F8043B98470136F2E74C320008E9
:102120004C3200084C32000850320008024403468A
:10213000934200D1704703F8011BF9E70FB40A4B33
:1021400013B51C6824B1A36913B9204600F05EFAE8
:1021500005AB049AA1680193204600F02FFC02B061
:10216000BDE8104004B070471800002070B50E465E
:10217000054618B183690BB900F048FAAB69AC6841
:1021800013B9284600F042FA2C4B9C4220D16C68CF
:10219000636EDB0705D4A389980502D4A06D00F017
:1021A000D3FAA38919071DD52369DBB1013EA368C2
:1021B00016F8011F013BA36039BB002B38DA224619
:1021C0000A21284600F048F8013011D00A2511E014
:1021D0001B4B9C4201D1AC68DAE71A4B9C4208BF0A
:1021E000EC68D5E72146284600F088F80028DDD0C5
:1021F0004FF0FF35636EDA0705D4A3899B0502D43F
:10220000A06D00F0A2FA284670BD002B04DAA26986
:102210009A4206DC0A2904D023685A1C22601970ED
:10222000C5E72246284600F017F80130BFD1DFE7A6
:1022300023680A255A1C22601D70DBE7D031000894
:10224000F0310008B0310008024B01461868FFF772
:102250008DBF00BF18000020F8B50E461446054695
:1022600018B183690BB900F0D1F9214B9C422BD1F5
:102270006C68A369A360A3891A072FD523696BB380
:1022800023692068C01A6369F6B28342374604DCCA
:102290002146284600F026F930BBA368013BA36025
:1022A00023685A1C22601E7063690130834204D087
:1022B000A389DB0706D50A2E04D12146284600F063
:1022C00011F988B93846F8BD0A4B9C4201D1AC6877
:1022D000CFE7094B9C4208BFEC68CAE72146284675
:1022E00000F00CF80028CBD04FF0FF37EAE700BF32
:1022F000D0310008F0310008B0310008324B70B521
:102300001D6806460C4625B1AB6913B9284600F096
:102310007DF92E4B9C420FD16C68A389B4F90C2037
:1023200019072CD4DD0611D40923336042F0400391
:10233000A3814FF0FF303EE0254B9C4201D1AC68B9
:10234000EBE7244B9C4208BFEC68E6E7580712D540
:10235000616B41B104F14403994202D0304600F070
:1023600059FA00236363A38923F02403A381002384
:10237000636023692360A38943F00803A381236971
:102380004BB9A38903F42073B3F5007F03D0214632
:10239000304600F0FFF9A089B4F90C2010F00103D9
:1023A0000AD00023A36063695B42A361236943B938
:1023B00010F08000BAD170BD810758BF6369A36077
:1023C000F4E70020F7E700BF18000020D031000834
:1023D000F0310008B03100088A892DE9F041054646
:1023E00010070C4658D44B68002B05DC0B6C002BF7
:1023F00002DC0020BDE8F081E66A002EF9D000235F
:1024000012F480522F682B6032D0606DA3895A0776
:1024100005D56368C01A636B0BB1236CC01A002327
:102420000246E66A216A2846B047431CA38906D1C2
:1024300029681D292CD82A4ACA40D60728D5002247
:102440006260D9042269226004D5421C01D12B6844
:1024500003B96065616B2F600029CAD004F14403A1
:10246000994202D0284600F0D5F900206063C1E708
:10247000216A01232846B047411CC7D12B68002B95
:10248000C4D01D2B01D0162B01D12F60B1E7A38939
:1024900043F04003A381ADE70F69002FA9D0930754
:1024A0000E6808BF4B690F6018BF0023A6EB070832
:1024B0008B60B8F1000F9CDD216AA66A43463A465C
:1024C0002846B047002806DCA38943F04003A381D7
:1024D0004FF0FF308EE70744A8EB0008E9E700BFA4
:1024E0000100402038B50B6905460C4613B900259C
:1024F000284638BD18B183690BB900F087F8144B32
:102500009C421BD16C68B4F90C30002BEFD0626E8A
:10251000D00704D4990502D4A06D00F015F928461F
:102520002146FFF759FF636EDA070546E0D4A38919
:102530009B05DDD4A06D00F008F9D9E7054B9C425E
:1025400001D1AC68DFE7044B9C4208BFEC68DAE7D6
:10255000D0310008F0310008B0310008002310B578
:102560000446C0E90033C0E90433836081814366D7
:10257000C2818361194608225C30FFF7D7FD054B05
:102580006362054BA362054BE362054B2462236340
:1025900010BD00BF652F0008872F0008BF2F00085F
:1025A000E32F0008014900F0AFB800BFE5240008A0
:1025B00070B54A1E682555430E4605F1740100F0BA
:1025C00079F9044640B10021C0E900160C30A06042
:1025D00005F16802FFF7AAFD204670BD014800F032
:1025E000B3B800BF34010020014800F0AEB800BF0E
:1025F00034010020014800F0A7B800BF2F010020DF
:10260000014800F0A2B800BF2F01002010B5044619
:10261000FFF7F0FFA3691BB1BDE81040FFF7F0BF63
:10262000C4E912332365134B134A1B68A262A34209
:1026300004BF0123A361204600F020F8606020461B
:1026400000F01CF8A060204600F018F80022E060BE
:1026500004216068FFF782FFA06801220921FFF7CB
:102660007DFFE06802221221FFF778FF0123A361BA
:10267000D2E700BFAC310008A5250008F8B5074631
:10268000FFF7ACFF1E4B1E68B36913B93046FFF766
:10269000BDFF4836D6E90134013B03D533680BB39F
:1026A0003668F7E7B4F90C50D5B9164BE36004F17E
:1026B0005800656600F047F8FFF796FFC4E901553A
:1026C000C4E904552560A5610822294604F15C008F
:1026D000FFF72CFDC4E90D55C4E912552046F8BD9D
:1026E0006834D9E704213846FFF762FF04463060BA
:1026F0000028D5D1FFF778FF0C233B60EEE700BF41
:10270000AC3100080100FFFF2DE9F843064688467A
:1027100000F148040027D4E90195B9F1010905D574
:102720002468002CF7D13846BDE8F883AB89012B2B
:1027300007D9B5F90E30013303D029463046C047DA
:1027400007436835E9E770477047704770B50E4634
:10275000B1F90E10002996B014461D4607DA002381
:102760002B60B3891A0610D44FF480630EE06A46DA
:1027700000F05EFC0028F2DB019A02F47042A2F540
:1027800000535A425A412A60EEE74023002023605A
:1027900016B070BD8B8973B59D0706460C4607D5EC
:1027A00004F14703236023610123636102B070BD1C
:1027B00001AB6A46FFF7CAFF00990546304600F0B4
:1027C00079F848B9B4F90C309A05EFD423F0030333
:1027D00043F00203A381E3E70D4BB362A3892060BA
:1027E00043F08003A381009B6361019B20615BB187
:1027F000B4F90E10304600F02DFC28B1A38923F067
:10280000030343F00103A381A0890543A581CDE71C
:10281000A525000837B5002948D051F8043C01909F
:10282000002BA1F10404B8BFE41800F035FC204AE5
:1028300001981368154633B96360146003B0BDE8AE
:10284000304000F02FBCA3420BD92168621893429C
:1028500004BF1A685B68636004BF521822602C6072
:10286000ECE71A465B680BB1A342FAD91168551818
:10287000A5420BD1246821445418A3421160DDD134
:102880001C685B68536021441160D7E702D90C23B0
:102890000360D3E7256861198B4204BF19685B6840
:1028A000636004BF491921605460C7E703B030BDBD
:1028B00098000020F8B5CD1C25F0030508350C2D37
:1028C00038BF0C25002D064601DBA94203D90C2395
:1028D00033600020F8BD00F0DFFB21490A68144690
:1028E0009CB9204F3B6823B92146304600F02AFBB3
:1028F00038602946304600F025FB431C23D10C23C9
:102900003360304600F0CEFBE3E723685B1B17D44F
:102910000B2B03D923601C44256004E06368A242AA
:102920000CBF0B605360304600F0BCFB04F10B00A1
:10293000231D20F00700C21ACCD01B1AA350C9E7F0
:1029400022466468CCE7C41C24F00304A042E3D010
:10295000211A304600F0F6FA0130DDD1CFE700BF92
:10296000980000209C0000209368013B002B10B4CD
:10297000936008DA9469A34201DB0A2903D15DF868
:10298000044BFFF769BC1368581C106019700846A7
:102990005DF8044B7047F8B506460F461446D51847
:1029A000AC4201D1002007E014F8011B3A46304642
:1029B000FFF7DAFF431CF3D1F8BD00002DE9F04F1B
:1029C0000D469DB014469846064618B183690BB96A
:1029D000FFF71CFE894B9D421BD175686B6ED907B2
:1029E00005D4AB899A0502D4A86DFFF7ADFEAB897B
:1029F0001B0701D52B69EBB929463046FFF77EFC52
:102A0000C0B16B6EDC070ED54FF0FF301DB0BDE8D6
:102A1000F08F7B4B9D4201D1B568DFE7794B9D423A
:102A200008BFF568DAE7AB899805EDD4A86DFFF724
:102A30008CFEE9E70023099320238DF82930CDF897
:102A40000C803023DFF8C0818DF82A304FF0010967
:102A500023469A4613F8012B0AB1252AF9D1BAEB7D
:102A6000040B0BD05B46224629463046FFF793FF06
:102A7000013000F0AA80099A5A4409929AF800306D
:102A8000002B00F0A28000234FF0FF32CDE9052398
:102A90000AF1010A049307938DF853301A935446B0
:102AA000052214F8011B5848FDF7B2FB049AD8B967
:102AB000D10644BF20238DF85330130744BF2B2386
:102AC0008DF853309AF800302A2B15D0079A5446C7
:102AD00000204FF00A0C214611F8013B303B092B36
:102AE0004ED9B0B1079214E0A0EB080309FA03F342
:102AF00013430493A246D2E7039B191D1B6803915D
:102B0000002BBBBF5B4242F0020207930793B8BFA2
:102B1000049223782E2B0CD163782A2B35D1039B7A
:102B20001A1D1B680392002BB8BF4FF0FF3302340D
:102B30000593DFF8E4A0217803225046FDF768FBF7
:102B400040B14023A0EB0A0003FA00F0049B0343CA
:102B50000134049314F8011B2C488DF82810062228
:102B6000FDF756FB00283FD0294B1BBB039B0733C7
:102B700023F0070308330393099B3B44099367E75A
:102B80000CFB02320C460120A5E70023013405931B
:102B900019464FF00A0C204610F8012B303A092A4A
:102BA00003D9002BC5D00591C3E70CFB01210446D6
:102BB0000123F0E703AB00932A46164B04A93046E5
:102BC000AFF300800746781CD6D16B6ED90705D4C9
:102BD000AB899A0502D4A86DFFF7B7FDAB895B06F8
:102BE0003FF512AF099811E703AB00932A46094B52
:102BF00004A9304600F080F8E4E700BFD0310008B7
:102C0000F0310008B0310008103200081A32000814
:102C10000000000097290008163200082DE9F0474F
:102C2000164699468A680B69DDF820809342B8BF42
:102C30001346336091F8432007460C460AB101332E
:102C400033602368990642BF3368023333602568D6
:102C500015F0060506D104F1190AE36832689B1ADB
:102C6000AB4226DC94F84320131E226818BF0123D0
:102C700092062BD404F1430249463846C04701303E
:102C80001ED02368E568326803F00603042B08BFF2
:102C9000AD1AA36822690CBF25EAE57500259342A9
:102CA000C4BF9B1AED1800261A34B5421AD1002071
:102CB00008E00123524649463846C047013003D157
:102CC0004FF0FF30BDE8F0870135C6E7E1185A1C28
:102CD000302081F84300224494F8451082F84310D4
:102CE0000233C7E70123224649463846C047013030
:102CF000E6D00136D9E700002DE9FF470C469146A2
:102D0000277E0C99782F80469A4604F1430207D813
:102D1000622F0AD8002F00F0D880582F00F0A3802F
:102D200004F1420684F842703AE0A7F16303152BE0
:102D3000F6D801A050F823F0912D0008A52D000829
:102D4000212D0008212D0008212D0008212D00082B
:102D5000A52D0008212D0008212D0008212D000897
:102D6000212D0008B12E0008D52D0008932E000853
:102D7000212D0008212D0008D32E0008212D000848
:102D8000D52D0008212D0008212D00089B2E0008BC
:102D90000B681A1D1B680A6004F1420684F8423071
:102DA0000123A3E0256808682E0600F104030AD574
:102DB00005680B60002D03DA2D236D4284F8433043
:102DC0005E480A2319E015F0400F05680B6018BF34
:102DD0002DB2EFE70B682568181D0860280601D59D
:102DE0001D6802E06906FBD51D8854486F2F0CBF93
:102DF00008230A23002184F843106668A660002E89
:102E0000A2BF216821F0040121600DB9002E4DD030
:102E10001646B5FBF3F103FB1157C75D06F8017DBC
:102E20002F46BB420D46F4D9082B0BD12368DF0790
:102E300008D5236961689942DEBF302306F8013C5A
:102E400006F1FF36921B2261CDF800A04B4603AA83
:102E500021464046FFF7E2FE01304CD14FF0FF30F3
:102E600004B0BDE8F087354884F8457023680E68E3
:102E70001F0656F8045B0E6014D5D90744BF43F013
:102E8000200323601DB9236823F02003236010234F
:102E9000B0E7236843F0200323607823284884F8B0
:102EA0004530E3E75E0648BFADB2E6E71646BBE74E
:102EB0000B68266860691D1D0D6035061B6801D50D
:102EC000186002E07106FBD51880002323611646C6
:102ED000BAE70B681A1D0A601E6862680021304656
:102EE000FDF796F908B1801B6060636823610023D9
:102EF00084F84330A8E72369324649464046D04724
:102F00000130ABD023689B0713D4E068039B984241
:102F1000B8BF1846A4E70123324649464046D04789
:102F200001309BD00135E36803995B1AAB42F2DCB8
:102F3000EBE7002504F11906F5E700BF2132000890
:102F40003232000838B5064D0023044608462B608F
:102F500000F0E8F8431C02D12B6803B1236038BDB0
:102F60003801002010B50C46B1F90E1000F0A0F8A1
:102F70000028ABBF636DA3891B1823F48053ACBF3B
:102F80006365A38110BD2DE9F0411F468B89DB05E8
:102F900005460C46164605D5B1F90E10022300224F
:102FA00000F068F8A389B4F90E1023F48053A381CC
:102FB00032463B462846BDE8F04100F017B810B550
:102FC0000C46B1F90E1000F055F8431CA38915BF4B
:102FD000606523F4805343F48053A38118BFA38119
:102FE00010BDB1F90E1000F013B8000038B5074D50
:102FF00004460846114600222A601A46FDF7FEFBE9
:10300000431C02D12B6803B1236038BD3801002076
:1030100038B5064D0023044608462B6000F05AF8E8
:10302000431C02D12B6803B1236038BD3801002056
:1030300038B5074D00230446084611462B6000F0C2
:1030400051F8431C02D12B6803B1236038BD00BF87
:103050003801002038B5064D0023044608462B6091
:1030600000F048F8431C02D12B6803B1236038BD3F
:103070003801002038B5074D0446084611460022A5
:103080002A601A4600F03EF8431C02D12B6803B1B7
:10309000236038BD380100200148FFF755BB00BF51
:1030A000300100200148FFF750BB00BF3001002075
:1030B00038B5074D04460846114600222A601A46D4
:1030C00000F028F8431C02D12B6803B1236038BDFF
:1030D00038010020024B58221A604FF0FF30704731
:1030E00038010020024B58221A604FF0FF30704721
:1030F00038010020024B58221A600020704700BFA0
:1031000038010020024B58221A604FF0FF30704700
:1031100038010020024B58221A604FF0FF307047F0
:1031200038010020044A05491368002B08BF0B46EC
:103130001844106018467047A0000020400100208D
:10314000F8B500BFF8BC08BC9E467047F8B500BF94
:08315000F8BC08BC9E46704764
:1031580048656C6C6F20576F726C6421000000002A
:103168002A2A202564204C6F6F70202A2A0A000022
:10317800477265656E000000426C756500000000CE
:10318800526564000100800000400000000000005B
:1031980000000000010203040607080900000000FF
:1031A800010203041C0000200000000000000000D1
:1031B8000000000000000000000000000000000007
:1031C80000000000000000000000000000000000F7
:1031D80000000000000000000000000000000000E7
:1031E80000000000000000000000000000000000D7
:1031F80000000000000000000000000000000000C7
:103208000000000000000000232D302B2000686C17
:103218004C006566674546470030313233343536F1
:10322800373839414243444546003031323334352A
:0C32380036373839616263646566000057
:083244009CD0FF7F0100000097
:04324C00F501000880
:04325000D1010008A0
:103254000004024000040240000402400100000097
:10326400100000000024F4001C00002000000000F6
:10327400D0310008F0310008B0310008000000002F
:10328400000000000000000000000000000000003A
:10329400000000000000000000000000000000002A
:1032A400000000000000000000000000000000001A
:1032B400000000000000000000000000000000000A
:0C32C400000000000000000000000000FE
:04000005080020913E
:00000001FF
