:020000040800F2
:1000000000000520551B01088124000883240008F6
:1000100085240008872400088924000800000000C7
:100020000000000000000000000000001173000844
:100030008B24000800000000B17300088D24000824
:10004000A51B0108A51B0108A51B0108A51B01088C
:10005000A51B0108A51B0108A51B0108A51B01087C
:10006000A51B0108A51B0108A51B0108A51B01086C
:10007000A51B0108A51B0108A51B0108A51B01085C
:10008000A51B0108A51B0108A51B0108A51B01084C
:10009000A51B0108A51B0108A51B0108A51B01083C
:1000A000A51B0108A51B0108A51B0108A51B01082C
:1000B000A5240008A51B0108A51B0108A51B010814
:1000C000A51B0108A51B0108A51B0108A51B01080C
:1000D000A51B0108A51B0108A51B0108A51B0108FC
:1000E000A51B0108A51B0108A51B0108A51B0108EC
:1000F000A51B0108A51B0108A51B0108A51B0108DC
:10010000A51B0108A51B0108A51B0108A51B0108CB
:10011000A51B0108A51B0108A51B0108A51B0108BB
:10012000A51B0108A51B0108A51B0108A51B0108AB
:10013000A51B010899E90008A51B0108A51B0108DA
:10014000A51B0108A51B0108A51B0108A51B01088B
:10015000A51B0108A51B0108A51B0108A51B01087B
:10016000A51B0108A51B0108A51B0108A51B01086B
:10017000A51B0108A51B0108A51B01080000000024
:10018000A51B0108A51B0108A51B0108A51B01084B
:10019000A51B0108A51B0108A51B0108A51B01083B
:1001A000A51B0108A51B0108A51B0108A51B01082B
:1001B000A51B0108A51B0108A51B0108A51B01081B
:0801C000A51B0108A51B0108A5
:1001D00010B5054C237833B9044B13B10448AFF381
:1001E00000800123237010BDA081012000000000C9
:1001F000043A010808B5034B1BB103490348AFF3A8
:10020000008008BD00000000A4810120043A01081C
:10021000034613F8012B002AFBD1181A0138704746
:1002200001F0FF01102A2BDB10F0070F08D010F8A7
:10023000013B013A8B422DD010F0070F42B3F6D1AB
:10024000F0B441EA012141EA014122F007047FF0C4
:1002500000070023F0E80256083C85EA010586EA1B
:10026000010685FA47F5A3FA87F586FA47F6A5FA57
:1002700087F68EB9EED1F0BC01F0FF0102F0070263
:1002800032B110F8013B013A83EA010313B1F8D10E
:100290000020704701387047002D06BF35460338EF
:1002A000073815F0010F07D1013015F4807F02BF28
:1002B000013015F4C03F0130F0BC0138704700BF79
:1002C00081F0004102E000BF83F0004330B54FEA07
:1002D00041044FEA430594EA050F08BF90EA020F74
:1002E0001FBF54EA000C55EA020C7FEA645C7FEA07
:1002F000655C00F0E2804FEA5454D4EB5555B8BF2A
:100300006D420CDD2C4480EA020281EA030382EA9A
:10031000000083EA010180EA020281EA0303362D2C
:1003200088BF30BD11F0004F4FEA01314FF4801CFF
:100330004CEA113102D0404261EB410113F0004F11
:100340004FEA03334CEA133302D0524263EB4303C8
:1003500094EA050F00F0A780A4F10104D5F1200E66
:100360000DDB02FA0EFC22FA05F2801841F10001C1
:1003700003FA0EF2801843FA05F359410EE0A5F195
:1003800020050EF1200E012A03FA0EFC28BF4CF0C6
:10039000020C43FA05F3C01851EBE37101F000457C
:1003A00007D54FF0000EDCF1000C7EEB00006EEB89
:1003B0000101B1F5801F1BD3B1F5001F0CD3490813
:1003C0005FEA30004FEA3C0C04F101044FEA44526A
:1003D00012F5800F80F09A80BCF1004F08BF5FEAF1
:1003E000500C50F1000041EB045141EA050130BDD1
:1003F0005FEA4C0C404141EB0101013C28BFB1F5E3
:10040000801FE9D291F0000F04BF01460020B1FA2D
:1004100081F308BF2033A3F10B03B3F120020CDA00
:100420000C3208DD02F1140CC2F10C0201FA0CF0DE
:1004300021FA02F10CE002F11402D8BFC2F1200C43
:1004400001FA02F120FA0CFCDCBF41EA0C019040F9
:10045000E41AA2BF01EB0451294330BD6FEA040442
:100460001F3C1CDA0C340EDC04F11404C4F120022D
:1004700020FA04F001FA02F340EA030021FA04F33F
:1004800045EA030130BDC4F10C04C4F1200220FA96
:1004900002F001FA04F340EA0300294630BD21FAD4
:1004A00004F0294630BD94F0000F83F4801306BF9A
:1004B00081F480110134013D4EE77FEA645C18BF8E
:1004C0007FEA655C29D094EA050F08BF90EA020F25
:1004D00005D054EA000C04BF1946104630BD91EA1D
:1004E000030F1EBF0021002030BD5FEA545C05D120
:1004F0004000494128BF41F0004130BD14F580045F
:100500003CBF01F5801130BD01F0004545F0FE41D2
:1005100041F470014FF0000030BD7FEA645C1ABF07
:10052000194610467FEA655C1CBF0B46024650EA3E
:10053000013406BF52EA033591EA030F41F400216A
:1005400030BD00BF90F0000F04BF0021704730B5F0
:100550004FF4806404F132044FF000054FF00001C5
:1005600050E700BF90F0000F04BF0021704730B586
:100570004FF4806404F1320410F0004548BF40425B
:100580004FF000013EE700BF42004FEAE2014FEAB0
:1005900031014FEA02701FBF12F07F4393F07F4F8B
:1005A00081F06051704732F07F4208BF704793F08E
:1005B0007F4F04BF41F40021704730B54FF46074A1
:1005C00001F0004521F000411CE700BF50EA0102A4
:1005D00008BF704730B54FF000050AE050EA01024D
:1005E00008BF704730B511F0004502D5404261EBBD
:1005F00041014FF4806404F132045FEA915C3FF4FE
:10060000D8AE4FF003025FEADC0C18BF03325FEA9A
:10061000DC0C18BF033202EBDC02C2F1200300FA4B
:1006200003FC20FA02F001FA03FE40EA0E0021FA70
:1006300002F11444BDE600BF70B54FF0FF0C4CF45E
:10064000E06C1CEA11541DBF1CEA135594EA0C0F10
:1006500095EA0C0F00F0DEF82C4481EA030621EA4B
:100660004C5123EA4C5350EA013518BF52EA033586
:1006700041F4801143F4801338D0A0FB02CE4FF038
:100680000005E1FB02E506F00042E0FB03E54FF068
:100690000006E1FB03569CF0000F18BF4EF0010E60
:1006A000A4F1FF04B6F5007F64F5407404D25FEA5C
:1006B0004E0E6D4146EB060642EAC62141EA55510F
:1006C0004FEAC52040EA5E504FEACE2EB4F1FD0C51
:1006D00088BFBCF5E06F1ED8BEF1004F08BF5FEACF
:1006E000500E50F1000041EB045170BD06F0004681
:1006F00046EA010140EA020081EA0301B4EB5C042E
:10070000C2BFD4EB0C0541EA045170BD41F4801125
:100710004FF0000E013C00F3AB8014F1360FDEBF4A
:10072000002001F0004170BDC4F10004203C35DA26
:100730000C341BDC04F11404C4F1200500FA05F3A9
:1007400020FA04F001FA05F240EA020001F000424A
:1007500021F0004110EBD37021FA04F642EB0601C0
:100760005EEA430E08BF20EAD37070BDC4F10C04EA
:10077000C4F1200500FA04F320FA05F001FA04F2AE
:1007800040EA020001F0004110EBD37041F100019A
:100790005EEA430E08BF20EAD37070BDC4F12005A5
:1007A00000FA05F24EEA020E20FA04F301FA05F20D
:1007B00043EA020321FA04F001F0004121FA04F2B5
:1007C00020EA020000EBD3705EEA430E08BF20EA85
:1007D000D37070BD94F0000F0FD101F000464000BF
:1007E00041EB010111F4801F08BF013CF7D041EA41
:1007F000060195F0000F18BF704703F00046520045
:1008000043EB030313F4801F08BF013DF7D043EA15
:100810000603704794EA0C0F0CEA135518BF95EACB
:100820000C0F0CD050EA410618BF52EA4306D1D152
:1008300081EA030101F000414FF0000070BD50EA71
:10084000410606BF1046194652EA430619D094EAFB
:100850000C0F02D150EA013613D195EA0C0F05D1E5
:1008600052EA03361CBF104619460AD181EA030139
:1008700001F0004141F0FE4141F470014FF00000F1
:1008800070BD41F0FE4141F4780170BD70B54FF08C
:10089000FF0C4CF4E06C1CEA11541DBF1CEA13550C
:1008A00094EA0C0F95EA0C0F00F0A7F8A4EB0504EE
:1008B00081EA030E52EA03354FEA013100F08880E5
:1008C0004FEA03334FF0805545EA131343EA1263AE
:1008D0004FEA022245EA111545EA10654FEA002663
:1008E0000EF000419D4208BF964244F1FD0404F51C
:1008F000407402D25B084FEA3202B61A65EB030578
:100900005B084FEA32024FF480104FF4002CB6EB34
:10091000020E75EB030E22BFB61A754640EA0C00B4
:100920005B084FEA3202B6EB020E75EB030E22BFF4
:10093000B61A754640EA5C005B084FEA3202B6EB35
:10094000020E75EB030E22BFB61A754640EA9C00F4
:100950005B084FEA3202B6EB020E75EB030E22BFC4
:10096000B61A754640EADC0055EA060E18D04FEA82
:10097000051545EA16754FEA06164FEAC30343EA22
:1009800052734FEAC2025FEA1C1CC0D111F4801FEF
:100990000BD141EA00014FF000004FF0004CB6E7E8
:1009A00011F4801F04BF01430020B4F1FD0C88BF87
:1009B000BCF5E06F3FF6AFAEB5EB030C04BFB6EB92
:1009C000020C5FEA500C50F1000041EB045170BD85
:1009D0000EF0004E4EEA113114EB5C04C2BFD4EBB2
:1009E0000C0541EA045170BD41F480114FF0000E36
:1009F000013C90E645EA060E8DE60CEA135594EAB2
:100A00000C0F08BF95EA0C0F3FF43BAF94EA0C0FB4
:100A10000AD150EA01347FF434AF95EA0C0F7FF429
:100A200025AF104619462CE795EA0C0F06D152EA7D
:100A300003353FF4FDAE1046194622E750EA410661
:100A400018BF52EA43067FF4C5AE50EA41047FF472
:100A50000DAF52EA43057FF4EBAE12E74FF0FF3CD7
:100A600006E000BF4FF0010C02E000BF4FF0010CA8
:100A70004DF804CD4FEA410C7FEA6C5C4FEA430C21
:100A800018BF7FEA6C5C1BD001B050EA410C0CBF70
:100A900052EA430C91EA030F02BF90EA020F0020D2
:100AA000704710F1000F91EA030F58BF994208BF39
:100AB00090422CBFD8176FEAE37040F001007047F6
:100AC0004FEA410C7FEA6C5C02D150EA013C07D14D
:100AD0004FEA430C7FEA6C5CD6D152EA033CD3D098
:100AE0005DF8040B704700BF8446104662468C4692
:100AF0001946634600E000BF01B5FFF7B7FF0028C5
:100B000048BF10F1000F01BD4DF808EDFFF7F4FFED
:100B10000CBF012000205DF808FB00BF4DF808ED78
:100B2000FFF7EAFF34BF012000205DF808FB00BF9B
:100B30004DF808EDFFF7E0FF94BF012000205DF8BD
:100B400008FB00BF4DF808EDFFF7CEFF94BF012072
:100B500000205DF808FB00BF4DF808EDFFF7C4FF6B
:100B600034BF012000205DF808FB00BF4FEA4102BE
:100B700012F5001215D211D56FF47873B3EB6252EF
:100B800012D94FEAC12343F0004343EA505311F016
:100B9000004F23FA02F018BF404270474FF00000A8
:100BA000704750EA013005D111F0004008BF6FF0E6
:100BB000004070474FF00000704700BF4A0011D25C
:100BC00012F5001211D20DD56FF47873B3EB6252A7
:100BD0000ED44FEAC12343F0004343EA505323FAB3
:100BE00002F070474FF00000704750EA013002D128
:100BF0004FF0FF3070474FF00000704753B94AB9CB
:100C0000002908BF00281CBF4FF0FF314FF0FF3014
:100C100000F06EB9ADF1080C6DE904CE00F006F8F5
:100C2000DDF804E0DDE9022304B070472DE9F04768
:100C3000089D04468C46002B40F083808A4217466C
:100C400047D9B2FA82F242B1C2F1200024FA00F090
:100C50009140974040EA010C94404FEA1748230C1A
:100C6000BCFBF8F61FFA87FE08FB16C143EA0143F6
:100C700006FB0EF1994209D9FB1806F1FF3080F00E
:100C80001981994240F21681023E3B445B1AA4B29C
:100C9000B3FBF8F008FB103344EA034400FB0EFEFC
:100CA000A64509D93C1900F1FF3380F00581A6451E
:100CB00040F2028102383C4440EA0640A4EB0E04B4
:100CC00000261DB1D4400023C5E900433146BDE8EC
:100CD000F08702B9FFDEB2FA82F2002A50D1CB1BB4
:100CE0004FEA174E1FFA87F80126B3FBFEFC210CD2
:100CF0000EFB1C3341EA034108FB0CF38B4207D97E
:100D000079180CF1FF3002D28B4200F2E980844660
:100D1000C91AA3B2B1FBFEF00EFB101143EA014465
:100D200008FB00F8A04507D93C1900F1FF3302D2B7
:100D3000A04500F2D9801846A4EB080440EA0C4014
:100D4000BFE78B4209D9002D00F0B1800026C5E92C
:100D5000000130463146BDE8F087B3FA83F6002E35
:100D60004AD18B4202D3824200F2B880841A61EBEE
:100D7000030101208C46002DA8D0C5E9004CA5E751
:100D8000C2F1200320FA03F6974001FA02F04FEA7D
:100D9000174ED9403043030CB1FBFEF61FFA87F81B
:100DA0000EFB161143EA014306FB08F1994204FACF
:100DB00002F409D9FB1806F1FF3C80F08D809942BE
:100DC00040F28A80023E3B445B1A81B2B3FBFEF0E4
:100DD0000EFB103341EA034100FB08F38B4207D9B5
:100DE000791800F1FF3C73D28B4271D90238394433
:100DF000CB1A40EA064678E7C6F1200C03FA06F45F
:100E000022FA0CF31C4320FA0CF701FA06F34FEA1E
:100E1000144E21FA0CF11F433B0CB1FBFEF91FFAF3
:100E200084F80EFB191143EA014109FB08FA8A45CF
:100E300002FA06F200FA06F308D9611809F1FF3048
:100E400048D28A4546D9A9F102092144A1EB0A01F9
:100E5000BFB2B1FBFEF00EFB101147EA014700FBE9
:100E600008F8B84507D9E71900F1FF312ED2B84587
:100E70002CD90238274440EA0940A7EB0807A0FB19
:100E800002894F45C64649461AD317D05DB1B3EB28
:100E90000E0267EB010707FA0CFCF2404CEA020273
:100EA000F740C5E9002700263146BDE8F0872E4609
:100EB00028460BE70646E9E61846FDE64345E5D237
:100EC000B8EB020E69EB04010138DFE70846D2E710
:100ED00060468DE78146B9E7664675E730464AE7E2
:100EE000ACF1020C394413E702383C4424E700BF5C
:100EF000704700BF224B9A6842F400629A609A6879
:100F000042F480529A609A6842F480629A60DA6889
:100F100042F00102DA609A6842F001029A609A682F
:100F200042F002029A609A6842F004029A609A685B
:100F300042F008029A609A6842F010029A609A6839
:100F400042F020029A60DA6842F00202DA60DA685F
:100F500042F48032DA60DA6842F40032DA60DA6849
:100F600042F48022DA609A6842F040029A609A68FD
:100F700042F080029A609A6842F480729A607047E8
:100F8000002004E010B5002207E0002001F07CFC06
:100F90004FF47A7006F0BAFB2246541C064BA3FBB2
:100FA0000213DB0803EB83035900531A092BECD11E
:100FB000002001F0A7F9E8E7CDCCCCCC044B1A68AF
:100FC000044800FB02F001301860C0F30E40704787
:100FD000BC810120354E5A0108B5002001F044FCC7
:100FE000012001F041FC022001F02EFC72B6FEE768
:100FF00000B595B03022002108A810F05FFE002354
:101000000393049305930693079302F079FC234B13
:101010001A6C42F080521A641B6C03F080530193E7
:10102000019B1F4B1A6842F440421A601B6803F48C
:1010300040430293029B012308934FF4A02309939A
:1010400002230E934FF480020F92082210924FF465
:10105000D872119212930923139308A801F0D8FCB7
:10106000B0B902F055FCA8B90F23039302230493EF
:10107000002305934FF4A05306934FF48053079336
:10108000072103A801F044FF30B915B05DF804FB57
:10109000FFF7A2FFFFF7A0FFFFF79EFF0038024017
:1010A0000070004000B585B001F022FC2449CA68F8
:1010B00022F4E0621204120C224B1343CB60FFF7C0
:1010C00097FFFFF717FF204B1A6B42F002021A63DB
:1010D0001B6B03F002030393039B022001F07CFBD4
:1010E000002001F079FB012001F076FB01F0E4F82B
:1010F00043F698230093154B01220021104606F079
:101100001BFC134806F08AFC1248134B036002F0E4
:10111000AFFA08B1FFF760FF104B0093104B114A74
:101120001149124808F0B2FB114A0021114806F09B
:1011300081FA114B186006F03BFA06F057FAFEE709
:1011400000ED00E00003FA0500380240C0A8B2102C
:101150006C3A010810AE0120000806500000002083
:10116000783A01087C3A0108843A0108803A01087B
:10117000883A0108850F000820AE012008B504F068
:10118000AFFB024B1B68C01A08BD00BFC48301201F
:1011900070B588B006460025ADF80E50052341F223
:1011A00088324FF4FA7104A80EF0C4F82DE04FF421
:1011B000FF732C4A2C492D4806F030FC2C4806F0D1
:1011C0002DFC2C4806F02AFC18E040F20223254AA8
:1011D0002549294806F022FC284806F01FFC25482E
:1011E00006F01CFCBDF80E304FF47A7000FB03F0E3
:1011F000234BA3FB0030800904F0EAFC631E18BFF8
:101200000123002D18BF00234BB34FF4F573154A8B
:1012100015491C4806F002FC1B4C40F25B7221464B
:101220001A4806F0FBFB134806F0F8FBC8230093AE
:1012300040F25B72214630460DF098FF04460128CB
:10124000DCD0FFF7BBFE01460DF10E0204A80EF044
:1012500039F805460128AAD00028CFD1B5E72046A5
:1012600008B070BD783E0108AC3A0108003B0108A7
:10127000183B0108703A0108543B01086C3B010817
:10128000D34D6210B43A0108CC3A0108DC3A0108A7
:1012900010B58EB004460591194B0493194B039376
:1012A000194B0093194B1A4A03A910F0CDF850B10D
:1012B0004FF0500372B683F31188BFF36F8FBFF303
:1012C0004F8F62B6FEE70022079209920A920B92B4
:1012D0000C920D9201238DF81C300E4B08931223B3
:1012E000ADF824303C23ADF81E300DF11B03009304
:1012F0004FF47A7307A9204610F016FB0EB010BD0C
:1013000091F2000851F200080800002021150008A1
:101310007D110008BC3B010848B310B582B00446FB
:101320004FF44B73214A2249224806F077FB21787B
:10133000214806F073FB214806F070FB2289182A29
:1013400004D161681E4811F079F8D8B140F23B33FE
:10135000164A1749174806F061FB62682189194847
:1013600006F05CFB154806F059FB02B010BD4FF0CB
:10137000500372B683F31188BFF36F8FBFF34F8FA3
:1013800062B6FEE740F23233084A0949094806F0DE
:1013900045FBE36800932369626821890A4806F0E7
:1013A0003DFB064806F03AFBDFE700BFB83E010808
:1013B000AC3A0108B43A0108D03B0108703A010880
:1013C000E43B01085C3C0108003C010800B583B027
:1013D0000023019300936A4601A910F029F9B8B1DE
:1013E0004FF0500372B683F31188BFF36F8FBFF3D2
:1013F0004F8F62B6FEE7019AD15C064A02EBC30248
:1014000011710133009A9A42F5D803B05DF804FBDC
:101410000023F7E71000002038B50D460378B02B05
:1014200040D00446D02B57D0902B0ED04FF44873A9
:10143000304A3149314806F0F1FA2178304806F057
:10144000EDFA304806F0EAFA53E0FFF7BFFF002458
:1014500064B1002D4DD04FF0500372B683F3118864
:10146000BFF36F8FBFF34F8F62B6FEE7264B03EBE0
:10147000C4031B79802B01D10134E9E740F2063324
:101480001C4A1D49214806F0C9FA1F4B03EBC40250
:10149000127953F834101E4806F0C0FA194806F0C5
:1014A000BDFAE9E740F21133124A1349174806F032
:1014B000B5FA1849184806F0B1FA124806F0AEFA23
:1014C000BDB14FF0500372B683F31188BFF36F8F35
:1014D000BFF34F8F62B6FEE740F21A33054A064962
:1014E000064806F09BFA0D4806F098FA054806F003
:1014F00095FA38BDA03E0108AC3A0108543B0108FA
:10150000483D0108703A010810000020B43A010873
:10151000A03C0108E43B0108D03C0108F03C010874
:1015200008B50B7803F0F003302B04D0084611887F
:10153000FFF772FF08BD5068FFF7EEFEFAE7000004
:1015400030B587B0054600240194039404940594B3
:101550008DF804408DF805400F4B02931823ADF829
:101560000C3000F03FFD0D4BC3E90001049308234C
:101570000593224601A9284610F080FA50B14FF099
:10158000500372B683F31188BFF36F8FBFF34F8F91
:1015900062B6FEE707B030BDE43B0108C881012018
:1015A0002DE9F041A2B00023209320AB2193FFF757
:1015B000E5FD534B186066E04FF0500372B683F3BD
:1015C0001188BFF36F8FBFF34F8F62B6FEE7DFF86E
:1015D0004C814C4F4C4E4FF4CE7342463946304608
:1015E00006F01CFA49494A4806F018FA494D2846BF
:1015F00006F014FA6846FFF7A3FF4FF4D47342468F
:101600003946304606F00AFA434806F007FA2846FB
:1016100006F004FA4FF4FA7004F0DAFA0134042CFC
:10162000D5D94FF4DD733D4A3649374806F0F6F90F
:101630003B493C4806F0F2F9364806F0EFF96846B7
:101640000FF098FF00283ED121A80DF0CDFD012814
:1016500044D1012001F008F90023002B49D040F2C9
:10166000CD132E4A2749284806F0D8F905F070FD19
:1016700001462D4806F0D2F9264806F0CFF941F28E
:10168000883004F0A5FA21A8FFF782FD012893D144
:10169000012001F0D9F841F2883004F099FA4FF4B2
:1016A000C7731E4A1749184806F0B8F91C491F4865
:1016B00006F0B4F9174806F0B1F921A96846FFF71A
:1016C000E7FD0024ABE74FF0500372B683F31188B7
:1016D000BFF36F8FBFF34F8F62B6FEE74FF050033B
:1016E00072B683F31188BFF36F8FBFF34F8F62B66B
:1016F000FEE70F4A02EBC302802111710133ACE710
:10170000C4830120AC3A0108B43A0108E43B010863
:10171000B03D0108703A0108D03D0108683E01085B
:10172000CC3A0108EC3D0108183E01088C3D010847
:1017300010000020094B1B6803B1704700B583B04F
:10174000064B01933323009300234FF4A062044916
:10175000044803F0E7FF03B05DF804FBC0810120FB
:10176000AC3A0108A115000870B58AB000230793B0
:1017700006220121022008F087FE431E13F1030F09
:101780000AD94FF0500372B683F31188BFF36F8FFD
:10179000BFF34F8F62B6FEE7044600250895099512
:1017A00048F61313ADF822300426009607AB2A46FC
:1017B000294609F0B7FD41F2D06303930223049355
:1017C00042F6A053059306961023009303AB0D2217
:1017D0002946204609F0A6FD082208A9204608F05F
:1017E000A7FF05463146204609F024FC06460122A3
:1017F000074B1968204608F0B1FE00962B4641F2CF
:1018000089322146034806F009F920460AB070BD26
:10181000DC830120D83E010810B586B00023039375
:1018200011220221084608F02FFE431E13F1030F78
:101830000AD94FF0500372B683F31188BFF36F8F4C
:10184000BFF34F8F62B6FEE7044648F61313ADF8B8
:1018500012300423009303AB0022114609F062FD0D
:10186000082204A9204608F063FF034641F28932AA
:101870002146064806F0D2F80122054B1968204699
:1018800008F06CFE204606B010BD00BF243F0108E2
:10189000DC83012030B589B005AA06A909F01BFA3E
:1018A000431E13F1030F01D909B030BD0446402097
:1018B00005F08AFB05463C220021043010F0FEF9B9
:1018C0002C60AD6305F12001204609F0EDFC01A973
:1018D000686A09F047F96B8C1A0A42EA032292B24D
:1018E00001A9084806F09AF80122074B196820461A
:1018F00008F034FE054800F1080205F12C010BF058
:1019000093FED1E7643F0108DC830120E0830120DE
:10191000F0B5B7B004460D461646027A062A0BD932
:10192000237A052B00F21681DFE813F01000710016
:101930008A00FE0016012C01438C190A41EA03219A
:10194000334689B2A44806F069F8E9E7A34B1B784F
:101950002BB350222946A14810F070FD06460923FA
:101960008DF810300023012204A9206809F0D0FA74
:10197000C6B19A4F2B463A463146994806F04EF882
:1019800050222946384610F06BFD964B1C60237997
:1019900043F001032371237A01332372DAE04FF01D
:1019A000FF36DCE78D4D2A4631468F4806F036F883
:1019B00000232B708D4B1C608A4B1B68DBB15A686F
:1019C00062601A6922615B69636104F1180004F0C6
:1019D00011FB864B1B681B7913F0020F10D1814B52
:1019E0001A68137943F001031371804B1B681A794D
:1019F0006FF300021A717D4B1B6807221A72A9E06F
:101A000002227B4B1968206808F0A8FDE7E7032E47
:101A100040F3A0802B786978090441EA0361AB7830
:101A200041EA0321EB781943E1603246714805F041
:101A3000F5FF0435237A01332372043E00F08A80D7
:101A4000002E05DCE268B24255D9921BE26081E0CB
:101A50000023AB552946684805F0E0FF0CE005225D
:101A60006649284610F0EAFCC8B1062264492846B7
:101A700010F0E4FCE8B101352B7863B30922614929
:101A8000284610F0DBFC0028E9D1AB7A742B14BF98
:101A900000230123227963F341022271EBE704AAB8
:101AA0005949A81D10F034FC0028E4DD049B236193
:101AB000E1E704AA5449E81D10F02AFC0028DADD09
:101AC000049A4FF47A7303FB02F36361237943F0C2
:101AD00004032371CFE7237913F0020FB2D0194624
:101AE00063690093C1F380032269C1F34001474851
:101AF00005F094FFA6E70A238DF80C3040F201238D
:101B0000ADF810300023012203A9206809F000FA83
:101B10000023022204A9206809F0FAF90023E360F7
:101B2000237A0133237215E00D238DF81030638C76
:101B3000190A41EA03212B78324689B2344805F06C
:101B40006DFF0023012204A9206809F0E1F9237A3E
:101B50000133237237B0F0BD032EFBDD2B7869789B
:101B6000090441EA0361AB7841EA0321EB781943A8
:101B7000E1603246274805F051FF237A0133237292
:101B8000043EE7D0E268B24202D9921BE260E1E78C
:101B9000164B1B68F3B19B6A1F4AC42105A810F0BD
:101BA00083FB421E130203F47F0343EA0263110A1C
:101BB00001F47F410B4343EA126304930023021DA7
:101BC00004A9206809F0A4F90023E360237A013313
:101BD0002372BFE70023DFE7943F010830AE012006
:101BE000B43F01082CAE0120E43F010828AE0120DB
:101BF000DC830120084001082C4001084C4001080A
:101C00005440010840400108547701085C40010835
:101C100088400108B0400108D440010870B504466E
:101C2000006809F05FFB42F6A05107F0C7FF0546C8
:101C3000237913F0040F16D004F1140104F11800F5
:101C400004F002FA78B1237913F0080F01D00025CF
:101C500010E00221206809F033FA237943F00803E9
:101C60002371002506E02169284607F0A7FF0646F4
:101C700010B90025284670BD002302460B490968AB
:101C8000206809F045F9051EF4DB237913F0040FF1
:101C900003D123699B1B23610BB13544EAE7022280
:101CA000034B1968206808F082FCF6E724AE012097
:101CB000DC83012010B584B004461B4B1B688342B3
:101CC00022D01A4B1B68A34222D02368C3B16946B5
:101CD000606A08F047FF638C1A0A42EA0322A36A8B
:101CE00092B26946124805F099FE0F22114B19680D
:101CF000206808F05CFC206808F05EFE002323608A
:101D000023684BB104B010BD074B00221A60D8E71E
:101D1000064B00221A60D8E704F12C0002F0CFFB3A
:101D2000204605F0D3F9EDE72CAE012028AE0120C6
:101D300080410108DC83012038B504460368ABB15B
:101D4000037903F00302022A1ED113F0140F1BD1F2
:101D50000369CBB9204805F061FE0221206809F033
:101D6000AFF9237943F0100323710DE0FFF7A2FFD1
:101D700028E01A4B19682046FFF7CAFD00232A46BF
:101D80001946206809F032F801234FF480321349D4
:101D9000206809F02BF8021E07DD1546A36A1344DC
:101DA000A362237A052BE9D8E3E722B9237903F06C
:101DB0000303022B07D012F10B0318BF012313EA10
:101DC000D27305D138BD2046FFF728FF0246F2E75F
:101DD0002046FFF76FFFF5E7C0410108C8830120E7
:101DE00030B587B0044603AB019304AB00930123E5
:101DF00004220C4908F030FC021E01DC07B030BDA3
:101E000009490B6813440B60064D0823019304AB8A
:101E1000009300232968204608F0DCFC286807F0BE
:101E200088FCEBE7C8830120D0830120F0B583B0A4
:101E300008F07EFB344B1860344802F00EFBFFF7CD
:101E400093FC0746FFF7E8FC0646314805F0E6FD3F
:101E500007F00CFD040607F009FD030203F47F03FD
:101E60001C4307F003FD030A03F47F431C4307F000
:101E7000FDFC41F2893244EA1061264805F0CEFDAE
:101E800015E03846FFF706FD204BDC6803E0E0680C
:101E90006468FFF751FF204B9C42F8D110E01F4BC4
:101EA0001B681F4A1068834210D01C4B186041F217
:101EB0008831154B186808F0A2FB05460028E0D1D0
:101EC000002DECD03046FFF78BFFF0E7154B19687B
:101ED0008842ECD0421A41F27A431344124CA4FBDC
:101EE00003431C0B114BA3FB04535B0901906420BB
:101EF00000FB134400940E4805F090FD084B1A684F
:101F0000084B1A60D3E700BFDC830120E083012087
:101F1000D8410108EC410108E8830120D483012065
:101F2000D0830120D883012009DB01641F85EB5198
:101F30001C42010800B583B0114B1B682BB1114B3B
:101F40001B6883B103B05DF804FB42F6A05005F0B6
:101F50003BF80B4B18600028F1D142F6A0510A481B
:101F600005F05CFDEEE7074B01933423009300235B
:101F70004FF42A720549064803F0D4FBE2E700BF9C
:101F800024AE0120CC8301204C4201087442010898
:101F90002D1E000810B510484FF0804303606B23DE
:101FA0004360002383600D4AC260036143610123E3
:101FB000037701F075FC58B9074C204601F0A2FBED
:101FC00023686FF001021A61054B00221A6010BDF0
:101FD000FFF702F8F0E700BF80AE01207F9698007F
:101FE000FC83012010B5124B1B6853B15A6A11498A
:101FF0000C68586A8242F9D800210F4BE3FB0401B8
:1020000010BD03F06DFC04464201C30E121A63F1C9
:102010000003990041EA92719000001941F100011A
:10202000CB0043EA5073C20010461946E8E700BFF0
:1020300080AE0120FC83012080969800054A136839
:1020400001331360B3F5FA7F02D3134600221A60FE
:10205000704700BFF483012008B5AB23064A074947
:10206000074805F0DBFC074805F0D8FC064805F0FA
:10207000D5FCFEF7B1FF08BDF84301087C4201081A
:10208000003B010884420108703A010810B50C4673
:10209000BD23074A0749084805F0C0FC2146074808
:1020A00005F0BCFC064805F0B9FCFEF795FF10BD35
:1020B000184401087C420108003B0108A4420108C1
:1020C000703A0108F0B589B000285DD1354B1B6826
:1020D000002B51D004AB05AA06A907A807F030FBD6
:1020E0006946079808F03EFD2F4F304E304DF823DB
:1020F0003A463146284605F091FC69462D4805F0E0
:102100008DFC2D4C204605F089FC6946069808F0A8
:1021100029FDFC233A463146284605F07FFC6946F6
:10212000264805F07BFC204605F078FC69460598BA
:1021300008F018FD4FF480733A463146284605F002
:102140006DFC69461E4805F069FC204605F066FCFA
:102150006946049808F006FD4FF482733A4631460A
:10216000284605F05BFC6946164805F057FC2046FA
:1021700005F054FC09B0F0BDFFF7DCFAFFF7DAFE1A
:10218000084B01221A60A5E74FF48473064A0749F9
:10219000074805F043FC0C4805F040FC064805F0F4
:1021A0003DFCE7E708840120384401087C4201082F
:1021B000B43A0108E0420108703A0108C842010837
:1021C000D8420108F04201080C43010808B505494E
:1021D000A1F10C0001F063FA10B9034BD86808BDF7
:1021E0000020FCE71CAE012010AE012010B5044613
:1021F0000649A1F10C0001F052FA20B9044BDB684A
:102200002360012010BD0020FCE700BF1CAE0120B0
:1022100010AE012038B504460D4640F23D13074A82
:102220000749084805F0FAFB2A462146064805F00A
:10223000F5FB064805F0F2FB38BD00BF5844010825
:102240007C420108B43A010820430108703A0108B1
:1022500030B583B004460146104810F0CBF830B1D9
:1022600021460F4810F0C6F8B0B9012500E001255D
:1022700040F28F130B4A0C490C4805F0CFFB009538
:10228000074B064A21460A4805F0C8FB094805F0F5
:10229000C5FB284603B030BD0025E9E73C430108F3
:1022A0004C430108744401087C420108B43A010817
:1022B00050430108703A010800B585B00D4BDA1D96
:1022C00022F007020C49C91A0C4B1960196821F059
:1022D0000701196019680A48091A196000921B68F9
:1022E0000193002302930393684604F03DFF05B079
:1022F0005DF804FB04B0012000000520F8830120F4
:10230000000400002DE9F04786B0064603F0EEFA1F
:102310000590059800EBC000800004F055FE0546CE
:1023200040F2B7134B4A4C494C4805F077FB4C48F8
:1023300005F074FB4B4805F071FB002D67D0059943
:102340000022284603F03AFF0590FFF74BFE464B6C
:10235000D3E90023B0EB020861EB03094FF47A7272
:10236000002340464946FEF749FC07468A46B9F134
:10237000000F08BFB8F57A7F46D3002304933FE0EF
:10238000049B03EBC30305EB83013A46534688697C
:102390000021FEF733FC804640F2CF132D4A2E4930
:1023A0002E4805F03BFB049901EBC10105EB8101CF
:1023B000049B03EBC30305EB8302049B03EBC30302
:1023C00005EB83031B8C049800EBC00005EB800C2D
:1023D00012694968254CA4FB0804E40804EB840056
:1023E000A8EB400002900194DCF81800009020480F
:1023F00005F014FB1B4805F011FB049B013304930B
:10240000049A059B9A42BBD3284604F05FFE40F233
:10241000DD13104A1049114805F000FB04F09EFE40
:10242000044604F095FE0246124B1B6812490091C7
:102430002146124805F0F2FA0A4805F0EFFA16B9FB
:1024400006B0BDE8F087FFF7CDFD074BC3E90001FB
:10245000F6E700BF904401087C420108B43A010845
:1024600070430108703A010800840120CDCCCCCC27
:10247000A4430108F883012000040000CC430108B4
:102480007047FEE7FEE7FEE7FEE7704708B500F09D
:1024900045FA03F0F1FE012800D108BD04F0BAFFAF
:1024A000FBE70000074B1A68136907490B6013F03C
:1024B000010F06D06FF001031361044A1368013362
:1024C0001360704780AE0120CCAE0120FC83012058
:1024D00000B583B00D4B1A6C42F080521A641A6C2E
:1024E00002F080520092009A5A6C42F480425A6480
:1024F0005B6C03F480430193019B00220F216FF07A
:10250000010000F02FFA03B05DF804FB0038024030
:102510000368B3F1804F00D0704700B583B003F576
:102520000E331A6C42F001021A641B6C03F00103B3
:102530000193019B002206211C2000F013FA1C20AD
:1025400000F042FA03B05DF804FB000030B5ABB018
:1025500004460021259126912791289129918422D2
:1025600004A80FF0ABFB2268204B9A4201D02BB09D
:1025700030BD1F4C236B43F008032363236B03F030
:1025800008030193019B236B43F008032363236B30
:1025900003F008030293029B402304930125159541
:1025A00004A800F091FD236C43F480232364236C82
:1025B00003F480230393039B4FF4007325930223BA
:1025C000269327950323289307252995A4F53054AE
:1025D00025A9204601F0ECFC4FF480732593299542
:1025E00025A9204601F0E4FCC1E700BF00480040F7
:1025F000003802400268084B9A4200D0704782B00F
:10260000064B5A6B42F040025A635B6B03F0400387
:102610000193019B02B07047000806500038024049
:10262000F0B593B000230D930E930F931093119375
:102630000268654B9A4201D013B0F0BDA3F59043F8
:102640001A6B42F000721A631A6B02F00072009269
:10265000009A1A6B42F080621A631A6B02F0806271
:102660000192019A1A6B42F000621A631A6B02F02F
:1026700000620292029A1A6B42F008021A631A6B05
:1026800002F008020392039A1A6B42F001021A63E5
:102690001A6B02F001020492049A1A6B42F00402CF
:1026A0001A631A6B02F004020592059A1A6B42F043
:1026B00001021A631A6B02F001020692069A1A6B63
:1026C00042F004021A631A6B02F004020792079A9E
:1026D0001A6B42F004021A631A6B02F004020892A9
:1026E000089A1A6B42F040021A631A6B02F0400219
:1026F0000992099A1A6B42F040021A631A6B02F0AF
:1027000040020A920A9A1A6B42F040021A631A6B4C
:1027100002F040020B920B9A1A6B42F002021A630B
:102720001B6B03F002030C930C9B032310930224F6
:102730000E9400260F960B2311930D94234D0DA993
:10274000284601F035FC04270D970DA9284601F015
:102750002FFC0D941E4C0DA9204601F029FC80236E
:102760000D930DA9284601F023FC10230D930DA90C
:10277000204601F01DFC20230D930DA9204601F0F9
:1027800017FC0D9704F580540DA9204601F010FCAC
:102790004FF400630D930DA9204601F009FC4FF49E
:1027A00000550D950DA9204601F002FC0D950DA9CF
:1027B000084801F0FDFB324605213D2000F0D2F82B
:1027C0003D2000F001F937E70080024000000240A0
:1027D0000008024000040240F0B589B0044608BB7E
:1027E000164B1A6B42F002021A631B6B03F00203D2
:1027F0000193019B124B33F8146003960123049359
:1028000000270597032306930E4D03A955F82400CE
:1028100001F0CEFB3A46314655F8240001F0B8FCF1
:1028200009B0F0BD054B1A6B42F002021A631B6B34
:1028300003F002030293029BDCE700BF0038024072
:10284000A04401081800002008B50122044B33F809
:102850001010044B53F8200001F09AFC08BD00BF93
:10286000A04401081800002008B50022044B33F8EA
:102870001010044B53F8200001F08AFC08BD00BF83
:10288000A04401081800002008B5044B33F81010CC
:10289000034B53F8200001F081FC08BDA04401085F
:1028A0001800002010B504460E4B18784FF47A73C8
:1028B000B3FBF0F30C4A1068B0FBF3F000F092F8B1
:1028C00068B90F2C01D901200AE0002221464FF0FF
:1028D000FF3000F047F8054B1C60002000E00120AD
:1028E00010BD00BF240000202C0000202800002084
:1028F00008B5094B1A6842F400721A601A6842F46B
:1029000080721A60032000F01BF80F20FFF7CAFF47
:10291000FFF7DEFD002008BD003C0240034A1168BD
:10292000034B1B780B441360704700BFD0AE0120EF
:1029300024000020014B1868704700BFD0AE012072
:102940000649CB6823F4E0631B041B0C000200F46F
:10295000E0600343024A1A43CA60704700ED00E09A
:102960000000FA0530B4154BDB68C3F30223C3F152
:102970000704042C28BF04241D1D062D14D9033B75
:102980004FF0FF3505FA04F421EA0401994005FAF5
:1029900003F322EA03031943002807DB0901C9B244
:1029A000074B195430BC70470023E9E700F00F00D3
:1029B0000901C9B2034B1954F4E700BF00ED00E070
:1029C00000E400E014ED00E0002807DB00F01F0247
:1029D000400901239340024A42F82030704700BF6B
:1029E00000E100E00138B0F1807F0AD2064B586068
:1029F000064AF02182F823100020986007221A600E
:102A000070470120704700BF10E000E000ED00E0DB
:102A1000002800F0FF8170B582B00446036813F00F
:102A2000010F29D0A74B9B6803F00C03042B1AD08D
:102A3000A44B9B6803F00C03082B0FD06368B3F51D
:102A4000803F40D0002B54D19E4B1A6822F4803234
:102A50001A601A6822F480221A6039E0994B5B6888
:102A600013F4800FEAD0974B1B6813F4003F03D098
:102A70006368002B00F0D081236813F0020F74D03C
:102A8000904B9B6813F00C0F5ED08E4B9B6803F04D
:102A90000C03082B53D0E368002B00F08980894A8F
:102AA000136843F001031360FFF744FF0546854BAD
:102AB0001B6813F0020F72D1FFF73CFF401B022886
:102AC000F5D90320ADE17F4A136843F480331360E6
:102AD00063682BB3FFF72EFF05467A4B1B6813F490
:102AE000003FC9D1FFF726FF401B6428F5D903201A
:102AF00097E1B3F5A02F09D0724B1A6822F4803207
:102B00001A601A6822F480221A60E1E76D4B1A6895
:102B100042F480221A601A6842F480321A60D7E7C1
:102B2000FFF708FF0546674B1B6813F4003FA3D06F
:102B3000FFF700FF401B6428F5D9032071E1614BCA
:102B40005B6813F4800FA6D15E4B1B6813F0020F75
:102B500003D0E368012B40F061815A4A136823F0E7
:102B6000F803216943EAC1031360236813F0080FD7
:102B700046D0636983B3534A536F43F001035367ED
:102B8000FFF7D8FE05464F4B5B6F13F0020F37D1AE
:102B9000FFF7D0FE401B0228F5D9032041E1494A46
:102BA000136823F0F803216943EAC1031360DCE7EB
:102BB000444A136823F001031360FFF7BBFE054688
:102BC000404B1B6813F0020FCFD0FFF7B3FE401B42
:102BD0000228F5D9032024E13A4A536F23F0010378
:102BE0005367FFF7A7FE0546364B5B6F13F0020FE6
:102BF00006D0FFF79FFE401B0228F5D9032010E105
:102C0000236813F0040F7DD02E4B1B6C13F0805FF4
:102C10000BD12C4B1A6C42F080521A641B6C03F0DF
:102C200080530193019B012500E00025264B1B6882
:102C300013F4807F0ED0A368012B1FD0002B35D159
:102C4000204B1A6F22F001021A671A6F22F0040259
:102C50001A6718E01C4A136843F480731360FFF787
:102C600069FE0646184B1B6813F4807FE3D1FFF71B
:102C700061FE801B6428F5D90320D2E0114A136F4E
:102C800043F001031367A36853B3FFF753FE0646EF
:102C90000C4B1B6F13F0020F33D1FFF74BFE801B61
:102CA00041F288339842F3D90320BAE0052B0DD0C6
:102CB000044B1A6F22F001021A671A6F22F0040205
:102CC0001A67E0E700380240007000405C4B1A6F62
:102CD00042F004021A671A6F42F001021A67D2E743
:102CE000FFF728FE0646564B1B6F13F0020F08D065
:102CF000FFF720FE801B41F288339842F3D903206E
:102D00008FE0FDB9A369002B00F08A804C4A9268DD
:102D100002F00C02082A58D0022B19D0484A136836
:102D200023F080731360FFF705FE0446444B1B68D5
:102D300013F0007F47D0FFF7FDFD001B0228F5D9F7
:102D400003206EE03E4A136C23F080531364D9E7EE
:102D50003B4A136823F080731360FFF7EBFD0546D1
:102D6000374B1B6813F0007F06D0FFF7E3FD401BD5
:102D70000228F5D9032054E0E369226A1343626A0A
:102D800043EA8213A26A5208013A43EA0243E26A22
:102D900043EA026343F00053294A5360136843F047
:102DA00080731360FFF7C6FD0446254B1B6813F0C4
:102DB000007F06D1FFF7BEFD001B0228F5D90320D6
:102DC0002FE000202DE000202BE01D4A5268012B4F
:102DD00029D002F48003E1698B4226D102F03F033F
:102DE000216A8B4223D1616A47F6C0731340B3EB6B
:102DF000811F1ED102F44031A36A5B08013BB1EB95
:102E0000034F18D102F07062E36AB2EB036F14D182
:102E1000002006E001207047012002E0012000E0D0
:102E2000002002B070BD0120FBE70120F9E701207E
:102E3000F7E70120F5E70120F3E70120F1E700BF04
:102E400000380240F8B52F4B9B6803F00C03042BAD
:102E500053D0082B53D12B4B5A6802F03F025B68CA
:102E600013F4800F28D0274B5B68C3F388135801F5
:102E70000021C01A61F100018E0146EA90668701C7
:102E80003C1A66EB0105E90041EA5471E000C01804
:102E900041F100014B0243EAD05344022046194657
:102EA0000023FDF7ABFE174B5B68C3F3014301330F
:102EB0005B00B0FBF3F023E0124B5B68C3F38813B5
:102EC0005C010025E41A65F10005AE0146EA94664E
:102ED000A701381B66EB0501CC0044EA5074C5001D
:102EE000E81844F100018B0243EA90538402204623
:102EF00019460023FDF782FED5E7034800E00348AA
:102F0000F8BD00BF0038024000127A000024F4002F
:102F1000002800F0A08070B50D460446524B1B6897
:102F200003F00F038B420BD24F4A136823F00F03B9
:102F30000B431360136803F00F038B4240F08D8046
:102F4000236813F0020F17D013F0040F04D0474A80
:102F5000936843F4E0539360236813F0080F04D0A0
:102F6000424A936843F460439360404A936823F075
:102F7000F003A1680B439360236813F0010F31D075
:102F80006368012B20D0022B25D0384A126812F03A
:102F9000020F64D035498A6822F0030213438B6024
:102FA000FFF7C8FC0646314B9B6803F00C036268D0
:102FB000B3EB820F16D0FFF7BDFC801B41F28833C4
:102FC0009842F0D9032045E0284A126812F4003FE5
:102FD000E0D101203EE0254A126812F0007FD9D1ED
:102FE000012037E0204B1B6803F00F03AB420AD9E6
:102FF0001D4A136823F00F032B431360136803F07B
:103000000F03AB422DD1236813F0040F06D0174AEB
:10301000936823F4E053E1680B439360236813F053
:10302000080F07D0114A936823F46043216943EAEB
:10303000C1039360FFF706FF0C4B9B68C3F30313B8
:103040000B4AD35CD8400B4B18600B4B1868FFF74A
:1030500029FC002070BD012070470120FAE7012003
:10306000F8E70120F6E700BF003C024000380240CC
:10307000A84401082C00002028000020014B1868FB
:10308000704700BF2C00002008B5FFF7F7FF044B86
:103090009B68C3F38223034AD35CD84008BD00BFBA
:1030A00000380240B844010808B5FFF7E7FF044BB9
:1030B0009B68C3F34233034AD35CD84008BD00BFCA
:1030C00000380240B8440108F0B583B004460668F1
:1030D00016F001060DD0B64B9A6822F400029A60F1
:1030E0009A68416B0A439A60436B002B00F0398168
:1030F0000026256815F4002511D0AD4AD2F88C3091
:1031000023F44013E16B0B43C2F88C30E36BB3F54F
:10311000801F00F02881002B00F027810025236804
:1031200013F4801F0FD0A24AD2F88C3023F440034E
:10313000216C0B43C2F88C30236CB3F5800F00F088
:10314000168103B90125236813F0807F00D0012682
:1031500013F0200F40F00D81236813F0100F0CD0F6
:10316000934BD3F88C2022F08072C3F88C20D3F8D4
:103170008C20A16B0A43C3F88C20236813F4804F82
:1031800008D08B4AD2F8903023F44033616E0B4361
:10319000C2F89030236813F4004F08D0844AD2F864
:1031A000903023F44023A16E0B43C2F89030236883
:1031B00013F4803F08D07E4AD2F8903023F44013B5
:1031C000E16E0B43C2F89030236813F4003F08D03F
:1031D000774AD2F8903023F44003216F0B43C2F8B2
:1031E0009030236813F0400F08D0714AD2F8903025
:1031F00023F00303616C0B43C2F89030236813F093
:10320000800F08D06A4AD2F8903023F00C03A16CEA
:103210000B43C2F89030236813F4807F08D0644ACF
:10322000D2F8903023F03003E16C0B43C2F89030B9
:10323000236813F4007F08D05D4AD2F8903023F061
:10324000C003216D0B43C2F89030236813F4806FE4
:1032500008D0574AD2F8903023F44073616D0B4385
:10326000C2F89030236813F4006F08D0504AD2F8A7
:10327000903023F44063A16D0B43C2F89030236873
:1032800013F4805F08D04A4AD2F8903023F44053B8
:10329000E16D0B43C2F89030236813F4005F08D04F
:1032A000434AD2F8903023F44043216E0B43C2F8D6
:1032B0009030236813F4800F08D03D4AD2F8903044
:1032C00023F08063A16F0B43C2F89030236813F49E
:1032D000001F0DD0364AD2F8903023F00063E16F22
:1032E0000B43C2F89030E36FB3F1006F00F0AC8095
:1032F000236813F0080F00D0012513F4802F08D0A5
:103300002B4AD2F8903023F04073616F0B43C2F820
:103310009030236813F4000F09D0254AD2F890307A
:1033200023F08053D4F880100B43C2F8903026B9B4
:10333000236813F0007F00F007811D4A136823F013
:1033400080631360FFF7F6FA0646194B1B6813F00B
:10335000006F7BD0FFF7EEFA801B6428F5D90320BD
:10336000F5E00126C5E60126D5E60125D7E60126CA
:10337000E7E60F4B1A6C42F080521A641B6C03F0A4
:1033800080530193019B0B4A136843F480731360CD
:10339000FFF7D0FA0746074B1B6813F4807F0BD169
:1033A000FFF7C8FAC01B6428F5D90320CFE000BF9F
:1033B0000038024000700040AB4B1B6F13F44073A9
:1033C00015D0226B02F440729A4210D0A64B1A6FAD
:1033D00022F44072196F41F480311967196F21F49A
:1033E000803119671A671B6F13F0010F12D1236B1D
:1033F00003F44072B2F5407F1DD09B4A936823F4DA
:10340000F813936098490B6F226BC2F30B021343BE
:103410000B67A1E6FFF78EFA0746934B1B6F13F07D
:10342000020FE4D1FFF786FAC01B41F288339842BD
:10343000F3D903208BE08C48826822F4F8128B4980
:1034400019400A438260DDE7012551E7236813F044
:10345000010F13D0636B8BB9834AD2F88430D2F852
:103460008410606803F4403343EA801301F0706114
:103470000B43A16843EA0173C2F88430236813F454
:10348000002F03D0E26BB2F5801F06D013F4801F2B
:103490001ED0236CB3F5800F1AD1734AD2F8843052
:1034A000D2F88410606803F4403343EA8013E06884
:1034B00043EA006301F0E0410B43C2F88430D2F8E4
:1034C0008C3023F01F03616A01390B43C2F88C3042
:1034D000236813F0807F11D0634AD2F88400D2F8B9
:1034E0008410666823691B0443EA861300F0706049
:1034F000034301F0E0410B43C2F88430236813F02A
:10350000007F0DD0626823691B0443EA8213E268DE
:1035100043EA0263A26843EA0273534AC2F8843062
:10352000514A136843F080631360FFF703FA0646BD
:103530004D4B1B6813F0006F06D1FFF7FBF9801BA2
:103540006428F5D9032002E0012D02D0002003B049
:10355000F0BD454A136823F080531360FFF7EAF982
:103560000546414B1B6813F0005F06D0FFF7E2F9F8
:10357000401B6428F5D90320E9E7236813F4002FE2
:1035800001D0E26B22B113F4801F1DD0236CDBB994
:10359000354AD2F88830D2F88810606903F4403395
:1035A00043EA8013A06943EA006301F0E0410B4362
:1035B000C2F88830D2F88C3023F4F853A16A01396C
:1035C00043EA0123C2F88C30236813F4001F03D0B0
:1035D000E36FB3F1006F31D0236813F0080F19D0F7
:1035E000214AD2F88810D2F88830606903F4403359
:1035F00043EA801301F070610B43E16943EA017310
:10360000C2F88830D2F88C3023F44033E16A0B439F
:10361000C2F88C30144A136843F080531360FFF7EC
:1036200089F90446104B1B6813F0005F19D1FFF7AE
:1036300081F9001B6428F5D9032088E70A4AD2F8EB
:103640008800D2F888106569236A1B0443EA851351
:1036500000F07060034301F0E0410B43C2F8883092
:10366000BAE7002073E700BF00380240FFFCFF0FFD
:1036700098B110B5044643795BB1022363712268A7
:10368000136843F004031360012363710020A060FA
:1036900010BD0371FEF7AEFFEFE701207047F8B5EC
:1036A0000379012B2BD004460E4601230371457983
:1036B000EDB29D4206D004238360012500232371CF
:1036C0002846F8BD02234371FFF734F90746236803
:1036D0005A6812F0010F0BD1FFF72CF9C01B02281A
:1036E000F5D9012363710223A36000232371E7E767
:1036F0009B68E3603360012363710025DEE70225E8
:10370000DEE7000090F83D30DBB2012B3AD1022316
:1037100080F83D300268D36843F00103D36003684A
:103720001A4AB3F1804F18BF93421DD0A2F57C42D4
:10373000934219D002F58062934215D002F580625F
:10374000934211D002F5784293420DD002F57052A7
:10375000934209D0A2F59432934205D01A6842F000
:1037600001021A60002070479968094A0A40062A37
:1037700018BFB2F5803F07D01A6842F001021A6004
:103780000020704701207047002070470000014072
:103790000700010070B403683A4CA04214BF002433
:1037A0000124B0F1804F14BF224644F00102AAB9AF
:1037B000354DA84214BF00250125344EB0420DD02E
:1037C00065B905F1804505F58235A84214BF00258D
:1037D000012506F50066B04200D01DB123F070034C
:1037E0004D682B43002A33D1274A904214BF002250
:1037F0000122264DA8422BD052BB02F1804202F595
:103800008232904214BF0022012205F50065A842D1
:103810001ED0EAB91E4A904214BF0022012205F5CB
:103820009A35A84214D09AB91A4A904214BF00227D
:10383000012205F50065A8420AD04AB9164A90420D
:1038400014BF00220122A5F59635A84200D01AB176
:1038500023F44073CA68134323F080034A69134377
:1038600003608A68C2620A6882620C4B984214BF85
:10387000234644F001030BB10B6903630123436149
:1038800070BC704700000140000800400004004088
:1038900000440140001800400020004000040140A6
:1038A00060B310B5044690F83D3013B3022384F89A
:1038B0003D30214651F8040BFFF76CFF012384F8DB
:1038C000483084F83E3084F83F3084F8403084F843
:1038D000413084F8423084F8433084F8443084F82E
:1038E000453084F8463084F8473084F83D30002075
:1038F00010BD80F83C30FEF70BFED7E70120704783
:10390000024A136843F480731360704700700040EC
:1039100010B582B01B4B1A6C42F080521A641B6CBB
:1039200003F080530193019B174A136843F48033DB
:103930001360FEF7FFFF0446134B5B6813F4803FF0
:1039400008D1FEF7F7FF001BB0F57A7FF4D903200A
:1039500002B010BD0C4A136843F400331360FEF745
:10396000E9FF0446084B5B6813F4003F07D1FEF7FC
:10397000E1FF001BB0F57A7FF4D90320E8E70020CF
:10398000E6E700BF003802400070004010B5044672
:1039900083680269134342691343C2691343016890
:1039A0000868A04A024013430B602268536823F45E
:1039B0004053E1680B435360A269236A1A432168AC
:1039C0008B6823F4306313438B602368964A9342D9
:1039D00019D0964A934229D0954A93423ED0954AAF
:1039E000934262D0944A934271D0944A934200F039
:1039F0008380934A934200F09480924A934200F06D
:103A0000A58010233AE0904BD3F8903003F00303E5
:103A1000032B09D8DFE803F00204AE0601232DE0F2
:103A200004232BE0082329E0102327E0864BD3F85A
:103A3000903003F00C030C2B0ED8DFE803F0070DD9
:103A40000D0D090D0D0D9D0D0D0D0B00002315E045
:103A5000042313E0082311E010230FE07A4BD3F87E
:103A6000903003F03003202B00F0888019D8002B11
:103A700000F08680102B40F085800423E069B0F5CB
:103A8000004F00F0AB80082B00F20C81DFE813F050
:103A9000E800FB00E6000A01FE000A010A010A0133
:103AA0000101302B70D10823E8E7674BD3F8903041
:103AB00003F0C003802B69D005D8002B68D0402BC1
:103AC00068D10423DAE7C02B66D10823D6E75E4B22
:103AD000D3F8903003F44073B3F5007F5ED006D87E
:103AE000002B5DD0B3F5807F5CD10423C6E7B3F52E
:103AF000407F59D10823C1E7534BD3F8903003F4EA
:103B00004063B3F5006F51D006D8002B50D0B3F509
:103B1000806F4FD10423B1E7B3F5406F4CD1082338
:103B2000ACE7494BD3F8903003F44053B3F5005F52
:103B300044D006D8002B43D0B3F5805F42D1042394
:103B40009CE7B3F5405F3FD1082397E73E4BD3F89E
:103B5000903003F44043B3F5004F37D005D8BBB3E2
:103B6000B3F5804F36D1042388E7B3F5404F33D106
:103B7000082383E7022381E702237FE702237DE70F
:103B800000237BE7102379E7102377E7022375E70B
:103B9000002373E7102371E710236FE702236DE71B
:103BA00000236BE7102369E7102367E7022365E72B
:103BB000012363E7102361E710235FE702235DE73A
:103BC00000235BE7102359E7102357E7022355E74B
:103BD000002353E7102351E710234FE7082B5BD84E
:103BE000DFE803F005343A5A375A5A5A0900FFF70A
:103BF0004BFA002852D06268530803EB4000B0FB38
:103C0000F2F080B2A0F110024FF6EF739A4247D85B
:103C100020F00F03C0F3420018432368D86000204F
:103C200045E000BFF369FFEF001001400044004091
:103C300000480040004C004000500040001401408B
:103C400000780040007C004000380240FFF72CFA6A
:103C5000CFE7FFF7F7F8CCE71748CCE7164802E0C4
:103C6000FFF712FA00B3636800EB5300B0FBF3F008
:103C700080B2A0F110024FF6EF739A4216D8236873
:103C8000D860002013E0FFF70FFAEBE7FFF7DAF850
:103C9000E8E74FF40040E6E7012008E0002006E0F6
:103CA000012004E0012002E0002000E001200023C8
:103CB0006366A36610BD00BF0024F400436A13F0DE
:103CC000010F06D00268536823F40033816A0B4366
:103CD0005360436A13F0020F06D00268536823F45E
:103CE0008033C16A0B435360436A13F0040F06D05C
:103CF0000268536823F48023016B0B435360436ACB
:103D000013F0080F06D00268536823F40043416B98
:103D10000B435360436A13F0100F06D00268936898
:103D200023F48053816B0B439360436A13F0200F9D
:103D300006D00268936823F40053C16B0B43936071
:103D4000436A13F0400F0AD00268536823F48013CB
:103D5000016C0B435360036CB3F5801F0BD0436AB7
:103D600013F0800F06D00268536823F40023816C9F
:103D70000B43536070470268536823F4C003416CDF
:103D80000B435360EBE72DE9F84305460F46164613
:103D90009946DDF820802C68E46937EA04030CBFFB
:103DA00001240024B4423DD1B8F1FF3FF3D0FEF727
:103DB000C1FDA0EB0900404522D8B8F1000F1FD08B
:103DC0002B681A6812F0040FE5D0DA6912F4006F5C
:103DD000E1D04FF400621A622A68136823F4D073AA
:103DE00013602A68936823F0010393602023AB6774
:103DF000EB67C5F88030002385F87430032012E0AB
:103E00002A68136823F4D07313602A68936823F038
:103E1000010393602023AB67EB67002385F87430C0
:103E2000032000E00020BDE8F8832DE9F04182B0D6
:103E30001E46836F202B5AD104460D469046B2FA97
:103E400082F35B09002908BF0123002B53D190F8AE
:103E50007430012B51D0012380F874300023C0F856
:103E6000803021238367FEF765FD0746A4F8508064
:103E7000A4F85280A368B3F5805F05D04FF0000826
:103E8000002384F8743014E0236913B14FF0000864
:103E9000F6E7A8460025F3E738F8023B2268C3F3AB
:103EA00008039362B4F8522092B2013A92B2A4F895
:103EB0005220B4F852309BB273B100963B460022B8
:103EC00080212046FFF75FFFC8B9002DE4D015F828
:103ED000012B23689A62E5E700963B4600224021C9
:103EE0002046FFF750FF60B92023A36700E00220BF
:103EF00002B0BDE8F0810120FAE70220F8E70320D4
:103F0000F6E70320F4E710B582B004460023C0F8BA
:103F10008030FEF70FFD23681B6813F0080F08D1EF
:103F20002023A367E3670020206684F8740002B0B2
:103F300010BD6FF07E430093034600224FF4001142
:103F40002046FFF720FF0028EAD00320EFE768B300
:103F500010B50446836F03B32423A3672268136854
:103F600023F0010313602046FFF710FD012813D052
:103F7000636ABBB92268536823F490435360226894
:103F8000936823F02A0393602268136843F00103C7
:103F900013602046FFF7B7FF10BD80F87430FEF7BE
:103FA000D5FAD9E72046FFF789FEE3E701207047FD
:103FB00000230F2B00F2E380F0B583B039E0092233
:103FC00000E00022B2403A4302346D4E46F824200D
:103FD0006C4A1468EA4324EA05064F6817F4803FE8
:103FE00001D045EA0406674C2660646802EA0406CC
:103FF0004F6817F4003F01D045EA0406614C666043
:10400000A46802EA04064F6817F4801F01D045EA4D
:1040100004065C4CA660E46822404E6816F4001F5B
:1040200001D045EA0402574CE26001330F2B00F245
:10403000A48001229A400C6804EA020532EA0404D2
:10404000F3D14C68661E112C18BF012E01D9122C19
:1040500012D186685F000324BC4026EA0406CC68BF
:10406000BC4034438460466826EA02064C68C4F3C8
:1040700000129A4032434260C7685E000324B44095
:10408000E24327EA04078C68B4403C43C4604C68B0
:10409000122C18BF022C13D1DF08083750F827E084
:1040A00003F007044FEA840C0F2404FA0CF42EEA00
:1040B000040E0C6904FA0CF444EA0E0440F827409C
:1040C000046814404A6802F00302B24022430260CE
:1040D0004A6812F0805FA8D02B4A546C44F48044A4
:1040E0005464526C02F480420192019A9C08A61C0E
:1040F000234A52F8267003F0030296000F22B240C2
:1041000027EA0207214A90423FF45BAF02F5806242
:10411000904222D002F58062904220D002F5806267
:1041200090421ED002F5806290421CD002F580625F
:1041300090421AD002F58062904218D002F5806257
:10414000904216D002F58062904214D002F580624F
:1041500090423FF434AF0A2234E7012232E70222D0
:1041600030E703222EE704222CE705222AE7062265
:1041700028E7072226E7082224E703B0F0BD7047AE
:1041800000380140003C014000380240000002407D
:104190000AB181617047090481617047436901EA8E
:1041A000030221EA030141EA0241816170470000F4
:1041B000034AD2F8883043F47003C2F8883070475D
:1041C00000ED00E01AB9084206D11046704731EA06
:1041D000000303D000207047012070470120704782
:1041E00038B5202002F0F0FE044628B1002540F842
:1041F000045B00F032F92577204638BD2DE9F04701
:10420000DDF820A088B10D4617469846064611F005
:104210007F4915D04FF0500372B683F31188BFF376
:104220006F8FBFF34F8F62B6FEE74FF0500372B649
:1042300083F31188BFF36F8FBFF34F8F62B6FEE732
:1042400051B94FF0500372B683F31188BFF36F8FEB
:10425000BFF34F8F62B6FEE702F00EF868B9BAF10D
:10426000000F0AD04FF0500372B683F31188BFF3EA
:104270006F8FBFF34F8F62B6FEE701F029FB346802
:10428000424629462046FFF79DFFE0B117B124EAD8
:104290000503336001F0F4FBB9F1000F10D038B919
:1042A0001C4B4FF080521A60BFF34F8FBFF36F8FDC
:1042B00002F006F9044610F0007F1BD024F07F4482
:1042C0002046BDE8F087BAF1000F11D06FB949461A
:1042D000B8F1000F01D041F0806152462943301DF2
:1042E00001F02CFD4C46D146D4E74FF08071EFE74A
:1042F000D146CFE703F01EF83468424629462046EF
:10430000FFF760FF18B117B124EA0505356003F027
:1043100037F8D3E704ED00E080B170B50C460646EF
:1043200011F07F4F15D04FF0500372B683F3118810
:10433000BFF36F8FBFF34F8F62B6FEE74FF05003AE
:1043400072B683F31188BFF36F8FBFF34F8F62B6DE
:10435000FEE702F0EFFF356825EA0404346003F05D
:104360000FF8284670BDF8B578B10D46044611F037
:104370007F4615D04FF0500372B683F31188BFF318
:104380006F8FBFF34F8F62B6FEE74FF0500372B6E8
:1043900083F31188BFF36F8FBFF34F8F62B6FEE7D1
:1043A00000F10C0701F094FA206923682B43236085
:1043B0000AE0216833EA010105D111E0216841F0EA
:1043C000007101F09FFD2846B8420ED04568026892
:1043D00022F07F4312F0806FEBD121681942F2D0B6
:1043E00012F0807FEAD01E43E8E7236823EA060341
:1043F000236001F045FB2068F8BD78B110B5044694
:1044000001F066FA6368FBB1206904F10C0398427D
:104410000FD04FF0007101F075FDF3E74FF050033E
:1044200072B683F31188BFF36F8FBFF34F8F62B6FD
:10443000FEE74FF0500372B683F31188BFF36F8F1E
:10444000BFF34F8F62B6FEE7237F13B101F018FB75
:1044500010BD204602F03AFEF8E700F10803436081
:104460004FF0FF328260C360036100230360704736
:1044700000230361704743684B609A688A6051600B
:1044800099600861036801330360704730B40D68B8
:10449000B5F1FF3F11D000F108031C465B681A68B4
:1044A000AA42FAD963684B6099608C6061600861C8
:1044B00003680133036030BC70470469F2E70369A5
:1044C000416882688A60416851605A68824206D0B9
:1044D000002202611A68013A1A60186870478268FF
:1044E0005A60F5E70346406A18B11B6B1868C0F1C3
:1044F0003800704710B5044602F01CFFA26BE36B56
:104500009A4204D0002402F03BFF204610BD012453
:10451000F9E710B5044602F00DFFA36B23B901249F
:1045200002F02EFF204610BD0024F9E770B50446C6
:104530001546866B026C5AB903681BB10020013620
:10454000A66370BD806801F0FFFE0023A360F6E75C
:104550006DB940680DF08AFB226C63681344636098
:10456000A268934219D3236863602846E7E7C068CE
:104570000DF07CFB226C5142E3689B1AE3602268D9
:10458000934202D2A3680B44E360022D01D00020C5
:10459000D5E726B1013E0020D1E72846CFE700202D
:1045A000CDE70346026C6AB110B50846D9681144DC
:1045B000D9609C68A14201D31968D960D9680DF00F
:1045C00055FB10BD704738B5054602F0B3FE95F8AF
:1045D000454064B203E001F07FFD013C64B2002C71
:1045E00008DD6B6A33B105F1240001F00FFC0028EF
:1045F000F3D0F0E7FF2385F8453002F0C1FE02F06A
:1046000099FE95F8444064B203E001F065FD013C79
:1046100064B2002C08DD2B6933B105F1100001F004
:10462000F5FB0028F3D0F0E7FF2385F8443002F0D3
:10463000A7FE38BD38B5A0B10D460446C16B29B1FF
:10464000036C0022A1FB0313B3B9BAB14FF05003BE
:1046500072B683F31188BFF36F8FBFF34F8F62B6CB
:10466000FEE74FF0500372B683F31188BFF36F8FEC
:10467000BFF34F8F62B6FEE70122E6E702F05AFE73
:104680002168E26B236C03FB0210A0600020A06392
:104690006160013A02FB0313E360FF2384F84430B6
:1046A00084F84530A5B923691BB902F069FE0120E1
:1046B00038BD04F1100001F0A9FB0028F5D0094B2A
:1046C0004FF080521A60BFF34F8FBFF36F8FECE74C
:1046D00004F11000FFF7C1FE04F12400FFF7BDFE56
:1046E000E3E700BF04ED00E038B51D46049C0B462F
:1046F00049B92460E063236401212046FFF79AFF53
:1047000084F84C5038BD2260F4E70BB310B584B088
:104710001C4640B30B1E18BF0123002A08BF01230B
:104720000BB3B1FA81F35B09002A18BF0123D3B19F
:1047300050230393039B502B20D04FF0500372B6AD
:1047400083F31188BFF36F8FBFF34F8F62B6FEE71D
:104750004FF0500372B683F31188BFF36F8FBFF32E
:104760004F8F62B6FEE74FF0500372B683F31188A5
:10477000BFF36F8FBFF34F8F62B6FEE7039B01233A
:1047800084F8463000949DF81830FFF7ADFF2046BE
:1047900004B010BDF0B583B060B10C4617460646B4
:1047A0000023A0FB041282B923B904FB06F010F128
:1047B000510F0CD94FF0500372B683F31188BFF339
:1047C0006F8FBFF34F8F62B6FEE70123ECE75030E7
:1047D00002F0FAFB054650B1002380F84630009005
:1047E0003B4600F1500221463046FFF77DFF284648
:1047F00003B0F0BD30B583B01346884234BF002209
:104800000122002808BF002252B94FF0500372B6AF
:1048100083F31188BFF36F8FBFF34F8F62B6FEE74C
:104820000C460222009200221146FFF76EFF03465B
:1048300000B18463184603B030BD884234BF002302
:104840000123002808BF002353B94FF0500372B66C
:1048500083F31188BFF36F8FBFF34F8F62B6FEE70C
:1048600010B50C4602220021FFF794FF034600B169
:104870008463184610BD0000F0B585B0019298B170
:104880000E461D460446D1B1022D26D1E36B012B05
:1048900023D04FF0500372B683F31188BFF36F8FAC
:1048A000BFF34F8F62B6FEE74FF0500372B683F34B
:1048B0001188BFF36F8FBFF34F8F62B6FEE7036CB3
:1048C000002BE1D04FF0500372B683F31188BFF391
:1048D0006F8FBFF34F8F62B6FEE701F0CDFC074646
:1048E00068B9019B002B46D04FF0500372B683F39A
:1048F0001188BFF36F8FBFF34F8F62B6FEE70027BB
:1049000039E02A4631462046FFF710FE626A6AB94E
:1049100038B13C4B4FF080521A60BFF34F8FBFF35A
:104920006F8F02F02DFD012005B0F0BD04F12400D1
:1049300001F06CFA0028F4D0324B4FF080521A602C
:10494000BFF34F8FBFF36F8FEBE702F019FD00202D
:10495000EAE702A801F06CFB012719E0002384F8C4
:10496000443021E0002384F8453023E02046FFF75F
:104970002AFE01F085F802F0DDFCA26BE36B9A429F
:10498000BFD3022DBDD0019B002BDED0002FE0D085
:1049900002F0F6FC00F09CFF02F0CCFC94F84430EE
:1049A0005BB2B3F1FF3FD9D094F845305BB2B3F1BD
:1049B000FF3FD7D002F0E4FC01A902A801F044FBBC
:1049C000C8B92046FFF796FD0028CFD0019904F121
:1049D000100001F099F92046FFF7F5FD01F050F8BD
:1049E0000028C8D1074B4FF080521A60BFF34F8F99
:1049F000BFF36F8FBFE72046FFF7E5FD01F040F8FA
:104A0000002091E704ED00E0F0B585B00192A0B17F
:104A10000E460446E1B101F02FFC074630BB019B76
:104A2000002B62D04FF0500372B683F31188BFF3AE
:104A30006F8FBFF34F8F62B6FEE74FF0500372B631
:104A400083F31188BFF36F8FBFF34F8F62B6FEE71A
:104A5000036C002BDFD04FF0500372B683F3118844
:104A6000BFF36F8FBFF34F8F62B6FEE700273CE0C6
:104A700031462046FFF795FD013DA563236923B923
:104A800002F07EFC012005B0F0BD04F1100001F041
:104A9000BDF90028F4D0354B4FF080521A60BFF3B7
:104AA0004F8FBFF36F8FEBE702F06AFC0020EAE75D
:104AB00002A801F0BDFA012721E0002384F8443068
:104AC00029E0002384F845302BE02046FFF77BFDEA
:104AD00000F0D6FF09E02046FFF775FD00F0D0FF9B
:104AE0002046FFF716FD00283DD102F023FCA56B00
:104AF000002DBDD1019B002BD6D0002FD8D002F0C5
:104B00003FFC00F0E5FE02F015FC94F844305BB287
:104B1000B3F1FF3FD1D094F845305BB2B3F1FF3F22
:104B2000CFD002F02DFC01A902A801F08DFA0028D7
:104B3000D1D12046FFF7EDFC0028C6D0019904F141
:104B4000240001F0E1F82046FFF73DFD00F098FF5A
:104B50000028CAD1054B4FF080521A60BFF34F8F27
:104B6000BFF36F8FC1E700208DE700BF04ED00E0C9
:104B700070B584B0019168B10446036CABB14FF0DD
:104B8000500372B683F31188BFF36F8FBFF34F8F5B
:104B900062B6FEE74FF0500372B683F31188BFF39D
:104BA0006F8FBFF34F8F62B6FEE701F065FB0646DD
:104BB00060B9019B6BB14FF0500372B683F311885B
:104BC000BFF36F8FBFF34F8F62B6FEE700252E460F
:104BD00055E0054653E0013BA36323683BB12369DD
:104BE0004BB902F0CDFB0125284604B070BD01F0A1
:104BF00073FCA060F3E704F1100001F007F900284E
:104C0000EFD0474B4FF080521A60BFF34F8FBFF386
:104C10006F8FE6E755B14FF0500372B683F31188FA
:104C2000BFF36F8FBFF34F8F62B6FEE702F0A8FBB2
:104C3000DAE702A801F0FCF901262AE0002384F853
:104C4000443032E0002384F8453034E002F072FB57
:104C5000A06801F021FB054602F092FB3BE02046F4
:104C6000FFF7B1FC00F00CFF09E02046FFF7ABFCBA
:104C700000F006FF2046FFF74CFC002840D102F070
:104C800059FBA36B002BA6D1019B002BC2D0002E99
:104C9000CFD002F075FB00F01BFE02F04BFB94F846
:104CA00044305BB2B3F1FF3FC8D094F845305BB2FB
:104CB000B3F1FF3FC6D002F063FB01A902A801F0E7
:104CC000C3F90028D1D12046FFF723FC0028C6D025
:104CD0002368002BBAD0019904F1240001F014F8E4
:104CE0002046FFF770FC00F0CBFE0028C7D10C4B2C
:104CF0004FF080521A60BFF34F8FBFF36F8FBEE744
:104D00000DB9002570E702F015FB2046FFF7EAFB1E
:104D10000146A06801F072FB02F032FBF1E700BF30
:104D200004ED00E040B110B5044602F003FBA46BB3
:104D300002F026FB204610BD4FF0500372B683F3FD
:104D40001188BFF36F8FBFF34F8F62B6FEE700008D
:104D500028B110B4044699B100231A4614E04FF06C
:104D6000500372B683F31188BFF36F8FBFF34F8F79
:104D700062B6FEE70E4B03EBC2030BB119605C6039
:104D80005DF8044B70470132072AF6D8084800EB5B
:104D9000C2004068A042EDD0002BF4D1044850F886
:104DA00032000028EFD1024B03EBC203EBE700BF58
:104DB000D4AE0120014650B10023072B1AD80E4A69
:104DC00002EBC30252688A420CD00133F5E74FF080
:104DD000500372B683F31188BFF36F8FBFF34F8F09
:104DE00062B6FEE7044A002142F8331002EBC30327
:104DF00059607047704700BFD4AE012038B110B57C
:104E00000446FFF7D7FF94F846305BB110BD4FF072
:104E1000500372B683F31188BFF36F8FBFF34F8FC8
:104E200062B6FEE7204602F051F9EFE770B504469E
:104E30000D46164602F07EFA94F844305BB2B3F1A8
:104E4000FF3F0DD094F845305BB2B3F1FF3F0BD07C
:104E500002F096FAA36B5BB12046FFF7B4FB70BD7E
:104E6000002384F84430EDE7002384F84530EFE771
:104E70003246294604F1240000F09CFFECE78268EA
:104E8000436813440068181A824200D8801A704799
:104E9000F8B504460D4617461E46552128460CF027
:104EA0000DFF85420AD04FF0500372B683F311888C
:104EB000BFF36F8FBFF34F8F62B6FEE7242200214E
:104EC00020460CF0FBFEA561A760E6609DF8183057
:104ED0002377F8BD52B94FF0500372B683F31188AF
:104EE000BFF36F8FBFF34F8F62B6FEE72DE9F0413E
:104EF000054688461F4614468368DE1B964228BF37
:104F00001646BA1993420AD24FF0500372B683F391
:104F10001188BFF36F8FBFF34F8F62B6FEE78069D2
:104F2000324638440CF0A2FEB44213D9A21BAB683F
:104F30009A420AD94FF0500372B683F31188BFF337
:104F40006F8FBFF34F8F62B6FEE708EB0601A869CB
:104F50000CF08CFEE019AB68834200D8C01ABDE8A3
:104F6000F08170B582B004460E4601921A4643683D
:104F7000057F15F0010F0CD006998A4202D200225B
:104F800001920BE004220DEB0201FFF7A3FF0346A1
:104F900004E001998A4228BF0A460192019A12B997
:104FA000019802B070BD31462046FFF793FF606064
:104FB000F6E752B94FF0500372B683F31188BFF38E
:104FC0006F8FBFF34F8F62B6FEE72DE9F0410646C3
:104FD00088461F4614468368DD1B954228BF154648
:104FE000AA420AD24FF0500372B683F31188BFF37E
:104FF0006F8FBFF34F8F62B6FEE77A1993420AD2E2
:105000004FF0500372B683F31188BFF36F8FBFF375
:105010004F8F62B6FEE781692A46394440460CF05C
:1050200025FEAC4206D8E019B368834200D8C01A06
:10503000BDE8F081621BB16908EB05000CF016FEBB
:10504000F1E7F0B583B005460F4616461C460368E7
:10505000027F12F0010F06D1B44228BF344684B952
:10506000204603B0F0BD04220DEB0201FFF7A1FFC3
:105070000346019A043C964201D31646ECE700260B
:10508000EAE7224639462846FFF793FF2860E7E71C
:1050900030B585B0089C83B1054608461946BCB1B9
:1050A000A84220D94FF0500372B683F31188BFF3A2
:1050B0006F8FBFF34F8F62B6FEE74FF0500372B6AB
:1050C00083F31188BFF36F8FBFF34F8F62B6FEE794
:1050D0004FF0500372B683F31188BFF36F8FBFF3A5
:1050E0004F8F62B6FEE700B901206AB10323042D99
:1050F0000CD84FF0500372B683F31188BFF36F8F53
:10510000BFF34F8F62B6FEE70223F0E7242203923B
:10511000039A242A0AD04FF0500372B683F3118801
:10512000BFF36F8FBFF34F8F62B6FEE70093034666
:105130002A462046FFF7ACFE237F43F00203237785
:10514000204605B030BD024680B110B410689168A9
:1051500013680B4454681B1B14688442F6D1581E14
:10516000814200D8401A5DF8044B70474FF050035D
:1051700072B683F31188BFF36F8FBFF34F8F62B6A0
:10518000FEE7E1B12DE9F04182B0044615461E4626
:105190008846F8B1037F13F0010F26D0171D204673
:1051A000FFF7D1FF034600972A4641462046FFF706
:1051B000D8FE0746D8B9384602B0BDE8F0814FF0B6
:1051C000500372B683F31188BFF36F8FBFF34F8F15
:1051D00062B6FEE74FF0500372B683F31188BFF357
:1051E0006F8FBFF34F8F62B6FEE71746D7E72046B3
:1051F000FFF745FEE3689842DDD3EFF311884FF0E7
:10520000500372B683F31188BFF36F8FBFF34F8FD4
:1052100062B623694BB120690196002500952B46A3
:105220002A46294601F0F6FA256188F31188C2E77B
:1052300039B32DE9F04383B0044690461F468946B2
:1052400050B3037F13F0010F31D00426002F45D057
:1052500002F070F82046FFF712FE054686422BD377
:105260000021084601F066FC236913B34FF0500398
:1052700072B683F31188BFF36F8FBFF34F8F62B69F
:10528000FEE74FF0500372B683F31188BFF36F8FC0
:10529000BFF34F8F62B6FEE74FF0500372B683F351
:1052A0001188BFF36F8FBFF34F8F62B6FEE7002602
:1052B000CCE700F0DBFF206102F062F8AE4211D3D0
:1052C000009700231A461946184601F06BF900238F
:1052D00023612046FFF7D3FD054603E02046FFF794
:1052E000CEFD0546B54204D80026304603B0BDE8E1
:1052F000F0832B46424649462046FFF7A2FE06466B
:105300000028F2D000F0E4FA636943B16069002537
:1053100000952B462A46294601F0B0F9656100F058
:10532000AFFBE2E700230278A52A02D10130013366
:10533000F9E7C3F38F007047074B1B681B6823B95D
:10534000064B4FF0FF321A607047034B1B68DB6857
:105350001A68024B1A60704710840120BC88012033
:105360002DE9F04707468A4615469846089EDDF81F
:1053700024900A9C9200A521206B0CF09FFC236BCB
:105380006FF040422A4403EB820323F00705656473
:10539000BAF1000F1CD000230F2B09D81AF8031004
:1053A000E21882F834101AF803200AB10133F3E747
:1053B000002384F84330372E0ED94FF0500372B6D5
:1053C00083F31188BFF36F8FBFF34F8F62B6FEE791
:1053D000002384F83430EEE7E66226654FF0000AD9
:1053E000C4F854A0201DFFF743F804F11800FFF79C
:1053F0003FF82461C6F13806A6616462C4F858A07B
:10540000C4F85CA084F860A042463946284601F002
:1054100065FF2060B9F1000F01D0C9F80040BDE878
:10542000F087000038B50024372C08D804EB84023C
:1054300093000E481844FFF710F80134F4E70C4DC0
:105440002846FFF70AF80B4C2046FFF706F80A48F3
:10545000FFF703F80948FFF700F80948FEF7FDFFDA
:10546000084B1D60084B1C6038BD00BF188401202C
:1054700094880120A8880120C8880120F488012090
:10548000E0880120108401201484012010B5044616
:1054900001F050FF284A136801331360274B1B6843
:1054A0005BB1274B1B686BB9244B1B68DA6AE36A54
:1054B0009A4207D8214B1C6004E0204B1C60136803
:1054C000012B35D01F4A136801331360A364E36ACC
:1054D0001D4A1268934201D91B4A13601B4A03EB11
:1054E000830302EB83035B68A3609868E060211D7F
:1054F00041609960E36A03EB8301880002EB81015C
:10550000616111580131115001F03AFF0C4B1B68D9
:105510006BB10A4B1B68DA6AE36A9A4207D20C4BFA
:105520004FF080521A60BFF34F8FBFF36F8F10BDE3
:10553000FFF778FFC6E700BF808801200C840120B8
:10554000DC8801208C8801209088012018840120AB
:1055500004ED00E010B5044690F8613073B1012B02
:1055600013D0022B10D04FF0500372B683F3118882
:10557000BFF36F8FBFF34F8F62B6FEE7006B01F092
:10558000A5FD204601F0A2FD10BD01F09FFDFBE747
:105590000F4B1B68D3B110B501F0CCFE0D4BDB688F
:1055A000DC68201DFEF78BFF0B4A1368013B13607C
:1055B000074A1368013B136001F0E2FE2046FFF743
:1055C000C9FF034B1B68002BE6D110BD704700BF1D
:1055D00084880120F48801208088012008B5FFF725
:1055E000D7FF064B1B68012BF9D9054B4FF08052B2
:1055F0001A60BFF34F8FBFF36F8FF0E7188401205D
:1056000004ED00E070B504460D46204B1E68204BAB
:1056100018680430FEF753FFB4F1FF3F14BF0023B6
:105620000123002D08BF00239BB11A4A5168184B73
:105630001868816018688C68C460186804306060FD
:105640001868043088601B685A611368013313605E
:1056500070BD34440E4B1B685C60A64207D90E4BEC
:1056600018680B4B19680431FEF710FFF0E70B4B7D
:105670001868074B19680431FEF708FF084B1B68D0
:10568000A342E5D9064B1C60E2E700BF0889012070
:105690000C840120E0880120148401201084012062
:1056A000BC88012070B586B00B9D0C9C85B1D4B12F
:1056B00064260496049E642E20D04FF0500372B6E8
:1056C00083F31188BFF36F8FBFF34F8F62B6FEE78E
:1056D0004FF0500372B683F31188BFF36F8FBFF39F
:1056E0004F8F62B6FEE74FF0500372B683F3118816
:1056F000BFF36F8FBFF34F8F62B6FEE7049E256343
:10570000022584F8615000250395029405AD0195AA
:105710000A9D0095FFF724FE2046FFF7B7FE059887
:1057200006B070BD2DE9F04385B0074688461446A3
:105730001E46900001F048FC00B38146642001F051
:1057400043FC0546B0B1C0F83090E5B1002385F8C0
:105750006130039302950D9B01930C9B009333469C
:10576000224641463846FFF7FBFD2846FFF78EFEEE
:10577000012005E0484601F0A9FCE6E74FF0FF30C4
:1057800005B0BDE8F0834FF0FF30F9E7F8B5D0B1D0
:105790000546204B1B68834233D001F0CBFD6C697A
:1057A0001D4B1F681D4B1E6801F0EAFDB44218BF77
:1057B000BC4228D01A4B9C4210D01A4B9C4226D097
:1057C000ECB101201EE04FF0500372B683F3118854
:1057D000BFF36F8FBFF34F8F62B6FEE7AB6A4BB17B
:1057E00002200FE0EA1892F86020D2B2012A0CD011
:1057F000013300E00023002BF4DD032002E004204D
:1058000000E00020F8BD0220FCE70220FAE70420B7
:10581000F8E700BF0C8401201084012014840120CB
:10582000E0880120F488012010B588B00024059498
:10583000069407AA06A905A801F086FF059B029316
:10584000069B019300942346079A1B491B48FFF7C8
:1058500029FF58B101F036FB0346012B08D0B3F104
:10586000FF3F1ED0164B1B6808B010BD0023F4E7A5
:105870004FF0500372B683F31188BFF36F8FBFF3FD
:105880004F8F62B60F4B4FF0FF321A600E4B012262
:105890001A600E4B00221A60FCF77CFB01F0EEFD53
:1058A000E0E74FF0500372B683F31188BFF36F8FB8
:1058B000BFF34F8F62B6FEE7C0440108DD55000814
:1058C00030000020BC880120DC88012008890120EC
:1058D000024A136801331360704700BF88880120B3
:1058E000014B1868704700BF08890120014B1868F8
:1058F000704700BF8088012070B5564B1B68002B95
:1059000040F09F80544B1D6801351D60D5B9534B45
:105910001B681B6853B14FF0500372B683F31188B4
:10592000BFF36F8FBFF34F8F62B6FEE74B4A11682C
:105930004B4B1868106019604A4A136801331360B2
:10594000FFF7FAFC484B1B68AB4215D90024474BC4
:105950001B68DB6A03EB83039A00454B9B58012BC2
:1059600000D90124434B1B68002B67D0424B1B68B6
:10597000002B6DD001246BE0002434E03A4B4FF053
:10598000FF321A60E3E7384B1A60E0E7D9685160EC
:105990003FE000219962116801391160DA6A3749E4
:1059A00009688A4201D935490A60314902EB82020D
:1059B0009000084442689A609068D860466096609B
:1059C000DA6A02EB8206B0000E185E6108580130F8
:1059D00002EB820296008851DA6A244B1B68DB6A6C
:1059E0009A4200D301241D4B1B681B68002BC5D0B5
:1059F0001A4B1B68DB68DB685A689542C3D35A6947
:105A00009868D96881609868486051681E1DB142E5
:105A1000BCD0002159611168013911609A6A002ACD
:105A2000BCD0D869196A8160D8694860506803F1B0
:105A300018018842ADD1196A5160AAE7FCF7FEFA55
:105A400094E70C4A136801331360FCF7F7FA00245B
:105A5000204670BD8888012008890120108401201B
:105A600014840120C0880120BC8801200C840120FE
:105A700018840120C48801200C890120908801200D
:105A80004A4B1B6853B94FF0500372B683F3118829
:105A9000BFF36F8FBFF34F8F62B6FEE710B501F013
:105AA00049FC424B1A68013A1A601B68002B78D1F6
:105AB0003F4B1B683BB9002474E0196A516015E044
:105AC000D968516021E000233A4A1268002A47D081
:105AD000384BDB68DB689A6AD869196A8160D869D3
